:400000000080002011000000F55D0000F55D000080B500AF024A034B1B68136005F0F4FEBC760040FA46004010B5054C237833B9044B13B10448AFF300800123237010BD7C
:400040004881FF1F00000000BC6F0000084B10B51BB108490848AFF300800848036803B910BD074B002BFBD0BDE81040184700BF000000004C81FF1FBC6F0000C880FF1FAC
:400080000000000080B500AF05F0CCF84FF4165004F09CFE04F00AFE00BF80BD80B500AF002247F27521642004F0E0F9034B01221A7006F073FB00BF80BD00BFE49BFF1F97
:4000C00080B500AF002247F27521642004F0CEF9034B01221A7006F04FFC00BF80BD00BFE59BFF1F80B58CB00AAF174806F0DAFB164806F0C5FC00F0F1FC00F021FEBB1D2A
:40010000184601F01BFABB1D089303230793002306930023059300230493802303930C2302930B4B0193022300930023094A0A490A4803F00BF8BB1D184601F03DFC0023C4
:4001400018460837BD4680BD9D000000C10000002482FF1F61010000C06F00006481FF1F80B586B002AF786000F0D8FC00F0DCFC07F10E03184602F077FD00F017F800F0B0
:4001800041FAFFF77FFF012000F0EEFC012000F033FD07F10E03019300230093642300220021002004F0D4F9F0E700BF80B58CB00AAFBB1D08930323079300230693002384
:4001C0000593002304934FF48073039319230293384B0193032300930023374A3749384802F0B4FFBB1D0893032307930023069300230593002304934FF48073039319238B
:400200000293304B01930423009300232E4A2F492F4802F09BFFBB1D0893032307930023069300230593002304934FF48073039319230293274B0193032300930023264AF7
:400240002649274802F082FFBB1D0893032307930023069300230593002304934FF480730393192302931F4B01930423009300231D4A1E491E4802F069FFBB1D089303232A
:4002800007930023069300230593002304934FF48073039319230293164B0193032300930023154A1549164802F050FF00BF0837BD4680BDE484FF1F11060000C06F00009F
:4002C0002484FF1FA489FF1F05030000C86F0000E488FF1F648EFF1F9D030000D46F0000A48DFF1F2493FF1F81040000E06F00006492FF1FE497FF1F1D050000EC6F00000F
:400300002497FF1F80B586B002AF786007F10C030193102300934FF4FA7300220021002004F016F91C4B1B8801339AB21A4B1A80194B1B88312B02D80023FB7318E0164BC9
:400340001B88312B06D9144B1B885E2B02D80123FB730DE0104B1B885E2B06D90E4B1B88632B02D80223FB7302E00B4B00221A80FB7B012B07D0022B09D0002B0BD10120C3
:4003800000F022FB07E0012000F04CFB03E0012000F076FB00BFB9E7E69BFF1F80B586B002AF786007F10C030193102300934FF4FA7300220021002004F0CAF82B4B1B8857
:4003C00001339AB2294B1A80284B1B88312B02D80023FB7318E0254B1B88312B06D9234B1B885E2B02D80123FB730DE01F4B1B885E2B06D91D4B1B88632B02D80223FB73DE
:4004000002E01A4B00221A80FB7B012B07D0022B09D0002B0BD1012000F0D6FA07E0012000F000FB03E0012000F02AFB00BFFB7B012B16D10E4B1B78002B12D00B4B1B880C
:40044000502B0ED90B4B5F221A80084B5F221A80094B2D221A80094B2D221A80012000F00FFB034B00221A709CE700BFE89BFF1FE49BFF1FE69BFF1FCC80FF1FCE80FF1FB7
:4004800080B586B002AF78600223FB7307F10C030193102300934FF4FA7300220021002004F056F81C4B1B8801339AB21A4B1A80194B1B88312B02D80023FB7318E0164B4F
:4004C0001B88312B06D9144B1B885E2B02D80123FB730DE0104B1B885E2B06D90E4B1B88632B02D80223FB7302E00B4B00221A80FB7B012B07D0022B09D0002B0BD1022041
:4005000000F062FA07E0022000F08CFA03E0022000F0B6FA00BFB9E7CC80FF1F80B586B002AF78600223FB7307F10C030193102300934FF4FA7300220021002004F008F893
:400540002B4B1B8801339AB2294B1A80284B1B88312B02D80023FB7318E0254B1B88312B06D9234B1B885E2B02D80123FB730DE01F4B1B885E2B06D91D4B1B88632B02D8D6
:400580000223FB7302E01A4B00221A80FB7B012B07D0022B09D0002B0BD1022000F014FA07E0022000F03EFA03E0022000F068FA00BFFB7B012B16D10E4B1B78002B12D036
:4005C0000B4B1B88502B0ED90B4B2D221A800B4B2D221A800A4B5F221A80054B5F221A80022000F04DFA034B00221A709CE700BFCE80FF1FE59BFF1FE69BFF1FE89BFF1F68
:40060000CC80FF1F80B400AF00BFBD4680BC704780B58EB004AF786005F004FD0021002005F012FDAE4805F047FD0021012005F00BFDAB4805F040FDAA4805F03DFD0023A8
:4006400087F82730002387F82630002387F82330002387F82530002387F82230002387F8243097F8272097F826309A4211D00021002005F0E9FC9A4805F01EFD002101200F
:4006800005F0E2FC964805F017FD97F8273087F8263097F82730022B76D0032B00F0DE80012B40F03D8107F108038F49184600F06FFC07F11A03184601F0BEF90346FB6182
:4006C000FB698A4AA2FB03239B09DBB23033DBB2FB74FA69854BA3FB02139B094FF47A7101FB03F3D31A824AA2FB03235B09DBB23033DBB27B75FA697D4BA3FB02135B0936
:40070000642101FB03F3D31A7A4AA2FB0323DB08DBB23033DBB2BB75F969764BA3FB0123DA0813469B0013445B00CA1AD3B23033DBB2FB750021002005F086FC07F108034D
:40074000184605F0B9FC07F108036B49184600F01FFC6A4B1B68FB6107F108030C330293012301930023009300230A220421F86900F068FC0021012005F066FC07F10803B3
:40078000184605F099FCDAE007F108035C49184600F0FEFB5B4B1B88FB61FB69554AA2FB0323DB08DBB23033DBB2BB74F969514BA3FB0123DA0813469B0013445B00CA1A82
:4007C000D3B23033DBB2FB740021002005F03CFC07F10803184605F06FFC07F108034A49184600F0D5FB00F0B5F9F861FB69474AA2FB03239B0CFB61FB693D4AA2FB0323D2
:400800005B09DBB23033DBB2BB74FA69384BA3FB02135B09642101FB03F3D31A354AA2FB0323DB08DBB23033DBB2FB74F969314BA3FB0123DA0813469B0013445B00CA1A2A
:40084000D3B23033DBB23B750021012005F0FCFB07F10803184605F02FFC70E007F108032B49184600F094FB2A4B1B68FB6107F10803083302930123019300230093002348
:400880000A220821F86900F0DDFB0021002005F0DBFB07F10803184605F00EFC07F108031D49184600F074FB1C4B1B68FB6107F1080308330293012301930023009300237E
:4008C0000A220821F86900F0BDFB0021012005F0BBFB07F10803184605F0EEFB2FE000BFF86F00000C70000020700000D34D62101F85EB51CDCCCCCC34700000187300005B
:400900004870000088A4FF1F5C70000083DE1B437070000034A6FF1F8470000084A4FF1F0021002005F090FB254805F0C5FB0021012005F089FB234805F0BEFB00BF022080
:4009400000F0A4F9034687F82330032000F09EF9034687F8223097F82330012B0BD197F82530002B07D197F827300133DBB203F0030387F8273097F82230012B0BD197F84C
:400980002430002B07D197F82730013BDBB203F0030387F8273007F11A03019300230093642300220021002003F0D2FD97F8233087F8253097F8223087F8243051E600BFF7
:4009C00098700000AC70000080B582B000AF0346FB71FB79012B0ED1002005F0C1FE002005F00AFF012005F025FF012005F0E6FE002005F03DFFFB79022B0ED1002005F07D
:400A00009FFF002005F0E6FF012006F001F8012005F0C2FF002006F019F800BF0837BD4680BD00BF80B582B000AF0346FB71FB79012B0ED1012005F093FE002005F0DCFE33
:400A4000002005F0F7FE002005F0B8FE012005F00FFFFB79022B0ED1012005F071FF002005F0B8FF002005F0D3FF002005F094FF012005F0EBFF00BF0837BD4680BD00BF1F
:400A800080B582B000AF0346FB71FB79012B0ED1002005F065FE012005F0AEFE002005F0C9FE002005F08AFE012005F0E1FEFB79022B0ED1002005F043FF012005F08AFFCE
:400AC000002005F0A5FF002005F066FF012005F0BDFF00BF0837BD4680BD00BF80B483B000AF0B4B1B687B607B6823F000537B607B683B603B683833064A1A603B683C339E
:400B0000054A1A6000BF0C37BD4680BC704700BF08ED00E06F6B0000AD6E000080B400AF00BFBD4680BC704780B582B000AF00F011F87860064B1B687A68B2FBF3F33B6008
:400B4000386806F0D1F900BF0837BD4680BD00BF1873000080B400AF024B1846BD4680BC704700BF0087930380B582B000AF0346FB71FB79042B37D801A252F823F000BFF1
:400B8000950B0000B10B0000B10B0000B10B0000CD0B000005F0F6F90346DAB2154B1A70144B1B7823F00303184605F0DBF91CE005F0E8F90346DAB20E4B1A700D4B1B783F
:400BC00023F00103184605F0CDF90EE005F0DAF90346DAB2074B1A70064B1B7823F00203184605F0BFF900E000BF00BF0837BD4680BD00BF00A3FF1F80B582B000AF03469B
:400C0000FB71FB79042B3AD801A252F823F000BF250C0000430C0000430C0000430C0000610C000005F0AEF90346DAB2164B1A70154B1B7883F00303DBB2184605F092F916
:400C40001EE005F09FF90346DAB20F4B1A700E4B1B7883F00103DBB2184605F083F90FE005F090F90346DAB2074B1A70064B1B7883F00203DBB2184605F074F900E000BF0B
:400C800000BF0837BD4680BD00A3FF1F80B584B000AF0346FB710023FB73FB79022B02D0032B0ED01BE005F021FD0346BB73BB7B03F00103002B01D1012300E00023FB7314
:400CC0000DE005F023FD0346BB73BB7B03F00103002B01D1012300E00023FB7300BFFB7B18461037BD4680BD80B582B000AFFFF731FF7860094A094B1B6843F080731360CB
:400D0000074A074B1B6843F001031360786800F035F800BF0837BD4680BD00BFFCED00E0001000E080B483B000AF044B1B687B607B6818460C37BD4680BC7047041000E0FF
:400D400080B500AF00F02EF800F026F800BF80BD80B582B000AF00237B6005F0EDF878601021054800F040F8786805F0E9F800BF0837BD4680BD00BF08A3FF1F80B483B020
:400D800000AF7860034A7B68136000BF0C37BD4680BC704704A3FF1F80B500AFFFF7D8FF00BF80BD80B500AF034B00221A60FFF79BFF00BF80BD00BF04A3FF1F80B485B058
:400DC00000AF0346FB71FB791F2B04D9FB797E2B01D8012300E00023FB73FB7B18461437BD4680BC704700BF80B582B000AF786039603A680021786800F004F800BF083781
:400E0000BD4680BD80B48BB000AFF8600B467A60FB7200233B6200237B6109E03B6A1B023B62FB7A3A6A13433B627B6901337B617B69032BF2D97B687B62FB6803F0030364
:400E40003B61FB68BB613B69002B13D03B697B610AE0BB695A1CBA61FA7A1A707B6A013B7B627B6901337B617B6A002B02D07B69032BEED9BB69FB6107E0FB691A1DFA617E
:400E80003A6A1A607B6A043B7B627B6A032BF4D8FB69BB6107E0BB695A1CBA61FA7A1A707B6A013B7B627B6A002BF4D100BF2C37BD4680BC704700BF80B48FB000AFF860F6
:400EC000B9607A607B687B63FB68BB62BB687B627A6ABB6AD31AFB61FB69032B4FD9BB6A03F00303BB617B6A03F003037B61BA697B699A4201D1012300E00023FB74FB7CFC
:400F0000012B3CD1BB69002B16D0BB693B620DE0BB6A5A1CBA627A6A511C796212781A707B6B013B7B633B6A01333B627B6B002B02D03B6A032BEBD9BB6A3B637B6AFB62A9
:400F40000AE03B6B1A1D3A63FA6A111DF96212681A607B6B043B7B637B6B032BF1D83B6BBB62FB6A7B620AE0BB6A5A1CBA627A6A511C796212781A707B6B013B7B637B6B80
:400F8000002BF1D100BF3C37BD4680BC704700BF80B584B000AF786039604FF0FF323968786800F007F8F860FB6818461037BD4680BD00BF80B489B000AFF860B9607A602E
:400FC000FB68002B01D1002336E0BB68002B01D1002331E0FB68FB61BB68BB6100237B610CE0BB691A78FB691A70FB690133FB61BB690133BB617B6901337B61FB69002B8C
:401000000AD0BB69002B07D0BB691B78002B03D07A697B689A42E4D3FB69002B02D0BB69002B01D1002307E07A697B689A4202D2FB6900221A70FB6818462437BD4680BC35
:40104000704700BF80B588B004AF7860084611461A460346FB700B46BB7013467B70BA78F9783B6A03933B7F02933B7E01937B7800930023786800F007F8F860FB6818467E
:401080001037BD4680BD00BF80B58AB000AF7860084611461A460346FB700B46BB7013467B70FB6B002B01D1002322E10023BB74FB78002B01D10123BB74BB78012B02D9A3
:4010C000BB78242B01D90123BB7497F83030002B3CD097F830301846FFF770FE03463B743B7C012B02D00123BB742FE097F83030302B2BD097F83030303BFB7397F834305B
:40110000012B04D097F83030413B3B7503E097F83030613B3B75BB780A2B03D8FA7BBB789A420AD3BB780A2B09D9FB7B092B04D93A7DBB780A3B9A4201D2012300E00023FC
:40114000BB73BB7B012B01D10123BB74FB6B7B62BB7C002B4CD17B68FB617B68BB610123FB7507E0FB7D0133FB75BB78BA69B2FBF3F3BB61BA78BB699A42F3D97B78012B01
:4011800001D1012300E000237B73FA78F97D7B7B0B449A422ADB00237B74FA78FB7D934228BF13463B7397F83030002B09D0FB78BB75FA783B7BD31ADAB27B7BD31A7B7571
:4011C00005E03A7B7B7B1344BB7500237B757B7D002B08D097F83030302B01D1012300E00023FB7404E00023FB7401E00123BB74BB7C002B01D0FB78BB75BB7D7A6A134425
:401200007B6297F83830002B02D07B6A00221A707B6A013B7B6200233B6260E0BB7C002B55D1FB69002B02D13B6A002B2BD1BA78FB69B3FBF2F102FB01F29B1AFB72FB7AEA
:40124000092B07D87B6A5A1E7A62FA7A3032D2B21A7012E097F83430012B07D07B6A5A1E7A62FA7A3732D2B21A7006E07B6A5A1E7A62FA7A5732D2B21A70BB78FA69B2FBC5
:40128000F3F3FB6128E07B78012B15D1FB7C002B02D17B7C002B07D0FB7C002B0CD0BB7D5A1E3B6A9A4207D17B6A5A1E7A622D221A7001237B740FE097F83030002B0BD0E1
:4012C0007B6A5A1E7A6297F830201A7004E07B6A5A1E7A623F221A703B6A01333B62BA7D3B6A9A429AD8BB7C002B01D0002300E0FB6B18462837BD4680BD00BF80B485B0E3
:4013000000AF484BFB60484BBB60484BFB60484BFB60484BBB60484BFB60484B7B60484BFB60484BFB60484BFB60484BFB60484B7B60484B7B60484BFB60484B7B60484BF9
:40134000FB60484B7B60484BFB60484B7B60484B7B60484B7B60484B7B60484BFB60484BFB60484BFB60484B7B60484BFB60484BFB60484B7B60484B7B60484B7B60484B0D
:401380007B60484B7B60484B7B60484B7B60484BFB60484BFB60484BFB60484BFB60484B7B60484B7B60484B7B60484BFB60484BFB60484BFB60484B7B60484B7B60484BCD
:4013C0007B60484BBB60484B7B60484BFB60484BFB60484BFB60484BFB60484BFB60484BFB60484BFB60484B7B60484BFB60484BFB60484B7B60484B7B60484BFB60484BCD
:40140000FB60484B7B60484BFB60484BFB60484B7B60484B7B60484B7B6000BF1437BD4680BC7047C070000028720000C1700000C2700000C4700000C8700000CC700000E8
:40144000C9700000F4700000F5700000F6700000F8700000FA700000FE7000000071000020710000227100002471000026710000287100002A7100002C7100005871000069
:40148000597100005A7100005C7100005E7100005F71000060710000627100006471000066710000687100006A7100006C7100009C7100009D7100009E7100009F71000010
:4014C000A0710000A2710000A4710000CC710000CD710000CE710000CF710000D0710000D2710000D4710000D8710000D9710000DA710000DB710000DC710000DD7100002B
:40150000DE710000DF710000E0710000E2710000E3710000E4710000E6710000E8710000E9710000EC710000207200002172000022720000247200002672000080B584B008
:4015400000AF786005F056FB614B00221A70614B00221A70604B00221A70604B00221A605F4B00221A605F4B00221A705E4B00221A705E4B00221A705D4B00221A705D4B0E
:401580001B685D4AA2FB0323DB085C4A13605C4B1B68002B15D05B4B1B68FB60FB68002B0FD0574B1B68BB6008E0BB68013BBB60FB6800221A60FB680433FB60BB68002B33
:4015C000F3D1514B00221A60504B00221A60504B00221A604F4B00221A604F4B00221A604E4B00221A604E4B00221A604D4B00221A7001F00BF800F009FD786800F00AFFA4
:401600007B681B88002B4AD1786800F019FF7B681B88002B45D1786800F028FF7B681B88002B40D1786800F0DBFF7B681B88002B3BD1786801F074F87B681B88002B36D11A
:40164000786801F0FDF97B681B88002B31D1786802F06AF97B681B88002B2CD1786800F017FA7B681B88002B27D1786802F022FC7B681B88002B22D1786801F0FDFC7B6842
:401680001B88002B1DD1786803F09CF87B681B88002B18D1FFF732FE03F0D8FA14E000BF12E000BF10E000BF0EE000BF0CE000BF0AE000BF08E000BF06E000BF04E000BF7F
:4016C00002E000BF00E000BF1037BD4680BD00BF8AA4FF1F2DA3FF1F1CA3FF1F64A4FF1F70A4FF1F9CA3FF1F90A3FF1F6CA4FF1F28A7FF1F18730000CDCCCCCC28A6FF1F84
:40170000E8720000E472000098A3FF1F7CA4FF1F20A3FF1F2CA6FF1F48A6FF1F38A6FF1F80A4FF1F2CA3FF1F80B582B000AF00237B602C4B1B78012B50D104F0FDFB78602B
:40174000294B1B78002B03D1786804F0F9FB46E0254B1B78013BDAB2234B1A70224B1B78002B03D0786804F0EBFB38E01F4B1B78002B03D0786804F0E3FB30E000F05EFFD8
:4017800003461A461A4B1A70194B1B781946194A0B465B000B449B0013441B68164A1360154B1A68154B1B689A4203D1786804F0C7FB14E0104B1B68D3F890200132C3F84F
:4017C00090200F4B1B6801330D4A13600D4B4FF080521A60786804F0B3FB00E000BF0837BD4680BD2DA3FF1F8AA4FF1F1CA3FF1F90A3FF1F30A3FF1F70A4FF1F64A4FF1F2A
:4018000084A4FF1F04ED00E080B582B000AF00237B60204B1B78002B36D11F4B1B78002B34D104F089FB786000F008FF03461A461A4B1A70194B1B781946194A0B465B00DC
:401840000B449B0013441B68164A1360154B1A68154B1B689A4203D1786804F071FB16E0104B1B68D3F890200132C3F890200F4B1B6801330D4A13600D4B4FF080521A6071
:40188000786804F05DFB02E000BF00E000BF0837BD4680BD8AA4FF1F1CA3FF1F90A3FF1F30A3FF1F70A4FF1F64A4FF1F84A4FF1F04ED00E080B584B000AF78600023FB60F5
:4018C000164B1B78002B04D07B6846F662521A8020E0134B1B78012B04D07B6845F689621A8017E00F4B1B78F92B04D97B6845F209221A800EE004F01FFBF860094B1B78F5
:401900000133DAB2074B1A70F86804F019FB7B6800221A801037BD4680BD00BF8AA4FF1F2DA3FF1F1CA3FF1F80B584B000AF78600023FB601D4B1B78002B04D07B6846F620
:4019400065521A802EE01A4B1B78012B04D07B6845F689621A8025E0164B1B78002B04D17B6846F664521A801CE004F0E5FAF860104B1B78013BDAB20E4B1A700D4B1B785A
:40198000002B07D0F86804F0DBFA7B6846F663521A8007E0F86804F0D3FAFFF735FF7B6800221A801037BD4680BD00BF8AA4FF1F2DA3FF1F1CA3FF1F80B582B000AF786072
:4019C000174B1B78002B23D100F038FE03461A46144B1A70134B1A78134B1A70114B1B781946124A0B465B000B449B0013441B680F4A13600E4B1B680E4A1360084B012240
:401A00001A7005F09DF87B6843F699221A8003E07B6845F68A621A8000BF0837BD4680BD2DA3FF1F90A3FF1F9CA3FF1F30A3FF1F70A4FF1F64A4FF1F80B483B000AF786089
:401A40007B6800221A8047F25D6318460C37BD4680BC704780B584B000AF78600023FB6004F06AFAF860084B1B680133064A1360064B1B680133054A1360F86804F060FAD4
:401A800005F0AAF8ECE700BF40A6FF1F28A3FF1F80B58CB00AAF7860104B00221A60104B1B68104A126810490968786808900B2007900020069000200590002004900391AE
:401AC00002920193072300930023084A0849094801F03CFB00BF0837BD4680BD40A6FF1FB8720000BC720000C0720000551A00002C7200005CA5FF1F80B586B000AFF86058
:401B0000B9603B601346FB711B4B1B68FA7983F83420194B1B68002283F83520164B1B683968184600F038FCBB68002B11D0BB6808337B61FB68BA68DA600F4B1B680122F9
:401B4000F968184600F01AF8F968786900F0BEF807E0094B1B680022DA87074B1B6800221A63054B1B681946B86800F03BF800BF1837BD4680BD00BF64A4FF1F80B487B0F4
:401B800000AFF860B9601346FB80FB68FA88DA87FB68BA681A630023FB821AE0BB6800225A60BB6800221A60BB6800221A61BB6800225A61BB6800221A83BB680022DA616F
:401BC000BB68FA689A60BB682033BB60FB8A0133FB82FA8AFB889A42E0D300BF1C37BD4680BC704780B487B000AF786039607B68002B12D07B685A683B68C3F8BC207B68C4
:401C000008337B617B691B683B613B699B68FB60FB681A6A7B68DA6116E03B6893F83430022B02D0072B05D009E03B68094AC3F8BC2009E03B68084AC3F8BC2004E03B6883
:401C4000064AC3F8BC2000BF00BF1C37BD4680BC704700BF40720000487200005472000080B487B000AF786039603B680D4AC3F8BC207B6808337B617B691B683B613B6908
:401C8000002B07D03B699B68FB60FB681A6A7B68DA6102E07B68034ADA6100BF1C37BD4680BC70475472000080B483B000AF78607B6800221A607B6800225A607B680022CF
:401CC0001A8100BF0C37BD4680BC704780B489B000AF786039603B689B68BB61BB6993F83730FB757B681B89002B0FD17B6801221A813B6800225A603B6800221A607B68A8
:401D00003A681A607B683A685A604DE07B681B8901339AB27B681A817B681B68FB610BE0FB699B683B613B6993F83730FA7D9A4206D3FB695B68FB61FB69002BF0D100E071
:401D400000BFFB69002B0FD13B6800225A607B685B68FB603B68FA681A60FB683A685A607B683A685A601FE0FB691B68002B0CD1FB693A681A603B6800221A603B68FA6985
:401D80005A607B683A681A600EE0FB691B68FB603B68FA681A603B68FA695A60FB683A685A60FB693A681A6000BF2437BD4680BC704700BF80B586B000AF78607B681B6B92
:401DC0003B617B68DB8FFB820FE03B69DB68FB60FB680833BB603969B86800F013F83B6920333B61FB8A013BFB82FB8A002BECD17B680022DA877B6800221A6300BF1837A2
:401E0000BD4680BD80B485B000AF786039607B681B89012B06D17B6800221A607B6800225A6027E03B681B68002B09D13B685B68FB60FB6800221A607B68FA681A6019E067
:401E40003B685B68002B09D13B681B68BB60BB6800225A607B68BA685A600BE03B681B68BB603B685B68FB60BB68FA685A60FB68BA681A607B681B89013B9AB27B681A8140
:401E80003B6800225A603B6800221A6000BF1437BD4680BC704700BF80B586B002AFF860B9607A607B80BB6893F83630072B79D801A252F823F000BFA51F0000A51F000065
:401EC000D91E0000D91E0000A51F0000A51F00003F1F00003F1F0000BB6893F83430032B09D17A88BB69009313467A68B968F86800F05EF809E0BB687A68DA65BB687A8889
:401F0000A3F86020BB68BA691A64FB68002B06D0B868FFF74FFFB968F868FFF7A1FEB86800F062FABB68002283F83620BB68002283F83520BB68002283F8342033E0BB6803
:401F400093F83430032B09D17A88BB69009313467A68B968F86800F02BF809E0BB687A68DA65BB687A88A3F86020BB68BA691A64B86802F019F9FB68002B06D0B868FFF713
:401F800019FFB968F868FFF76BFEBB68042283F83620BB68002283F83520BB68002283F8342000E000BF00BF1037BD4680BD00BF80B487B000AFF860B9607A607B80BB68BF
:401FC0001B6B3B61BB68DB8FFB8217E03B69DA68FB689A420CD13B69FA681A613B697A685A613B697A881A833B693A6ADA6108E03B6920333B61FB8A013BFB82FB8A002BCB
:40200000E4D100BF1C37BD4680BC704780B483B000AF0023FB7113E0FA7913465B0013449B000B4A13443B603B6800221A813B6800221A603B6800225A60FB790133FB71B9
:40204000FB79072BE8D900BF0C37BD4680BC704730A3FF1F80B582B000AF78607B6893F83730184600F00EFB7B6893F83720074B1B789A4203D1786800F04AF802E07868C8
:4020800000F006F800BF0837BD4680BD9CA3FF1F80B485B000AF78607B6893F837301A4613465B0013449B00184A1344FB60FB681B89002B0FD1FB6801221A817B68002280
:4020C000DA607B6800221A61FB687A681A60FB687A685A6015E0FB681B8901339AB2FB681A81FB681A687B68DA607B6800221A61FB681B68BB60BB687A681A61FB687A68A6
:402100001A6000BF1437BD4680BC704730A3FF1F80B485B000AF78607B6893F837301A4613465B0013449B00184A1344FB60FB681B89002B0FD1FB6801221A817B6800221D
:40214000DA607B6800221A61FB687A681A60FB687A685A6014E0FB681B8901339AB2FB681A817B680022DA60FB685B68BB607B68BA681A61BB687A68DA60FB687A685A6030
:4021800000BF1437BD4680BC704700BF30A3FF1F80B487B000AF78607B681B89002B1CDB012B36DD022B18D17B681B687B617B685B683B617B693A691A617B690022DA60B9
:4021C0003B6900221A613B697A69DA607B683A691A607B687A695A601CE07B681B687B617B685B683B617B69DB68FB60FB6800221A617B690022DA607B693A691A613B6975
:402200007A69DA607B68FA681A607B687A695A6000E000BF00BF1C37BD4680BC704700BF80B586B000AF78607B6893F837301A4613465B0013449B00244A13447B617B688B
:402240001B693B617B68DB68FB603B69002B1FD1FB68002B0FD17B6900221A817B6900221A607B6900225A607B6893F83730184600F02EFA1FE07B691B89013B9AB27B6971
:402280001A81FB6800221A617B69FA681A6012E07B691B89013B9AB27B691A813B69FA68DA60FB68002B03D17B693A695A6002E0FB683A691A617B6800221A617B68002277
:4022C000DA6000BF1837BD4680BD00BF30A3FF1F80B584B000AF78600023FB602A4B1B78012B4CD103F028FEF8607B681B68BB60BB68002B03D1F86803F022FE40E0BB681D
:40230000224A934203D1F86803F01AFE38E0BB689B6D002B04D0BB689B6D5A1EBB689A65BB689B6D002B03D0F86803F009FE27E07B681B89012B03D8F86803F001FE1FE0AD
:40234000134B1B78002B03D0F86803F0F9FD17E07868FFF71DFF7B681B68BB60BB685B6D002B04D10B4B1A68BB689A6503E0BB685A6DBB689A65F86803F0E2FD00E000BF16
:402380001037BD4680BD00BF28A7FF1F5CA5FF1F1CA3FF1F28A6FF1F80B584B000AF786039603B68002B13D007F10E0302223968786801F001FEFB89002B04D17B6803229E
:4023C00083F8362008E07B68022283F8362003E07B68022283F836207868FFF721FF00BF1037BD4680BD00BF80B582B000AF7860786801F0D9FE7B6893F8363003F0040332
:40240000002B02D17868FFF725FE00BF0837BD4680BD00BF80B483B000AF7860064B00221A60064B00221A807B6800221A8000BF0C37BD4680BC704750A6FF1F4CA6FF1F05
:4024400080B483B000AF7860064B00221A60064B00221A807B6800221A8000BF0C37BD4680BC704724A6FF1F56A6FF1F80B487B000AF78602D4B1B68002B04D17B6845F2D4
:402480001E721A804EE02A4B1B88002B04D17B6845F21D721A8045E0244B1B687B61234B1B683B613B6910333B61214B1B88013BBB810023FB8114E07B693A691A607B6967
:4024C00000225A607B6900221A817B690022DA607B6910337B613B6910333B61FB890133FB81FA89BB899A42E6D37B6900221A607B6900225A607B6900221A817B69002222
:40250000DA600A4B1B680B4A1360094B1A88094B9A80084B0022DA80064B00221A817B6800221A801C37BD4680BC7047F8720000F072000050A5FF1F80B485B000AF7860C9
:402540007B685B89FB817B685B89002B26D07B681B68BB60144B1A68BB681A607B685B68114A1360104BDA887B685B89D31A9AB20D4BDA800C4B9A887B685B8913449AB26B
:40258000094B9A807B6800225A817B6800229A817B6800221A607B6800225A60FB8918461437BD4680BC704750A5FF1F80B483B000AF78600B467B807B687A881A817B689C
:4025C00000225A817B6800229A817B6800221A607B6800225A6000BF0C37BD4680BC704780B483B000AF7860064B00221A60064B00221A807B6800221A8000BF0C37BD46FC
:4026000080BC70472CA7FF1F58A6FF1F80B483B000AF00237B6007E0074A7B68002142F823107B6801337B607B68002BF4D000BF0C37BD4680BC704718A3FF1F80B582B0E1
:4026400000AF0023FB700E4B7B6005E0FB782033FB707B6804337B607B681B68002BF5D07B681B68184603F072FC0346DAB2FB781344FB70FB7818460837BD4680BD00BF4A
:4026800018A3FF1F80B487B000AF0346FB71FB795B09FB75FB7903F01F033B610123FB603B69C3F11F03FA6802FA03F3FB60FB7DFA7D064951F82210FA680A43034941F870
:4026C000232000BF1C37BD4680BC704718A3FF1F80B487B000AF0346FB71FB795B09FB75FB7903F01F033B610123FB603B69C3F11F03FA6802FA03F3FB60FB7DFA7D074993
:4027000051F82210FA68D2430A40044941F8232000BF1C37BD4680BC704700BF18A3FF1F80B483B000AF7860064B00221A60064B00221A807B6800221A8000BF0C37BD4668
:4027400080BC70471CA6FF1F68A4FF1F80B586B000AFF860B9607A603B6000237B611B4B1B78002B04D03B6842F6E1621A802AE0FB68002B04D13B6845F6C3521A8022E0B1
:4027800003F0DAFB7861FB68114A1A60FB687A681A62FB6800225A62FB68BA685A60FB6808331846FFF780FAF86800F023F9094B1B8801339AB2074B1A80786903F0C0FB35
:4027C0003B6800221A801837BD4680BD8AA4FF1F53454D4120A6FF1F80B58EB000AFF860B9603B601346FB8000237B63634B1B78002B05D03B6C46F2AE121A800023B8E05D
:40280000FB68002B05D13B6C45F6C3521A800023AFE0FB88002B08D0B3F5004F05D03B6C45F625621A800023A3E000BF3B68002B02D03B6800221A6003F07EFB7863FB68AE
:402840001B6A002B16D0FB681B6A5A1EFB681A623B68002B03D0FB685A6A3B681A60FB681B6A3B63786B03F06BFB3B6C00221A803B6B7EE0B7F90630002B0BDAFB681B6A97
:402880003B63786B03F05CFB3B6C46F2B0121A803B6B6EE03A4B1B78002B08D0786B03F04FFB3B6C46F663521A80002361E007F11000BB680622F968FFF71EF9786B03F0B6
:4028C0003FFBFEF7A1FF03F037FB78632D4B1B6893F83530032B3CD801A252F823F000BFF12800000929000039290000232900003B68002B04D0234B1B681A6C3B681A60EE
:402900003B6C00221A802DE03B68002B04D01D4B1B681A6C3B681A603B6C46F2A9121A8020E03B68002B02D03B6800221A603B6C47F2D9221A8015E03B68002B04D0114B7C
:402940001B681A6C3B681A603B6C45F6C2521A8008E03B6C46F62E621A80786B03F0F0FA002306E0FB681B6A3B63786B03F0E8FA3B6B18463837BD4680BD00BF8AA4FF1FE7
:402980001CA3FF1F64A4FF1F80B586B000AFF8600B467A607B81FB68002B05D17B6845F6C3521A80002321E07B89B3F5007F11D0B3F5007F02DC002B0CD005E0B3F5004F32
:4029C00008D0B3F5024F05D07B6845F625621A8000230BE000BFFEF7A5F9786179897B687A69F86800F042F838613B6918461837BD4680BD80B483B000AF78607B680E4A14
:402A0000DA617B6800225A610C4B1B68002B03D17B6800229A6107E0084B1A687B689A61064B1B687A685A61044A7B68136000BF0C37BD4680BC70476072000094A3FF1FF4
:402A400080B483B000AF7860064B00221A60064B00221A807B6800221A8000BF0C37BD4680BC704794A3FF1F20A6FF1F80B58EB002AFF8607A603B600B467B8100237B6260
:402A800003F05AFA7862FB6808333B623B6A1B89002B21D1FB681B6AB3F1FF3F08D1786A03F04EFA3B6846F6C5521A80002348E000BFFB681B6A5A1CFB681A62FB681B6AD5
:402AC0007B61FB687A685A62786A03F039FA3B6800221A807B6934E07B8903F40073002B03D03B6A1B89FB8501E00123FB853B6A1B68BB6212E0BB6A9B68FB61BB6A5B683D
:402B0000BB617B68009300230022F969F868FFF7C3F9BB69BB62FB8D013BFB85FB8D002BE9D1FB681B6A7B61786A03F009FAB7F90A30002B01DBFEF767FE3B6800221A8012
:402B40007B6918463037BD4680BD00BF80B586B000AF78600023FB6003F0EEF9F8603B4B00221A803A4B00221A603A4B00221A60394B00221A60394B00221A81F86803F0D3
:402B8000DFF903F0D9F9F860354B1B687B61F86803F0D6F930E003F0CFF9F8607B6900229A677B690022C3F8A8207B690022C3F890207B690022A3F88C207B690022A3F80D
:402BC0008E207B690022C3F89C207B690022C3F8A020FEF7A7F802467B69C3F898207B696433BB60BB6800229A817B69D3F8B8307B61F86803F0A4F97B69002BCBD103F0FF
:402C00009BF9F860174B1B683B61F86803F098F90EE003F091F9F8603B692033BB60BB6800229A813B699B693B61F86803F088F93B69002BEDD101F0FDFA01F017FF7B6897
:402C400000221A8000BF1837BD4680BD6AA4FF1F24A3FF1F20A7FF1F78A4FF1F50A5FF1F74A4FF1F1CA6FF1F80B586B000AF786000233B6107F10E031946324800F0CAFDA7
:402C8000FB89002B03D0FA897B681A8056E007F10E031A460021022001F0E8FBFB89002B03D0FA897B681A8048E003F045F93861254B00221A60386903F042F900237B618E
:402CC000224B1A68224B1B689A4206D91F4B1A681F4B1B68B2FBF3F37B617B69002B06D11A4B1B681B4AA2FB0323DB087B6107F10E031A460021786901F0B8FB07F10E0325
:402D00001946104800F0C8FBFB89002B03D0FA897B681A8012E003F00FF938610E4B00221A60094B1B680D4A13600D4B01221A70386903F005F97B6800221A801837BD4603
:402D400080BD00BF90A4FF1F28A3FF1F1873000000730000CDCCCCCC24A3FF1F30A6FF1F91A3FF1F80B590B000AF78600023BB6108E0844B1B685B0007F10A02002118466F
:402D800001F074FB804B1B78012BF2D107F10A031846FFF7DBFE0023FB617C4B1A68794B1B689A4206D9794B1A68764B1B68B2FBF3F3FB61FB69002B06D1744B1B68744A8B
:402DC000A2FB0323DB08FB61FDF7ACFF786103F0B3F8B8616F4B1B686F4A13606D4B00221A60B86903F0ACF86C4B1A686A4B1B689A424FD9694B1B68694A934205D842F2E8
:402E000010737B6201233B6224E0644B1B68654A934205D84FF47A737B620A233B6219E05E4B1B68604A934204D864237B6264233B620FE0594B1B685C4A934205D80A2360
:402E40007B624FF47A733B6204E001237B6242F210733B62514B1A683B6AB2FBF3F33B614D4B1B687A6A02FB03F23B69B2FBF3F39BB2C3F51C5310339AB24D4B1A804D4B88
:402E80001A884B4B1B889A4208D2494B1A88494B1A8003E0464B42F210721A8003F0DCFE0023BB6303F048F8B861434B1B68BB62B86903F045F81FE003F03EF8B861BB6A1A
:402EC000D3F89C20BB6AC3F8A020BB6A0022C3F89C20B86903F034F8BB6AD3F8A030BA6B1344BB6303F028F8B861BB6AD3F8B830BB62B86903F024F8BB6A002BDCD1BB6BDF
:402F0000002B31D0BB6B264A934205D842F210733B6301237B6321E0BB6B224A934205D84FF47A733B630A237B6317E0BB6B1E4A934204D864233B6364237B630EE0BB6BD4
:402F40001A4A934205D80A233B634FF47A737B6304E001233B6342F210737B63BA6B7B6BB2FBF3F3FB6203E000233B630123FB6202F0E2FFB861104B1B68BB62B86902F00D
:402F8000DFFF50E00073000091A3FF1F18730000CDCCCCCC28A3FF1F44A6FF1F30A6FF1F7F1A0600FF083D00FF596202FF83D71788A4FF1F6AA4FF1F74A4FF1FBB6AD3F8F2
:402FC000A0303A6B02FB03F2FB6AB2FBF3F3FB87FB8F42F21072934202D942F21073FB87BB6AFA8FA3F88C20BB6AB3F88E30FA8F9A4203D9BB6AFA8FA3F88E20BB6A03F1F3
:40300000B001BB6A03F1AC0207F10A03B86A00F089FB02F091FFB861BB6AD3F8B830BB62B86902F08DFFBB6A002BC7D1104B1B78012B07D10E4B00221A7007F10A0318460C
:40304000FFF784FDFDF76EFE02467B69D31AFB60084B1A68FB689A4202D2064AFB68136007F10A031A460021F86901F0FFF9ABE654A6FF1F24A3FF1F90B58DB00AAF786086
:40308000254B00221A60254B00221A60244B00221A60244B00221A70234B00221A70234B1B68002B04D17B6846F62B621A802FE01F4B1A681F4B1B689A4204D27B6846F6C8
:4030C0002C621A8024E01C4B1B78062B04D97B6846F62A621A801BE0174B1B78134A126816490968124800687C68089403240794002406940024059400240494039002915F
:403100000192009300230E4A0E490F4800F01EF80C37BD4690BD00BF28A3FF1F44A6FF1F30A6FF1F91A3FF1F54A6FF1F047300000C73000014730000FC7200000873000033
:40314000652D0000647200005CA6FF1F80B58CB002AFF860B9607A603B600023BB61794B1B78002B04D03B6D47F24A121A80E6E0FB68002B04D13B6D47F2AD121A80DEE032
:403180007B68002B04D13B6D47F24F121A80D6E07B6B002B04D13B6D46F62F621A80CEE0694B1B68FA6B9A4204D23B6D46F630621A80C4E0BA6BFB6B9A4204D33B6D46F6D3
:4031C00031621A80BBE097F83030072B04D93B6D46F273221A80B2E097F83030072B08D1FB685A4A934204D03B6D46F273221A80A5E0F86800F0B4FB3B6D00221A80B7F818
:403200004C3003F00103002B17D0B7F84C3003F00203002B11D07B6BFB6100237B6208E0FB6900221A60FB690433FB617B6A01337B627A6AFB6B9A42F2D3BB6B9B007A6B32
:4032400013447B61B7F84C300193FB6B00937B697A6B3968786803F043FDF861FB687A689A62FB683A68DA62FB68BA681A62FB6897F8302083F83720FB68FA691A60FB6853
:403280007A699A60FB687A6C5A657B6C002B04D12F4B1A68FB689A6502E0FB687A6C9A65FB68BA6C5A60FB687A6B5A62FB68FA6B9A63FB68B7F84C209A87002387F823301A
:4032C0000CE097F82330FA681E339B00134400225A6097F82330013387F8233097F82330002BEED0FB686433B7F8402011461846FFF75CF9F86803F0BDFC02F01DFEB86191
:40330000FB6893F837301846FFF7BCF9F868FEF7FFFEF86800F0A0FA0E4B1B8801339AB20C4B1A800C4B1B78012B03D0B86902F007FE04E0B86902F003FEFEF765FA2837DA
:40334000BD4680BD8AA4FF1F147300005CA5FF1F28A6FF1F8CA4FF1F2DA3FF1F80B584B000AF786039600023FB60474B1B78002B04D03B6847F24E121A8082E07B68434A20
:40338000934204D13B6847F24C121A8079E07B68002B08D102F0D0FDF8603D4B1B687B60F86802F0CDFD02F0C7FDF8607B6893F83630072B3CD801A252F823F0DD330000FE
:4033C000E5330000ED330000ED33000041340000E5330000ED330000ED3300007868FEF71FFF2EE0786800F0DFFE2AE0786800F0DBFE7B6893F83430072B17D801A252F867
:4034000023F000BF2D340000253400002D340000253400002534000025340000253400002D3400007868FEF7C5FC00E000BF08E0F86802F085FD3B6846F62D621A8020E0E1
:4034400000BF7B6864331846FFF776F8786803F023FC786800F026FA0E4B1B88013B9AB20C4B1A80786800F07BFA7B68FF2283F83620F86802F064FD3B6800221A80FEF7D9
:40348000C3F91037BD4680BD8AA4FF1F5CA5FF1F64A4FF1F8CA4FF1F80B584B000AF786039600023FB60134B1B78002B04D03B6847F255121A8019E002F03EFDF8607B68B5
:4034C000002B04D00C4B1B687A689A4207D1F86802F036FD3B6847F257121A8006E0F86802F02EFD3968786800F006FB1037BD4680BD00BF8AA4FF1F64A4FF1F90B587B0F0
:4035000000AFF8607A603B600B467B8100237B616F4B1B78002B05D03B6846F2AE121A800023D0E07B89002B08D0B3F5004F05D03B6845F625621A800023C4E000BF7B6833
:40354000002B02D07B6800221A6002F0F5FC7861604B1B685B6C002B35D05E4B1B685A6C013A5A645B4B1B685B6C3B617B68002B04D0584B1B681A6C7B681A60554B1C6868
:40358000FDF7D0FB0246534B1B681B6CD31AC4F8A430504B1B68D3F8A8204E4B1B68D3F8A4309A4207D24B4B1B684A4A1268D2F8A420C3F8A820786902F0C2FC3B68002230
:4035C0001A803B697FE0B7F90A30002B08DA786902F0B6FC3B6846F2B0121A80002372E03D4B1B78002B08D0786902F0A9FC3B6846F663521A80002365E0FB68072200212D
:403600000020FEF779FA786902F09AFCFEF7FCF802F092FC78612F4B1B6893F83530012B2CD0032B37D0002B40D17B68002B21D0284B1B681A6C7B681A60264B1C68FDF710
:4036400071FB0246234B1B681B6CD31AC4F8A430204B1B68D3F8A8201E4B1B68D3F8A4309A4207D21B4B1B681A4A1268D2F8A420C3F8A8203B6800221A801CE07B68002B9F
:4036800004D0144B1B681A6C7B681A603B6846F2A9121A800FE07B68002B02D07B6800221A603B6847F2D9221A8004E03B6846F62E621A8000BF074B1B685B6C3B617869BD
:4036C00002F03EFC3B6918461C37BD4690BD00BF8AA4FF1F64A4FF1F1CA3FF1F80B586B000AFF8600B467A607B817B89002B08D0B3F5004F05D07B6845F625621A8000231D
:403700000BE000BFFDF70EFB786179897B687A69F86800F097FA38613B6918461837BD4680BD00BF80B588B000AFF860B9607A603B6000237B61354B1B78002B04D03B68C1
:4037400047F259121A805DE0BB68002B04D13B6846F2D5221A8055E07B68002B04D13B6846F2D5221A804DE002F0E6FB7861FB68002B02D1264B1B68FB60FB681B68002B21
:403780000DD1786902F0DCFBBB6800221A607B6800221A603B6847F252121A8032E0FB689B8F03F00103002B0DD1786902F0C8FBBB6800221A607B6800221A603B6847F21A
:4037C00054121A801EE0786902F0BAFB0023FB61FB685B6ABB6105E0BB690433BB61FB690133FB61BB691B68002BF5D0BB68FA691A60FB689A6BFB69D21A7B681A603B68E1
:4038000000221A802037BD4680BD00BF8AA4FF1F64A4FF1F80B582B000AF786039600C4B1B78002B04D03B6847F25D121A800CE07B68084A934204D13B6847F25B121A8001
:4038400003E03968786800F091FA0837BD4680BD8AA4FF1F5CA5FF1F80B483B000AF78607B680022C3F8B4200D4B1B68002B04D17B680022C3F8B82009E0094B1A687B68E8
:40388000C3F8B820064B1B687A68C3F8B420044A7B68136000BF0C37BD4680BC704700BF74A4FF1F80B485B000AF78607B68D3F8B430FB607B68D3F8B830BB60FB68002B83
:4038C0000ED1184ABB681360BB68002B03D0BB680022C3F8B4207B680022C3F8B8201BE0BB68002B08D1FB680022C3F8B8207B680022C3F8B4200FE0FB68BA68C3F8B8208F
:40390000BB68FA68C3F8B4207B680022C3F8B8207B680022C3F8B42000BF1437BD4680BC704700BF74A4FF1F80B483B000AF7860084B00221A60084B00221A80074B0022F2
:403940001A607B6800221A8000BF0C37BD4680BC704700BF74A4FF1F8CA4FF1F84A4FF1F80B584B000AF78607B6800221A607B6800229A607B6800225A607B680022DA6041
:403980007B6800221A617B6800225A617B6800229A617B680022DA617B68554A1A627B6800225A627B6800229A627B680022DA627B6800221A637B680022DA877B68002299
:4039C0001A647B680022DA657B680022A3F860207B68643300211846FEF7E8FD7B6800225A677B6800229A677B680022C3F880207B680022A3F888207B680022C3F884203A
:403A00000023FB7309E0FB7B7A681E339B00134400225A60FB7B0133FB73FB7B002BF2D07B6800225A647B680022C3F8A4207B680022C3F8A8207B6800229A637B68002244
:403A400083F88A207B680022C3F8B0207B680022C3F8AC207B6800229A877B684FF000429A647B680022DA647B6800221A657B6800225A657B6800229A657B680022A3F84E
:403A80008C207B680022A3F88E207B680022C3F890207B680022C3F89420FDF743F9B8607B68BA68C3F898207B680022C3F89C207B68002283F834207B68002283F8352043
:403AC0007B68002283F836207B68082283F837207B680022C3F8B4207B680022C3F8B8207B68044AC3F8BC2000BF1037BD4680BD787200008072000080B584B000AF78600B
:403B000039600023FB6002F017FAF8603B6800221A807B6893F83630072B72D801A252F823F000BF453B0000453B0000453B0000453B0000553B0000853B0000AF3B00006B
:403B4000D93B0000F86802F0FBF93B6847F253121A805EE07B6893F88A30013BDAB27B6883F88A207B6893F88A30002B06D17B68002283F836207868FEF736FCF86802F081
:403B8000DFF946E07B6893F88A30013BDAB27B6883F88A207B6893F88A30002B03D17B68012283F83620F86802F0CAF931E07B6893F88A30013BDAB27B6883F88A207B6810
:403BC00093F88A30002B03D17B68022283F83620F86802F0B5F91CE07B6893F88A30013BDAB27B6883F88A207B6893F88A30002B03D17B68032283F83620F86802F0A0F9CA
:403C000007E0F86802F09CF93B6846F62D621A8001E0FDF7F9FD1037BD4680BD80B582B000AF074B1B68184603F048F8BB1D19460020FFF793FB00BF0837BD4680BD00BF08
:403C400064A4FF1F80B588B002AFF8607A603B600B467B8100233B6102F06EF93861FB68002B02D1404B1B68FB60FB687A681A643B6800221A80FB6893F83630072B63D888
:403C800001A252F823F000BFA93C0000A93C0000DF3C0000DF3C0000A93C0000A93C0000DF3C0000DF3C0000FB685B6CB3F1FF3F08D1386902F044F93B6846F6C5521A8000
:403CC00000234DE000BFFB685B6C5A1CFB685A64FB685B6C7B61386902F032F93FE0FB6893F83430072B14D17B68009300230022F9680020FEF7D0F8FB685B6C7B61386908
:403D000002F01EF9B7F90A30002B27DBFDF77CFD24E0FB685B6CB3F1FF3F08D1386902F00FF93B6846F6C5521A80002318E000BFFB685B6C5A1CFB685A64FB685B6C7B6141
:403D4000386902F0FDF809E0386902F0F9F83B6846F62D621A8000237B6100E000BF7B6918461837BD4680BD64A4FF1F80B584B000AF786039600023FB6002F0DDF8F8608B
:403D80007B68002B02D13D4B1B687B603B4B1B687A689A420BD13A4B1B78002B07D0F86802F0CEF83B6846F663521A8063E03B6800221A807B6893F83630072B51D801A2C5
:403DC00052F823F0E53D0000033E00001B3E0000333E00004B3E00004B3E00004B3E00004B3E00007B68042283F836207B68012283F88A207868FEF713FAF86802F0A0F844
:403E000037E07B68052283F836207B68012283F88A20F86802F094F82BE07B68062283F836207B68012283F88A20F86802F088F81FE07B68072283F836207B68012283F846
:403E40008A20F86802F07CF813E07B6893F88A300133DAB27B6883F88A20F86802F070F807E0F86802F06CF83B6846F62D621A8001E0FDF7C9FC1037BD4680BD64A4FF1F49
:403E80001CA3FF1F80B584B000AF786007F10E0307F1080200210020FFF730FBFB89002BF4D1034B1B78012BF0D100F0E3F9EDE72DA3FF1F90B58DB00AAF7860214B002257
:403EC0001A60214B00221A6000F050F81F4B1B68002B04D17B6847F212221A802FE01C4B1A681C4B1B689A4204D27B6847F213221A8024E0184B1B78062B04D97B6847F28E
:403F000011221A801BE0144B1B78104A1268134909680F4800687C6808940B240794002406940024059400240494039002910192009300230A4A0B490B48FFF707F90C3743
:403F4000BD4690BD34A6FF1F20A7FF1F2073000028730000147300001C73000024730000853E000084720000A0A3FF1F80B483B000AF0023FB8010E0FB88DB000C4A134470
:403F80003B603B6800221A603B6800229A803B680022DA80FB880133FB80064B1B88FA889A42E9D300BF0C37BD4680BC704700BF34A9FF1F3073000080B48BB000AFF8601E
:403FC000B9603B601346FB80FB88042B1FD1734B1B68BA68D31A013B3B623B6A13F5803F0DD9FB680022DA64FB6800221A65FB680022DA613B6847F27E221A80CAE0FB6872
:40400000BA68DA643B6A5A1CFB681A6542E0BB68002B31D0FB88082B24D1FB689A6CBB681344FB615D4B1B68FA69D31A013B3B623A6ABB689A4203D2FB68FA69DA6405E013
:40404000564B1A68BB681A44FB68DA64FB68DA6C524B1B68D21AFB681A65FB68DA6CFB689A6417E04D4B1A68BB681A44FB68DA64FB68BA681A650DE0FB680022DA64FB6810
:4040800000221A65FB680022DA613B6847F27E221A807FE0FB68DB6C414A1288B3FBF2F102FB01F29B1A7B837B8BDB003D4A13447B617B699B88002B0CD1FB6800225A613D
:4040C000FB6800229A617B69FA681A607B6901229A804FE07B691B687B6242E07B6ADA6C2E4B1B68D21A7B6A1A65FB681A6D7B6A1B6D9A4213D97B6A5B69002B03D07B6AA8
:404100005B697B622DE0FB6800225A61FB687A6A9A617B6AFA685A6100237B6221E07B6A9B69002B0CD1FB6800229A61FB687A6A5A617B6AFA689A617B69FA681A600EE0E9
:404140007B6A9B693B61FB683A699A61FB687A6A5A613B69FA685A617B6AFA689A6100237B627B6A002BB9D17B699B8801339AB27B699A807B69DA887B699B889A4203D297
:404180007B699A887B69DA80FB687A69DA613B6800221A802C37BD4680BC704734A6FF1F3073000034A9FF1F80B487B000AF78607B68DB697B617B69002B35D07B680022DE
:4041C0001A657B691A687B689A420CD17B685B693B617B693A691A603B69002B12D03B6900229A610EE07B689B693B617B685B69FB603B69FA685A61FB68002B02D0FB6891
:404200003A699A617B6800225A617B6800229A617B680022DA617B680022DA647B699B88013B9AB27B699A8000BF1C37BD4680BC704700BF80B483B000AF0023FB800AE0AB
:40424000FB88DB00094A13443B603B680022DA80FB880133FB80064B1B88FA889A42EFD300BF0C37BD4680BC704700BF34A9FF1F3073000080B588B000AF00237B6101F0D5
:404280005BFE7861FCF74EFD3861744B1B680133724A1360714B1B68714A1288B3FBF2F102FB01F29B1AFB81FB89DB006D4A1344BB60BB681B68BB610023FB77B4E0BB6973
:4042C000002B00F0AF80BB695B697B60BB6993F83630072B00F2A28001A252F823F000BF1D440000014300001D440000314300001D4400008F4300001D440000BF43000087
:40430000BB69DA6C554B1B68D21ABB691A65BB69DA6C524B1B689A4207D1BB69002283F83620B869FEF760F879E00123FB7776E0BB69DA6C494B1B68D21ABB691A65BB6925
:40434000DA6C464B1B689A421ED1BB690022DA65BB690022A3F86020FCF7E4FC0246BB691A64B869FDF726FDB869FEF73DF8BB69002283F83620BB69032283F83520BB699E
:40438000002283F834204AE00123FB7747E0BB69DA6C324B1B68D21ABB691A65BB69DA6C2E4B1B689A4207D1BB69042283F83620B869FFF7F9FE32E00123FB772FE0BB690E
:4043C000DA6C264B1B68D21ABB691A65BB69DA6C224B1B689A421ED1BB690022DA65BB690022A3F86020FCF79DFC0246BB691A64B869FDF7DFFCB869FFF7D6FEBB6904224E
:4044000083F83620BB69032283F83520BB69002283F8342003E00123FB7700E000BF7B68BB6101E00123FB77FB7F002B3FF447AFFCF778FC02463B69D31A3B600A4B1A686F
:404440003B689A4202D2084A3B681360786901F077FD00BF2037BD4680BD00BF34A6FF1F3073000034A9FF1F20A7FF1F80B586B000AFF8600B467A607B8100237B61314B97
:404480001B78002B04D07B6847F275221A8055E02D4B1B78002B04D07B6846F663521A804CE07B89082B1DD801A252F823F000BFD5440000E5440000D5440000E5440000D5
:4044C000EF440000E5440000E5440000E5440000D5440000FB68002B0BD17B6847F27E221A802BE07B6845F625621A8026E000BF00E000BF01F020FD7861144B1B6801229B
:4045000083F83620114B18687A897B68F968FFF753FD7B681B88002B03D0786901F010FD0CE00A4B1B681846FDF77AFE786901F007FDFDF769F97B6800221A801837BD4633
:4045400080BD00BF8AA4FF1F1CA3FF1F64A4FF1F80B588B000AF7B600346FB810B46BB8113467B810023FB61744B1B78002B04D0FB6A47F275221A80DDE0714B1B78002B7C
:4045800004D0FB6A46F663521A80D4E03B8D03F00E037B837B8B082B25D801A252F823F0C5450000E7450000C5450000E7450000F1450000E7450000E7450000E74500005D
:4045C000C54500007B68002B14D17B89002B11D1BB89002B0ED1FB89002B0BD1FB6A47F27E221A80A7E0FB6A45F625621A80A2E000BF00E000BF3B8D23F01E03002B14BFDA
:4046000001230023DBB27B767B7E012B04D1FB6A45F625621A808EE03B8D03F01003002B01D0012300E000233B763B7E012B20D07B68B3F57A7F04D3FB6A47F27B221A80E5
:4046400079E07B893B2B04D9FB6A47F27A221A8071E0BB893B2B04D9FB6A47F279221A8069E0FB89632B17D9FB6A47F278221A8061E0BB8942F20F72934204D9FB6A47F274
:4046800079221A8057E0FB89B3F57A7F04D3FB6A47F278221A804EE02A4B1B687B61FB894FF4616202FB03F1BA8913461B019B1A9B00CA187B8913447A6902FB03F24FF4E6
:4046C000FA717B69B1FBF3F17B680B44796901FB03F31D49A1FB03139B0913443B613B69002B24D001F028FCF861184B1B68012283F83620154B18687A8BFB6A3969FFF739
:404700005BFCFB6A1B88002B03D0F86901F018FC11E00E4B1B681846FDF782FDF86901F00FFCFDF771F8FB6A00221A8003E0FB6A47F27E221A802037BD4680BD8AA4FF1F9F
:404740001CA3FF1F18730000D34D621064A4FF1F80B582B000AF02F09BFBBB1D1A4600211248FEF7BBFF124B1B781A4613465B0013449B000F4A13441846FDF7A9FD0E4B22
:404780001B68013B0C4A13600B4B1B68002B09D10A4B1B68084A1360BB1D1A4600210848FEF79CFF00BF0837BD4680BDA0A3FF1F9CA3FF1F30A3FF1F30A7FF1F24A7FF1FF2
:4047C00090A4FF1F90B58FB00AAF78603B4B00221A603B4B1B68002B08D03A4B1A68384B1B68B2FBF3F3384A136007E0354B1B68364AA2FB0323DB08334A1360324B1B688F
:40480000334A1360334B00221A60334B00221A600023FB8110E0FB89DB00304A1344BB60BB6800229A80BB680022DA80BB6800221A60FB890133FB81294B1B88FA899A4213
:40484000E9D3284B1B68002B04D17B6847F247321A802FE0244B1A68244B1B689A4204D27B6847F248321A8024E0214B1B78062B04D97B6847F246321A801BE01C4B1B784F
:40488000184A12681B490968174800687C6808940B24079400240694002405940024049403900291019200930023134A13491448FEF74CFC1437BD4690BD00BF1CA7FF1F03
:4048C0003C7300001873000024A7FF1FCDCCCCCC30A7FF1F60A4FF1F78A4FF1FFCB1FF1F507300004073000048730000147300003873000044730000494B0000A072000088
:4049000090A4FF1F80B487B000AF78600B467B807B68022283F82A207B88012B07D17B685A6A4F4B1B681A447B689A6112E07B681B6A002B07D17B685A6A494B1B681A449B
:404940007B689A6106E07B681A6A454B1B681A447B689A617B689B69424A1288B3FBF2F102FB01F29B1A7B827B8ADB003E4A1344FB60FB681B68002B0CD17B6800221A61F5
:404980007B6800225A61FB687A681A60FB6801229A8056E07B689A69314B1B68D21A7B68DA61FB681B687B6142E07B699A692C4B1B68D21A7B69DA617B68DA697B69DB6995
:4049C0009A4213D97B691B69002B03D07B691B697B612DE07B6800221A617B687A695A617B697A681A6100237B6121E07B695B69002B0CD17B6800225A617B687A691A6145
:404A00007B697A685A61FB687A681A600EE07B695B69BB607B68BA685A617B687A691A61BB687A681A617B697A685A6100237B617B69002BB9D1FB689B8801339AB2FB6882
:404A40009A80FB68DA88FB689B889A4203D2FB689A88FB68DA8000BF1C37BD4680BC704760A4FF1F50730000FCB1FF1F80B483B000AF0023FB800AE0FB88DB00094A134480
:404A80003B603B680022DA80FB880133FB80064B1B88FA889A42EFD300BF0C37BD4680BC704700BFFCB1FF1F5073000080B487B000AF78607B689B69214A1288B3FBF2F142
:404AC00002FB01F29B1AFB82FB8ADB001D4A13443B613B691A687B689A420CD17B681B69FB603B69FA681A60FB68002B12D0FB6800225A610EE07B685B69FB607B681B69CF
:404B0000BB60FB68BA681A61BB68002B02D0BB68FA685A617B68012283F82A207B6800221A617B6800225A613B699B88013B9AB23B699A8000BF1C37BD4680BC704700BF1B
:404B400050730000FCB1FF1F80B58CB000AF786007F10E0307F1080200210020FEF7CEFC07F10E031846FCF7A5FEFCF7DBF87862324B1B680133314A1360304B1B68304A6D
:404B80001288B3FBF2F102FB01F29B1A7B847B8CDB002C4A1344FB61FB691B68BB62002387F82F3031E0BB6A002B2BD0BB6A1B697B61BB6A9A69214B1B689A421ED1B86A31
:404BC000FFF774FFBB6A1B8D022B04D10121B86AFFF798FE03E0BB6A032283F82A20BB6A9B683B613B69002B05D0BB6ADA683B691146B86A98477B69BB6206E0012387F866
:404C00002F3002E0012387F82F3097F82F30002BC9D0FCF787F802467B6AD31ABB6107F10E031846FCF780FE074B1A68BB699A428ED2054ABB6913608AE700BF60A4FF1F93
:404C400050730000FCB1FF1F78A4FF1F80B400AF00BFBD4680BC704780B582B000AF786001F02CFD01F0CCFC01F0D6FC01F032FD01F0D4FB01F0DCFC01F07CFC01F012FD3E
:404C800001F0BEFC00BF0837BD4680BD80B582B000AF01F045FC0346FB71FB79184600F0E1F800BF0837BD4680BD00BF80B500AF01F0F8FC00BF80BD80B500AF00F086F95E
:404CC00000BF80BD80B582B000AF0346FB71FB79184601F035FC00F00BF800BF0837BD4680BD00BF80B500AF01F08AFC00BF80BD80B500AF01F078FC00BF80BD80B58CB0FC
:404D00000AAFBB1D002215491548FDF71FFDFB88002B01D000231DE0BB1D089303230793002306930023059300230493802303930C2302930B4B01930423009300230A4ADA
:404D40000A490B48FEF702FAFB88002B01D0002300E0012318460837BD4680BD5C730000AC9EFF1FEC9BFF1FB94D00006C730000EC9DFF1F80B584B002AFBB1D0093002309
:404D8000002200210348FDF727FD00BF0837BD4680BD00BFAC9EFF1F80B582B000AFBB1D1A4600210348FDF7EFFD00BF0837BD4680BD00BFAC9EFF1F80B582B000AF7860FB
:404DC00000F03CF800BF0837BD4680BD80B584B000AF7860124B00221A70124B00221A70114B00221A60114B00221A70104B00221A70104B00221A600F4B00221A60FFF765
:404E00007DFF0346FB73FB7B002B01D1002303E07868FFF721FF012318461037BD4680BDD49EFF1FE8A0FF1FECA0FF1FE9A0FF1FF0A2FF1F88B8FF1F84B8FF1F80B582B071
:404E400000AFFFF797FF00F08FF978607B68002BF7D0034A7B68136000F0D6F9F1E700BFECA0FF1F80B582B000AF0346FB71524B1B680133504A1360504B1B780A2B00F2AE
:404E8000908001A252F823F0B54E0000C74E0000DD4E0000F34E0000094F0000174F0000514F00005F4F0000674F0000894F0000914F0000FB79752B77D1404B01221A7050
:404EC00000F096F971E0FB79432B03D13B4B02221A706DE0394B00221A7069E0FB79502B03D1364B03221A7062E0344B00221A705EE0FB79722B03D1304B04221A7057E04D
:404F00002E4B00221A7053E0FB792D4A13602B4B05221A704CE0FB791B021A46284B1B681343274A1360264B1B68002B04D0244B1B68B3F5007F03D9204B00221A7037E031
:404F40001F4B1B681F4A13601C4B06221A702FE0FB791D4A1360194B07221A7028E0174B08221A7024E0FB79184600F025F9144B1B68013B124A1360114B1B68002B16D1FB
:404F80000E4B09221A7012E00C4B0A221A700FE0FB792F2B01D100F009F9084B00221A7006E0064B00221A7002E000BF00E000BF00BF0837BD4680BD88B8FF1FD49EFF1F15
:404FC000D89EFF1FE09EFF1FDC9EFF1F80B582B000AF5D4B1B78002B03D15C4B1B68002B04D05B4B1B680133594A1360564B1B780A2B00F29A8001A252F823F0295000000F
:405000005750000065500000735000008150000097500000AF500000C5500000D35000000951000017510000484B1B68002B0CD07520FFF747FE474B01221A70424B0122C4
:405040001A70454B00221A6079E0424B00221A70FFF748FE73E04320FFF734FE3A4B02221A706CE05020FFF72DFE374B03221A7065E07220FFF726FE334B04221A705EE030
:40508000324B1B68FB71FB791846FFF71BFE2E4B05221A7053E02D4B1B681B0AFB71FB791846FFF70FFE284B06221A7047E02B4B1B68FB71FB791846FFF704FE224B0722D4
:4050C0001A703CE00020FFF7FDFD1F4B08221A7035E0214B1B68224AD35CFB71FB791846FFF7F0FD1C4B1B6801331B4A13601A4B1A68164B1B689A4220D3134B09221A7079
:40510000124B00221A6019E00020FFF7DBFD0E4B0A221A7013E02F20FFF7D4FD0A4B00221A70104B00221A7009E0074B00221A70084B00221A70FFF7D5FD00E000BF00BF63
:405140000837BD4680BD00BFE8A0FF1FECA0FF1F84B8FF1FE9A0FF1FF4A2FF1FDC9EFF1FF0A0FF1FF0A2FF1F80B582B000AF0B4B1B78012B01D100230CE0084B01221A70EA
:40518000074B1A684FF400730649074800F07CF878607B6818460837BD4680BDF0A2FF1FE09EFF1FF0A0FF1FE49EFF1F80B500AFFFF7F2FD00BF80BD80B483B000AF03460D
:4051C000FB71094B1B68B3F5007F07D2064B1B685A1C05490A600549FA79CA5400BF0C37BD4680BC704700BFE4A0FF1FE49EFF1F80B400AF034B00221A6000BFBD4680BCC7
:40520000704700BFE4A0FF1F80B500AF044B1B78002B03D1FFF7DAFEFFF76AFD00BF80BDE9A0FF1F80B400AF0E4B00221A600E4B00221A600D4B00221A600D4B00221A600E
:405240000C4B00221A600C4B00221A600B4B00221A600B4B0B4A1A6001231846BD4680BC704700BF8CB8FF1F90B8FF1FA0B8FF1FA4B8FF1F9CB8FF1F98B8FF1F94B8FF1FF8
:40528000F8A2FF1F7856341280B588B000AFF860B9607A603B607B68012B01D8002362E0FB68BB61BB687B61BB6901331B789BB21B029AB2BB691B789BB213447B82BB6938
:4052C0000233BB612A4B1B680133294A1360294B1B680133274A13607B8A013B072B3BD801A252F823F000BF0953000019530000395300005953000059530000595300009F
:4053000029530000495300003B687A687969B86900F068F8F86125E03B687A687969B86900F042F9F8611DE03B687A687969B86900F09AF9F86115E03B687A687969B86935
:4053400000F01EFAF8610DE03B687A687969B86900F07EFAF86105E0F921786900F018F8F86100BFFB6918462037BD4680BD00BF8CB8FF1F90B8FF1F80B483B000AF002385
:40538000FB71FB7918460C37BD4680BC704700BF80B584B000AF78600B46FB70104B1B6801330F4A13603B1D4FF40041184600F033FBFA783B1D1146184600F01BFBFFF75A
:4053C000DBFF03461A463B1D1146184600F012FB0423FB60FB6818461037BD4680BD00BF9CB8FF1F80B588B000AFF860B9607A603B607B68042B07D0BB68FE211846FFF7A4
:40540000C7FFF861FB69C7E007F10C03184600F0C3FA03467B837B8B40F20222934207DCB3F5007F11DCA3F20113012B05D80CE0A3F58053013B012B07D9BB68FC211846D2
:40544000FFF7A6FFF861FB69A6E000BF07F1080348F20101184600F0DFFA07F108030121184600F0C7FAFFF787FF03461A4607F108031146184600F0BDFA7B8B40F2012216
:4054800093425CD040F20122934207DC40F20112934210D0B3F5817F1DD076E041F20102934228D041F20202934262D040F20222934250D069E007F108034FF4007118460F
:4054C00000F0AAFA07F108030021184600F0A4FA0423FB615CE007F108034FF40071184600F09AFA07F108030021184600F094FA0423FB614CE007F108030121184600F08E
:405500008BFA07F108030221184600F085FA07F108030721184600F07FFA0823FB6107F108030321184600F077FA07F108030821184600F071FAFB690433FB6128E0184B4D
:40554000184A1A60BB68042215491846FBF7B4FC0423FB611CE0FFF70FFF03467B61BB6807F1140104221846FBF7A6FC0423FB610EE0DC233B61BB6807F1100104221846FC
:40558000FBF79AFC0423FB6102E00023FB6100BFFB690433FB61FB6918462037BD4680BDF8A2FF1F7856341280B588B000AFF860B9607A603B607B68082B07D0BB68FE2173
:4055C0001846FFF7E5FEF861FB6945E007F10C03184600F0E1F90346BB6107F10C03184600F0F2F97861BB691A1D3B689A4207D9BB68FD211846FFF7CBFEF861FB692BE005
:40560000174B1B680133164A1360164B1A68BB691344144A136007F1080348F20201184600F0FAF907F108030121184600F0E2F9FFF7A2FE03461A4607F108031146184689
:4056400000F0D8F9BB687969BA691846FBF734FCBB690433FB61FB6918462037BD4680BDA0B8FF1FA4B8FF1F90B58DB000AFF860B9607A603B607B68062B06D8FE21B86879
:40568000FFF786FE38623B6A71E0BB68FB6104233B62BB6807221A70BB68013380221A70BB68023301221A70BB68DC1CFFF764FE03462370BB680433BB600723FB620023D1
:4056C0007B620023BB6241E0FB681B78BB61FB6804331B781B02FA680332127813447B617B691B02FA680232127813447B617B691B02FA680132127813447B61FB6805337A
:40570000FB60FB6A0533FB623A6ABB6913443B623A6A3B689A4208D9FB69BB60FD21B868FFF736FE38623B6A21E07B6A01337B62BA6ABB691344BB627B69BA691946B868F5
:40574000FBF7BAFBBA68BB691344BB60FA6A7B689A42B9D9084B1A687B6A1344064A1360064B1A68BB6A1344044A13603B6A18463437BD4690BD00BFA0B8FF1FA4B8FF1FC4
:4057800080B588B000AFF860B9607A603B600023FB617B68072B07D8BB68FE211846FFF7F7FDB861BB694BE007F10C03184600F0F3F803467B6107F10C03184600F004F9CB
:4057C00038617B6903F108027B689A4207D0BB68FE211846FFF7DCFDB861BB6930E000F0ABFBF8613B69F9687A691846FBF764FBF86900F0A5FB144B1B680133124A136080
:40580000124B1A687B691344104A136007F1080348F20301184600F0FFF807F108030121184600F0E7F8FFF7A7FD03461A4607F108031146184600F0DDF80423BB61BB6982
:4058400018462037BD4680BD98B8FF1F94B8FF1F80B58CB000AFF860B9607A603B6000233B627B68062B07D8BB68FE211846FFF78FFDF861FB6977E00723FB620023BB62A5
:4058800000237B6246E0FB681B78BB61FB6804331B781B02FA680332127813447B617B691B02FA680232127813447B617B691B02FA680132127813447B61FB680533FB6075
:4058C000FA6ABB691A447B689A4207D9BB68FE211846FFF75DFDF861FB6945E0BB6A0133BB627A6ABB6913447B6200F025FB38627B69BA69F9681846FBF7DEFA386A00F0D3
:405900001FFBFA68BB691344FB60BA69FB6A13440533FB62FA6A7B689A42B4D9144B1A68BB6A1344124A1360124B1A687B6A1344104A136007F1080348F20801184600F049
:405940006BF807F108030121184600F053F8FFF713FD03461A4607F108031146184600F049F80423FB61FB6918463037BD4680BD98B8FF1F94B8FF1F80B483B000AF7860BC
:405980007B681B68591C7A6811601B7818460C37BD4680BC704700BF80B584B000AF78607868FFF7E9FF0346FB817868FFF7E4FF0346BB81BB891B029AB2FB8913439BB24B
:4059C00018461037BD4680BD80B584B000AF78607868FFF7E1FF0346FB607868FFF7DCFF0346BB60BB681A04FB68134318461037BD4680BD80B483B000AF78600B46FB70DA
:405A00007B681B68591C7A681160FA781A7000BF0C37BD4680BC704780B582B000AF78600B467B807B88DBB219467868FFF7E2FF7B881B0A9BB2DBB219467868FFF7DAFF54
:405A400000BF0837BD4680BD80B582B000AF786039603A680021786801F0A7FA00BF0837BD4680BD80B584B000AFF860B9607A607A68B968F86801F08DFA00BF1037BD46A7
:405A800080BD00BF80B483B000AF0346FB71FEE780B487B000AF7860396000233B6100237B6127E07B699B007A6813441B68BB60BB68FB73BB6823F0FF03BB6014E03B6918
:405AC0005B003A6813441B781A46BB68134419463B695B003A6813445B780B703B6901333B61FB7B013BFB73FB7B002BE7D17B6901337B617B69152BD4D900BF1C37BD4679
:405B000080BC704780B582B000AF304B4FF443721A802F4B1C221A702E4B02221A704FF0402308221A702C4B03221A702B4B2C4A1278D2B21A702B4B14221A802A4B41F2F8
:405B400051221A800023FB7019237B6013E0FB785B00DAB2254B1B78DBB203F00103DBB21343DBB203F00303FB70782000F0D8FF7B68013B7B607B68002B02D0FB78032BF1
:405B8000E5D17B68002B02D10320FFF77BFF184B4FF480721A80164B07221A70154B00221A70154B48221A70114B00221A70134B02221A70124A124B1B78DBB243F00103F1
:405BC000DBB2137000BF0837BD4680BD80400040824000400043004000420040A14600400801004922420040204200402542004004400040064000400840004001400040D7
:405C0000A243004080B483B000AF0B4B1B78FB710A4AFB7903F00703DBB21370084AFB791B09DBB21370074B44221A7000BF0C37BD4680BC704700BFCF0100496E580040ED
:405C40006F5800407658004080B586B000AF72B6514B61221A70FFF755FF4F4B01221A704E4A4E4B1B78DBB243F00403DBB213700023FB7513E0FA7D13465B0013445B0095
:405C8000474A13443B613B691A683B699B889BB219461046FFF7D8FEFB7D0133FB75FB7D062BE8D90023FB751CE0FA7D13469B0013445B003B4A1344FB60FB681B68BB603B
:405CC000FB685B687B60FB681A7A5B7A1B0213437B807B881A467968B868FFF7C3FEFB7D0133FB75FB7D002BDFD02F494FF09040FFF7CEFE2D4A2D4B1B78DBB243F0020350
:405D0000DBB213702A4A2A4B1B78DBB243F00203DBB21370274A274B1B78DBB243F04003DBB21370244A244B1B78DBB243F01003DBB213700A2221492148FFF793FE0A2274
:405D400020492148FFF78EFE0A2220492048FFF789FE08221F492048FFF784FE08221F491F48FFF77FFE0A221E491F48FFF77AFE1E4A1E4B1B78DBB243F00803DBB21370D0
:405D8000FFF740FF0E220B491948FFF76BFE00BF1837BD4680BD00BF00480040E846004078730000A4730000580000480350014013500140A0430040C24300404C0300488E
:405DC0000051004058030048F0510040640300481051004070030048225100407803004832510040800300486051004022430040B043004080B500AF01F0A0F803461B68DD
:405E00000C2B00D1FEE7FEE780B586B000AF224B7B61224B3B61204B7B6135E03B691B68FB603B695B68BB603B699B683B6000237B600CE0FB681A68BB681A60BB680433BC
:405E4000BB60FB680433FB607B6804337B607A683B689A42EED13B69DB683B6000237B6008E0BB6800221A60BB680433BB607B6804337B607A683B689A42F2D13B69103361
:405E80003B617B69013B7B617B69002BC6D101F05BF8FAF727F9FEE701000000D473000080B582B000AF184B184A1A60184A184B1B6843F40073136000237B600FE07B6898
:405EC000032B04D8134A7B6852F8233000E0124B12497A6841F822307B6801337B607B682F2BECD90E4B1B78DAB20E4B1A700E4B0A4A1A60FFF7A8FE0C4B00221A6000BFF2
:405F00000837BD4680BD00BF0CED00E00004FA0514ED00E000000000F55D00000080FF1FBC760040C480FF1F08ED00E0C080FF1F72B6704762B67047EFF3108072B6704770
:405F400080F31088704730BF704720BF7047B0FA80F0704790FAA0F0B0FA80F0704790FAA0F0704780B483B000AF0346FB71044AFB79137000BF0C37BD4680BC704700BFCF
:405F80007665004080B400AF034B1B78DBB21846BD4680BC704700BF7665004080B500AF282000F005FA032000F0D0F9052000F0FFF9032000F0CAF90F2000F0F9F9032039
:405FC00000F0C4F9012000F0F3F9022000F0BEF9052000F0EDF9062000F0A6F80E2000F0A3F82C2000F0A0F8082000F09DF8012000F09AF80C2000F097F8032000F094F858
:40600000052000F0D5F900BF80BD00BF80B500AF0C2000F089F8024B01221A7000BF80BDFCA2FF1F80B500AF064B1B78002B04D1FFF7B4FF034B01221A70FFF7E7FF00BF88
:4060400080BD00BFFDA2FF1F80B582B000AF03460A46FB711346BB71FB79032B26D801A252F823F07560000083600000916000009F600000BB79803BDBB2184600F054F869
:4060800015E0BB79403BDBB2184600F04DF80EE0BB796C3BDBB2184600F046F807E0BB792C3BDBB2184600F03FF800E000BF00BF0837BD4680BD00BF80B584B000AF78601A
:4060C0000123FB737B681B78BB730BE0BB7B184600F010F8FB7B7A6813441B78BB73FB7B0133FB73BB7B002BF0D100BF1037BD4680BD00BF80B584B000AF0346FB7100F087
:406100002DF8FB791B09FB73FB7B184600F0E2F8FB7903F00F03FB73FB7B184600F0DAF800BF1037BD4680BD80B584B000AF0346FB7100F013F8FB791B09FB73FB7B184631
:4061400000F004F9FB7903F00F03FB73FB7B184600F0FCF800BF1037BD4680BD80B582B000AF4FF4CA737B60554A554B1B78DBB223F07F03DBB21370524B1B78DBB223F008
:406180000F03FB704F4AFB7843F00F03DBB213704D4B1B78DBB223F00F03FB704A4AFB7813704A4B1B78DBB223F00F03FB70474AFB781370424A424B1B78DBB223F02003F4
:4061C000DBB213703E4A3E4B1B78DBB243F04003DBB21370002000F00DF9394A384B1B78DBB243F01003DBB21370012000F002F9374B1B78FB70324A314B1B78DBB223F08F
:406200001003DBB21370002000F0F4F8FB7803F00803FB702A4A2A4B1B78DBB243F01003DBB21370012000F0E5F8254A244B1B78DBB223F01003DBB21370FB78002B02D171
:406240000A2000F0D7F87B68013B7B60FB78002B02D07B68002BBDD1194A194B1B78DBB223F04003DBB21370154A154B1B78DBB223F07F03DBB21370124A124B1B78DBB285
:4062800023F00F03DBB213700F4B1B78DBB223F00F03FB700C4AFB7843F00F03DBB213700A4B1B78DBB223F00F03FB70074AFB7843F00F03DBB2137000BF0837BD4680BD25
:4062C000205100402251004023510040245100402151004080B582B000AF0346FB711A4A194B1B78DBB243F02003DBB21370164A154B1B78DBB223F04003DBB213700020A0
:4063000000F078F8104A104B1B78DBB223F00F03DBB213700C490C4B1B78DAB2FB791343DBB243F01003DBB20B70012000F062F8054A054B1B78DBB223F01003DBB2137023
:4063400000BF0837BD4680BD2051004080B582B000AF0346FB71154A144B1B78DBB223F06003DBB21370114A104B1B78DBB223F00F03DBB213700D490C4B1B78DAB2FB79B4
:406380001343DBB243F01003DBB20B70012000F031F8064A054B1B78DBB223F01003DBB2137000BF0837BD4680BD00BF2051004080B582B000AF786008E00C4B1B681846C0
:4063C00000F0AEFB7B68A3F500437B607B68B3F5004FF2D8064B1B687A6802FB03F3184600F09EFB00BF0837BD4680BDDC80FF1FD480FF1F80B582B000AF0346FB80FB88B0
:40640000054A127802FB03F3184600F089FB00BF0837BD4680BD00BFD880FF1F80B500AF064B1B78002B04D100F00AF8034B01221A7000F025F800BF80BD00BFFEA2FF1F10
:4064400080B400AF094B72221A70094B20221A70084B06221A70084B47221A70074B03221A7000BFBD4680BC704700BF8465004085650040266500403665004087650040C2
:4064800080B582B000AF00F053FB0346FB71114A104B1B78DBB243F02003DBB213700E4A0D4B1B78DBB243F01003DBB213700B4A0A4B1B78DBB243F01003DBB2137000F061
:4064C00035F9FB79184600F037FB00BF0837BD4680BD00BF94650040956500409765004080B483B000AF044B1B78FB71FB7918460C37BD4680BC70474465004080B483B00F
:4065000000AF064B1B78DBB203F07F03FB71FB7918460C37BD4680BC704700BF6565004098B500AFFFF7EAFF03461B021CB2FFF7D7FF03461BB223431BB29BB2184698BD62
:4065400080B483B000AF0346FB7100BF074B1B78DBB203F00403002BF8D1054AFB79137000BF0C37BD4680BC704700BF676500404765004080B500AF00F042F8044800F0F2
:406580000FF8072000F01EF800F02EF800BF80BD9565000080B500AFFEF78EFB00BF80BD80B485B000AF7860054B1B68FB60FB6844337A681A6000BF1437BD4680BC7047E9
:4065C00008ED00E080B483B000AF0346FB71054AFB795B01DBB2137000BF0C37BD4680BC704700BF01E400E080B400AF034B02221A6000BFBD4680BC704700BF00E100E04C
:4066000080B400AF034B02221A6000BFBD4680BC704700BF80E100E080B400AF034B02221A6000BFBD4680BC704700BF80E200E080B500AF00F042F8044800F00FF80720D9
:4066400000F01EF800F02EF800BF80BD5166000080B500AFFEF71AFB00BF80BD80B485B000AF7860054B1B68FB60FB6840337A681A6000BF1437BD4680BC704708ED00E03C
:4066800080B483B000AF0346FB71054AFB795B01DBB2137000BF0C37BD4680BC704700BF00E400E080B400AF034B01221A6000BFBD4680BC704700BF00E100E080B400AF7F
:4066C000034B01221A6000BFBD4680BC704700BF80E100E080B400AF034B01221A6000BFBD4680BC704700BF80E200E080B400AF054B1B78DBB203F00803DB08DBB2184657
:40670000BD4680BC704700BF0151004080B400AF054B1B78DBB203F004039B08DBB21846BD4680BC704700BF1151004080B400AF094A094B1B78DBB243F00103DBB21370EF
:40674000064A064B1B78DBB243F00103DBB2137000BFBD4680BC7047A2430040B243004080B485B000AF0346FB710B4B1B78DBB223F00803FB730849FB79DB00DBB203F013
:406780000803DAB2FB7B1343DBB20B7000BF1437BD4680BC704700BF3051004080B400AF054B1B78DBB203F002035B08DBB21846BD4680BC704700BF8645004080B485B02C
:4067C00000AF0346FB710B4B1B78DBB223F04003FB730849FB799B01DBB203F04003DAB2FB7B1343DBB20B7000BF1437BD4680BC704700BF3051004080B485B000AF034696
:40680000FB710B4B1B78DBB223F01003FB730849FB791B01DBB203F01003DAB2FB7B1343DBB20B7000BF1437BD4680BC704700BF3051004080B485B000AF0346FB710B4B6B
:406840001B78DBB223F02003FB730849FB795B01DBB203F02003DAB2FB7B1343DBB20B7000BF1437BD4680BC704700BF3051004080B485B000AF0346FB71094B1B78DBB26F
:4068800003F07F03FB730649FB79DB01DAB2FB7B1343DBB20B7000BF1437BD4680BC70473051004080B582B000AF786000F03CF8786800F009F8072000F018F800F028F81B
:4068C00000BF0837BD4680BD80B485B000AF7860054B1B68FB60FB6868337A681A6000BF1437BD4680BC704708ED00E080B483B000AF0346FB71054AFB795B01DBB2137013
:4069000000BF0C37BD4680BC704700BF0AE400E080B400AF034B4FF480621A6000BFBD4680BC704700E100E080B400AF034B4FF480621A6000BFBD4680BC704780E100E0C6
:4069400080B485B000AF0346FB710A4B1B78DBB223F00103FB730749FB7903F00103DAB2FB7B1343DBB20B7000BF1437BD4680BC704700BF0051004080B400AF054B1B781F
:40698000DBB203F020035B09DBB21846BD4680BC704700BF8F45004080B485B000AF0346FB710B4B1B78DBB223F04003FB730849FB799B01DBB203F04003DAB2FB7B134399
:4069C000DBB20B7000BF1437BD4680BC704700BF0051004080B485B000AF0346FB710B4B1B78DBB223F00203FB730849FB795B00DBB203F00203DAB2FB7B1343DBB20B7071
:406A000000BF1437BD4680BC704700BF0051004080B485B000AF0346FB710B4B1B78DBB223F00403FB730849FB799B00DBB203F00403DAB2FB7B1343DBB20B7000BF1437EA
:406A4000BD4680BC704700BF0051004080B485B000AF0346FB71094B1B78DBB203F07F03FB730649FB79DB01DAB2FB7B1343DBB20B7000BF1437BD4680BC7047005100401C
:406A800080B582B000AF786000F03CF8786800F009F8072000F018F800F028F800BF0837BD4680BD80B485B000AF7860054B1B68FB60FB6870337A681A6000BF1437BD46F1
:406AC00080BC704708ED00E080B483B000AF0346FB71054AFB795B01DBB2137000BF0C37BD4680BC704700BF0CE400E080B400AF034B4FF480521A6000BFBD4680BC7047D8
:406B000000E100E080B400AF034B4FF480521A6000BFBD4680BC704780E100E0000000000230800803D000BF01380046FCD17047EFF3108072B6704780F31088704700BFBD
:406B40001B481C490170002080F309881A48016881F3088819481A49016062B6FEE71748174901607047154815490160704772B6EFF3098028B1203880E8F00F1149096827
:406B8000086000B5104880475DF804EB0F4810490A7802700B480F490A680260106890E8F00F203080F309884EF0040E62B6704722ED00E0FF000000A8B8FF1F04ED00E093
:406BC0000000001064A4FF1F116E00009CA3FF1F90A3FF1F70A4FF1F80B500AF044B1B68002B02D0024B1B689847BD4680BDC0462CA6FF1F80B483B000AF144B1B687B6095
:406C00004FF000033B600BE07A684FF0000313607B6803F104037B603B6803F101033B600B4B1A683B689342EED3094B1B684FEA83031A46054B1B681344A3F10402054BEB
:406C40001A6007F10C07BD4680BC7047E4720000E8720000A8B8FF1F80B500AF044B1B68002B02D0024B1B689847BD4680BDC04648A6FF1F80B582B000AF7860054B1B68F6
:406C8000002B03D0034B1B687868984707F10807BD4680BD98A3FF1F80B582B000AF7860054B1B68002B03D0034B1B687868984707F10807BD4680BD7CA4FF1F80B582B06B
:406CC00000AF7860054B1B68002B03D0034B1B687868984707F10807BD4680BD20A3FF1F80B487B000AFF860B9607A603B603B6A4FEA83031A467B6813447B617B69A3F132
:406D000004037B617A694FF0807313607B69A3F104037B61FB681A467B691A607B69A3F104037B61394B1A467B691A607B69A3F104037B617A694FF0123313607B69A3F122
:406D400004037B617A694FF0033313607B69A3F104037B617A694FF0023313607B69A3F104037B613B681A467B691A607B69A3F104037B61BB681A467B691A607B69A3F1D0
:406D800004037B617A694FF0113313607B69A3F104037B617A694FF0103313607B69A3F104037B617A694FF0093313607B69A3F104037B617A694FF0083313607B69A3F115
:406DC00004037B617A694FF0073313607B69A3F104037B617A694FF0063313607B69A3F104037B617A694FF0053313607B69A3F104037B617A694FF0043313607B69184627
:406E000007F11C07BD4680BC7047C0461D3C000090B583B000AF1B4B1B68002B02D0194B1B689847F9F77EFF03467B60164B1A68164B1B689A421CD0134B1968124B1B6830
:406E4000D3F8AC207B68C2EB0303C1F8A8300E4B1C680D4B1B68D3E92C010B4B1B68D3F8A8301A464FF00003121843EB0103C4E92C23064B1A687B68C2F8AC3007F10C07E6
:406E8000BD4690BD38A6FF1F64A4FF1F70A4FF1F80B500AF044B1B68002B02D0024B1B689847BD4680BDC04680A4FF1F80B582B000AF4FF000037B60FFF73EF803467B60C1
:406EC000084B1B7803F10103DBB2064A13707868FFF736F8FDF73CFCFAF726FC07F10807BD4680BD8AA4FF1F80B485B000AF78600F4A7B6803F1FF3313600E4B1B68FB6082
:406F0000FB6823F07F43FB600A4AFB6813600A4A094B1B6843F005031360074A064B1B6843F00203136007F11407BD4680BC704714E000E020ED00E010E000E0014B186885
:406F4000704700BF4081FF1F0E4B70B51E460E4C0025E41AA410A54204D056F8253098470135F8E700F024FA084B094C1E46E41AA4100025A54204D056F8253098470135F3
:406F8000F8E770BDBC730000BC730000BC730000C473000010B5431E0A44914204D011F8014B03F8014FF8E710BD03460244934202D003F8011BFAE77047000000000000B5
:406FC0005374617274000000535630315F5461736B000000535030315F5461736B000000535630325F5461736B000000535030325F5461736B00000020202020202020209D
:407000002020202020202020000000004D69637269756D2075432F4F532D49494900000075432F4F532D4949492056782E797979000000005469636B526174653A20202000
:4070400078787878000000004350552055736167653A787820252020000000004350552053706565643A7878784D487A00000000235469636B733A2078787878787878789F
:40708000000000002343747853773A207878787878787878000000003D3D3D204D69637269756D203D3D3D200000000020202075432F4F532D494949202020200000000085
:4070C0000101010078563412010100000000000000000000000000000000000000000000000000000000000000000000000000000000000001010100280004000000000048
:40710000000000000000000000000000000000000000000000000000000000000000000001002000010010000C001000000000000000000000000000000000000000000001
:40714000000000000000000000000000000000000000000000000000010101002C00000120000C002000080004000400000000000000000000000000000000000000000083
:40718000000000000000000000000000000000000000000000000000000000000101010130000100000000000000000000000000000000000000000000000000000000009A
:4071C0000000000000000000000000000101010128000C0060000000040101010101010101000101C00008000101000000000000000000000000000000000000000000001F
:4072000000000000000000000000000000000000000000000000000000000000000000000101340008005D760004000075432F4F532D4949492049646C65205461736B0057
