:400000000080002011000000D5080000D508000080B500AF024A034B1B68136000F08EFCBC760040FA46004010B5054C237833B9044B13B10448AFF300800123237010BDD3
:400040008881FF1F00000000484D0000084B10B51BB108490848AFF300800848036803B910BD074B002BFBD0BDE81040184700BF000000008C81FF1F484D0000C880FF1F58
:400080000000000090B599B000AF0023A7F85E30002387F85D30002387F85C30002387F85B30002387F85A30002387F859300023A7F856300023A7F854300023A7F8523000
:4000C0000023A7F850304FF00003FB644FF00003BB644FF000037B644FF000033B6400F08DFF012001F00CF801F07CF901F02AFA00F0BEFE00F00CFE00F076FD00F08CFD2B
:4001000097F85930002B40F0BA800021002000F087FFD54800F0BCFF0021012000F080FFD24800F0B5FF002000F07CFD002000F08FFD0346A7F85630012000F089FD0346B1
:40014000A7F85430022000F083FD0346A7F85230032000F07DFD0346A7F85030B7F95630184600F091FDF864B7F95430184600F08BFDB864B7F95230184600F085FD7864F9
:40018000B7F95030184600F07FFD386440F6C41001F050FE012000F0B3FF0021002000F03FFFB34800F074FFF86C01F0EDFF03460C4607F130001A462346AE4902F046FFD5
:4001C00007F13003184600F063FFAB4800F060FFB86C01F0D9FF03460C4607F120001A462346A44902F032FF07F12003184600F04FFF0021012000F013FFA04800F048FF4F
:40020000786C01F0C1FF03460C4607F110001A462346984902F01AFF07F11003184600F037FF974800F034FF386C01F0ADFF03460C4638461A4623468E4902F007FF3B46CD
:40024000184600F025FF42F2107001F0F3FD012387F85930012000F053FF0021002000F0DFFE884800F014FF0021012000F0D8FE854800F00DFF4FF4FA6001F0DBFD97F841
:400280005A30132B12D8B7F85E30DBB2184601F0FDF8B7F85E300A33A7F85E30B7F85E30FF2B50D90023A7F85E304CE097F85A30142B15D997F85A30272B11D897F85D3015
:4002C000184601F093F997F85D300A3387F85D30B7F85E30FF2B36D9002387F85D3032E097F85A30282B15D997F85A303B2B11D897F85C30184600F00FFE97F85C300A3377
:4003000087F85C30B7F85E30FF2B1CD9002387F85C3018E097F85A303C2B14D997F85A304F2B10D897F85B30184600F045FD97F85B300A3387F85B30B7F85E30FF2B02D9FB
:40034000002387F85B3097F85A30013387F85A3097F85A30502B02D9002387F85A30C82001F068FD494B1B88A7F85630474B5B88A7F85430454B9B88A7F85230434BDB8868
:40038000A7F85030B7F95630184600F07DFCF864B7F95430184600F077FCB864B7F95230184600F071FC7864B7F95030184600F06BFC3864012000F0A3FE0021002000F087
:4003C0002FFE2B4800F064FE386C01F0DDFE03460C4607F130001A462346264902F036FE07F13003184600F053FE234800F050FE786C01F0C9FE03460C4607F120001A4658
:4004000023461C4902F022FE07F12003184600F03FFE0021012000F003FE184800F038FEB86C01F0B1FE03460C4607F110001A462346104902F00AFE07F11003184600F0A1
:4004400027FE0F4800F024FEF86C01F09DFE03460C4638461A462346064902F0F7FD3B46184600F015FE4BE6504D0000584D0000684D00006C4D0000744D0000784D00009E
:400480007C4D0000804D0000884D0000C481FF1F80B582B000AF786039603A680021786802F05BF900BF0837BD4680BD80B584B000AFF860B9607A607A68B968F86802F008
:4004C00041F900BF1037BD4680BD00BF80B483B000AF0346FB71FEE780B487B000AF7860396000233B6100237B6127E07B699B007A6813441B68BB60BB68FB73BB6823F0A0
:40050000FF03BB6014E03B695B003A6813441B781A46BB68134419463B695B003A6813445B780B703B6901333B61FB7B013BFB73FB7B002BE7D17B6901337B617B691C2B94
:40054000D4D900BF1C37BD4680BC704780B582B000AF304B15221A802F4B18221A702F4B02221A704FF0402308221A702C4B03221A702C4B2C4A1278D2B21A702B4B08225D
:400580001A802B4B41F251221A800023FB7019237B6014E0FB785B00DAB2264B1B78DBB203F00103DBB21343DBB203F00303FB704FF4F07001F074FC7B68013B7B607B68BB
:4005C000002B02D0FB78032BE4D17B68002B02D10320FFF77BFF184B4FF480721A80164B07221A70154B00221A70154B48221A70114B00221A70134B02221A70124A124BC1
:400600001B78DBB243F00103DBB2137000BF0837BD4680BD80400040824000400043004000420040A14600400801004922420040204200402542004004400040064000409E
:400640000840004001400040A243004080B582B000AF2E4B1B78FB712D4B1B78BB712D4B1B787B712C4AFB7903F00703DBB213702A4AFB791B09DBB21370254ABB7943F0A7
:400680000303DBB21370234A7B7943F00303DBB21370234B4DF20D221A80224B40221A70214B40221A70214B02221A70204B02221A70204B10221A701F4B01221A701F4B78
:4006C00040221A701E4B01221A701E4B82221A701D4B20221A701D4B21221A701C4B40F206421A801B4B90221A700A2001F0C4FB084A7B791370064ABB791370164B44226A
:400700001A7000BF0837BD4680BD00BFCF010049F8460040F94600406E5800406F5800403C510040095900400B590040805A00408A5A0040905A00409A5A0040C85A0040FE
:40074000CA5A0040005B0040285B00402B5B0040425B0040585B00407658004080B582B000AF72B6434A434B1B78DBB243F00403DBB213700023FB7113E0FA7913465B00A7
:4007800013445B003C4A13443B603B681A683B689B889BB219461046FFF77AFEFB790133FB71FB79072BE8D934494FF09040FFF793FE04213248FFF76BFE0422314932480E
:4007C000FFF774FE314A314B1B78DBB243F00203DBB213702E4A2E4B1B78DBB243F00203DBB213702B4A2B4B1B78DBB243F04003DBB21370284A284B1B78DBB243F01003FD
:40080000DBB21370082225492548FFF74FFE082224492548FFF74AFE082224492448FFF745FE082223492448FFF740FE082223492348FFF73BFE234A224B1B78DBB243F04F
:400840000803DBB21370204B61221A70FFF77EFE1D4B81221A701D4B01221A70FFF7F6FE0E220C491A48FFF721FE00BF0837BD4680BD00BFE8460040984D000074000048D7
:4008800000760040C4040048087600400350014013500140A0430040C24300409C04004802510040A404004812510040AC04004822510040B404004832510040BC04004890
:4008C00042510040224300400048004004000840B043004080B500AF01F008FF03461B680C2B00D1FEE7FEE780B584B000AF7860104B1A687B6813441A460F4BD31AB3F5A9
:40090000805F09DC0B4B1B68FB600A4B1A687B681344084A136007E001F0E8FE02460C2313604FF0FF33FB60FB6818461037BD4680BD00BFCC80FF1FE081FF1F80B586B01A
:4009400000AF224B7B61224B3B61204B7B6135E03B691B68FB603B695B68BB603B699B683B6000237B600CE0FB681A68BB681A60BB680433BB60FB680433FB607B680433E4
:400980007B607A683B689A42EED13B69DB683B6000237B6008E0BB6800221A60BB680433BB607B6804337B607A683B689A42F2D13B6910333B617B69013B7B617B69002BF9
:4009C000C6D101F099FEFFF75DFBFEE701000000504F000080B582B000AF194B194A1A60194A194B1B6843F40073136000237B600FE07B68032B04D8144A7B6852F823308F
:400A000000E0134B13497A6841F822307B6801337B607B682F2BECD90F4B1B78DAB20F4B1A700F4B0B4A1A60FFF798FE00F0DAFF0C4B00221A6000BF0837BD4680BD00BFF0
:400A40000CED00E00004FA0514ED00E000000000D50800000080FF1FBC760040C480FF1F08ED00E0C080FF1F80B500AF41F6FF734FF480420121022000F02CFF03461A469D
:400A80000A4B1A7041F6FF7341F6FF720121082000F052FF03461A46054B1A70054800F07DFF002000F08CFF00BF80BDA881FF1FA981FF1FA90C000080B582B000AF414BC2
:400AC0001B78184601F002F83F4B1B78184600F0FDFF3E4B1B78FF2B05D101F003F903461A463A4B1A70394B1878384B1A780623082101F025F9354B1B78354A92B245F657
:400B0000A231184601F05CF92E4B1A782F4B1B781946104601F078F82E4B1B78FF2B05D101F0E0F803461A462A4B1A70294B1878284B1A780723082101F002F9254B1B7848
:400B4000234A91B2244A92B2184601F039F91E4B1A78204B1B781946104601F055F8194B1B780121184600F06BFF174B1B780121184600F065FF01F09BF90346FB71174A71
:400B8000164B1B78DBB243F02003DBB21370FB79184601F091F9124A114B1B78DBB243F00103DBB213700E4A0D4B1B78DBB243F00203DBB213700B4B01221A6000BF0837D9
:400BC000BD4680BDA881FF1FA981FF1FD080FF1FAC81FF1FD180FF1FC481FF1F956400407464004080E200E080B500AF084B1B68002B04D1FFF738FF054B01221A60FFF73E
:400C00005BFF00F021FD034B1B7800BF80BD00BFA481FF1F6664004080B500AF00F0C8FD00BF80BD80B485B000AF0346FB71074B1B78FB73FB7B002B02D1FB79002BF6D0D5
:400C4000FB7B18461437BD4680BC70476664004080B483B000AF0346FB80FB88C3F10303074A32F913309AB2064B1B881BB29BB2D31A9BB21BB218460C37BD4680BC704787
:400C8000C481FF1FD481FF1F80B582B000AF0346FB80B7F90630184600F0DAFD034618460837BD4680BD00BF80B400AF00BFBD4680BC704780B500AF064B00221A70064BCA
:400CC00000221A70042000F057F8002000F034F800BF80BD205800402158004080B400AF094A094B1B78DBB243F00103DBB21370064A064B1B78DBB243F00103DBB2137043
:400D000000BFBD4680BC7047A8430040B843004080B500AF074B1B78002B04D1FFF7CAFF044B01221A70FFF7D9FF322000F044F800BF80BDB481FF1F80B483B000AF03461A
:400D4000FB710C4A0B4B1B78DBB223F00203DBB213700849074B1B78DAB2FB7903F00203DBB21343DBB20B7000BF0C37BD4680BC704700BF2058004080B582B000AF03462C
:400D8000FB710C4A0B4B1B78DBB223F00C03DBB213700849074B1B78DAB2FB7903F00C03DBB21343DBB20B7000F016F800BF0837BD4680BD2058004080B483B000AF034653
:400DC000FB71044AFB79137000BF0C37BD4680BC704700BF805B004080B483B000AF0B4B1B78DBB203F00C039B08DBB20633FB71074AFB7903F1924303F590731B78DBB264
:400E0000137000BF0C37BD4680BC7047205800400846004080B500AF064B00221A70064B00221A70042000F057F8002000F034F800BF80BD2C5800402D58004080B400AF0C
:400E4000094A094B1B78DBB243F00803DBB21370064A064B1B78DBB243F00803DBB2137000BFBD4680BC7047A8430040B843004080B500AF074B1B78002B04D1FFF7CAFFAB
:400E8000044B01221A70FFF7D9FF252000F044F800BF80BDB581FF1F80B483B000AF0346FB710C4A0B4B1B78DBB223F00203DBB213700849074B1B78DAB2FB7903F00203BA
:400EC000DBB21343DBB20B7000BF0C37BD4680BC704700BF2C58004080B582B000AF0346FB710C4A0B4B1B78DBB223F00C03DBB213700849074B1B78DAB2FB7903F00C038B
:400F0000DBB21343DBB20B7000F016F800BF0837BD4680BD2C58004080B483B000AF0346FB71044AFB79137000BF0C37BD4680BC704700BF835B004080B483B000AF0B4B75
:400F40001B78DBB203F00C039B08DBB20633FB71074AFB7903F1924303F59C731B78DBB2137000BF0C37BD4680BC70472C5800400B46004080B500AF282000F05BFF03205C
:400F800000F0D0F9052000F055FF032000F0CAF90F2000F04FFF032000F0C4F9012000F049FF022000F0BEF9052000F043FF062000F0A6F80E2000F0A3F82C2000F0A0F842
:400FC000082000F09DF8012000F09AF80C2000F097F8032000F094F8052000F02BFF00BF80BD00BF80B500AF0C2000F089F8024B01221A7000BF80BDB681FF1F80B500AFAD
:40100000064B1B78002B04D1FFF7B4FF034B01221A70FFF7E7FF00BF80BD00BFB781FF1F80B582B000AF03460A46FB711346BB71FB79032B26D801A252F823F04D1000009E
:401040005B1000006910000077100000BB79803BDBB2184600F054F815E0BB79403BDBB2184600F04DF80EE0BB796C3BDBB2184600F046F807E0BB792C3BDBB2184600F0EC
:401080003FF800E000BF00BF0837BD4680BD00BF80B584B000AF78600123FB737B681B78BB730BE0BB7B184600F010F8FB7B7A6813441B78BB73FB7B0133FB73BB7B002BD7
:4010C000F0D100BF1037BD4680BD00BF80B584B000AF0346FB7100F02DF8FB791B09FB73FB7B184600F0E2F8FB7903F00F03FB73FB7B184600F0DAF800BF1037BD4680BDE1
:4011000080B584B000AF0346FB7100F013F8FB791B09FB73FB7B184600F004F9FB7903F00F03FB73FB7B184600F0FCF800BF1037BD4680BD80B582B000AF4FF4CA737B60CA
:40114000554A554B1B78DBB223F07F03DBB21370524B1B78DBB223F00F03FB704F4AFB7843F00F03DBB213704D4B1B78DBB223F00F03FB704A4AFB7813704A4B1B78DBB236
:4011800023F00F03FB70474AFB781370424A424B1B78DBB223F02003DBB213703E4A3E4B1B78DBB243F04003DBB21370002000F063FE394A384B1B78DBB243F01003DBB278
:4011C0001370012000F058FE374B1B78FB70324A314B1B78DBB223F01003DBB21370002000F04AFEFB7803F00803FB702A4A2A4B1B78DBB243F01003DBB21370012000F093
:401200003BFE254A244B1B78DBB223F01003DBB21370FB78002B02D10A2000F02DFE7B68013B7B60FB78002B02D07B68002BBDD1194A194B1B78DBB223F04003DBB2137038
:40124000154A154B1B78DBB223F07F03DBB21370124A124B1B78DBB223F00F03DBB213700F4B1B78DBB223F00F03FB700C4AFB7843F00F03DBB213700A4B1B78DBB223F02C
:401280000F03FB70074AFB7843F00F03DBB2137000BF0837BD4680BD205100402251004023510040245100402151004080B582B000AF0346FB711A4A194B1B78DBB243F0F5
:4012C0002003DBB21370164A154B1B78DBB223F04003DBB21370002000F0CEFD104A104B1B78DBB223F00F03DBB213700C490C4B1B78DAB2FB791343DBB243F01003DBB29B
:401300000B70012000F0B8FD054A054B1B78DBB223F01003DBB2137000BF0837BD4680BD2051004080B582B000AF0346FB71154A144B1B78DBB223F06003DBB21370114AFE
:40134000104B1B78DBB223F00F03DBB213700D490C4B1B78DAB2FB791343DBB243F01003DBB20B70012000F087FD064A054B1B78DBB223F01003DBB2137000BF0837BD46C0
:4013800080BD00BF2051004080B500AF064B00221A70064B00221A70042000F057F8002000F034F800BF80BD285800402958004080B400AF094A094B1B78DBB243F00403A2
:4013C000DBB21370064A064B1B78DBB243F00403DBB2137000BFBD4680BC7047A8430040B843004080B500AF074B1B78002B04D1FFF7CAFF044B01221A70FFF7D9FF0C2039
:4014000000F044F800BF80BDB881FF1F80B483B000AF0346FB710C4A0B4B1B78DBB223F00203DBB213700849074B1B78DAB2FB7903F00203DBB21343DBB20B7000BF0C3753
:40144000BD4680BC704700BF2858004080B582B000AF0346FB710C4A0B4B1B78DBB223F00C03DBB213700849074B1B78DAB2FB7903F00C03DBB21343DBB20B7000F016F80D
:4014800000BF0837BD4680BD2858004080B483B000AF0346FB71044AFB79137000BF0C37BD4680BC704700BF825B004080B483B000AF0B4B1B78DBB203F00C039B08DBB28C
:4014C0000633FB71074AFB7903F1924303F594731B78DBB2137000BF0C37BD4680BC7047285800400A46004080B500AF064B00221A70064B00221A70042000F057F800206E
:4015000000F034F800BF80BD245800402558004080B400AF094A094B1B78DBB243F00203DBB21370064A064B1B78DBB243F00203DBB2137000BFBD4680BC7047A84300403F
:40154000B843004080B500AF074B1B78002B04D1FFF7CAFF044B01221A70FFF7D9FF192000F044F800BF80BDB981FF1F80B483B000AF0346FB710C4A0B4B1B78DBB223F07B
:401580000203DBB213700849074B1B78DAB2FB7903F00203DBB21343DBB20B7000BF0C37BD4680BC704700BF2458004080B582B000AF0346FB710C4A0B4B1B78DBB223F0E0
:4015C0000C03DBB213700849074B1B78DAB2FB7903F00C03DBB21343DBB20B7000F016F800BF0837BD4680BD2458004080B483B000AF0346FB71044AFB79137000BF0C379F
:40160000BD4680BC704700BF815B004080B483B000AF0B4B1B78DBB203F00C039B08DBB20633FB71074AFB7903F1924303F598731B78DBB2137000BF0C37BD4680BC70474A
:40164000245800400946004080B500AF064B1B78002B04D100F00AF8034B01221A7000F01BF800BF80BD00BFBA81FF1F80B500AF074A074B1B78DBB243F00603DBB2137060
:401680000C2000F06BF8034B00221A8000BF80BD09590040CC81FF1F80B582B000AF00F007FC0346FB71254A244B1B78DBB243F00203DBB21370224A214B1B78DBB243F069
:4016C0000203DBB213701F4B1B78BB71BB7943F00203BB71BB7943F00103BB71194ABB791370194B04221A70184A184B1B78DBB243F04003DBB21370144A144B1B78DBB207
:4017000023F00303DBB21370114BC8221A70114B02221A70104A104B1B78DBB243F00803DBB213700A2000F0A7FBFB79184600F0C3FB00BF0837BD4680BD00BFAB4300401C
:40174000BB4300400B5900400E5900400D59004008590040164600402F5B004080B584B000AF0346FB71FB790A2B07D00C2B02D0082B06D008E0C423FB730BE08423FB7397
:4017800008E04423FB7305E0C423FB73002000F045FB00BF054AFB7B1370FB79184600F017F800BF1037BD4680BD00BF0A59004080B400AF054A054B1B78DBB243F0010389
:4017C000DBB2137000BFBD4680BC70470859004080B584B000AF0346FB71FB790A2B08D00C2B02D0082B08D00BE04FF48053FB600DE04FF48063FB6009E04FF48073FB60DD
:4018000005E00023FB60002000F008FB00BF0C4B00221A80FB6842F2107202FB03F303F6C413084A82FB0312D212DB17D31A064A1360064B00221A8000BF1037BD4680BDC7
:40184000CE81FF1FAD8BDB68D081FF1FD481FF1F90B585B000AF0346FB801A4B1B881BB2002B09D0174B1B881BB21A4613469B0013445B00FB6002E0134B1B68FB60134B29
:401880001B881BB2FA889BB2D31A9BB2FB80B7F90630184600F086FD03460D49184600F0D5FD03461C46F86800F07CFD03461946204600F07FFE0346BB60BB68184614379F
:4018C000BD4690BDCE81FF1FD081FF1FCC81FF1F0000204190B585B002AF0446084611461A462346FB710346BB710B46BB8013467B80104B01221A700E4B1878BA79F979B6
:401900000023019300230093012300F09BF9094B1B787A88B988184600F03AF9054B1B780221184600F002F9024B1B7818460C37BD4690BDD280FF1F90B585B002AF0446E2
:40194000084611461A462346FB710346BB710B46BB8013467B80104B00221A700E4B1878BA79F9790023019300230093002300F069F9094B1B787A88B988184600F008F948
:40198000054B1B780221184600F0D0F8024B1B7818460C37BD4690BDD380FF1F80B485B000AF7860054B1B68FB60FB6840337A681A6000BF1437BD4680BC704708ED00E0A4
:4019C00080B483B000AF0346FB71054AFB795B01DBB2137000BF0C37BD4680BC704700BF00E400E080B483B000AF134B7F221A70124B80221A707F23FB710CE0FB79DB0001
:401A000003F1804303F5F043FA79013AD2B21A70FB79013BFB71FB79002BEFD1FB79DB0003F1804303F5F04300221A7000BF0C37BD4680BC704700BFD580FF1FD480FF1F14
:401A400080B485B000AF03460A46FB711346BB710123FB60FB79172B2FD8BB79002B0ED0FB791A01184B1344FA791101164A0A441278D2B242F02002D2B21A700DE0FB79FE
:401A80001A01114B1344FA7911010F4A0A441278D2B222F02002D2B21A70FB791A010A4B1344FA791101084A0A441278D2B242F00102D2B21A700023FB60FB6818461437A1
:401AC000BD4680BC704700BF1070004080B485B000AF0346FB710123FB60FB79172B1DD8FB791A01104B1344FA7911010E4A0A441279D2B242F00402D2B21A71FB791A0129
:401B0000094B1344FA791101074A0A441278D2B242F00102D2B21A700023FB60FB6818461437BD4680BC70471070004080B485B000AF03460A46FB711346BB710123FB6024
:401B4000FB79172B1BD8FB791A01104B13441B78DBB223F00E03FB72FB791A010B4B1344BA795200D2B252B202F00E0251B297F90B200A4352B2D2B21A700023FB60FB6881
:401B800018461437BD4680BC704700BF1070004080B485B000AF0346FB710B46BB8013467B800123FB60BB8841F6FF72934202D14FF40053BB807B8841F6FF72934202D124
:401BC0004FF400537B80FB79172B17D8FB79DB0003F1804303F5EC430433BB60BB68BA881A80FB79DB0003F1804303F5EC430633BB60BB687A881A800023FB60FB681846B2
:401C00001437BD4680BC704780B485B000AF03460A46FB711346BB710123FB60FB79172B07D8FB791A01064B1344BA795A720023FB60FB6818461437BD4680BC704700BF38
:401C40001070004090B484B000AF0446084611461A462346FB710346BB710B467B7113463B710123FB60FB79172B34D8FB79DB0003F1804303F5EC43BA7902F07F02D1B20B
:401C80007A79D201D2B20A43D2B21A70FB79DB0003F1804303F5EC433A7E1201D1B23A7902F00F02D2B20A43D2B25A70FB79DB0003F1804303F5EC433A7F02F00F02D2B2C2
:401CC0009A70FB79DB0003F1804303F5EC430022DA700023FB60FB6818461037BD4690BC704700BF80B582B000AFFF23FB7100F0DFF80346BB71104B1B78182B12D90F4BA0
:401D00001B78FB710C4B1B78013BDAB20A4B1A70FB79DB0003F1804303F5F0431B78DAB2064B1A70BB79184600F0C6F8FB7918460837BD4680BD00BFD480FF1FD580FF1FB3
:401D400090B484B000AF0446084611461A462346FB710346BB800B46BB711346FB700123FB6097F90730002B23DBBB8823F47F6323F00F039BB2002B1BD1FB79DB0003F1DC
:401D8000804303F5F043BB60BB68BA881A80FB79DB0003F1804303F5F043BA799A70FB79DB0003F1804303F5F043FA78DA700023FB60FB6818461037BD4690BC704700BF75
:401DC00080B485B000AF0346FB710B46BB8013467B800123FB6097F90730002B17DBFB79DB0003F1804303F5F0430433BB60BB68BA881A80FB79DB0003F1804303F5F04320
:401E00000633BB60BB687A881A800023FB60FB6818461437BD4680BC704700BF80B483B000AF0346FB7101BE00BF0C37BD4680BC704700BF80B582B000AF786008E00C4BE2
:401E40001B68184600F02CF87B68A3F500437B607B68B3F5004FF2D8064B1B687A6802FB03F3184600F01CF800BF0837BD4680BDE880FF1FE080FF1F80B582B000AF034684
:401E8000FB80FB88054A127802FB03F3184600F007F800BF0837BD4680BD00BFE480FF1F0230800803D000BF01380046FCD17047EFF3108072B6704780F31088704700BF6B
:401EC00081F0004102E000BF83F0004330B54FEA41044FEA430594EA050F08BF90EA020F1FBF54EA000C55EA020C7FEA645C7FEA655C00F0E2804FEA5454D4EB5555B8BF36
:401F00006D420CDD2C4480EA020281EA030382EA000083EA010180EA020281EA0303362D88BF30BD11F0004F4FEA01314FF4801C4CEA113102D0404261EB410113F0004F23
:401F40004FEA03334CEA133302D0524263EB430394EA050F00F0A780A4F10104D5F1200E0DDB02FA0EFC22FA05F2801841F1000103FA0EF2801843FA05F359410EE0A5F191
:401F800020050EF1200E012A03FA0EFC28BF4CF0020C43FA05F3C01851EBE37101F0004507D54FF0000EDCF1000C7EEB00006EEB0101B1F5801F1BD3B1F5001F0CD34908AB
:401FC0005FEA30004FEA3C0C04F101044FEA445212F5800F80F09A80BCF1004F08BF5FEA500C50F1000041EB045141EA050130BD5FEA4C0C404141EB010111F4801FA4F12D
:402000000104E9D191F0000F04BF01460020B1FA81F308BF2033A3F10B03B3F120020CDA0C3208DD02F1140CC2F10C0201FA0CF021FA02F10CE002F11402D8BFC2F1200C39
:4020400001FA02F120FA0CFCDCBF41EA0C019040E41AA2BF01EB0451294330BD6FEA04041F3C1CDA0C340EDC04F11404C4F1200220FA04F001FA02F340EA030021FA04F3B7
:4020800045EA030130BDC4F10C04C4F1200220FA02F001FA04F340EA0300294630BD21FA04F0294630BD94F0000F83F4801306BF81F480110134013D4EE77FEA645C18BF62
:4020C0007FEA655C29D094EA050F08BF90EA020F05D054EA000C04BF1946104630BD91EA030F1EBF0021002030BD5FEA545C05D14000494128BF41F0004130BD14F5800451
:402100003CBF01F5801130BD01F0004545F0FE4141F470014FF0000030BD7FEA645C1ABF194610467FEA655C1CBF0B46024650EA013406BF52EA033591EA030F41F40021D4
:4021400030BD00BF90F0000F04BF0021704730B54FF4806404F132044FF000054FF0000150E700BF90F0000F04BF0021704730B54FF4806404F1320410F0004548BF4042A9
:402180004FF000013EE700BF42004FEAE2014FEA31014FEA02701FBF12F07F4393F07F4F81F06051704792F0000F14BF93F07F4F704730B54FF4607401F0004521F00041CB
:4021C00020E700BF50EA010208BF704730B54FF000050AE050EA010208BF704730B511F0004502D5404261EB41014FF4806404F132045FEA915C3FF4DCAE4FF003025FEAAC
:40220000DC0C18BF03325FEADC0C18BF033202EBDC02C2F1200300FA03FC20FA02F001FA03FE40EA0E0021FA02F11444C1E600BF80F0004002E000BF81F0004142001FBFA4
:402240005FEA410392EA030F7FEA226C7FEA236C6AD04FEA1262D2EB1363C1BFD218414048404140B8BF5B42192B88BF704710F0004F40F4000020F07F4018BF404211F044
:40228000004F41F4000121F07F4118BF494292EA030F3FD0A2F1010241FA03FC10EB0C00C3F1200301FA03F100F0004302D5494260EB4000B0F5000F13D3B0F1807F06D3F9
:4022C00040084FEA310102F10102FE2A51D2B1F1004F40EBC25008BF20F0010040EA03007047490040EB000010F4000FA2F10102EDD1B0FA80FCACF1080CB2EB0C0200FAA9
:402300000CF0AABF00EBC25052421843BCBFD0401843704792F0000F81F4000106BF80F400000132013BB5E74FEA41037FEA226C18BF7FEA236C21D092EA030F04D092F04C
:40234000000F08BF0846704790EA010F1CBF0020704712F07F4F04D1400028BF40F00040704712F100723CBF00F50000704700F0004343F0FE4040F4000070477FEA2262BB
:4023800016BF08467FEA23630146420206BF5FEA412390EA010F40F4800070474FF0000304E000BF10F0004348BF40425FEA000C08BF704743F0964301464FF000001CE007
:4023C00050EA010208BF70474FF000030AE000BF50EA010208BF704711F0004302D5404261EB41015FEA010C02BF84460146002043F0B64308BFA3F18053A3F50003BCFA5E
:402400008CF2083AA3EBC25310DB01FA02FC634400FA02FCC2F12002BCF1004F20FA02F243EB020008BF20F00100704702F1200201FA02FCC2F1200250EA4C0021FA02F2A0
:4024400043EB020008BF20EADC7070474FF0FF0C1CEAD0521EBF1CEAD15392EA0C0F93EA0C0F6FD01A4480EA010C400218BF5FEA41211ED04FF0006343EA501043EA51112C
:40248000A0FB01310CF00040B1F5000F3EBF490041EAD3715B0040EA010062F17F02FD2A1DD8B3F1004F40EBC25008BF20F00100704790F0000F0CF0004C08BF49024CEA55
:4024C000502040EA51207F3AC2BFD2F1FF0340EAC250704740F400004FF00003013A5DDC12F1190FDCBF00F000407047C2F10002410021FA02F1C2F1200200FA02FC5FEA2E
:40250000310040F1000053EA4C0308BF20EADC70704792F0000F00F0004C02BF400010F4000F013AF9D040EA0C0093F0000F01F0004C02BF490011F4000F013BF9D041EAA1
:402540000C018FE70CEAD15392EA0C0F18BF93EA0C0F0AD030F0004C18BF31F0004CD8D180EA010000F00040704790F0000F17BF90F0004F084691F0000F91F0004F14D06D
:4025800092EA0C0F01D142020FD193EA0C0F03D14B0218BF084608D180EA010000F0004040F0FE4040F40000704740F0FE4040F4400070474FF0FF0C1CEAD0521EBF1CEAF5
:4025C000D15392EA0C0F93EA0C0F69D0A2EB030280EA010C49024FEA402037D04FF0805343EA111143EA10130CF000408B4238BF5B0042F17D024FF4000C8B4224BF5B1A29
:4026000040EA0C00B3EB510F24BFA3EB510340EA5C00B3EB910F24BFA3EB910340EA9C00B3EBD10F24BFA3EBD10340EADC001B0118BF5FEA1C1CE0D1FD2A3FF650AF8B42FC
:4026400040EBC25008BF20F0010070470CF0004C4CEA50207F32C2BFD2F1FF0340EAC250704740F400004FF00003013A37E792F0000F00F0004C02BF400010F4000F013ACB
:40268000F9D040EA0C0093F0000F01F0004C02BF490011F4000F013BF9D041EA0C0195E70CEAD15392EA0C0F08D142027FF47DAF93EA0C0F7FF470AF084676E793EA0C0F9B
:4026C00004D14B023FF44CAF08466EE730F0004C18BF31F0004CCAD130F000427FF45CAF31F000437FF43CAF5FE700BF014B1868704700BF4C81FF1F0E4B70B51E460E4C8C
:402700000025E41AA410A54204D056F8253098470135F8E702F00AFC084B094C1E46E41AA4100025A54204D056F8253098470135F8E770BD384F0000384F0000384F000081
:40274000404F000010B5431E0A44914204D011F8014B03F8014FF8E710BD03460244934202D003F8011BFAE770472DE9F04788B0149F002B1E461299B8BF03F1004327F047
:402780002007B6BF1E4600232D23462F1446109DDDF84CA00B7003D0452F03D1013501E0032300E0022307AA049206AA03928DE828042246334600F003FD472F804602D184
:4027C000119BDB0728D5462F08EB050911D198F80030302B0AD1002200232046314602F043FA18B9C5F10105CAF80050DAF800309944002200232046314602F035FA08B92D
:40280000302202E0CDF81C9006E0079B994503D9591C07911A70F8E74046079B159AC8EB0303136008B0BDE8F087034673B50029B8BF494203F8022BB4BF2D222B2209295F
:4028400042701ADD0DF1070216460A2591FBF5F405FB1411092C01F1300102F8011D2146F4DC3031541E02F8011CB4421A460AD214F8012B03F8012BF7E71A46302421446A
:4028800002F8024B5970101A02B070BD2DE9F04F91B00C46DDF8688016461F46054601F027FA03681846099300F0F4FB00230E93D8F800300A90073323F0070303F1080245
:4028C00094F81890D4F800B0C8F80020D3E90023C4E91223D4F84CA0D4F848802AF000430B934FF0FF32A74B40460B9902F0EEF9A0B94FF0FF32A34B40460B9902F0C8F947
:4029000060B9002200234046514602F0B7F910B12D2384F843309C4B9C4A0AE0424653464046514602F0D2F9002800F09281984B984AB9F1470F8CBF90469846032323612F
:402940002BF0040323604FF0000A3DE0B9F1670F00F08A81B9F1470F00F0868123600193636800210DF13302059002920093424653460691CDF81090CDF80CE02846FFF716
:40298000F4FE09F0DF03472B804600F08481B9F1650F0D9900F28D8101394A4604F150000D91FFF742FF0E9A82468318012A236100F37C812268D10700F178819DF8333087
:4029C00013B12D2384F84330009733460FAA2146284600F09FF9013002D14FF0FF3096E123685A0501D4236965E0B9F1650F40F2D580D4E912010022002302F035F978B330
:402A00000123654A31462846B8470130E5D00E9B0D9A9A420BDB2368D80708D423689B0740F111814FF0000804F1190906E10A9B099A31462846B8470130CED04FF000082A
:402A400004F11A090E9B013B9845E7DA01234A4631462846B8470130BFD008F10108F1E70D9B002B29DC01234B4A31462846B8470130B2D00D9B23B90E9B13B92368D907FD
:402A8000CCD50A9B099A31462846B8470130A4D04FF0000904F11A0A0D9B5B42994509DA0123524631462846B847013095D009F10109F1E70E9B4246A7E00E9AA36D9A42DF
:402AC000A8BF1A46002A914606DC4FF0000A29EAE97904F11A0B11E01346314642462846B8470130F1D178E701235A4631462846B84701303FF471AF0AF1010AA36DC9EB56
:402B000003029245F0DB08EB03090D9A0E9B9A420FDB2368DA070CD40E9B0D9A9844C9EB08089B1A9845A8BF9846B8F1000F08DC0FE00A9B099A31462846B8470130EBD122
:402B40004BE743464A4631462846B84701303FF444AF4FF0000928EAE87804F11A0A09E00123524631462846B84701303FF435AF09F101090D9A0E9B9B1AC8EB030399458B
:402B8000EEDB4BE7FFFFEF7FCA4D0000CE4D0000D24D0000D64D0000DA4D00000E9A012A01DCDB0738D50123424631462846B84701303FF412AF0A9B099A31462846B84793
:402BC00001303FF40AAFD4E912010022002302F04BF820B14FF0000804F11A090EE00E9B08F10102013B19E001234A4631462846B84701303FF4F1AE08F101080E9B013BF4
:402C00009845F1DB534604F1500231462846B84701307FF403AFE0E64246012331462846B8470130EED1D8E601234A4631462846B84701303FF4D1AE08F10108E3680F9A5C
:402C40009B1A9845F0DBE0680F9B9842B8BF18465DE062680EA8531C0DF1340E4BF480637FF474AE062201E012B90122626075E6002106910DF133018DE80C00236005909C
:402C80004246CDF81090CDF80CE0029153462846FFF76BFD80460D9BD81C02DB626893421DDDA9F102095FFA89F970E60133236184E6B9F1660F14D10029636807DD216150
:402CC00013B92268D2071DD501330B4419E013B92268D00701D5023313E0012311E04FF067090D9B0E9A934205DB22682361D10708D5013305E0002BD4BFC3F102030123CC
:402D0000134423610D9B4FF0000AA36556E611B0BDE8F08F2DE9F04791461F460A698B6806469342B8BF1346C9F8003091F843200C46DDF8208012B10133C9F800302368A7
:402D4000990642BFD9F800300233C9F80030256815F0060510D104F1190A07E00123524639463046C04701301AD00135E368D9F800209B1A9D42F1DB94F8433022680033AE
:402D800018BF012392060FD5E118302081F843005A1C94F845102244023382F8431003E04FF0FF30BDE8F08704F1430239463046C0470130F4D02268D9F80050E36802F058
:402DC0000602042A08BF5D1B2269A3680CBF25EAE57500259342C4BF9B1AED184FF000091A344D4509D00123224639463046C0470130D5D009F10109F3E70020BDE8F087E4
:402E00002DE9F04317460A7E85B06E2A984606460C460C9B01F1430E00F0AE8011D8632A22D009D8002A00F0BB80582A40F0CA8081F84520834955E0642A1ED0692A1CD09F
:402E4000C0E0732A00F0B08009D86F2A2ED0702A40F0B8800A6842F020020A603EE0752A24D0782A3AD0ADE01A6801F14205111D1960136884F84230A8E021681A6811F002
:402E8000800F02D0111D196008E011F0400F02F10401196002D0B2F9003000E01368002B3CDA2D225B4284F8432037E021681A6811F0800F02D0111D196007E011F0400FEB
:402EC00002F10401196001D0138800E01368227E5C496F2A14BF0A2208221BE078225A4984F845202268186812F0800F00F104051D6003D1550601D5038800E00368D007B6
:402F000044BF42F0200222601BB9226822F0200222601022002084F8430001E049490A226568002DA56008DB206820F0040020602BB9002D7DD175460CE0002B79D07546C1
:402F4000B3FBF2F002FB1033CB5C05F8013D03460028F5D1082A0BD12368DA0708D5236962689A42DEBF302305F8013C05F1FF35C5EB0E0323612EE008681A6810F0800F37
:402F8000496903D0101D1860136808E010F0400F02F104001860136801D0198000E0196000232361754616E01A68111D1960156800216268284600F0A7FE08B1401B6060C8
:402FC000636804E004F1420584F8422001232361002384F84330CDF800803B4603AA21463046FFF797FE013002D14FF0FF3026E023692A4639463046C0470130F5D0236882
:403000009B0710D5002504F1190907E001234A4639463046C0470130E7D00135E368039A9B1A9D42F2DBE068039B9842B8BF184605E00B7804F1420584F842308AE705B082
:40304000BDE8F083DC4D0000ED4D00000EB400B54FF402719CB0ADF814106FF00041049107914FF6FF711DAB02900690084853F8042BADF81610006802A9019301F03AFAC0
:40308000029B00221A701CB05DF804EB03B070474C81FF1F034613F8012B002AFBD1181A013870472DE9F74F03690C6980469C427FDC013C01F114074FEA840E00F114066E
:4030C00006EB0E0357F82450019356F824300135B3FBF5F507EB0E09C5B34FF0000A3846B446D34650F8043B9AB205FB02A21B0C4FEA124A05FB03A392B2C2EB0B0BBCF818
:4031000000204FEA134A5A441FFA83FBDCF800308145CBEB134303EB224392B242EA03424FEA234B4CF8042BDCD256F80E306BB9019B043B9E421A4602D3C8F8104005E069
:403140001268043B002AF8D1013CF3E7404600F0F6FF00282BDB304601354FF0000E57F8042B036891B2C1EB0E0E120C99B27144C2EB134303EB214389B24FEA234EB945B0
:4031800041EA034340F8043BE9D256F8242006EB840362B9043B9E421A4602D3C8F8104005E01268043B002AF8D1013CF3E7284600E0002003B0BDE8F08F000000000000F6
:4031C0002DE9F04F456A95B08246219CCDE9022345B9102000F090FDCAF82400456085600560C560DAF82430196859B15A68012393404A608B60504600F0C9FDDAF8243010
:4032000000221A60039BA04A002BBDBF01232360039B0023BCBF23F000430393DDF80C80A8BF236028F000431B0D1B0593421DD142F20F73209A1360029B43B9934A944B0B
:40324000C8F31300002814BF1846104600E09048229B002B00F04685C37813B100F1080300E0C31C229A136000F03CBDDDE90245002200232046294601F0F6FC074658B144
:40328000209A01231360229B002B00F01E8581481860013800F026BD12AB019313AB009322462B46504600F0C5FFC8F30A56049056B1C5F3130343F07F51204641F44011BD
:4032C000A6F2FF3611971DE0139B129E1E4406F23243202B0ADD029A06F21240C3F1400322FA00F008FA03F3184304E0C3F12000029B03FA00F0FEF725FF0123A1F1F87147
:40330000013E11930022644BFEF7DEFD58A3D3E9002301F041FA58A3D3E90023FEF7D6FD044630460D46FEF71DFF55A3D3E9002301F032FA02460B4620462946FEF7C6FD23
:4033400004460D4601F0D8FC0022834600232046294601F093FC58B15846FEF703FF02460B462046294601F07FFC08B90BF1FF3BBBF1160F0DD8DDE90223484901EBCB012F
:40338000D1E9000101F098FC30B10BF1FF3B002300E00123109300E01090129B9E1B731E079343BFC3F10008002307934FF00008BBF1000F06DB079BCDF82CB05B44079301
:4033C000002705E00023CBEB0808CBF100070B931E9B092B28D8052BC4BF043B1E931E9BC8BF0025A3F10203D8BF0125032B20D8DFE803F0060E0204012302E0012308E020
:4034000000230A931F9B002B1DDD9946059321E000230A931F9B0BEB030909F10103012B0593B8BF012315E0012500231E930A9501E001230A934FF0FF390022CDF814906A
:4034400012231F9206E04FF001094B46CDF81490CDF87C90DAF8244000226260042101F114029A421CD86268490001326260F6E761436F63A787D23FB3C8608B288AC63F9E
:40348000FB799F501344D33F0000F07FFE4D0000074E0000DB4D00000000F83F184E00006168504600F03EFCDAF8243020601B680693059B0E2B00F25B81002D00F0588184
:4034C000DDE90234BBF1000FCDE90E3430DD9F4A0BF00F034FEA2B1502EBC303E80618CBCDE908340CD5DDE90E01994B05F00F05D3E9082301F07AFA0324CDE9020100E07C
:403500000224934E6DB1E90708D5DDE90801D6E9002301F041F9CDE9080101346D100836F0E7DDE90823DDE9020101F05FFA20E0CBF1000505B3DDE90E01844B05F00F0210
:4035400003EBC203D3E9002301F026F9CDE902017F4E2D110023022455B1EA0705D5D6E9002301F019F9013401236D100836F3E71BB1CDE9020100E00224109BE3B1DDE968
:4035800002560022734B2846314601F077FB98B1059B8BB1B9F1000F40F3E6800BF1FF330893314600226C4B284601F0F5F80134CDE902014E4602E0059ECDF820B02046AD
:4035C000FEF7D0FDDDE9022301F0E6F8634B0022FEF77CFCA1F1507304460C931D46D6B9DDE9020100225E4BFEF76EFC22460C9BCDE9020101F060FB002840F03F820C991D
:40360000224601F10043DDE9020101F037FB002840F02B82A8E00A9A4C4B711E002A49D003EBC103D3E9002300204E4901F0DEF922462B46FEF748FCCDE90C01069CDDE91A
:40364000020101F059FB0546FEF78CFD02460B46DDE90201FEF738FCDDE90C23303504F8015BCDE9020101F009FB002840F01D83DDE9022300203749FEF726FCDDE90C23BF
:4036800001F0FCFA002840F0D180069BE31AB3426ADADDE90C0100222F4B01F07DF80022CDE90C01DDE902012B4B01F075F8CDE90201C4E703EBC1012246D1E900012B46A4
:4036C00001F06AF8069BCDE90C011D469C19DDE9020101F011FB0646FEF744FD02460B46DDE90201FEF7F0FB303605F8016BAC42CDE902014FF0000222D11A4BDDE90C018F
:40370000FEF7E4FB02460B46DDE9020101F0D4FA002840F08B80DDE90C2300201149FEF7D3FB02460B46DDE9020101F0A7FAD8B114F8013C621E302B40F0B7821446F7E7BD
:40374000054B01F029F8CDE90201C0E7184E0000F04E00000000F03F0000244000001C40000014400000E03FDDE90E34CDE90234139B002B7CDBBBF10E0F79DCAB4B03EB5B
:40378000CB03D3E900671F9B002B14DA059B002B11DC40F06C810022A54B3046394600F0FBFFDDE9022301F07DFA059D2E46002840F05F8165E1069CDDE9028932463B46AC
:4037C0004046494601F012F901F096FA0546FEF7C9FC32463B4600F0DFFF0B46024649464046FEF771FB05F1300E069B04F801EBC3EB040E059B73452DD102460B46FEF7FB
:4038000065FB8046894602460B463046394601F035FA78B942464B463046394601F024FA002800F04482EB0704D440E2DDF820B000E01C4614F8012C631E392A07D1069A51
:403840009A42F6D1069930220BF1010B0A701A7801321A702BE20022764B00F09DFF002200238046894601F0FFF90028A6D01EE20A9A002A2BD01E9A012A0ADC119A12B106
:4038800003F2334302E0129BC3F136033D46444613E0059B5D1EAF42BFBF0B9BEA1B9B180B93059BB6BF2F467D1B0025002BA7BF4446059BC3EB08040023079A01211A449B
:4038C00050469844079200F001FB064602E03D4644460A9E5CB1079B002B08DDA342A8BF2346079AC3EB0808E41AD31A0793002F1DDD0A9BABB18DB131462A46504600F0C1
:403900007FFB049A01460646504600F0E8FA04990890504600F03BFA089B04937A1B06D000E03A460499504600F06AFB04900121504600F0CBFA0B9B05465BB31A46014650
:40394000504600F05DFB1E9B0546012B18DC029B83B9039BC3F3130373B9039B23F000473F0D3F054FB1079B08F1010801330793012702E0002700E0029F0B9B73B100E080
:4039800000272B6905EB8303186900F052FAC0F1200004E01E9B012BD9DD0B9F0120079B184410F01F0008D0C0F12003042B02DDC0F11C0002E006D018461C30079B804492
:4039C000034404440793B8F1000F05DD42460499504600F063FB0490079B002B05DD29461A46504600F05AFB0546109B23B32946049800F0A4FB00281EDA00230A2204999C
:403A0000504600F0DBF90A9B0BF1FF3B0490002B00F05F81314600230A22504600F0CEF9B9F1000F06463FDC3BE000BF184E00000000144000002440059B002B2BDC1E9B0C
:403A4000022B28DDDDF81490B9F1000F11D129464B460522504600F0B1F901460546049800F06DFB00280CDC03E0354600E000252E461F9B069C6FEA030B09E03546DDF840
:403A800020B0069B069A5C1C312313700BF1010B05960026F7E00A9BDDF8149023B9069CB2E01E9B022BCFDC002C05DD31462246504600F0F3FA06469FB17168504600F0EC
:403AC00031F90446326906F10C01023292000C30FEF738FE01222146504600F0DFFA059000E00596029B069F03F00103079329460498FFF7D7FA3146044600F13008049862
:403B000000F01DFB059A02902946504600F033FBC36802463BB901460A90049800F00FFB0A9A034600E00123114650460A9300F02EF90A9B53B91E9A42B9079A32B9B8F120
:403B4000390F2AD0029B002B1CDC1DE0029A002A04DB1BD11E9ACAB9079ABAB9002B13DD01220499504600F099FA2946049000F0E6FA002803DC07D118F0010F04D0B8F12B
:403B8000390F0AD004F131087C1C0CE0002B07F101040BDDB8F1390F03D139233B70013756E008F1010887F800806CE0069B2746E31A4B4504F8018C3BD000230A2204997F
:403BC000504600F0FBF8059B04909E424FF00A024FF000033146504604D100F0EFF80646059084E700F0EAF8002306460A220599504600F0E3F8059079E700230A22049959
:403C0000504600F0DBF8049029460498FFF74AFA069B00F1300804F8018BE31A4B45ECDB069B0596B9F1010FACBF4B4401331F46002601220499504600F030FA294604908A
:403C400000F07DFA002803DC15D118F0010F12D03C4614F8013C621E392B09D1069B934204D10BF1010B3123069A02E01446F0E70133137007E03C4614F8013C621E302BCF
:403C800001D11446F8E72946504600F080F8059B6BB12EB19E4203D03146504600F077F80599504600F073F801E0DDF820B00499504600F06CF80023209A23700BF10103C6
:403CC0001360229B1BB11C6001E008480AE0069808E0B9F1000F3FF7E2AE1E9B022B7FF7DEAEB1E615B0BDE8F08F00BFDA4D0000004870475081FF1F024B0146186800F0EC
:403D000041BB00BF4C81FF1F10B5C9B202449042034605D01C7801308C42F8D1184610BD002010BD70B5456A04460E463DB91020FFF7E2FF6062456085600560C560656ADF
:403D4000EB6843B1636ADB6853F8260078B1026843F8262017E021220421204600F0B8FA636AE860DB68002BECD1002070BD012101FA06F56A1D9200204600F0A9FA002821
:403D8000F3D04660856000230361C36070BD70B5446A06460D463CB91020FFF7ADFF7062446084600460C4603DB1736A6A68DB6853F82210296043F8225070BD2DE9F041BC
:403DC00006460C460D691F4601F1140E0023DEF80000013381B202FB0171000C0F0C02FB007089B201EB00419D424FEA10474EF8041BECDCD7B1A3689D4212DB6168304631
:403E00000131FFF78FFF8046226904F10C01023292000C30FEF796FC21463046FFF7B7FF444604EB850301355F6125612046BDE8F081030C1B0413B90004102300E000233A
:403E400010F07F4F04BF0002083310F0704F04BF0001043310F0404F04BF80000233002803DB420003D5581C70471846704720207047036813F007020BD0D90722D49A0793
:403E80004BBF5B089B08036003604CBF01200220704799B209B91B0C102213F0FF0F04BF1B0A0832190704BF1B090432990704BF9B080232D90702D45B0805D00132036093
:403EC00010467047002070472020704710B50C460121FFF727FF01224461026110BD2DE9F74F14460A69236988469A42BEBF0B46A0461C46D8F81070D4F81090D8F8083061
:403F0000D8F8041007EB09069E42C8BF0131FFF709FF00F114052B4605EB860C0022634502D243F8042BFAE704F1140208F1140102EB890301EB87070093009B019293427D
:403F400057D9B2F800B0BBF1000F23D08946AE464FF0000859F8044BBEF800A0A3B20BFB03A34FEA144ADEF8004043444FEA14480BFB0A84F24604EB13449BB243EA04436C
:403F80004F454FEA14484AF8043B01D9D646E1E7CEF80480019B0432B3F802A0BAF1000F21D02C4689462B684FF00008B9F800E0B4F802B09BB20AFB0EBEA346F04443EA13
:403FC00008434BF8043B59F8043BB4F804E01B0C0AFB03E34F4503EB18434FEA134801D95C46E3E763600435A7E75CF8043D13B9013E002EF9DC066103B0BDE8F08F0000A0
:404000002DE9F843154612F0030206460F4607D0214C013A002354F82220FFF7CFFE0746AD1036D0746A3CB91020FFF765FE7062446084600460C460D6F82480D8F8084061
:404040004CB940F271213046FFF740FF04460023C8F8080003604FF00008EB070AD5394622463046FFF73BFF814639463046FFF78EFE4F466D100CD0206808B10446ECE705
:40408000224621463046FFF72AFF2060C0F80080F4E73846BDE8F883E04E00002DE9F0470C460746914626694FEA621A56444968A368751CAB4202DA01315B00FAE738469A
:4040C000FFF730FE002380461A4600F11401534503DA41F823200133F9E72AEAEA73206901EB830319F01F0904F1140101EB800E14D0C9F1200C002208689A4600FA09F0F8
:40410000024343F8042B51F8042B8E4522FA0CF2F2D8CAF8042042B1B51C06E0043B51F8042B8E4543F8042FF9D8013D3846C8F810502146FFF72BFE4046BDE8F0870369D8
:404140000A6910B59B1A11D192001430143183180A4453F8044D52F8041D8C4202D007D3012010BD9842F4D3002010BD184610BD4FF0FF3010BD2DE9F8430C4607461146C2
:4041800020461546FFF7DBFF061E08D131463846FFF7C8FD012303614661BDE8F883BCBF23462C4638466168BABF1D4601260026FFF7B8FD2B69C660266905F1140904F1B0
:4041C000140101EB860709EB830800F114054FF0000C51F8042B59F8044B93B29C44A3B2240CC3EB0C03C4EB124202EB23429BB24FEA224CC84543EA02428E4645F8042BD7
:40420000E7D8BE450ED25EF8041B8AB26244131403EB114392B242EA03424FEA234C45F8042BEEE755F8043D0BB9013EFAE70661BDE8F8832DE9F3411C4601219046089E3B
:40424000099DFFF76FFDC4F31302C4F30A5407460CB142F480120192B8F1000F19D002A840F8088DFFF705FE009B48B1019AC0F1200102FA01F10B43C2407B61019200E051
:404280007B61019B002B14BF02210121BB61396107E001A8FFF7EDFD019B01217B613961203034B1A4F2334404443460C0F1350009E0A0F2324007EB810330601869FFF77B
:4042C000B8FDC0EB41102860384602B0BDE8F08138B502FB01F4214600F054F8054618B122460021FEF739FA284638BD38B50546002944D051F8043C0C1F002BB8BFE418CE
:4043000000F017FA1E4A1368114613B96360146030E0A3420DD92268A018834201BF18685B681218226063600C6023E0A24203D813465A68002AF9D118681918A1420BD13E
:404340002168014458188242196013D110685268014419605A600DE002D90C232B6009E021686018824201BF106852680918216062605C602846BDE8384000F0DBB938BDEE
:40438000C081FF1F70B5CD1C25F0030508350C2D38BF0C25002D064601DBA94202D90C23336046E000F0C5F9234B1C681A462146A1B10B685B1B0ED40B2B03D90B60CC18ED
:4043C000CD501EE08C420BBF63684B681360636018BF0C4615E00C464968E9E7174C23681BB9304600F07AF920602946304600F075F9431C18D0C41C24F00304A0420DD105
:404400002560304600F096F904F10B00231D20F00700C31A0ED05A42E25070BD211A304600F05CF90130EBD10C233360304600F081F9002070BD00BFC081FF1FBC81FF1FAA
:404440002DE9F0478E6882469E420C46914698463ED88A8912F4906F3AD02568096902236F1A656905EB450595FBF3F57B1C43449D4238BF1D4653050FD52946FFF782FF6C
:40448000064698B13A462169FEF75CF9A38923F4906343F08003A38113E02A4600F04BF9064670B921695046FFF720FF0C23CAF80030A3894FF0FF3043F04003A381BDE8C8
:4044C000F08726613E44266046466561ED1BA560464528BF464649463246206800F00EF9A36800209B1BA36023681E442660BDE8F08700002DE9F04F9DB003938B8980464E
:404500001C060D4616460DD50B695BB94021FFF739FF2860286118B90C23C8F80030CDE040236B610023099320238DF82930DFF89CB130238DF82A3037463C4614F8013B57
:404540001BB9B7EB060910D003E0252BF9D02746F3E74B46324629464046FFF771FF013000F0A780099B4B4409933B78002B00F0A08000234FF0FF32049307930592069336
:404580008DF853301A930126052221784E48FFF7BBFB671C049B38B14B4A3C46801A06FA00F018430490EFE7D90644BF20228DF853201A0744BF2B228DF8532022782A2A39
:4045C00003D0079A00210A200BE0039A111D12680391002A10DA524243F00200079204900BE027463B780134303B092B03D800FB02320121F5E701B107923B782E2B1ED101
:404600007B782A2B0AD1039B02371A1D1B680392002BB8BF4FF0FF33059310E0002319460593781C0A2407463A780130303A092A03D804FB01210123F5E703B10591032282
:4046400039782248FFF760FB40B14023CBEB000003FA00F0049B013718430490397806221B487E1C8DF82810FFF74EFB88B1194B33B9039B073323F007030833039314E0FC
:4046800003AB00932A46144B04A94046FEF7FEF807E003AB00932A460F4B04A94046FEF7AFFBB0F1FF3F824603D0099B5344099342E7AB895B0601D4099801E04FF0FF3034
:4046C0001DB0BDE8F08F00BF184F00001E4F0000224F00008D2800004144000038B5064C0023054608462360FCF7FEF8431C02D1236803B12B6038BDD881FF1F884210B52D
:4047000001EB020301D8421E0BE09842FBD28118D21AD34204D013F8014D01F8014DF8E710BD994204D011F8014B02F8014FF8E710BD70477047F8B5074615460E4621B918
:404740001146BDE8F840FFF71DBE1AB9FFF7CEFD2846F8BD00F015F885420ED929463846FFF710FE044650B131462A46FDF7EAFF31463846FFF7BAFD01E03046F8BD2046BE
:40478000F8BD51F8040C0028BEBF091851F8043CC01804387047000070B54FF0FF0C4CF4E06C1CEA11541DBF1CEA135594EA0C0F95EA0C0F00F0DEF82C4481EA030621EA39
:4047C0004C5123EA4C5350EA013518BF52EA033541F4801143F4801338D0A0FB02CE4FF00005E1FB02E506F00042E0FB03E54FF00006E1FB03569CF0000F18BF4EF0010E77
:40480000A4F1FF04B6F5007F64F5407404D25FEA4E0E6D4146EB060642EAC62141EA55514FEAC52040EA5E504FEACE2EB4F1FD0C88BFBCF5E06F1ED8BEF1004F08BF5FEA3B
:40484000500E50F1000041EB045170BD06F0004646EA010140EA020081EA0301B4EB5C04C2BFD4EB0C0541EA045170BD41F480114FF0000E013C00F3AB8014F1360FDEBF90
:40488000002001F0004170BDC4F10004203C35DA0C341BDC04F11404C4F1200500FA05F320FA04F001FA05F240EA020001F0004221F0004110EBD37021FA04F642EB06010D
:4048C0005EEA430E08BF20EAD37070BDC4F10C04C4F1200500FA04F320FA05F001FA04F240EA020001F0004110EBD37041F100015EEA430E08BF20EAD37070BDC4F12005CB
:4049000000FA05F24EEA020E20FA04F301FA05F243EA020321FA04F001F0004121FA04F220EA020000EBD3705EEA430E08BF20EAD37070BD94F0000F0FD101F000464000B9
:4049400041EB010111F4801F08BF013CF7D041EA060195F0000F18BF704703F00046520043EB030313F4801F08BF013DF7D043EA0603704794EA0C0F0CEA135518BF95EADB
:404980000C0F0CD050EA410618BF52EA4306D1D181EA030101F000414FF0000070BD50EA410606BF1046194652EA430619D094EA0C0F02D150EA013613D195EA0C0F05D1DA
:4049C00052EA03361CBF104619460AD181EA030101F0004141F0FE4141F470014FF0000070BD41F0FE4141F4780170BD70B54FF0FF0C4CF4E06C1CEA11541DBF1CEA1355B9
:404A000094EA0C0F95EA0C0F00F0A7F8A4EB050481EA030E52EA03354FEA013100F088804FEA03334FF0805545EA131343EA12634FEA022245EA111545EA10654FEA00269A
:404A40000EF000419D4208BF964244F1FD0404F5407402D25B084FEA3202B61A65EB03055B084FEA32024FF480104FF4002CB6EB020E75EB030E22BFB61A754640EA0C00F4
:404A80005B084FEA3202B6EB020E75EB030E22BFB61A754640EA5C005B084FEA3202B6EB020E75EB030E22BFB61A754640EA9C005B084FEA3202B6EB020E75EB030E22BF1B
:404AC000B61A754640EADC0055EA060E18D04FEA051545EA16754FEA06164FEAC30343EA52734FEAC2025FEA1C1CC0D111F4801F0BD141EA00014FF000004FF0004CB6E775
:404B000011F4801F04BF01430020B4F1FD0C88BFBCF5E06F3FF6AFAEB5EB030C04BFB6EB020C5FEA500C50F1000041EB045170BD0EF0004E4EEA113114EB5C04C2BFD4EB09
:404B40000C0541EA045170BD41F480114FF0000E013C90E645EA060E8DE60CEA135594EA0C0F08BF95EA0C0F3FF43BAF94EA0C0F0AD150EA01347FF434AF95EA0C0F7FF440
:404B800025AF104619462CE795EA0C0F06D152EA03353FF4FDAE1046194622E750EA410618BF52EA43067FF4C5AE50EA41047FF40DAF52EA43057FF4EBAE12E74FF0FF3C64
:404BC00006E000BF4FF0010C02E000BF4FF0010C4DF804CD4FEA410C7FEA6C5C4FEA430C18BF7FEA6C5C1BD001B050EA410C0CBF52EA430C91EA030F02BF90EA020F002008
:404C0000704710F1000F91EA030F58BF994208BF90422CBFD8176FEAE37040F0010070474FEA410C7FEA6C5C02D150EA013C07D14FEA430C7FEA6C5CD6D152EA033CD3D0D0
:404C40005DF8040B704700BF8446104662468C461946634600E000BF01B5FFF7B7FF002848BF10F1000F01BD4DF808EDFFF7F4FF0CBF012000205DF808FB00BF4DF808ED3A
:404C8000FFF7EAFF34BF012000205DF808FB00BF4DF808EDFFF7E0FF94BF012000205DF808FB00BF4DF808EDFFF7CEFF94BF012000205DF808FB00BF4DF808EDFFF7C4FF75
:404CC00034BF012000205DF808FB00BF4FEA410C7FEA6C5C02D150EA013C0AD14FEA430C7FEA6C5C02D152EA033C02D14FF0000070474FF0010070474FEA410212F5001231
:404D000015D211D56FF47873B3EB625212D94FEAC12343F0004343EA505311F0004F23FA02F018BF404270474FF00000704750EA013005D111F0004008BF6FF000407047B4
:404D40004FF00000704700BF0000000000000000496E697469616C00564441432073657474696E67733A000043310000252B312E326600002043320043330000204334006E
:404D80005374617274000000696E6372656D656E74696E672E2E2000505100402000C05100401000F0510040100000000140001000140140000800400140000A004C0140AD
:404DC00000020050014020004300494E4600696E66004E414E006E616E00300030313233343536373839414243444546003031323334353637383961626364656600496E9E
:404E000066696E697479004E614E00504F534958002E000000000000000000000000F03F000000000000244000000000000059400000000000408F40000000000088C3405B
:404E400000000000006AF8400000000080842E4100000000D01263410000000084D797410000000065CDCD41000000205FA00242000000E876483742000000A2941A6D42A3
:404E8000000040E59C30A2420000901EC4BCD64200003426F56B0C430080E03779C3414300A0D8855734764300C84E676DC1AB43003D9160E458E143408CB5781DAF1544F1
:404EC00050EFE2D6E41A4B4492D54D06CFF08044F64AE1C7022DB544B49DD9794378EA4405000000190000007D000000000000000080E03779C34143176E05B5B5B89346DE
:404F0000F5F93FE9034F384D321D30F94877825A3CBF737FDD4F1575232D302B2000686C4C0065666745464700000000F8B500BFF8BC08BC9E4670474D000000D509000035
:404F4000F8B500BFF8BC08BC9E46704729000000604F0000C880FF1FC00000005800000000000000E081FF1FFFFFFFFF807F00000300000000366E01C05D00001800000005
:404F80000000E02E0000000000000000000000000000000000000000000000000000000000000000C84D0000000000000000000000000000000000000000000000000000CE
:404FC000000000000000000000000000000000000000000000000000000000000000000000000000EC80FF1F114E00001D4F00001D4F00001D4F00001D4F00001D4F0000AC
:405000001D4F00001D4F00001D4F00001D4F0000FFFFFFFFFFFFFFFFFFFFFFFFFFFF00000000000000000000000000000000000000000000000000000000000000000000CE
:405040000000000000000000000000000000000000000000000000000000000000000000000000000000000000000000000000000000000000000000000000000000000030
:4050800000000000000000000000000000000000000000000000000000000000000000000000000000000000000000000000000000000000000000000000000000000000F0
:4050C00000000000000000000000000000000000000000000000000000000000000000000000000000000000000000000000000000000000000000000000000000000000B0
:40510000000000000000000000000000000000000000000000000000000000000000000000000000000000000000000000000000000000000000000000000000000000006F
:020000040003F7
:0200000480007A
:4000000004520040015B0040016400401600014024010140140201403803014033040140470501400E0601403D070140010B01400E1401402E1501400E1601402F1701405A
:40004000021B01400E4001400841014006420140034301400245014002460140064801400D490140044C0140034D014008500140025101401805190C200121012F848503B3
:40008000040108010C011001200126012E013001580459045F018201840190019801A001A801AE01B001D804D904DF0101400319050506400B800C200E080F401020124192
:4000C00015101601171119021E8029802DC02F0830203105330835013604380239103A013BC13D103F418102C037C258C4DDCA38CCC7CEBD0602070229012D012E0130023F
:4001000033023501360139203F10580459045F01D608D804D904DB04DD90DF0102810308040805010602070809280A040B800E091002161017551D011E031F40241025085E
:4001400027142A012B082C082D802E043002312935053680370838023A023B803C103D443E015A80600292809402954097809B019D059F10A308A604AA40AE40C0FBC2CEA6
:40018000C4D1CA75CCD7CEF9D608D80806011202190127032801320333013502520353025804590C5B045C095F0180108104822086028701880189018C048F0290809240AF
:4001C0009608984099029A809E049F04A002A408A710A820AA10AB08AD08AE01B4FFB71FB980BE10BF40D602D736D804D904DB0FDF010108048005050640072408020C02DA
:400200000D080E0E0F03120815541621170219081F10212022082402268029082C012E222F1031203501360437603CA03E083F025F086610680869806A806B086C466D14B3
:400240006F4074407608770679807E40824884018508940A95449604980299019A129D049E019F40A108A201A408A684B180C0F4C2F8C4F2CAF2CCF4CEF0D640D820DE8858
:400280000F0112012A023301340136025401580459045B0F5F01D804D904DF010020024005810720080109200C020E080F02114813011401150116081D201E081F40250CBE
:4002C000272028012A012C012D012F4031293280350136843B013C803D083F014C014DC05E40660167C07E4084108740900292C09301980199019A489E019F20A042A28092
:40030000A301A410A604C0BAC2DAC4DDCA99CCDFCED1D610DE80EE8002010C0110011A01200128012E013001580459045F01D804D904DF01018002C006610720080109200A
:400340000D200F02104012011320140116801902284029802B412C012E222F203001312032803320368038023A233E803FC28D029002934098019A409B20A120A301C0B907
:40038000C2CAC49BCAF9CC1DCE95E240E810EE04580459045F01800188018C0190019801A801AE01B601D804D904DF01002002C00302050406610720080109200D200F02C7
:4003C0001140132014011502198029042A012B032C012E202F403001312032803684380239023D403F0289809002914093C098019A419B20A010A120A204A301C0BBC2CA73
:40040000C493CABBCC5DCE91E680E810EE041220168030803B023E805D806C8075808380C430CC10CE60D620E620934097029D80A380AA20AF40EC80EE408180934097026E
:400440009D80A380E22093409702A3802020C802B010EE0124088A4093409702A380C8205380564058205F408C2093409A40A380AB01B404D4E0D620EE201F803402C601D1
:40048000CC01AB80B402E80800010101080109010A010B0110011A010003100A0000000000000400000B0B0000000000007F7F000000000000000000000FFF000001010000
:4004C00001000000000100000000000000000000000000000000000000000000000000000000000000000000000000000000000000000000000000000000000000000000FA
:4005000000000000000000000000000000000000000000000000000000000000000000000000000000000000000000000000000000000000000000000000000000000000BB
:40054000000000000000000000000000000000000000000000000000000000000000000000000000000000000000000000000000000000000000000000000000000000007B
:40058000000000000000000000000000000000000000000000000000000000000000000000000000000000000000000000000000000000000000000000000000000000003B
:4005C00000000000000000000000000000000000000000000000000000000000000000000000000000000000000000000000000000000000000000000000000000000000FB
:0200000490006A
:0400000000004005B7
:0200000490105A
:04000000BC90ACAF55
:0200000490303A
:02000000B7A4A3
:0200000490402A
:4000000000000000000000000000000000000000000000000000000000000000000000000000000000000000000000000000000000000000000000000000000000000000C0
:400040000000000000000000000000000000000000000000000000000000000000000000000000000000000000000000000000000000000000000000000000000000000080
:400080000000000000000000000000000000000000000000000000000000000000000000000000000000000000000000000000000000000000000000000000000000000040
:4000C0000000000000000000000000000000000000000000000000000000000000000000000000000000000000000000000000000000000000000000000000000000000000
:0200000490501A
:0C00000000012E12306900012E32E80DC4
:00000001FF