:1000000000800020C5550000D57E0000D57E000090
:10001000D57E0000D57E0000D57E0000D57E000094
:10002000D57E0000D57E0000D57E0000D57E000084
:10003000D57E0000D57E0000D57E0000D57E000074
:10004000D57E0000D57E0000D57E0000D57E000064
:10005000D57E0000D57E0000D57E0000D57E000054
:10006000D57E0000D57E0000D57E0000D57E000044
:10007000D57E0000D57E0000D57E0000D57E000034
:10008000D57E0000D57E0000D57E0000D57E000024
:10009000D57E0000D57E0000D57E0000D57E000014
:1000A000D57E0000D57E0000D57E0000D57E000004
:1000B000D57E0000D57E0000D57E0000D57E0000F4
:1000C00080B51448144B21E05C689968DD688C4267
:1000D0000CD0002205E0A6180832D6E9008941E9D3
:1000E00002898C460831AA42F5D101E004EB050CE7
:1000F0001C696146002204E008320026002741E91D
:1001000002670831A242F7D1143301380028DBD14D
:1001100007F0C8FE010000001083000048F2181329
:10012000C1F6FF731A780AB901201870704700BF32
:1001300048F20010C1F6FF7008B503682BB140F219
:100140000003C0F2000303B1984708BD80B500AFBB
:1001500005F09AFE4FF4165005F06AFB05F0BCFA64
:1001600080BD00BF80B58CB00AAF00F011FB00F07D
:100170008DFC07F10603184601F054F94FF0020315
:10018000009348F2DC13C1F6FF7301934FF00C03A8
:1001900002934FF0800303934FF0000304934FF05A
:1001A000000305934FF0000306934FF003030793FA
:1001B00007F10603089348F21C10C1F6FF7047F6DA
:1001C0002871C0F2000140F2E912C0F200024FF0C3
:1001D000000303F00FFA07F10603184601F0F0FBE5
:1001E00007F10807BD4680BD80B586B002AF7860D4
:1001F00000F0F2FA00F0F6FA07F10E03184602F0EA
:10020000C9FE00F01DF800F04FF8FFF79FFF4FF018
:10021000000000F009FB4FF0000000F05BFB4FF026
:100220000003009307F10E0301934FF000004FF01D
:1002300000014FF000024FF0640304F089FDEAE78B
:1002400080B58CB00AAF4FF00303009348F29C4393
:10025000C1F6FF7301934FF0190302934FF48073BB
:1002600003934FF0000304934FF0000305934FF006
:10027000000306934FF00303079307F10603089367
:1002800048F2DC30C1F6FF7047F62871C0F2000179
:1002900040F2B522C0F200024FF0000303F0AAF9C9
:1002A00007F10807BD4680BD80B400AFBD4680BCE5
:1002B000704700BF80B58EB004AF786006F02CFBAD
:1002C0004FF000004FF0000106F03CFB47F63070A5
:1002D000C0F2000006F070FB4FF001004FF000018B
:1002E00006F030FB47F63070C0F2000006F064FB09
:1002F00047F64470C0F2000006F05EFB4FF00003CA
:1003000087F822304FF0000387F823304FF00003C6
:1003100087F824304FF0000387F825304FF00003B2
:1003200087F826304FF0000387F8273097F822200F
:1003300097F823309A421BD04FF000004FF0000195
:1003400006F000FB47F63070C0F2000006F034FB08
:100350004FF001004FF0000106F0F4FA47F630705C
:10036000C0F2000006F028FB97F8223087F823300F
:1003700097F82230022B00F0AC80032B00F04A816A
:10038000012B40F0A48107F10803184647F6587185
:10039000C0F2000100F0D2FC07F11A03184601F088
:1003A00065FB0346FB61FA6944F6D353C1F262036D
:1003B000A3FB02134FEA9313DBB203F13003DBB26A
:1003C000FB74F96944F6D353C1F26203A3FB012322
:1003D0004FEA93124FF47A7303FB02F3C3EB01026B
:1003E00048F21F53C5F2EB13A3FB02134FEA53135A
:1003F000DBB203F13003DBB27B75F96948F21F53BE
:10040000C5F2EB13A3FB01234FEA53124FF0640331
:1004100003FB02F3C3EB01024CF6CD43CCF6CC4315
:10042000A3FB02134FEAD303DBB203F13003DBB2C9
:10043000BB75F9694CF6CD43CCF6CC43A3FB012345
:100440004FEAD30213464FEA830313444FEA4303B0
:10045000C3EB0102D3B203F13003DBB2FB754FF003
:1004600000004FF0000106F06DFA07F1080318468E
:1004700006F0A2FA07F10803184647F66C71C0F2BD
:10048000000100F05BFC48F25023C0F200031B683F
:10049000FB614FF0000300934FF00103019307F15C
:1004A000080303F10C030293F8694FF004014FF0C5
:1004B0000A024FF0000300F0A5FC4FF001004FF0DE
:1004C000000106F03FFA07F10803184606F074FA37
:1004D00015E107F10803184647F68071C0F20001E4
:1004E00000F02CFC49F23813C1F6FF731B88FB6146
:1004F000FA694CF6CD43CCF6CC43A3FB02134FEA8A
:10050000D303DBB203F13003DBB2BB74F9694CF601
:10051000CD43CCF6CC43A3FB01234FEAD3021346D1
:100520004FEA830313444FEA4303C3EB0102D3B200
:1005300003F13003DBB2FB744FF000004FF0000119
:1005400006F000FA07F10803184606F035FA07F13D
:100550000803184647F69471C0F2000100F0EEFB64
:1005600000F058F90346FB61FA694DF68363C4F263
:100570001B33A3FB02134FEA9343FB61FA6948F272
:100580001F53C5F2EB13A3FB02134FEA5313DBB265
:1005900003F13003DBB2BB74F96948F21F53C5F2B3
:1005A000EB13A3FB01234FEA53124FF0640303FB49
:1005B00002F3C3EB01024CF6CD43CCF6CC43A3FBD4
:1005C00002134FEAD303DBB203F13003DBB2FB7457
:1005D000F9694CF6CD43CCF6CC43A3FB01234FEA9B
:1005E000D30213464FEA830313444FEA4303C3EB9A
:1005F0000102D3B203F13003DBB23B754FF00100CF
:100600004FF0000106F09EF907F10803184606F0C6
:10061000D3F974E007F10803184647F6A871C0F251
:10062000000100F08BFB49F2E423C1F6FF731B6865
:10063000FB614FF0000300934FF00103019307F1BA
:10064000080303F108030293F8694FF008014FF023
:100650000A024FF0000300F0D5FB4FF000004FF00E
:10066000000106F06FF907F10803184606F0A4F937
:1006700007F10803184647F6BC71C0F2000100F00C
:100680005DFB49F23413C1F6FF731B68FB614FF049
:10069000000300934FF00103019307F1080303F1F6
:1006A00008030293F8694FF008014FF00A024FF077
:1006B000000300F0A7FB4FF001004FF0000106F02F
:1006C00041F907F10803184606F076F917E04FF0F4
:1006D00000004FF0000106F035F947F6D070C0F287
:1006E000000006F069F94FF001004FF0000106F03C
:1006F00029F947F6E470C0F2000006F05DF94FF00A
:10070000020000F03FF9034687F824304FF0030061
:1007100000F038F9034687F8263097F82430012B8B
:100720000CD197F82530002B08D197F8223003F12F
:100730000103DBB203F0030387F8223097F8263079
:10074000012B0CD197F82730002B08D197F82230D5
:1007500003F1FF33DBB203F0030387F822304FF0DD
:100760000003009307F11A0301934FF000004FF0CC
:1007700000014FF000024FF0640304F0E9FA97F82B
:10078000243087F8253097F8263087F82730CDE5D4
:1007900080B483B000AF4EF60853CEF200031B685E
:1007A0003B603B6823F000533B603B687B607B68A9
:1007B00003F1380247F67303C0F2000313607B684D
:1007C00003F13C0247F6B133C0F20003136007F1B6
:1007D0000C07BD4680BC704780B400AFBD4680BCEE
:1007E000704700BF80B582B000AF00F013F8034639
:1007F0003B6048F25023C0F200031B683A68B2FB2A
:10080000F3F37B60786807F0F1F907F10807BD465C
:1008100080BD00BF80B400AF48F20073C0F29333D4
:100820001846BD4680BC704780B582B000AF034615
:10083000FB71FB79042B48D801A252F823F000BFCA
:10084000550800007D0800007D0800007D080000BC
:10085000A508000005F0FEFF0346DAB248F6B073C3
:10086000C1F6FF731A7048F6B073C1F6FF731B78B8
:1008700023F00303184605F0DDFF26E005F0EAFF4C
:100880000346DAB248F6B073C1F6FF731A7048F641
:10089000B073C1F6FF731B7823F00103184605F00F
:1008A000C9FF12E005F0D6FF0346DAB248F6B0738E
:1008B000C1F6FF731A7048F6B073C1F6FF731B7868
:1008C00023F00203184605F0B5FF07F10807BD46FF
:1008D00080BD00BF80B582B000AF0346FB71FB79DD
:1008E000042B4BD801A252F823F000BF01090000ED
:1008F0002B0900002B0900002B09000055090000FE
:1009000005F0A8FF0346DAB248F6B073C1F6FF73EC
:100910001A7048F6B073C1F6FF731B7883F00303B7
:10092000DBB2184605F086FF28E005F093FF03468A
:10093000DAB248F6B073C1F6FF731A7048F6B073B6
:10094000C1F6FF731B7883F00103DBB2184605F094
:1009500071FF13E005F07EFF0346DAB248F6B0738C
:10096000C1F6FF731A7048F6B073C1F6FF731B78B7
:1009700083F00203DBB2184605F05CFF07F10807BD
:10098000BD4680BD80B584B000AF0346FB714FF01B
:100990000003FB73FB79022B02D0032B10D01EE067
:1009A00006F0D0FB0346BB73BB7B03F00103002BB7
:1009B00002D14FF0010301E04FF00003FB730EE0A2
:1009C00006F0D2FB0346BB73BB7B03F00103002B95
:1009D00002D14FF0010301E04FF00003FB73FB7BFA
:1009E000184607F11007BD4680BD00BF80B582B034
:1009F00000AFFFF70FFF03467B604EF6FC53CEF2CD
:100A000000034EF6FC52CEF20002126842F08072F1
:100A10001A6041F20003CEF2000341F20002CEF26E
:100A20000002126842F001021A60786800F050F883
:100A300007F10807BD4680BD80B483B000AF41F226
:100A40000403CEF200031B687B607B68184607F145
:100A50000C07BD4680BC704772B6704762B67047DF
:100A6000EFF3108072B6704780F31088704730BF84
:100A7000704720BF7047B0FA80F0704790FAA0F03E
:100A8000B0FA80F0704790FAA0F0704780B500AFE0
:100A900000F034F800F02CF880BD00BF80B582B0C3
:100AA00000AF4FF000037B60FFF7DAFF03467B6087
:100AB00048F6B870C1F6FF704FF0100100F042F830
:100AC0007868FFF7D1FF07F10807BD4680BD00BF7A
:100AD00080B483B000AF786048F6B473C1F6FF739A
:100AE0007A681A6007F10C07BD4680BC704700BFEA
:100AF00080B500AFFFF7D2FF80BD00BF80B500AF6B
:100B000048F6B473C1F6FF734FF000021A60FFF7A6
:100B10006DFF80BD80B485B000AF0346FB71FB79EB
:100B20001F2B05D9FB797E2B02D84FF0010301E082
:100B30004FF00003FB73FB7B184607F11407BD461B
:100B400080BC704780B582B000AF7860396078684B
:100B50004FF000013A6800F005F807F10807BD46BC
:100B600080BD00BF80B48BB000AFF8600B467A60E8
:100B7000FB724FF000037B614FF000037B620CE0DF
:100B80007B694FEA03237B61FB7A7A6942EA0303BC
:100B90007B617B6A03F101037B627B6A032BEFD9E4
:100BA0007B683B61FB68DBB203F003033B62FB68DD
:100BB000FB613B6A002B17D03B6A7B620EE0FB694E
:100BC000FA7A1A70FB6903F10103FB613B6903F1D7
:100BD000FF333B617B6A03F101037B623B69002BBE
:100BE00002D07B6A032BEAD9FB69BB610AE0BB69CF
:100BF0007A691A60BB6903F10403BB613B69A3F125
:100C000004033B613B69032BF1D8BB69FB610AE03C
:100C1000FB69FA7A1A70FB6903F10103FB613B6916
:100C200003F1FF333B613B69002BF1D107F12C0746
:100C3000BD4680BC704700BF80B48FB000AFF86085
:100C4000B9607A607B683B61FB683B62BB687B6232
:100C50007A6A3B6AC3EB02037B617B69032B65D92C
:100C60003B6ADBB203F00303FB627B6ADBB203F097
:100C700003033B63FA6A3B6B9A4202D14FF00103D4
:100C800001E04FF0000387F8373097F83730012B39
:100C90004CD1FB6A002B1CD0FB6ABB6213E07B6A61
:100CA0001A783B6A1A703B6A03F101033B627B6A64
:100CB00003F101037B623B6903F1FF333B61BB6AD4
:100CC00003F10103BB623B69002B02D0BB6A032B1B
:100CD000E5D93B6ABB617B6AFB610FE0FB691A687F
:100CE000BB691A60BB6903F10403BB61FB6903F1D3
:100CF0000403FB613B69A3F104033B613B69032BE4
:100D0000ECD8BB693B62FB697B620FE07B6A1A78B7
:100D10003B6A1A703B6A03F101033B627B6A03F191
:100D200001037B623B6903F1FF333B613B69002BAD
:100D3000ECD107F13C07BD4680BC704780B584B05C
:100D400000AF78603960786839684FF0FF3200F0A2
:100D500009F80346FB60FB68184607F11007BD461B
:100D600080BD00BF80B489B000AFF860B9607A6020
:100D7000FB68002B02D14FF000033DE0BB68002B65
:100D800002D14FF0000337E0FB687B61BB68BB61B9
:100D90004FF00003FB610FE0BB691A787B691A70A2
:100DA0007B6903F101037B61BB6903F10103BB6153
:100DB000FB6903F10103FB617B69002B0AD0BB696E
:100DC000002B07D0BB691B78002B03D0FA697B6826
:100DD0009A42E1D37B69002B02D0BB69002B02D180
:100DE0004FF0000308E0FA697B689A4203D27B69FE
:100DF0004FF000021A70FB68184607F12407BD4641
:100E000080BC704780B588B004AF7860F970BA7064
:100E10007B70FA78BB7879780091397E0191397FBF
:100E20000291396A0391786811461A464FF000031F
:100E300000F008F80346FB60FB68184607F110074E
:100E4000BD4680BD80B58AB000AF7860F970BA70D9
:100E50007B70FB6B002B02D14FF0000376E14FF06B
:100E6000000387F82530FB78002B03D14FF00103F6
:100E700087F82530BB78012B02D9BB78242B03D906
:100E80004FF0010387F8253097F83030002B50D011
:100E900097F830301846FFF73DFE034687F82630B6
:100EA00097F82630012B04D04FF0010387F8253046
:100EB0003FE097F83030302B3BD097F83030A3F13B
:100EC000300387F8213097F83430012B06D097F89B
:100ED0003030A3F1410387F8223005E097F8303035
:100EE000A3F1610387F82230BB780A2B04D897F866
:100EF0002120BB789A420DD3BB780A2B0DD997F8E5
:100F00002130092B06D997F82220BB78A3F10A03D8
:100F10009A4202D24FF0010301E04FF0000387F83C
:100F2000233097F82330012B03D14FF0010387F8CA
:100F30002530FB6BBB6097F82530002B5CD17B68BC
:100F40003B617B687B614FF00103FB7608E0FB7E31
:100F500003F10103FB76BB787A69B2FBF3F37B61A3
:100F6000BA787B699A42F2D97B78012B02D14FF093
:100F7000010301E04FF00003BB77FA78F97EBB7FF5
:100F80000B449A4234DB4FF0000387F82730FA789D
:100F9000FB7E9A4238BF13463B7797F83030002BE0
:100FA0000BD0FB787B77FA783B7FC3EB0203DAB296
:100FB000BB7FC3EB0203FB7706E03A7FBB7F1344A2
:100FC0007B774FF00003FB77FB7F002B0BD097F86C
:100FD0003030302B02D14FF0010301E04FF000031D
:100FE00087F8243008E04FF0000387F8243003E04E
:100FF0004FF0010387F8253097F82530002B01D0FA
:10100000FB787B777B7FBA681344BB6097F83830F6
:10101000002B03D0BB684FF000021A70BB6803F1CD
:10102000FF33BB604FF00003FB6082E097F8253090
:10103000002B70D13B69002B02D1FB68002B3AD109
:10104000BA783B69B3FBF2F102FB01F2C2EB030396
:1010500087F8203097F82030092B0BD897F82030EC
:1010600003F13003DAB2BB681A70BB6803F1FF33D7
:10107000BB601AE097F83430012B0BD097F8203082
:1010800003F13703DAB2BB681A70BB6803F1FF33B0
:10109000BB600AE097F8203003F15703DAB2BB686F
:1010A0001A70BB6803F1FF33BB60BB783A69B2FBCF
:1010B000F3F33B6139E07B78012B1FD197F82430A3
:1010C000002B03D197F82730002B09D097F8243054
:1010D000002B13D07B7F03F1FF32FB689A420DD1C6
:1010E000BB684FF02D021A70BB6803F1FF33BB6081
:1010F0004FF0010387F8273000BF16E097F8303033
:10110000002B11D0BB6897F830201A70BB6803F130
:10111000FF33BB6009E0BB684FF03F021A70BB6849
:1011200003F1FF33BB6000E000BFFB6803F1010384
:10113000FB607A7FFB689A423FF678AF97F82530DC
:10114000002B02D04FF0000300E0FB6B184607F1C4
:101150002807BD4680BD00BF80B485B000AF47F60C
:10116000F873C0F200037B6048F26013C0F2000322
:10117000FB6047F6F973C0F200037B6047F6FA7331
:10118000C0F200037B6047F6FC73C0F20003FB6013
:1011900048F20003C0F200037B6048F20403C0F28F
:1011A0000003BB6048F20103C0F200037B6048F219
:1011B0002C03C0F200037B6048F22D03C0F2000351
:1011C0007B6048F22E03C0F200037B6048F23003DC
:1011D000C0F20003BB6048F23203C0F20003BB6000
:1011E00048F23603C0F200037B6048F23803C0F2D5
:1011F0000003BB6048F25803C0F200037B6048F272
:101200005A03C0F20003BB6048F25C03C0F2000363
:101210007B6048F25E03C0F20003BB6048F26003EB
:10122000C0F20003BB6048F26203C0F20003BB607F
:1012300048F26403C0F20003BB6048F29003C0F2BE
:1012400000037B6048F29103C0F200037B6048F228
:101250009203C0F200037B6048F29403C0F20003E3
:10126000BB6048F29603C0F200037B6048F297032C
:10127000C0F200037B6048F29803C0F20003BB6039
:1012800048F29A03C0F20003BB6048F29C03C0F22C
:101290000003BB6048F29E03C0F20003BB6048F24B
:1012A000A003C0F20003BB6048F2A203C0F2000337
:1012B000BB6048F2A403C0F20003BB6048F2D40351
:1012C000C0F200037B6048F2D503C0F200037B60EC
:1012D00048F2D603C0F200037B6048F2D703C0F2A5
:1012E00000037B6048F2D803C0F20003BB6048F201
:1012F000DA03C0F20003BB6048F2DC03C0F2000373
:10130000BB6048F20413C0F200037B6048F205138F
:10131000C0F200037B6048F20613C0F200037B605A
:1013200048F20713C0F20003BB6048F20813C0F292
:101330000003BB6048F20A13C0F20003BB6048F22E
:101340000C13C0F20003FB6048F21013C0F200035C
:10135000BB6048F21113C0F200037B6048F2121325
:10136000C0F200037B6048F21313C0F200037B60FD
:1013700048F21413C0F200037B6048F21513C0F268
:1013800000037B6048F21613C0F200037B6048F252
:101390001713C0F200037B6048F21813C0F2000379
:1013A000BB6048F21A13C0F200037B6048F21B13C3
:1013B000C0F200037B6048F21C13C0F20003BB6064
:1013C00048F21E13C0F20003BB6048F22013C0F2C3
:1013D00000037B6048F22113C0F200037B6048F2F7
:1013E0002413C0F20003BB6048F25813C0F200039C
:1013F0007B6048F25913C0F200037B6048F25A1335
:10140000C0F20003BB6048F25C13C0F20003BB6093
:1014100048F25E13C0F20003BB6007F11407BD463B
:1014200080BC704780B584B000AF786006F064FA85
:1014300049F23A13C1F6FF734FF000021A7048F6F2
:10144000DD73C1F6FF734FF000021A7048F6CC73DB
:10145000C1F6FF734FF000021A7049F21413C1F67F
:10146000FF734FF000021A6049F22013C1F6FF73B8
:101470004FF000021A6049F24C03C1F6FF734FF0BF
:1014800000021A7049F24003C1F6FF734FF00002E8
:101490001A7049F21C13C1F6FF734FF000021A7064
:1014A00049F2D833C1F6FF734FF000021A7048F2C8
:1014B0005023C0F200031A684CF6CD43CCF6CC435F
:1014C000A3FB02134FEAD30249F2D823C1F6FF73FC
:1014D0001A6048F22023C0F200031B68002B1ED0C4
:1014E00048F21C23C0F200031B68BB60BB68002BE2
:1014F00015D048F22023C0F200031B68FB600BE00C
:10150000FB6803F1FF33FB60BB684FF000021A6019
:10151000BB6803F10403BB60FB68002BF0D149F208
:101520004803C1F6FF734FF000021A6049F22C1312
:10153000C1F6FF734FF000021A6048F6D073C1F68F
:10154000FF734FF000021A6049F2DC23C1F6FF730B
:101550004FF000021A6049F2F823C1F6FF734FF012
:1015600000021A6049F2E823C1F6FF734FF000024F
:101570001A6049F23013C1F6FF734FF000021A608F
:1015800048F6DC73C1F6FF734FF000021A7001F0E9
:1015900047F900F0B3FD786800F0EEFF7B681B8828
:1015A000002B4AD1786801F003F87B681B88002B78
:1015B00045D1786801F018F87B681B88002B40D172
:1015C000786801F011F97B681B88002B3BD17868A3
:1015D00001F0C8F97B681B88002B36D1786801F0D0
:1015E00095FB7B681B88002B31D1786802F088FC62
:1015F0007B681B88002B2CD1786800F071FA7B681F
:101600001B88002B27D1786802F0A8FF7B681B8815
:10161000002B22D1786801F063FF7B681B88002BC8
:101620001DD1786803F008FD7B681B88002B18D15A
:10163000FFF792FD03F0C0FF14E000BF12E000BF0F
:1016400010E000BF0EE000BF0CE000BF0AE000BFEA
:1016500008E000BF06E000BF04E000BF02E000BFFA
:1016600000E000BF07F11007BD4680BD80B582B025
:1016700000AF4FF000037B6048F6DD73C1F6FF73E7
:101680001B78012B40F08480FFF7EAF903467B606A
:1016900049F23A13C1F6FF731B78002B03D1786827
:1016A000FFF7E2F975E049F23A13C1F6FF731B78D0
:1016B00003F1FF33DAB249F23A13C1F6FF731A703D
:1016C00049F23A13C1F6FF731B78002B03D07868F8
:1016D000FFF7CAF95DE048F6CC73C1F6FF731B78DB
:1016E000002B03D07868FFF7BFF952E001F0B4F89F
:1016F00003461A4649F24003C1F6FF731A7049F2D5
:101700004003C1F6FF731B78194648F6E072C1F634
:10171000FF720B464FEA43030B444FEA8303134423
:101720001A6849F22013C1F6FF731A6049F22013B8
:10173000C1F6FF731A6849F21413C1F6FF731B68F0
:101740009A4203D17868FFF78FF922E049F220131B
:10175000C1F6FF731B68D3F8902002F10102C3F8B1
:10176000902049F23413C1F6FF731B6803F10102A4
:1017700049F23413C1F6FF731A604EF60453CEF2E9
:1017800000034FF080521A607868FFF76DF900E0AF
:1017900000BF07F10807BD4680BD00BF80B582B01D
:1017A00000AF4FF000037B6049F23A13C1F6FF73BC
:1017B0001B78002B5CD148F6CC73C1F6FF731B7805
:1017C000002B57D1FFF74CF903467B6001F044F83A
:1017D00003461A4649F24003C1F6FF731A7049F2F4
:1017E0004003C1F6FF731B78194648F6E072C1F654
:1017F000FF720B464FEA43030B444FEA8303134443
:101800001A6849F22013C1F6FF731A6049F22013D7
:10181000C1F6FF731A6849F21413C1F6FF731B680F
:101820009A4203D17868FFF71FF924E049F22013A8
:10183000C1F6FF731B68D3F8902002F10102C3F8D0
:10184000902049F23413C1F6FF731B6803F10102C3
:1018500049F23413C1F6FF731A604EF60453CEF208
:1018600000034FF080521A607868FFF7FDF802E03D
:1018700000BF00E000BF07F10807BD4680BD00BF04
:1018800080B584B000AF78604FF00003FB6049F290
:101890003A13C1F6FF731B78002B04D07B6846F621
:1018A00062521A802FE048F6DD73C1F6FF731B7891
:1018B000012B04D07B6845F689621A8023E048F644
:1018C000CC73C1F6FF731B78F92B04D97B6845F202
:1018D00009221A8017E0FFF7C3F80346FB6048F6B9
:1018E000CC73C1F6FF731B7803F10103DAB248F63B
:1018F000CC73C1F6FF731A70F868FFF7B5F87B6810
:101900004FF000021A8007F11007BD4680BD00BFEE
:1019100080B584B000AF78604FF00003FB6049F2FF
:101920003A13C1F6FF731B78002B04D07B6846F690
:1019300065521A8040E048F6DD73C1F6FF731B78EC
:10194000012B04D07B6845F689621A8034E048F6A2
:10195000CC73C1F6FF731B78002B04D17B6846F66D
:1019600064521A8028E0FFF77BF80346FB6048F6D4
:10197000CC73C1F6FF731B7803F1FF33DAB248F67C
:10198000CC73C1F6FF731A7048F6CC73C1F6FF73BF
:101990001B78002B07D0F868FFF766F87B6846F6DF
:1019A00063521A8008E0F868FFF75EF8FFF7F6FE6A
:1019B0007B684FF000021A8007F11007BD4680BD1A
:1019C00080B582B000AF786048F6DD73C1F6FF7372
:1019D0001B78002B41D100F03FFF03461A4649F225
:1019E0004003C1F6FF731A7049F24003C1F6FF735A
:1019F0001A7849F24C03C1F6FF731A7049F240039A
:101A0000C1F6FF731B78194648F6E072C1F6FF7203
:101A10000B464FEA43030B444FEA830313441A680F
:101A200049F22013C1F6FF731A6049F22013C1F680
:101A3000FF731A6849F21413C1F6FF731A6048F66F
:101A4000DD73C1F6FF734FF001021A7005F0FAFE64
:101A50007B6843F699221A8003E07B6845F68A6228
:101A60001A8007F10807BD4680BD00BF80B483B06F
:101A700000AF78607B684FF000021A8047F25D6328
:101A8000184607F10C07BD4680BC704780B584B08E
:101A900000AF78604FF00003FB60FEF7E1FF034604
:101AA000FB6049F2F023C1F6FF731B6803F10102EA
:101AB00049F2F023C1F6FF731A6048F6D873C1F6F5
:101AC000FF731B6803F1010248F6D873C1F6FF7378
:101AD0001A60F868FEF7C8FF05F000FFDDE700BFF9
:101AE00080B58CB00AAF786049F2F023C1F6FF737D
:101AF0004FF000021A6048F2F013C0F200031968B8
:101B000048F2F413C0F200031A6848F2F813C0F266
:101B100000031B684FF007000090019102920393AD
:101B20004FF0000304934FF0000305934FF00003C0
:101B300006934FF00B0307937B68089349F20C2040
:101B4000C1F6FF7048F26411C0F2000141F68D2227
:101B5000C0F200024FF0000301F04CFD07F108074E
:101B6000BD4680BD80B586B000AFF860B9603B600F
:101B70001346FB7149F21413C1F6FF731B68FA791F
:101B800083F8342049F21413C1F6FF731B684FF039
:101B9000000283F8352049F21413C1F6FF731B6865
:101BA0001846396800F0A6FCBB68002B16D0BB684D
:101BB00003F108037B61FB68BA68DA6049F2141329
:101BC000C1F6FF731B681846F9684FF0010200F078
:101BD00023F87869F96800F0DDF80FE049F2141392
:101BE000C1F6FF731B684FF00002DA8749F2141345
:101BF000C1F6FF731B684FF000021A6349F2141319
:101C0000C1F6FF731B68B868194600F043F807F186
:101C10001807BD4680BD00BF80B487B000AFF86034
:101C2000B9601346FB80FB68FA88DA87FB68BA68FC
:101C30001A634FF00003FB8222E0BB684FF0000202
:101C40005A60BB684FF000021A60BB684FF0000298
:101C50001A61BB684FF000025A61BB684FF0000286
:101C60001A83BB684FF00002DA61BB68FA689A60B9
:101C7000BB6803F12003BB60FB8A03F10103FB8215
:101C8000FA8AFB889A42D8D307F11C07BD4680BC6C
:101C9000704700BF80B487B000AF786039607B6860
:101CA000002B13D07B685A683B68C3F8BC207B6864
:101CB00003F10803FB60FB681B683B613B699B68A1
:101CC0007B617B691A6A7B68DA611EE03B6893F886
:101CD0003430022B02D0072B08D00FE03A6848F2CC
:101CE0007813C0F20003C2F8BC300EE03A6848F244
:101CF0008013C0F20003C2F8BC3006E03A6848F234
:101D00008C13C0F20003C2F8BC3007F11C07BD46BB
:101D100080BC704780B487B000AF786039603A68A3
:101D200048F28C13C0F20003C2F8BC307B6803F1A8
:101D30000803FB60FB681B683B613B69002B07D015
:101D40003B699B687B617B691A6A7B68DA6105E0A5
:101D50007A6848F28C13C0F20003D36107F11C07C4
:101D6000BD4680BC704700BF80B483B000AF7860D0
:101D70007B684FF000021A607B684FF000025A60E7
:101D80007B684FF000021A8107F10C07BD4680BC4A
:101D9000704700BF80B489B000AF786039603B689D
:101DA0009B683B613B6993F83730FB737B681B8909
:101DB000002B12D17B684FF001021A813B684FF073
:101DC00000025A603B684FF000021A607B683A6874
:101DD0001A607B683A685A6050E07B681B8903F19F
:101DE00001039AB27B681A817B681B68FB610BE078
:101DF000FB699B687B617B6993F83730FA7B9A4279
:101E000006D3FB695B68FB61FB69002BF0D100E046
:101E100000BFFB69002B10D13B684FF000025A60F5
:101E20007B685B68BB613B68BA691A60BB693A68EA
:101E30005A607B683A685A6020E0FB691B68002B97
:101E40000DD1FB693A681A603B684FF000021A60D6
:101E50003B68FA695A607B683A681A600EE0FB6971
:101E60001B68BB613B68BA691A603B68FA695A60D3
:101E7000BB693A685A60FB693A681A6007F124073F
:101E8000BD4680BC704700BF80B586B000AF7860AB
:101E90007B681B6BFB607B68DB8F7B8112E0FB68E0
:101EA000DB687B617B6903F108033B613869F96892
:101EB00000F018F8FB6803F12003FB607B8903F155
:101EC000FF337B817B89002BE9D17B684FF00002D7
:101ED000DA877B684FF000021A6307F11807BD46E6
:101EE00080BD00BF80B485B000AF786039607B688A
:101EF0001B89012B08D17B684FF000021A607B68B8
:101F00004FF000025A6029E03B681B68002B0AD1A1
:101F10003B685B68FB60FB684FF000021A607B68FF
:101F2000FA681A601AE03B685B68002B0AD13B68CC
:101F30001B68BB60BB684FF000025A607B68BA68E0
:101F40005A600BE03B681B68BB603B685B68FB60EA
:101F5000BB68FA685A60FB68BA681A607B681B89BC
:101F600003F1FF339AB27B681A813B684FF000029D
:101F70005A603B684FF000021A6007F11407BD4633
:101F800080BC704780B586B002AFF860B9607A60F7
:101F90007B80BB6893F83630072B7AD84FF001026C
:101FA00002FA03F303F03302002A71D103F0C002F6
:101FB000002A38D103F00C03002B6AD0BB6893F8D9
:101FC0003430032B08D17B88BA690092F868B9686D
:101FD0007A6800F063F809E0BB687A68DA65BB6884
:101FE0007A88A3F86020BB68BA691A64FB68002B82
:101FF00006D0B868FFF748FFF868B968FFF78AFEAF
:10200000B86800F0A3FABB684FF0000283F83620EE
:10201000BB684FF0000283F83520BB684FF0000228
:1020200083F8342035E0BB6893F83430032B08D1B3
:102030007B88BA690092F868B9687A6800F02EF86F
:1020400009E0BB687A68DA65BB687A88A3F8602023
:10205000BB68BA691A64B86802F04AFCFB68002BD6
:1020600006D0B868FFF710FFF868B968FFF752FEAE
:10207000BB684FF0040283F83620BB684FF00002C3
:1020800083F83520BB684FF0000283F8342000E06D
:1020900000BF07F11007BD4680BD00BF80B487B008
:1020A00000AFF860B9607A607B80BB681B6B7B61B6
:1020B000BB68DB8F7B8219E07B69DA68FB689A4238
:1020C0000CD17B69FA681A617B697A685A617B690D
:1020D0007A881A837B693A6ADA610AE07B6903F1DC
:1020E00020037B617B8A03F1FF337B827B8A002B99
:1020F000E2D107F11C07BD4680BC704780B483B0B5
:1021000000AF4FF00003FB701DE0FA7813464FEA72
:10211000430313444FEA83031A4648F6E073C1F6BB
:10212000FF7313447B607B684FF000021A817B6869
:102130004FF000021A607B684FF000025A60FB7893
:1021400003F10103FB70FB78072BDED907F10C07C5
:10215000BD4680BC704700BF80B582B000AF7860DC
:102160007B6893F83730184600F09EFB7B6893F845
:10217000372049F24C03C1F6FF731B789A4203D112
:10218000786800F053F802E0786800F005F807F18D
:102190000807BD4680BD00BF80B485B000AF786041
:1021A0007B6893F837301A4613464FEA43031344CB
:1021B0004FEA83031A4648F6E073C1F6FF731344EF
:1021C000BB60BB681B89002B12D1BB684FF00102BA
:1021D0001A817B684FF00002DA607B684FF00002E2
:1021E0001A61BB687A681A60BB687A685A6017E03F
:1021F000BB681B8903F101039AB2BB681A81BB68F3
:102200001A687B68DA607B684FF000021A61BB686D
:102210001B68FB60FB687A681A61BB687A681A60A1
:1022200007F11407BD4680BC704700BF80B485B07D
:1022300000AF78607B6893F837301A4613464FEA50
:10224000430313444FEA83031A4648F6E073C1F68A
:10225000FF731344BB60BB681B89002B12D1BB68A2
:102260004FF001021A817B684FF00002DA607B6850
:102270004FF000021A61BB687A681A60BB687A681E
:102280005A6016E0BB681B8903F101039AB2BB6870
:102290001A817B684FF00002DA60BB685B68FB6004
:1022A0007B68FA681A61FB687A68DA60BB687A68EA
:1022B0005A6007F11407BD4680BC704780B487B0F0
:1022C00000AF78607B681B89002B1EDB012B3ADD99
:1022D000022B1AD17B681B68FB607B685B683B61E3
:1022E000FB683A691A61FB684FF00002DA603B69EB
:1022F0004FF000021A613B69FA68DA607B683A695C
:102300001A607B68FA685A601EE07B681B68FB6095
:102310007B685B683B61FB68DB687B617B694FF0D6
:1023200000021A61FB684FF00002DA60FB683A694C
:102330001A613B69FA68DA607B687A691A607B68BF
:10234000FA685A6000E000BF07F11C07BD4680BC78
:10235000704700BF80B586B000AF78607B6893F8A7
:1023600037301A4613464FEA430313444FEA8303B8
:102370001A4648F6E073C1F6FF731344FB607B68AE
:102380001B693B617B68DB687B613B69002B24D167
:102390007B69002B12D1FB684FF000021A81FB68A9
:1023A0004FF000021A60FB684FF000025A607B6831
:1023B00093F83730184600F0A5FA22E0FB681B8935
:1023C00003F1FF339AB2FB681A817B694FF0000278
:1023D0001A61FB687A691A6013E0FB681B8903F1D4
:1023E000FF339AB2FB681A813B697A69DA607B69CC
:1023F000002B03D1FB683A695A6002E07B693A69B5
:102400001A617B684FF000021A617B684FF000028E
:10241000DA6007F11807BD4680BD00BF80B584B003
:1024200000AF78604FF00003FB6049F2D833C1F68B
:10243000FF731B78012B57D1FEF712FB0346FB609D
:102440007B681B68BB60BB68002B03D1F868FEF794
:102450000BFB4AE0BA6849F20C23C1F6FF739A42BB
:1024600003D1F868FEF700FB3FE0BB689B6D002BD3
:1024700005D0BB689B6D03F1FF32BB689A65BB68F2
:102480009B6D002B03D0F868FEF7EEFA2DE07B6819
:102490001B89012B03D8F868FEF7E6FA25E048F619
:1024A000CC73C1F6FF731B78002B03D0F868FEF7DE
:1024B000DBFA1AE07868FFF701FF7B681B68BB60F6
:1024C000BB685B6D002B07D149F2D823C1F6FF73BF
:1024D0001A68BB689A6503E0BB685A6DBB689A6569
:1024E000F868FEF7C1FA00E000BF07F11007BD462B
:1024F00080BD00BF80B584B000AF786039603B68B4
:10250000002B16D007F10E03786839684FF00202ED
:1025100002F0CAF8FB89002B05D17B684FF003025B
:1025200083F836200AE07B684FF0020283F83620F9
:1025300004E07B684FF0020283F836207868FFF7EA
:1025400009FF07F11007BD4680BD00BF80B582B00E
:1025500000AF7860786802F0CBF97B6893F836308A
:1025600003F00403002B02D17868FFF7F5FD07F1B3
:102570000807BD4680BD00BF80B483B000AF78605F
:1025800049F20033C1F6FF734FF000021A6049F2BE
:10259000FC23C1F6FF734FF000021A807B684FF0F6
:1025A00000021A8007F10C07BD4680BC704700BFCF
:1025B00080B483B000AF786049F2D423C1F6FF73D2
:1025C0004FF000021A6049F20633C1F6FF734FF074
:1025D00000021A807B684FF000021A8007F10C0796
:1025E000BD4680BC704700BF80B487B000AF786044
:1025F00048F23023C0F200031B68002B04D17B6833
:1026000045F21E721A807CE048F22823C0F20003D3
:102610001B88002B04D17B6845F21D721A8070E084
:1026200048F23023C0F200031B68FB6048F23023FD
:10263000C0F200031B683B613B6903F110033B617F
:1026400048F22823C0F200031B8803F1FF33FB820A
:102650004FF00003BB821AE0FB683A691A60FB681E
:102660004FF000025A60FB684FF000021A81FB68CD
:102670004FF00002DA60FB6803F11003FB603B6976
:1026800003F110033B61BB8A03F10103BB82BA8AE9
:10269000FB8A9A42E0D3FB684FF000021A60FB68A5
:1026A0004FF000025A60FB684FF000021A81FB688D
:1026B0004FF00002DA6048F23023C0F200031A68DB
:1026C00049F20023C1F6FF731A6048F22823C0F2D2
:1026D00000031A8849F20023C1F6FF739A8049F279
:1026E0000023C1F6FF734FF00002DA8049F20023A5
:1026F000C1F6FF734FF000021A817B684FF00002B1
:102700001A8007F11C07BD4680BC704780B485B0B5
:1027100000AF78607B685B89FB817B685B89002BFD
:102720003DD07B681B68BB6049F20023C1F6FF7394
:102730001A68BB681A607B685A6849F20023C1F6C0
:10274000FF731A6049F20023C1F6FF73DA887B68D1
:102750005B89C3EB02039AB249F20023C1F6FF730F
:10276000DA8049F20023C1F6FF739A887B685B899F
:1027700013449AB249F20023C1F6FF739A807B6832
:102780004FF000025A817B684FF000029A817B680B
:102790004FF000021A607B684FF000025A60FB891C
:1027A000184607F11407BD4680BC704780B483B05B
:1027B00000AF78600B467B807B687A881A817B68E3
:1027C0004FF000025A817B684FF000029A817B68CB
:1027D0004FF000021A607B684FF000025A6007F168
:1027E0000C07BD4680BC704780B483B000AF7860F2
:1027F00049F2DC33C1F6FF734FF000021A6049F270
:102800000833C1F6FF734FF000021A807B684FF067
:1028100000021A8007F10C07BD4680BC704700BF5C
:1028200080B483B000AF4FF000037B600CE07A68A7
:1028300048F6C873C1F6FF734FF0000143F8221049
:102840007B6803F101037B607B68002BEFD007F10D
:102850000C07BD4680BC704780B582B000AF4FF01A
:102860000003FB7148F6C873C1F6FF733B6007E0D5
:10287000FB7903F12003FB713B6803F104033B6028
:102880003B681B68002BF3D03B681B681846FEF7BB
:10289000F2F80346DAB2FB791344FB71FB79184670
:1028A00007F10807BD4680BD80B487B000AF03467E
:1028B000FB71FB794FEA5313FB75FB7903F01F03A0
:1028C0003B614FF00103FB603B69C3F11F03FA68F2
:1028D00002FA03F3FB60FA7DF97D48F6C873C1F68E
:1028E000FF7353F82110FB6841EA030148F6C873EF
:1028F000C1F6FF7343F8221007F11C07BD4680BCE8
:10290000704700BF80B487B000AF0346FB71FB790E
:102910004FEA5313FB75FB7903F01F033B614FF044
:102920000103FB603B69C3F11F03FA6802FA03F37A
:10293000FB60FA7DF97D48F6C873C1F6FF7353F862
:102940002110FB686FEA030301EA030148F6C8732C
:10295000C1F6FF7343F8221007F11C07BD4680BC87
:10296000704700BF80B483B000AF786049F2CC23D9
:10297000C1F6FF734FF000021A6049F21813C1F656
:10298000FF734FF000021A807B684FF000021A803C
:1029900007F10C07BD4680BC704700BF80B586B00C
:1029A00000AFF860B9607A603B604FF000037B6174
:1029B00049F23A13C1F6FF731B78002B04D03B6831
:1029C00042F6E1621A8038E0FB68002B04D13B68D4
:1029D00045F6C3521A8030E0FEF742F803467B61A9
:1029E000FA6844F25353C4F24D131360FB687A68DB
:1029F0001A62FB684FF000025A62FB68BA685A60BC
:102A0000FB6803F108031846FFF7AEF9F86800F019
:102A100049F949F2D023C1F6FF731B8803F1010382
:102A20009AB249F2D023C1F6FF731A807869FEF793
:102A30001BF83B684FF000021A8007F11807BD46EB
:102A400080BD00BF80B58EB000AFF860B9603B605C
:102A50001346FB804FF000037B6349F23A13C1F643
:102A6000FF731B78002B06D03B6C46F2AE121A8027
:102A70004FF00003D5E0FB68002B06D13B6C45F618
:102A8000C3521A804FF00003CBE0FB88002B02D02A
:102A9000B3F5004F03D13B68002B07D10AE03B6C34
:102AA00045F625621A804FF00003BAE03B684FF00C
:102AB00000021A60FDF7D4FF03467B63FB681B6AC4
:102AC000002B18D0FB681B6A03F1FF32FB681A6207
:102AD0003B68002B03D0FB685A6A3B681A60FB68AE
:102AE0001B6A3B63786BFDF7BFFF3B6C4FF0000246
:102AF0001A803B6B95E0FB881BB2002B0BDAFB685E
:102B00001B6A3B63786BFDF7AFFF3B6C46F2B0127C
:102B10001A803B6B85E048F6CC73C1F6FF731B78D7
:102B2000002B09D0786BFDF79FFF3B6C46F6635294
:102B30001A804FF0000374E0FB6807F110021046A2
:102B400019464FF00602BB68FFF70CF8786BFDF7EB
:102B50008BFFFEF723FEFDF783FF03467B6349F2FD
:102B60001413C1F6FF731B6893F83530032B47D855
:102B700001A252F823F000BF892B0000A92B00000E
:102B8000E12B0000C92B00003B68002B07D049F265
:102B90001413C1F6FF731B681A6C3B681A603B6C18
:102BA0004FF000021A8035E03B68002B07D049F255
:102BB0001413C1F6FF731B681A6C3B681A603B6CF8
:102BC00046F2A9121A8025E03B68002B03D03B682F
:102BD0004FF000021A603B6C47F2D9221A8019E0CC
:102BE0003B68002B07D049F21413C1F6FF731B6832
:102BF0001A6C3B681A603B6C45F6C2521A8009E0B9
:102C00003B6C46F62E621A80786BFDF72DFF4FF075
:102C1000000306E0FB681B6A3B63786BFDF724FF4B
:102C20003B6B184607F13807BD4680BD80B586B0BE
:102C300000AFF8600B467A607B81FB68002B06D101
:102C40007B6845F6C3521A804FF0000324E07B896D
:102C5000B3F5007F0BD0B3F5007F02DC002B06D06C
:102C600014E0B3F5004F02D0B3F5024F0ED1FDF7DB
:102C7000E3FE03467B617B89F86819467A697B68C5
:102C800000F060F803463B613B6905E07B6845F670
:102C900025621A804FF00003184607F11807BD4659
:102CA00080BD00BF80B483B000AF78607A6848F21E
:102CB0009813C0F20003D3617B684FF000025A61A1
:102CC00049F24403C1F6FF731B68002B04D17B68F3
:102CD0004FF000029A610DE049F24403C1F6FF7320
:102CE0001A687B689A6149F24403C1F6FF731B6856
:102CF0007A685A6149F24403C1F6FF737A681A6030
:102D000007F10C07BD4680BC704700BF80B483B09C
:102D100000AF786049F24403C1F6FF734FF0000240
:102D20001A6049F2D023C1F6FF734FF000021A80F7
:102D30007B684FF000021A8007F10C07BD4680BC8B
:102D4000704700BF80B58EB002AFF8607A603B601C
:102D50000B467B814FF00003FB62FDF781FE0346CB
:102D6000FB62FB6803F10803FB61FB691B89002B15
:102D700023D1FB681B6AB3F1FF3F09D1F86AFDF765
:102D800073FE3B6846F6C5521A804FF000034FE0D1
:102D9000FB681B6A03F10102FB681A62FB681B6A8D
:102DA000BB61FB687A685A62F86AFDF75DFE3B68B2
:102DB0004FF000021A80BB693AE07B8903F400738C
:102DC000002B03D0FB691B89FB8202E04FF001035B
:102DD000FB82FB691B683B6216E03B6A9B68BB6237
:102DE0003B6A5B687B62FB687A6800921846B96A46
:102DF0004FF000024FF00003FFF7C4F87B6A3B621C
:102E0000FB8A03F1FF33FB82FB8A002BE5D1FB68D1
:102E10001B6ABB61F86AFDF727FE7B891BB2002B9A
:102E200001DBFEF7BBFC3B684FF000021A80BB6978
:102E3000184607F13007BD4680BD00BF80B586B09B
:102E400000AF78604FF000037B61FDF709FE034699
:102E50007B6149F21A13C1F6FF734FF000021A802A
:102E600048F6D473C1F6FF734FF000021A6049F2BE
:102E7000D033C1F6FF734FF000021A6049F22813F5
:102E8000C1F6FF734FF000021A6049F20023C1F649
:102E9000FF734FF000021A817869FDF7E5FDFDF739
:102EA000DFFD03467B6149F22413C1F6FF731B6803
:102EB000BB607869FDF7D8FD3AE0FDF7D1FD034628
:102EC0007B61BB684FF000029A67BB684FF000025D
:102ED000C3F8A820BB684FF00002C3F89020BB687D
:102EE0004FF00002A3F88C20BB684FF00002A3F85B
:102EF0008E20BB684FF00002C3F89C20BB684FF0E7
:102F00000002C3F8A020FDF797FD0246BB68C3F896
:102F10009820BB6803F16403FB60FB684FF000027C
:102F20009A81BB68D3F8B830BB607869FDF79CFD27
:102F3000BB68002BC1D1FDF793FD03467B6149F2CD
:102F4000CC23C1F6FF731B683B617869FDF78CFDEC
:102F500011E0FDF785FD03467B613B6903F120032A
:102F6000FB60FB684FF000029A813B699B693B6103
:102F70007869FDF779FD3B69002BEAD101F006FD88
:102F800002F000FA7B684FF000021A8007F1180780
:102F9000BD4680BD80B586B000AF78604FF00003BD
:102FA0007B6107F10E0349F24010C1F6FF7019462C
:102FB00000F006FFFB89002B03D0FA897B681A809A
:102FC00085E007F10E034FF002004FF000011A46B2
:102FD00001F03EFEFB89002B03D0FA897B681A8042
:102FE00075E0FDF73DFD03467B6148F6D873C1F6F9
:102FF000FF734FF000021A607869FDF735FD4FF05E
:1030000000033B6148F25023C0F200031A6848F203
:103010003823C0F200031B689A420CD948F25023AF
:10302000C0F200031A6848F23823C0F200031B689C
:10303000B2FBF3F33B613B69002B0DD148F2502307
:10304000C0F200031A684CF6CD43CCF6CC43A3FB88
:1030500002134FEAD3033B6107F10E0338694FF0C7
:1030600000011A4601F0F4FD07F10E0349F2401089
:10307000C1F6FF70194600F083FCFB89002B03D0DA
:10308000FA897B681A8022E0FDF7EAFC03467B613F
:1030900048F6D473C1F6FF734FF000021A6048F689
:1030A000D873C1F6FF731A6849F2E023C1F6FF73C3
:1030B0001A6049F24103C1F6FF734FF001021A7022
:1030C0007869FDF7D1FC7B684FF000021A8007F1A8
:1030D0001807BD4680BD00BF80B590B000AF7860D6
:1030E0004FF00003FB630EE048F23823C0F2000308
:1030F0001B684FEA430207F10C0310464FF0000132
:103100001A4601F0A5FD49F24103C1F6FF731B7891
:10311000012BE9D107F10C031846FFF78FFE4FF0A2
:1031200000033B6348F25023C0F200031A6848F2E0
:103130003823C0F200031B689A420CD948F250238E
:10314000C0F200031A6848F23823C0F200031B687B
:10315000B2FBF3F33B633B6B002B0DD148F25023E2
:10316000C0F200031A684CF6CD43CCF6CC43A3FB67
:1031700002134FEAD3033B63FDF75EFC03467B6318
:10318000FDF76EFC0346FB6348F6D873C1F6FF7388
:103190001A6849F2F423C1F6FF731A6048F6D8732F
:1031A000C1F6FF734FF000021A60F86BFDF75CFC8C
:1031B00049F2E023C1F6FF731A6849F2F423C1F61D
:1031C000FF731B689A4240F2848049F2E023C1F603
:1031D000FF731A6841F67F23C0F206039A4206D8AD
:1031E00042F21073BB624FF00103FB623BE049F215
:1031F000E023C1F6FF731A6840F6FF03C0F23D03F7
:103200009A4206D84FF47A73BB624FF00A03FB620E
:1032100029E049F2E023C1F6FF731A6845F6FF136F
:10322000C0F262239A4206D84FF06403BB624FF0AB
:103230006403FB6217E049F2E023C1F6FF731A68EA
:1032400048F2FF33C1F2D7739A4206D84FF00A030F
:10325000BB624FF47A73FB6205E04FF00103BB627F
:1032600042F21073FB6249F2E023C1F6FF731A6861
:10327000FB6AB2FBF3F37B6249F2F423C1F6FF73FE
:103280001B68BA6A02FB03F27B6AB2FBF3F39BB2E0
:10329000C3F51C5303F110039AB249F23813C1F677
:1032A000FF731A8049F21A13C1F6FF731A8849F2A4
:1032B0003813C1F6FF731B889A4212D249F23813B1
:1032C000C1F6FF731A8849F21A13C1F6FF731A8008
:1032D00008E049F23813C1F6FF7342F210721A8007
:1032E00000E000BF04F03AFB4FF000033B61FDF744
:1032F000B7FB0346FB6349F22413C1F6FF731B6857
:103300003B62F86BFDF7B0FB22E0FDF7A9FB03463B
:10331000FB633B6AD3F89C203B6AC3F8A0203B6A5E
:103320004FF00002C3F89C20F86BFDF79DFB3B6A51
:10333000D3F8A0303A6913443B61FDF791FB034693
:10334000FB633B6AD3F8B8303B62F86BFDF78CFB4C
:103350003B6A002BD9D13B69002B43D03A6941F637
:103360007F23C0F206039A4206D842F21073BB6173
:103370004FF001037B612FE03A6940F6FF03C0F292
:103380003D039A4206D84FF47A73BB614FF00A03AB
:103390007B6121E03A6945F6FF13C0F262239A424D
:1033A00006D84FF06403BB614FF064037B6113E008
:1033B0003A6948F2FF33C1F2D7739A4206D84FF008
:1033C0000A03BB614FF47A737B6105E04FF00103A0
:1033D000BB6142F210737B613A697B69B2FBF3F324
:1033E000FB6105E04FF00003BB614FF00103FB619F
:1033F000FDF736FB0346FB6349F22413C1F6FF7366
:103400001B683B62F86BFDF72FFB35E03B6AD3F896
:10341000A030BA6902FB03F2FB69B2FBF3F3FB8154
:10342000FA8942F210739A4202D942F21073FB8178
:103430003B6AFA89A3F88C203B6AB3F88E30FA898C
:103440009A4203D93B6AFA89A3F88E203B6A03F1BA
:10345000B0013B6A03F1AC0207F10C03386A00F0DB
:1034600029FCFDF7FDFA0346FB633B6AD3F8B8304D
:103470003B62F86BFDF7F8FA3B6A002BC6D149F2C4
:103480000433C1F6FF731B78012B0BD149F20433CF
:10349000C1F6FF734FF000021A7007F10C031846D3
:1034A000FFF7CCFCFDF7C8FA02467B6BC3EB0203C7
:1034B000BB6348F6D473C1F6FF731A68BB6B9A42BC
:1034C00005D248F6D473C1F6FF73BA6B1A6007F1E0
:1034D0000C03386B4FF000011A4601F0B9FB4BE6C4
:1034E00080B58CB00AAF786048F6D873C1F6FF7328
:1034F0004FF000021A6049F2F423C1F6FF734FF057
:1035000000021A6049F2E023C1F6FF734FF0000297
:103510001A6049F24103C1F6FF734FF000021A70BE
:1035200049F20433C1F6FF734FF000021A7048F2FB
:103530003C23C0F200031B68002B04D17B6846F6D5
:103540002B621A8052E048F24423C0F200031A684A
:1035500048F24C23C0F200031B689A4204D27B68F5
:1035600046F62C621A8041E048F23423C0F2000390
:103570001B78062B04D97B6846F62A621A8035E050
:1035800048F23423C0F20003187848F23C23C0F21A
:103590000003196848F24023C0F200031A6848F299
:1035A0004423C0F200031B68009001910292039330
:1035B0004FF0000304934FF0000305934FF0000316
:1035C00006934FF0030307937B68089349F20C308E
:1035D000C1F6FF7048F29C11C0F2000143F2D9021B
:1035E000C0F200024FF0000300F004F807F10807F2
:1035F000BD4680BD80B58CB002AFF860B9607A601E
:103600003B604FF000037B6249F23A13C1F6FF734F
:103610001B78002B04D03B6D47F24A121A8003E15D
:10362000FB68002B04D13B6D47F2AD121A80FBE022
:103630007B68002B04D13B6D47F24F121A80F3E0F8
:103640007B6B002B04D13B6D46F62F621A80EBE0BA
:1036500048F24C23C0F200031B68FA6B9A4204D272
:103660003B6D46F630621A80DEE0BA6BFB6B9A4225
:1036700004D33B6D46F631621A80D5E097F83030BE
:10368000072B04D93B6D46F273221A80CCE097F8E1
:103690003030072B0BD1FA6849F20C23C1F6FF73C7
:1036A0009A4204D03B6D46F273221A80BCE0F8685F
:1036B00000F048FC3B6D4FF000021A80B7F84C3028
:1036C00003F00103DBB2002B1BD0B7F84C3003F042
:1036D0000203002B15D07B6BFB614FF000037B6175
:1036E0000BE0FB694FF000021A60FB6903F1040371
:1036F000FB617B6903F101037B617A69FB6B9A4291
:10370000EFD3BB6B4FEA83037A6B13443B62FB6BD3
:103710000093B7F84C300193786839687A6B3B6A4C
:1037200004F060F90346FB61FB687A689A62FB6803
:103730003A68DA62FB68BA681A62FB6897F8302068
:1037400083F83720FB68FA691A60FB683A6A9A6066
:10375000FB687A6C5A657B6C002B07D149F2D82341
:10376000C1F6FF731A68FB689A6502E0FB687A6C21
:103770009A65FB68BA6C5A60FB687A6B5A62FB68A0
:10378000FA6B9A63FB68B7F84C209A874FF00003F6
:10379000FB760DE0FB7EFA6803F11E034FEA83031C
:1037A00013444FF000025A60FB7E03F10103FB76E5
:1037B000FB7E002BEED0FB6803F16402B7F84030CB
:1037C00010461946FEF7F2FFF86804F0D5F8FDF749
:1037D00047F903467B62FB6893F837301846FFF7DA
:1037E00063F8F868FEF722FDF86800F00FFB49F275
:1037F0003C13C1F6FF731B8803F101039AB249F22F
:103800003C13C1F6FF731A8048F6DD73C1F6FF73EF
:103810001B78012B03D0786AFDF726F904E0786A5B
:10382000FDF722F9FDF7BAFF07F12807BD4680BD75
:1038300080B584B000AF786039604FF00003FB6062
:1038400049F23A13C1F6FF731B78002B04D03B6892
:1038500047F24E121A808FE07A6849F20C23C1F6C3
:10386000FF739A4204D13B6847F24C121A8083E0FE
:103870007B68002B0CD1FDF7F3F80346FB6049F29F
:103880001413C1F6FF731B687B60F868FDF7ECF852
:10389000FDF7E6F80346FB607B6893F83630072BAC
:1038A00035D801A252F823F0C9380000D138000001
:1038B000D9380000D93800001F390000D138000085
:1038C000D9380000D93800007868FEF743FD29E0B8
:1038D000786801F00DF825E0786801F009F87B6858
:1038E00093F83430072B1CD84FF0010202FA03F38F
:1038F00003F08502002A04D103F07A03002B02D1E1
:1039000010E000BF0EE07868FEF7BEFA0AE0F86843
:10391000FDF7AAF83B6846F62D621A802CE000BF3E
:1039200000E000BF7B6803F164031846FEF7EEFE7B
:10393000786804F033F8786800F09AFA49F23C139A
:10394000C1F6FF731B8803F1FF339AB249F23C13AF
:10395000C1F6FF731A80786800F0F4FA7B684FF0C4
:10396000FF3283F83620F868FDF77EF83B684FF0A9
:1039700000021A80FDF712FF07F11007BD4680BD57
:1039800080B584B000AF786039604FF00003FB6011
:1039900049F23A13C1F6FF731B78002B04D03B6841
:1039A00047F255121A801DE0FDF75AF80346FB60F6
:1039B0007B68002B07D049F21413C1F6FF731B6814
:1039C0007A689A4207D1F868FDF74EF83B6847F2EB
:1039D00057121A8006E0F868FDF746F878683968EB
:1039E00000F0B2FB07F11007BD4680BD90B587B06F
:1039F00000AFF8607A603B600B467B814FF00003BC
:103A00007B6149F23A13C1F6FF731B78002B06D095
:103A10003B6846F2AE121A804FF000031DE17B892D
:103A2000002B02D0B3F5004F03D17B68002B07D1E8
:103A30000AE03B6845F625621A804FF000030CE16E
:103A40007B684FF000021A60FDF70AF803467B61BD
:103A500049F21413C1F6FF731B685B6C002B53D043
:103A600049F21413C1F6FF731B685A6C02F1FF325E
:103A70005A6449F21413C1F6FF731B685B6C3B6117
:103A80007B68002B07D049F21413C1F6FF731B6843
:103A90001A6C7B681A6049F21413C1F6FF731C6834
:103AA000FCF7CAFF024649F21413C1F6FF731B6804
:103AB0001B6CC3EB0203C4F8A43049F21413C1F623
:103AC000FF731B68D3F8A82049F21413C1F6FF73E3
:103AD0001B68D3F8A4309A420DD249F21413C1F6F0
:103AE000FF731A6849F21413C1F6FF731B68D3F809
:103AF000A430C2F8A8307869FCF7B6FF3B684FF0F5
:103B000000021A803B69A8E07B891BB2002B09DA0E
:103B10007869FCF7A9FF3B6846F2B0121A804FF0B3
:103B200000039AE048F6CC73C1F6FF731B78002BB4
:103B300009D07869FCF798FF3B6846F663521A8013
:103B40004FF0000389E04FF000004FF000014FF00C
:103B50000702FB68FEF706F87869FCF785FFFDF7BA
:103B60001DFEFCF77DFF03467B6149F21413C1F68D
:103B7000FF731B6893F83530012B43D0032B51D0D2
:103B8000002B5BD17B68002B37D049F21413C1F6B0
:103B9000FF731B681A6C7B681A6049F21413C1F634
:103BA000FF731C68FCF748FF024649F21413C1F684
:103BB000FF731B681B6CC3EB0203C4F8A43049F20B
:103BC0001413C1F6FF731B68D3F8A82049F214132D
:103BD000C1F6FF731B68D3F8A4309A420DD249F2A4
:103BE0001413C1F6FF731A6849F21413C1F6FF7378
:103BF0001B68D3F8A430C2F8A8303B684FF000022D
:103C00001A801FE07B68002B07D049F21413C1F61D
:103C1000FF731B681A6C7B681A603B6846F2A91236
:103C20001A800FE07B68002B03D07B684FF0000206
:103C30001A603B6847F2D9221A8003E03B6846F6D7
:103C40002E621A8049F21413C1F6FF731B685B6C75
:103C50003B617869FCF708FF3B69184607F11C07D0
:103C6000BD4690BD80B586B000AFF8600B467A6067
:103C70007B817B89002B02D0B3F5004F0ED1FCF77E
:103C8000DBFE03467B617B89F86819467A697B68AD
:103C900000F00EFB03463B613B6905E07B6845F69F
:103CA00025621A804FF00003184607F11807BD4639
:103CB00080BD00BF80B588B000AFF860B9607A60A1
:103CC0003B604FF00003FB6149F23A13C1F6FF730A
:103CD0001B78002B04D03B6847F259121A806AE027
:103CE000BB68002B04D13B6846F2D5221A8062E003
:103CF0007B68002B04D13B6846F2D5221A805AE03B
:103D0000FCF7AEFE0346FB61FB68002B05D149F2D0
:103D10001413C1F6FF731B68FB60FB681B68002B64
:103D20000FD1F869FCF7A0FEBB684FF000021A60E3
:103D30007B684FF000021A603B6847F252121A800B
:103D400039E0FB689B8F03F00103002B0FD1F8696A
:103D5000FCF78AFEBB684FF000021A607B684FF0E8
:103D600000021A603B6847F254121A8023E0F86997
:103D7000FCF77AFE4FF000037B61FB685B6ABB6176
:103D800007E0BB6903F10403BB617B6903F1010335
:103D90007B61BB691B68002BF3D0BB687A691A6032
:103DA000FB689A6B7B69C3EB02027B681A603B6815
:103DB0004FF000021A8007F12007BD4680BD00BF0A
:103DC00080B582B000AF7860396049F23A13C1F62D
:103DD000FF731B78002B04D03B6847F25D121A80FA
:103DE0000FE07A6849F20C23C1F6FF739A4204D1BE
:103DF0003B6847F25B121A8003E07868396800F08C
:103E0000EFFA07F10807BD4680BD00BF80B483B05C
:103E100000AF78607B684FF00002C3F8B42049F22D
:103E20002413C1F6FF731B68002B05D17B684FF08C
:103E30000002C3F8B8200FE049F22413C1F6FF7363
:103E40001A687B68C3F8B82049F22413C1F6FF73DF
:103E50001B687A68C3F8B42049F22413C1F6FF73D3
:103E60007A681A6007F10C07BD4680BC704700BF36
:103E700080B485B000AF78607B68D3F8B430FB6065
:103E80007B68D3F8B830BB60FB68002B13D149F2D4
:103E90002413C1F6FF73BA681A60BB68002B04D004
:103EA000BB684FF00002C3F8B4207B684FF00002FB
:103EB000C3F8B8201FE0BB68002B0AD1FB684FF0A5
:103EC0000002C3F8B8207B684FF00002C3F8B420AA
:103ED00011E0FB68BA68C3F8B820BB68FA68C3F899
:103EE000B4207B684FF00002C3F8B8207B684FF025
:103EF0000002C3F8B42007F11407BD4680BC704728
:103F000080B483B000AF786049F22413C1F6FF7328
:103F10004FF000021A6049F23C13C1F6FF734FF0F4
:103F200000021A8049F23413C1F6FF734FF0000209
:103F30001A607B684FF000021A8007F10C07BD463B
:103F400080BC704780B584B000AF78607B684FF06C
:103F500000021A607B684FF000029A607B684FF0A5
:103F600000025A607B684FF00002DA607B684FF015
:103F700000021A617B684FF000025A617B684FF0C3
:103F800000029A617B684FF00002DA617A6848F2B9
:103F9000B013C0F2000313627B684FF000025A6254
:103FA0007B684FF000029A627B684FF00002DA6291
:103FB0007B684FF000021A637B684FF00002DA87DB
:103FC0007B684FF000021A647B684FF00002DA65EC
:103FD0007B684FF00002A3F860207B6803F1640364
:103FE00018464FF00001FEF7E1FB7B684FF000023E
:103FF0005A677B684FF000029A677B684FF00002B7
:10400000C3F880207B684FF00002A3F888207B680B
:104010004FF00002C3F884204FF00003FB720DE064
:10402000FB7A7A6803F11E034FEA830313444FF0CF
:1040300000025A60FB7A03F10103FB72FB7A002B4A
:10404000EED07B684FF000025A647B684FF00002AC
:10405000C3F8A4207B684FF00002C3F8A8207B6857
:104060004FF000029A637B684FF0000283F88A20C9
:104070007B684FF00002C3F8B0207B684FF000026D
:10408000C3F8AC207B684FF000029A877B684FF042
:1040900000429A647B684FF00002DA647B684FF05C
:1040A00000021A657B684FF000025A657B684FF08A
:1040B00000029A657B684FF00002A3F88C207B68B1
:1040C0004FF00002A3F88E207B684FF00002C3F887
:1040D00090207B684FF00002C3F89420FCF7ACFC02
:1040E0000346FB607B68FA68C3F898207B684FF052
:1040F0000002C3F89C207B684FF0000283F8342054
:104100007B684FF0000283F835207B684FF0000297
:1041100083F836207B684FF0080283F837207B68ED
:104120004FF00002C3F8B4207B684FF00002C3F8E0
:10413000B8207A6848F2B813C0F20003C2F8BC3065
:1041400007F11007BD4680BD80B584B000AF786030
:1041500039604FF00003FB60FCF782FC0346FB6014
:104160003B684FF000021A807B6893F83630072BCB
:1041700079D801A252F823F099410000994100003A
:104180009941000099410000A9410000DD41000073
:104190000B42000039420000F868FCF765FC3B6800
:1041A00047F253121A8066E07B6893F88A3003F175
:1041B000FF33DAB27B6883F88A207B6893F88A3011
:1041C000002B07D17B684FF0000283F83620786817
:1041D000FEF7BCF9F868FCF747FC4CE07B6893F805
:1041E0008A3003F1FF33DAB27B6883F88A207B6878
:1041F00093F88A30002B04D17B684FF0010283F8DA
:104200003620F868FCF730FC35E07B6893F88A309C
:1042100003F1FF33DAB27B6883F88A207B6893F876
:104220008A30002B04D17B684FF0020283F83620DD
:10423000F868FCF719FC1EE07B6893F88A3003F1FC
:10424000FF33DAB27B6883F88A207B6893F88A3080
:10425000002B04D17B684FF0030283F83620F86806
:10426000FCF702FC07E0F868FCF7FEFB3B6846F64B
:104270002D621A8001E0FDF791FA07F11007BD46A3
:1042800080BD00BF80B582B000AF49F21413C1F603
:10429000FF731B68184603F093FB07F106034FF00A
:1042A00000001946FFF7C4FA07F10807BD4680BDB4
:1042B00080B588B002AFF8607A603B600B467B81C6
:1042C0004FF000037B61FCF7CBFB03467B61FB688F
:1042D000002B05D149F21413C1F6FF731B68FB6074
:1042E000FB687A681A643B684FF000021A80FB682A
:1042F00093F83630072B60D84FF0010202FA03F32F
:1043000003F0CC02002A1FD103F03303002B54D05A
:10431000FB685B6CB3F1FF3F09D17869FCF7A4FB44
:104320003B6846F6C5521A804FF0000352E0FB6826
:104330005B6C03F10102FB685A64FB685B6C3B61D8
:104340007869FCF791FB44E0FB6893F83430072B65
:1043500017D17B6800934FF00000F9684FF000021E
:104360004FF00003FDF70EFEFB685B6C3B61786964
:10437000FCF77AFB7B891BB2002B29DBFDF70EFAD9
:1043800027E0FB685B6CB3F1FF3F09D17869FCF76C
:104390006BFB3B6846F6C5521A804FF0000319E0EC
:1043A000FB685B6C03F10102FB685A64FB685B6CA1
:1043B0003B617869FCF758FB0BE07869FCF754FB2C
:1043C0003B6846F62D621A804FF000033B6100E027
:1043D00000BF3B69184607F11807BD4680BD00BF06
:1043E00080B584B000AF786039604FF00003FB60A7
:1043F000FCF736FB0346FB607B68002B05D149F2D6
:104400001413C1F6FF731B687B6049F21413C1F6E5
:10441000FF731B687A689A420ED148F6CC73C1F6D6
:10442000FF731B78002B07D0F868FCF71DFB3B6877
:1044300046F663521A806DE03B684FF000021A8026
:104440007B6893F83630072B5AD801A252F823F034
:104450007144000093440000AF440000CB440000CE
:10446000E7440000E7440000E7440000E7440000A0
:104470007B684FF0040283F836207B684FF001021E
:1044800083F88A207868FDF765FFF868FCF7ECFA96
:104490003EE07B684FF0050283F836207B684FF0E2
:1044A000010283F88A20F868FCF7DEFA30E07B68C6
:1044B0004FF0060283F836207B684FF0010283F844
:1044C0008A20F868FCF7D0FA22E07B684FF00702F8
:1044D00083F836207B684FF0010283F88A20F86861
:1044E000FCF7C2FA14E07B6893F88A3003F1010309
:1044F000DAB27B6883F88A20F868FCF7B5FA07E03F
:10450000F868FCF7B1FA3B6846F62D621A8001E0C4
:10451000FDF744F907F11007BD4680BD80B584B0B2
:1045200000AF786002E000BF00E000BF07F10802C2
:1045300007F10E034FF000004FF00001FFF756FAAD
:10454000FB89002BEFD148F6DD73C1F6FF731B78B2
:10455000012BEAD100F040FAE8E700BF80B58CB04B
:104560000AAF786049F2E423C1F6FF734FF000020E
:104570001A6049F2D033C1F6FF734FF000021A609F
:1045800000F064F848F25823C0F200031B68002BC7
:1045900004D17B6847F212221A8052E048F260236D
:1045A000C0F200031A6848F24C23C0F200031B68F3
:1045B0009A4204D27B6847F213221A8041E048F203
:1045C0005423C0F200031B78062B04D97B6847F202
:1045D00011221A8035E048F25423C0F20003187803
:1045E00048F25823C0F20003196848F25C23C0F275
:1045F00000031A6848F26023C0F200031B680090B1
:104600000191029203934FF0000304934FF00003D3
:1046100005934FF0000306934FF00B0307937B685D
:10462000089349F25000C1F6FF7048F2BC11C0F285
:10463000000144F21D52C0F200024FF00003FEF7E9
:10464000D9FF07F10807BD4680BD00BF80B483B025
:1046500000AF4FF000037B8018E07B884FEAC30275
:1046600049F2E453C1F6FF7313447B607B684FF05B
:1046700000021A607B684FF000029A807B684FF05E
:104680000002DA807B8803F101037B8048F2682313
:10469000C0F200031B887A889A42DED307F10C0728
:1046A000BD4680BC704700BF80B48BB000AFF860DF
:1046B000B9603B601346FB80FB88042B28D149F28C
:1046C000E423C1F6FF731B68BA68C3EB020303F16E
:1046D000FF333B613B6913F5803F10D9FB684FF016
:1046E0000002DA64FB684FF000021A65FB684FF0C5
:1046F0000002DA613B6847F27E221A80F2E0FB6832
:10470000BA68DA643B6903F10102FB681A6554E098
:10471000BB68002B40D0FB88082B30D1FB689A6C1B
:10472000BB6813447B6149F2E423C1F6FF731B6845
:104730007A69C3EB020303F1FF333B613A69BB685B
:104740009A4203D2FB687A69DA6408E049F2E4230A
:10475000C1F6FF731A68BB681A44FB68DA64FB6829
:10476000DA6C49F2E423C1F6FF731B68C3EB020263
:10477000FB681A65FB68DA6CFB689A641DE049F215
:10478000E423C1F6FF731A68BB681A44FB68DA6455
:10479000FB68BA681A6510E0FB684FF00002DA6443
:1047A000FB684FF000021A65FB684FF00002DA6107
:1047B0003B6847F27E221A8094E0FB68DA6C48F28C
:1047C0006823C0F200031B88B2FBF3F103FB01F383
:1047D000C3EB0203FB84FB8C4FEAC30249F2E453B0
:1047E000C1F6FF731344BB61BB699B88002B0FD1DB
:1047F000FB684FF000025A61FB684FF000029A61BB
:10480000BB69FA681A60BB694FF001029A8058E0F0
:10481000BB691B683B624AE03B6ADA6C49F2E423FD
:10482000C1F6FF731B68C3EB02023B6A1A65FB68A3
:104830001A6D3B6A1B6D9A4215D93B6A5B69002B66
:1048400003D03B6A5B693B6231E0FB684FF00002DA
:104850005A61FB683A6A9A613B6AFA685A614FF09A
:1048600000033B6223E03B6A9B69002B0DD1FB6890
:104870004FF000029A61FB683A6A5A613B6AFA6833
:104880009A61BB69FA681A600EE03B6A9B69FB613A
:10489000FB68FA699A61FB683A6A5A61FB69FA68CF
:1048A0005A613B6AFA689A614FF000033B623B6AC7
:1048B000002BB1D1BB699B8803F101039AB2BB699C
:1048C0009A80BB69DA88BB699B889A4203D2BB692C
:1048D0009A88BB69DA80FB68BA69DA613B684FF095
:1048E00000021A8007F12C07BD4680BC704700BF4C
:1048F00080B487B000AF78607B68DB69FB60FB68E1
:10490000002B3ED07B684FF000021A65FB681A68E6
:104910007B689A420DD17B685B693B61FB683A69B1
:104920001A603B69002B14D03B694FF000029A617A
:1049300010E07B689B693B617B685B697B613B69DD
:104940007A695A617B69002B04D07B693A699A6164
:1049500000E000BF7B684FF000025A617B684FF0B7
:1049600000029A617B684FF00002DA617B684FF0C9
:104970000002DA64FB689B8803F1FF339AB2FB689C
:104980009A8007F11C07BD4680BC704780B483B095
:1049900000AF4FF000037B8010E07B884FEAC3023A
:1049A00049F2E453C1F6FF7313447B607B684FF018
:1049B0000002DA807B8803F101037B8048F26823E0
:1049C000C0F200031B887A889A42E6D307F10C07ED
:1049D000BD4680BC704700BF80B588B000AF4FF0C7
:1049E0000003FB61FCF73CF80346FB61FCF724F88D
:1049F00003467B6149F2E423C1F6FF731B6803F1B0
:104A0000010249F2E423C1F6FF731A6049F2E4237C
:104A1000C1F6FF731A6848F26823C0F200031B88CE
:104A2000B2FBF3F103FB01F3C3EB02037B827B8A4E
:104A30004FEAC30249F2E453C1F6FF7313447B60AB
:104A40007B681B68BB604FF00003FB70DFE0BB6856
:104A5000002B00F0D980BB685B69FB60BB6893F8F2
:104A60003630072B00F2CD8001A252F823F000BFB0
:104A7000034C0000914A0000034C0000D34A0000A0
:104A8000034C00004B4B0000034C00008D4B00001A
:104A9000BB68DA6C49F2E423C1F6FF731B68C3EB11
:104AA0000202BB681A65BB68DA6C49F2E423C1F6FE
:104AB000FF731B689A4208D1BB684FF0000283F86D
:104AC0003620B868FDF742FD9BE04FF00103FB7014
:104AD00097E0BB68DA6C49F2E423C1F6FF731B6808
:104AE000C3EB0202BB681A65BB68DA6C49F2E423C7
:104AF000C1F6FF731B689A4223D1BB684FF00002D6
:104B0000DA65BB684FF00002A3F86020FBF794FF62
:104B10000246BB681A64B868FDF7B6F9B868FDF7D5
:104B200015FDBB684FF0000283F83620BB684FF0DC
:104B3000030283F83520BB684FF0000283F834206D
:104B40005FE04FF00103FB705BE0BB68DA6C49F299
:104B5000E423C1F6FF731B68C3EB0202BB681A654E
:104B6000BB68DA6C49F2E423C1F6FF731B689A4212
:104B700008D1BB684FF0040283F83620B868FFF70D
:104B8000B7FE3EE04FF00103FB703AE0BB68DA6C21
:104B900049F2E423C1F6FF731B68C3EB0202BB6852
:104BA0001A65BB68DA6C49F2E423C1F6FF731B682F
:104BB0009A4223D1BB684FF00002DA65BB684FF020
:104BC0000002A3F86020FBF737FF0246BB681A64B7
:104BD000B868FDF759F9B868FFF78AFEBB684FF06F
:104BE000040283F83620BB684FF0030283F83520B7
:104BF000BB684FF0000283F8342002E04FF001035D
:104C0000FB70FB68BB6002E04FF00103FB70FB78B8
:104C1000002B3FF41CAFFBF70FFF02467B69C3EB91
:104C20000203BB6149F2D033C1F6FF731A68BB6956
:104C30009A4205D249F2D033C1F6FF73BA691A60BD
:104C4000F869FBF711FF07F12007BD4680BD00BFE3
:104C500080B586B000AFF8600B467A607B814FF07C
:104C600000037B6149F23A13C1F6FF731B78002BF6
:104C700004D07B6847F275221A8065E048F6CC7351
:104C8000C1F6FF731B78002B04D07B6846F6635295
:104C90001A8059E07B89082B1CD801A252F823F016
:104CA000C54C0000D54C0000C54C0000D54C0000A0
:104CB000DF4C0000D54C0000D54C0000D54C000066
:104CC000C54C0000FB68002B0BD17B6847F27E22AD
:104CD0001A8039E07B6845F625621A8034E000BF0F
:104CE00000E000BFFBF7BCFE03467B6149F21413F2
:104CF000C1F6FF731B684FF0010283F8362049F2BA
:104D00001413C1F6FF731A687B891046F9681A46B6
:104D10007B68FFF7C9FC7B681B88002B03D0786990
:104D2000FBF7A2FE10E049F21413C1F6FF731B68F3
:104D30001846FDF70FFB7869FBF796FEFCF72EFD92
:104D40007B684FF000021A8007F11807BD4680BD4E
:104D500080B588B000AF7B600346FB810B46BB810A
:104D600013467B814FF00003FB6149F23A13C1F611
:104D7000FF731B78002B04D0FB6A47F275221A8060
:104D800004E148F6CC73C1F6FF731B78002B04D006
:104D9000FB6A46F663521A80F8E03B8D03F00E037F
:104DA0007B827B8A082B26D801A050F823F000BF15
:104DB000D54D0000F74D0000D54D0000F74D000027
:104DC000014E0000F74D0000F74D0000F74D0000C8
:104DD000D54D00007B68002B14D17B89002B13D1AB
:104DE000BB89002B12D1FB89002B11D1FB6A47F242
:104DF0007E221A80CAE0FB6A45F625621A80C5E069
:104E000000BF06E000BF04E000BF02E000BF00E01A
:104E100000BF3B8D23F01E03002B0CBF002301239A
:104E20003B743B7C012B04D1FB6A45F625621A805A
:104E3000ACE03B8D03F01003002B02D04FF00103D8
:104E400001E04FF000037B747B7C012B21D07A685A
:104E500040F2E7339A4204D9FB6A47F27B221A8078
:104E600094E07B893B2B04D9FB6A47F27A221A80B3
:104E70008CE0BB893B2B04D9FB6A47F279221A806C
:104E800084E0FB89632B18D9FB6A47F278221A80E9
:104E90007CE0BA8942F20F739A4204D9FB6A47F266
:104EA00079221A8072E0FA8940F2E7339A4205D9F2
:104EB000FB6A47F278221A8068E000BF48F250236C
:104EC000C0F200031B687B61FB894FF4616202FB47
:104ED00003F1BA8913464FEA0313C2EB03034FEA07
:104EE000830301EB03027B8913447A6902FB03F21B
:104EF0004FF4FA717B69B1FBF3F17B680B4479697C
:104F000001FB03F144F6D353C1F26203A3FB010397
:104F10004FEA93131344BB61BB69002B32D0FBF7FC
:104F20009FFD0346FB6149F21413C1F6FF731B6832
:104F30004FF0010283F8362049F21413C1F6FF73D3
:104F40001A687B8A1046B9691A46FB6AFFF7ACFB00
:104F5000FB6A1B88002B03D0F869FBF785FD15E081
:104F600049F21413C1F6FF731B681846FDF7F2F9F6
:104F7000F869FBF779FDFCF711FCFB6A4FF00002C2
:104F80001A8003E0FB6A47F27E221A8007F12007AD
:104F9000BD4680BD80B582B000AF02F0FBFD07F1D9
:104FA000060349F25000C1F6FF704FF000011A46A7
:104FB000FEF758FE49F24C03C1F6FF731B781A4600
:104FC00013464FEA430313444FEA83031A4648F655
:104FD000E073C1F6FF7313441846FDF71FFA49F258
:104FE000E033C1F6FF731B6803F1FF3249F2E0338F
:104FF000C1F6FF731A6049F2E033C1F6FF731B6814
:10500000002B14D149F2D433C1F6FF731A6849F268
:10501000E033C1F6FF731A6007F1060349F240104E
:10502000C1F6FF704FF000011A46FEF71BFE07F1B4
:105030000807BD4680BD00BF80B58EB00AAF78605E
:1050400049F2CC33C1F6FF734FF000021A6048F208
:105050007423C0F200031B68002B11D048F25023C8
:10506000C0F200031A6848F27423C0F200031B6800
:10507000B2FBF3F249F2D433C1F6FF731A6011E0C8
:1050800048F25023C0F200031A684CF6CD43CCF628
:10509000CC43A3FB02134FEAD30249F2D433C1F647
:1050A000FF731A6049F2D433C1F6FF731A6849F2EC
:1050B000E033C1F6FF731A6049F21013C1F6FF73B3
:1050C0004FF000021A6049F22813C1F6FF734FF047
:1050D00000021A604FF000037B8118E07B894FEAE1
:1050E000C30249F6AC63C1F6FF731344FB60FB686F
:1050F0004FF000029A80FB684FF00002DA80FB68F4
:105100004FF000021A607B8903F101037B8148F2B2
:105110008823C0F200031B887A899A42DED348F2C2
:105120007823C0F200031B68002B04D17B6847F290
:1051300047321A8052E048F28023C0F200031A6816
:1051400048F24C23C0F200031B689A4204D27B68E9
:1051500047F248321A8041E048F27023C0F200035F
:105160001B78062B04D97B6847F246321A8035E05B
:1051700048F27023C0F20003187848F27823C0F296
:105180000003196848F27C23C0F200031A6848F251
:105190008023C0F200031B680090019102920393E8
:1051A0004FF0000304934FF0000305934FF000030A
:1051B00006934FF00B0307937B68089349F2401066
:1051C000C1F6FF7048F2D811C0F2000145F28142E9
:1051D000C0F200024FF00003FEF70CFA07F11007CF
:1051E000BD4680BD80B487B000AF78600B467B8041
:1051F0007B684FF0020283F82A207B88012B0AD1BA
:105200007B685A6A49F21013C1F6FF731B681A448F
:105210007B689A6118E07B681B6A002B0AD17B6867
:105220005A6A49F21013C1F6FF731B681A447B686F
:105230009A6109E07B681A6A49F21013C1F6FF739C
:105240001B681A447B689A617B689A6948F28823D4
:10525000C0F200031B88B2FBF3F103FB01F3C3EBC5
:105260000203FB82FB8A4FEAC30249F6AC63C1F634
:10527000FF731344BB60BB681B68002B0FD17B68B6
:105280004FF000021A617B684FF000025A61BB6860
:105290007A681A60BB684FF001029A8063E07B680D
:1052A0009A6949F21013C1F6FF731B68C3EB02023F
:1052B0007B68DA61BB681B683B614AE03B699A69BD
:1052C00049F21013C1F6FF731B68C3EB02023B697E
:1052D000DA617B68DA693B69DB699A4215D93B6917
:1052E0001B69002B03D03B691B693B6131E07B6884
:1052F0004FF000021A617B683A695A613B697A682B
:105300001A614FF000033B6123E03B695B69002BAE
:105310000DD17B684FF000025A617B683A691A61CF
:105320003B697A685A61BB687A681A600EE03B692B
:105330005B69FB607B68FA685A617B683A691A614D
:10534000FB687A681A613B697A685A614FF000031A
:105350003B613B69002BB1D1BB689B8803F1010322
:105360009AB2BB689A80BB68DA88BB689B889A420D
:1053700003D2BB689A88BB68DA8007F11C07BD4678
:1053800080BC704780B483B000AF4FF00003FB8057
:1053900010E0FB884FEAC30249F6AC63C1F6FF7325
:1053A00013443B603B684FF00002DA80FB8803F156
:1053B0000103FB8048F28823C0F200031B88FA88AF
:1053C0009A42E6D307F10C07BD4680BC704700BF88
:1053D00080B487B000AF78607B689A6948F2882310
:1053E000C0F200031B88B2FBF3F103FB01F3C3EB34
:1053F0000203FB82FB8A4FEAC30249F6AC63C1F6A3
:10540000FF731344BB60BB681A687B689A420DD176
:105410007B681B69FB60BB68FA681A60FB68002B3D
:1054200014D0FB684FF000025A6110E07B685B69A2
:10543000FB607B681B693B61FB683A691A613B69E9
:10544000002B04D03B69FA685A6100E000BF7B681A
:105450004FF0010283F82A207B684FF000021A61A6
:105460007B684FF000025A61BB689B8803F1FF33F1
:105470009AB2BB689A8007F11C07BD4680BC704792
:1054800080B58CB000AF786000E000BF07F10C027F
:1054900007F110034FF000004FF00001FEF7A6FAED
:1054A00007F110031846FCF7EBF9FBF7C5FA0346C2
:1054B000BB6249F21013C1F6FF731B6803F10102CE
:1054C00049F21013C1F6FF731A6049F21013C1F6C6
:1054D000FF731A6848F28823C0F200031B88B2FBEE
:1054E000F3F103FB01F3C3EB0203FB84FB8C4FEAF4
:1054F000C30249F6AC63C1F6FF731344BB61BB69D9
:105500001B68FB614FF00003FB7436E0FB69002B66
:1055100030D0FB691B693B62FB699A6949F2101341
:10552000C1F6FF731B689A4220D1F869FFF750FF5C
:10553000FB691B8D022B05D1F8694FF00101FFF7C4
:1055400051FE04E0FB694FF0030283F82A20FB6957
:105550009B687B617B69002B05D0FB69DA687B69FE
:10556000F869114698473B6AFB6106E04FF001037A
:10557000FB7402E04FF00103FB74FB7C002BC5D0F1
:10558000FBF75AFA0246BB6AC3EB0203FB6207F160
:1055900010031846FCF7BCF949F22813C1F6FF7353
:1055A0001A68FB6A9A42BFF470AF49F22813C1F639
:1055B000FF73FA6A1A6069E780B400AFBD4680BC29
:1055C000704700BF054B1C7844F001041C70044B6D
:1055D0001A78D2B2034B1A70FAF772FDE84600400F
:1055E000F8460040BC76004080B582B000AF4EF671
:1055F0000C53CEF2000340F20042C0F2FA521A609D
:105600004EF61453CEF200034EF61452CEF20002C0
:10561000126842F400721A604FF000037B6014E0DD
:105620007A687B684FEA830140F20003C0F200030E
:105630000B441B68194648F20003C1F6FF7343F898
:1056400022107B6803F101037B607B682F2BE7D975
:1056500047F2BC63C4F200031B78DAB24AF2585333
:10566000C1F6FF731A704EF60853CEF2000348F2EB
:105670000002C1F6FF721A6001F01AFF07F1080775
:10568000BD4680BD80B582B000AF786001F042FDBC
:1056900001F0DCFC01F0E6FC01F048FD01F0BAFB92
:1056A00001F0ECFC01F086FC01F028FD01F0CEFCDD
:1056B00007F10807BD4680BD80B582B000AF01F09C
:1056C0004DFC0346FB71FB79184600F013F907F116
:1056D0000807BD4680BD00BF80B500AF01F00EFDDC
:1056E00080BD00BF80B500AF00F01EFA80BD00BFD6
:1056F00080B582B000AF0346FB71FB79184601F01C
:105700003FFC00F00BF807F10807BD4680BD00BF65
:1057100080B500AF01F09AFC80BD00BF80B500AF3E
:1057200001F088FC80BD00BF80B58CB00AAF07F1E6
:10573000060348F65C30C1F6FF7048F29421C0F2CF
:1057400000014FF00002FDF729F9FB88002B02D081
:105750004FF0000334E04FF00403009348F69C033D
:10576000C1F6FF7301934FF00C0302934FF08003D7
:1057700003934FF0000304934FF0000305934FF0A1
:10578000000306934FF00303079307F10603089302
:1057900048F69C20C1F6FF7048F2A421C0F2000137
:1057A00045F61D02C0F200024FF00003FDF722FF94
:1057B000FB88002B02D04FF0000301E04FF0010303
:1057C000184607F10807BD4680BD00BF80B584B00C
:1057D00002AF07F10603009348F65C30C1F6FF7094
:1057E0004FF000014FF000024FF00003FDF72AF9DF
:1057F00007F10807BD4680BD80B582B000AF07F154
:10580000060348F65C30C1F6FF704FF000011A46FF
:10581000FDF70CFA07F10807BD4680BD80B582B0E0
:1058200000AF786000F04EF807F10807BD4680BD74
:1058300080B584B000AF786048F68433C1F6FF735A
:105840004FF000021A7048F69853C1F6FF734FF0FC
:1058500000021A7048F69C53C1F6FF734FF0000225
:105860001A6048F69953C1F6FF734FF000021A70A0
:1058700048F6A073C1F6FF734FF000021A704AF2A7
:105880003853C1F6FF734FF000021A604AF23453E6
:10589000C1F6FF734FF000021A60FFF745FF0346A1
:1058A000FB73FB7B002B02D14FF0000304E0786810
:1058B000FFF7E8FE4FF00103184607F11007BD4659
:1058C00080BD00BF80B582B000AF00E000BFFFF731
:1058D0007DFF00F065FA03467B607B68002BF5D006
:1058E00048F69C53C1F6FF737A681A6000F0BEFA5E
:1058F000EDE700BF80B582B000AF0346FB714AF20E
:105900003853C1F6FF731B6803F101024AF23853A2
:10591000C1F6FF731A6048F68433C1F6FF731B7833
:105920000A2B00F2F28001A252F823F0595900002C
:10593000755900009B590000C1590000E75900004B
:10594000035A0000775A0000935A0000A35A00003F
:10595000E15A0000F15A0000FB79752B40F0DD8020
:1059600048F68433C1F6FF734FF001021A7000F05D
:1059700071FAD5E0FB79432B07D148F68433C1F6A1
:10598000FF734FF002021A70CAE048F68433C1F682
:10599000FF734FF000021A70C2E0FB79502B07D161
:1059A00048F68433C1F6FF734FF003021A70B7E074
:1059B00048F68433C1F6FF734FF000021A70AFE06F
:1059C000FB79722B07D148F68433C1F6FF734FF091
:1059D00004021A70A4E048F68433C1F6FF734FF056
:1059E00000021A709CE0FA7948F68833C1F6FF731A
:1059F0001A6048F68433C1F6FF734FF005021A703F
:105A00008EE0FB794FEA03231A4648F68833C1F645
:105A1000FF731B6842EA030248F68833C1F6FF733E
:105A20001A6048F68833C1F6FF731B68002B07D055
:105A300048F68833C1F6FF731B68B3F5007F08D9B9
:105A400048F68433C1F6FF734FF000021A7000BFAE
:105A500066E048F68833C1F6FF731A6848F690335B
:105A6000C1F6FF731A6048F68433C1F6FF734FF036
:105A700006021A7054E0FA7948F68C33C1F6FF73C7
:105A80001A6048F68433C1F6FF734FF007021A70AC
:105A900046E048F68433C1F6FF734FF008021A70EF
:105AA0003EE0FB79184600F0AFF948F68833C1F6BE
:105AB000FF731B6803F1FF3248F68833C1F6FF73AA
:105AC0001A6048F68833C1F6FF731B68002B26D195
:105AD00048F68433C1F6FF734FF009021A701FE0D5
