:400000000080002011000000695500006955000080B500AF024A034B1B68136005F0AEFABC760040FA46004010B5054C237833B9044B13B10448AFF300800123237010BDEE
:400040005081FF1F00000000D07A0000084B10B51BB108490848AFF300800848036803B910BD074B002BFBD0BDE81040184700BF000000005481FF1FD07A0000C880FF1F5E
:400080000000000080B500AF04F04AFC4FF4165004F01AFA04F088F900BF80BD80B500AF002247F27521642003F05EFD024B01221A7000BF80BD00BFB59BFF1F80B500AF52
:4000C000002247F27521642003F04EFD024B01221A7000BF80BD00BFB59BFF1F80B500AF002247F27521642003F03EFD024B01221A7000BF80BD00BFB39BFF1F80B58CB011
:400100000AAF194805F0E4FF184806F02FF8184805F090FF00F068FA00F06AFBBB1D184600F098FDBB1D089303230793002306930023059300230493802303930C230293A9
:400140000C4B01930223009300230B4A0B490C4802F07AFBBB1D184600F0BAFF002318460837BD4680BD00BF9D000000BD000000DD0000002C82FF1F85010000D47A0000E0
:400180006C81FF1F80B586B002AF786000F04CFA00F050FA07F10E03184602F0E3F800F017F800F01BFAFFF76DFF012000F062FA012000F0A7FA07F10E03019300230093C4
:4001C000642300220021002003F040FDF0E700BF80B58CB00AAFBB1D08930323079300230693002305930023049340230393062302932B4B0193032300930023294A2A493E
:400200002A4802F021FBBB1D0893032307930023069300230593002304934023039306230293234B0193022300930023214A2249224802F009FBBB1D0893032307930023BA
:400240000693002305930023049340230393062302931B4B0193022300930023194A1A491A4802F0F1FABB1D08930323079300230693002305930023049340230393062359
:400280000293134B0193022300930023114A12490E4802F0D9FA00BF0837BD4680BD00BFAC89FF1FDD020000DC7A0000EC88FF1F6C8BFF1F89030000E87A0000AC8AFF1F9D
:4002C0002C8DFF1FD9030000F47A00006C8CFF1FEC8EFF1F11040000047B000080B584B000AF786005F0D4FD0346002B1BD0234B1B78002B17D1224B1B78002B13D1214BF7
:400300001B78002B0FD107F10E031A460021642003F02AFC012005F077FF012005F0C6FD002005F0DFFD05F037FE0346002B08D0002005F069FF012005F0D4FD002005F0B3
:40034000B5FD05F039FE0346002B0ED00B4B1B78002B0AD10B4B1B78002B06D1084B00221A70002005F0DCFD06E0054B1B78002BB8D0012005F0D4FDB4E700BFB39BFF1F5D
:40038000B49BFF1FB59BFF1F80B582B000AF78600F4B1B78002B0CD0012005F0DFFD012005F050FF002005F02FFF0A4B01221A7005E0002005F0D2FD002005F043FF05F0CF
:4003C0000BFE0346002BE3D1014B00221A70DFE7B39BFF1FB49BFF1F80B582B000AF7860084B1B78002B09D0012005F005FE002005F00AFF044B01221A70F1E7002005F03D
:40040000FBFDEDE7B59BFF1FB49BFF1F0000000090B587B000AF78600023FB820023BB824FF000033B614FF00003FB6005F0E8FF05F0FEFF002006F001F8002006F014F898
:400440000346FB82012006F00FF80346BB82FB8A184606F097FF03460C461A46234652A1D1E9000107F01EF903460C46184621464FF00002564B06F037FE03460C4618461D
:40048000214607F095FA03463B61BB8A184606F079FF03460C461A46234643A1D1E9000107F000F903460C46184621464FF00002474B06F019FE03460C461846214607F0CF
:4004C00077FA0346FB60386906F06EFF38A3D3E9002307F0E7F803460C461846214606F081FB35A3D3E9002307F0DCF803460C461846214632A3D3E9002306F0F7FD0346B8
:400500000C461A4623464FF00000314907F0CAF803460C46184621462BA3D3E9002306F0E3FD03460C461846214607F041FA0246284B1A60F86806F037FF1DA3D3E9002359
:4005400007F0B0F803460C461846214606F04AFB19A3D3E9002307F0A5F803460C461846214617A3D3E9002306F0C0FD03460C461A4623464FF00000154907F093F803469A
:400580000C461846214610A3D3E9002306F0ACFD03460C461846214607F00AFA02460E4B1A6047E7AFF300800000000000FEAF4000000000006AF8400000000000B3B040FB
:4005C00083DBB5DCE1796B3F66666666661271400000F03FB89BFF1FBC9BFF1F80B400AF00BFBD4680BC704780B483B000AF0B4B1B687B607B6823F000537B607B683B602E
:400600003B683833064A1A603B683C33054A1A6000BF0C37BD4680BC704700BF08ED00E017680000556B000080B400AF00BFBD4680BC704780B582B000AF00F011F87860BD
:40064000064B1B687A68B2FBF3F33B60386806F09FFA00BF0837BD4680BD00BF347E000080B400AF024B1846BD4680BC704700BF0087930380B582B000AF0346FB71FB7919
:40068000042B37D801A252F823F000BFA1060000BD060000BD060000BD060000D906000005F02CF80346DAB2154B1A70144B1B7823F00303184605F011F81CE005F01EF828
:4006C0000346DAB20E4B1A700D4B1B7823F00103184605F003F80EE005F010F80346DAB2074B1A70064B1B7823F00203184604F0F5FF00E000BF00BF0837BD4680BD00BF78
:40070000E1A2FF1F80B582B000AF0346FB71FB79042B3AD801A252F823F000BF310700004F0700004F0700004F0700006D07000004F0E4FF0346DAB2164B1A70154B1B78A1
:4007400083F00303DBB2184604F0C8FF1EE004F0D5FF0346DAB20F4B1A700E4B1B7883F00103DBB2184604F0B9FF0FE004F0C6FF0346DAB2074B1A70064B1B7883F002032C
:40078000DBB2184604F0AAFF00E000BF00BF0837BD4680BDE1A2FF1F80B582B000AFFFF75FFF7860094A094B1B6843F080731360074A074B1B6843F001031360786800F08E
:4007C00035F800BF0837BD4680BD00BFFCED00E0001000E080B483B000AF044B1B687B607B6818460C37BD4680BC7047041000E080B500AF00F02EF800F026F800BF80BDE1
:4008000080B582B000AF00237B6004F051FF78601021054800F02AF8786804F04DFF00BF0837BD4680BD00BFE8A2FF1F80B483B000AF7860034A7B68136000BF0C37BD469D
:4008400080BC7047E4A2FF1F80B500AFFFF7D8FF00BF80BD80B500AF034B00221A60FFF79BFF00BF80BD00BFE4A2FF1F80B582B000AF786039603A680021786800F004F861
:4008800000BF0837BD4680BD80B48BB000AFF8600B467A60FB7200233B6200237B6109E03B6A1B023B62FB7A3A6A13433B627B6901337B617B69032BF2D97B687B62FB68E5
:4008C00003F003033B61FB68BB613B69002B13D03B697B610AE0BB695A1CBA61FA7A1A707B6A013B7B627B6901337B617B6A002B02D07B69032BEED9BB69FB6107E0FB699D
:400900001A1DFA613A6A1A607B6A043B7B627B6A032BF4D8FB69BB6107E0BB695A1CBA61FA7A1A707B6A013B7B627B6A002BF4D100BF2C37BD4680BC704700BF80B48FB0F0
:4009400000AFF860B9607A607B687B63FB68BB62BB687B627A6ABB6AD31AFB61FB69032B4FD9BB6A03F00303BB617B6A03F003037B61BA697B699A4201D1012300E0002360
:40098000FB74FB7C012B3CD1BB69002B16D0BB693B620DE0BB6A5A1CBA627A6A511C796212781A707B6B013B7B633B6A01333B627B6B002B02D03B6A032BEBD9BB6A3B638B
:4009C0007B6AFB620AE03B6B1A1D3A63FA6A111DF96212681A607B6B043B7B637B6B032BF1D83B6BBB62FB6A7B620AE0BB6A5A1CBA627A6A511C796212781A707B6B013B88
:400A00007B637B6B002BF1D100BF3C37BD4680BC704700BF80B485B000AF484BFB60484BBB60484BFB60484BFB60484BBB60484BFB60484B7B60484BFB60484BFB60484B15
:400A4000FB60484BFB60484B7B60484B7B60484BFB60484B7B60484BFB60484B7B60484BFB60484B7B60484B7B60484B7B60484B7B60484BFB60484BFB60484BFB60484B96
:400A80007B60484BFB60484BFB60484B7B60484B7B60484B7B60484B7B60484B7B60484B7B60484B7B60484BFB60484BFB60484BFB60484BFB60484B7B60484B7B60484B56
:400AC0007B60484BFB60484BFB60484BFB60484B7B60484B7B60484B7B60484BBB60484B7B60484BFB60484BFB60484BFB60484BFB60484BFB60484BFB60484BFB60484BD6
:400B00007B60484BFB60484BFB60484B7B60484B7B60484BFB60484BFB60484B7B60484BFB60484BFB60484B7B60484B7B60484B7B6000BF1437BD4680BC7047DC7B00005B
:400B4000447D0000DD7B0000DE7B0000E07B0000E47B0000E87B0000E57B0000107C0000117C0000127C0000147C0000167C00001A7C00001C7C00003C7C00003E7C00001D
:400B8000407C0000427C0000447C0000467C0000487C0000747C0000757C0000767C0000787C00007A7C00007B7C00007C7C00007E7C0000807C0000827C0000847C0000D5
:400BC000867C0000887C0000B87C0000B97C0000BA7C0000BB7C0000BC7C0000BE7C0000C07C0000E87C0000E97C0000EA7C0000EB7C0000EC7C0000EE7C0000F07C000097
:400C0000F47C0000F57C0000F67C0000F77C0000F87C0000F97C0000FA7C0000FB7C0000FC7C0000FE7C0000FF7C0000007D0000027D0000047D0000057D0000087D000027
:400C40003C7D00003D7D00003E7D0000407D0000427D000080B584B000AF786005F01EFE614B00221A70614B00221A70604B00221A70604B00221A605F4B00221A605F4B8B
:400C800000221A705E4B00221A705E4B00221A705D4B00221A705D4B1B685D4AA2FB0323DB085C4A13605C4B1B68002B15D05B4B1B68FB60FB68002B0FD0574B1B68BB608E
:400CC00008E0BB68013BBB60FB6800221A60FB680433FB60BB68002BF3D1514B00221A60504B00221A60504B00221A604F4B00221A604F4B00221A604E4B00221A604E4BAC
:400D000000221A604D4B00221A7000F0FDFF00F0FBFC786800F0FCFE7B681B88002B4AD1786800F00BFF7B681B88002B45D1786800F01AFF7B681B88002B40D1786800F04E
:400D4000CDFF7B681B88002B3BD1786801F066F87B681B88002B36D1786801F0EFF97B681B88002B31D1786802F05CF97B681B88002B2CD1786800F009FA7B681B88002B3E
:400D800027D1786802F014FC7B681B88002B22D1786801F0EFFC7B681B88002B1DD1786803F08EF87B681B88002B18D1FFF732FE03F0CAFA14E000BF12E000BF10E000BF77
:400DC0000EE000BF0CE000BF0AE000BF08E000BF06E000BF04E000BF02E000BF00E000BF1037BD4680BD00BF6AA4FF1F0DA3FF1FFCA2FF1F44A4FF1F50A4FF1F7CA3FF1F72
:400E000070A3FF1F4CA4FF1F08A7FF1F347E0000CDCCCCCC08A6FF1F047E0000007E000078A3FF1F5CA4FF1F00A3FF1F0CA6FF1F28A6FF1F18A6FF1F60A4FF1F0CA3FF1F58
:400E400080B582B000AF00237B602C4B1B78012B50D104F02DFC7860294B1B78002B03D1786804F029FC46E0254B1B78013BDAB2234B1A70224B1B78002B03D0786804F058
:400E80001BFC38E01F4B1B78002B03D0786804F013FC30E000F050FF03461A461A4B1A70194B1B781946194A0B465B000B449B0013441B68164A1360154B1A68154B1B687D
:400EC0009A4203D1786804F0F7FB14E0104B1B68D3F890200132C3F890200F4B1B6801330D4A13600D4B4FF080521A60786804F0E3FB00E000BF0837BD4680BD0DA3FF1F35
:400F00006AA4FF1FFCA2FF1F70A3FF1F10A3FF1F50A4FF1F44A4FF1F64A4FF1F04ED00E080B582B000AF00237B60204B1B78002B36D11F4B1B78002B34D104F0B9FB7860C7
:400F400000F0FAFE03461A461A4B1A70194B1B781946194A0B465B000B449B0013441B68164A1360154B1A68154B1B689A4203D1786804F0A1FB16E0104B1B68D3F89020C1
:400F80000132C3F890200F4B1B6801330D4A13600D4B4FF080521A60786804F08DFB02E000BF00E000BF0837BD4680BD6AA4FF1FFCA2FF1F70A3FF1F10A3FF1F50A4FF1FBE
:400FC00044A4FF1F64A4FF1F04ED00E080B584B000AF78600023FB60164B1B78002B04D07B6846F662521A8020E0134B1B78012B04D07B6845F689621A8017E00F4B1B78AE
:40100000F92B04D97B6845F209221A800EE004F04FFBF860094B1B780133DAB2074B1A70F86804F049FB7B6800221A801037BD4680BD00BF6AA4FF1F0DA3FF1FFCA2FF1F96
:4010400080B584B000AF78600023FB601D4B1B78002B04D07B6846F665521A802EE01A4B1B78012B04D07B6845F689621A8025E0164B1B78002B04D17B6846F664521A8087
:401080001CE004F015FBF860104B1B78013BDAB20E4B1A700D4B1B78002B07D0F86804F00BFB7B6846F663521A8007E0F86804F003FBFFF735FF7B6800221A801037BD463E
:4010C00080BD00BF6AA4FF1F0DA3FF1FFCA2FF1F80B582B000AF7860174B1B78002B23D100F02AFE03461A46144B1A70134B1A78134B1A70114B1B781946124A0B465B0064
:401100000B449B0013441B680F4A13600E4B1B680E4A1360084B01221A7005F065FB7B6843F699221A8003E07B6845F68A621A8000BF0837BD4680BD0DA3FF1F70A3FF1FEE
:401140007CA3FF1F10A3FF1F50A4FF1F44A4FF1F80B584B000AF78600023FB6004F0A8FAF860084B1B680133064A1360064B1B680133054A1360F86804F09EFA05F080FBFA
:40118000ECE700BF20A6FF1F08A3FF1F80B58CB00AAF7860104B00221A60104B1B68104A126810490968786808900B20079000200690002005900020049003910292019366
:4011C000072300930023084A0849094801F03CFB00BF0837BD4680BD20A6FF1FD47D0000D87D0000DC7D000051110000487D00003CA5FF1F80B586B000AFF860B9603B6086
:401200001346FB711B4B1B68FA7983F83420194B1B68002283F83520164B1B683968184600F038FCBB68002B11D0BB6808337B61FB68BA68DA600F4B1B680122F9681846F7
:4012400000F01AF8F968786900F0BEF807E0094B1B680022DA87074B1B6800221A63054B1B681946B86800F03BF800BF1837BD4680BD00BF44A4FF1F80B487B000AFF860D5
:40128000B9601346FB80FB68FA88DA87FB68BA681A630023FB821AE0BB6800225A60BB6800221A60BB6800221A61BB6800225A61BB6800221A83BB680022DA61BB68FA68FA
:4012C0009A60BB682033BB60FB8A0133FB82FA8AFB889A42E0D300BF1C37BD4680BC704780B487B000AF786039607B68002B12D07B685A683B68C3F8BC207B6808337B613B
:401300007B691B683B613B699B68FB60FB681A6A7B68DA6116E03B6893F83430022B02D0072B05D009E03B68094AC3F8BC2009E03B68084AC3F8BC2004E03B68064AC3F898
:40134000BC2000BF00BF1C37BD4680BC704700BF5C7D0000647D0000707D000080B487B000AF786039603B680D4AC3F8BC207B6808337B617B691B683B613B69002B07D0A5
:401380003B699B68FB60FB681A6A7B68DA6102E07B68034ADA6100BF1C37BD4680BC7047707D000080B483B000AF78607B6800221A607B6800225A607B6800221A8100BF59
:4013C0000C37BD4680BC704780B489B000AF786039603B689B68BB61BB6993F83730FB757B681B89002B0FD17B6801221A813B6800225A603B6800221A607B683A681A60EF
:401400007B683A685A604DE07B681B8901339AB27B681A817B681B68FB610BE0FB699B683B613B6993F83730FA7D9A4206D3FB695B68FB61FB69002BF0D100E000BFFB6973
:40144000002B0FD13B6800225A607B685B68FB603B68FA681A60FB683A685A607B683A685A601FE0FB691B68002B0CD1FB693A681A603B6800221A603B68FA695A607B6814
:401480003A681A600EE0FB691B68FB603B68FA681A603B68FA695A60FB683A685A60FB693A681A6000BF2437BD4680BC704700BF80B586B000AF78607B681B6B3B617B68B9
:4014C000DB8FFB820FE03B69DB68FB60FB680833BB603969B86800F013F83B6920333B61FB8A013BFB82FB8A002BECD17B680022DA877B6800221A6300BF1837BD4680BDEA
:4015000080B485B000AF786039607B681B89012B06D17B6800221A607B6800225A6027E03B681B68002B09D13B685B68FB60FB6800221A607B68FA681A6019E03B685B684A
:40154000002B09D13B681B68BB60BB6800225A607B68BA685A600BE03B681B68BB603B685B68FB60BB68FA685A60FB68BA681A607B681B89013B9AB27B681A813B680022EA
:401580005A603B6800221A6000BF1437BD4680BC704700BF80B586B002AFF860B9607A607B80BB6893F83630072B79D801A252F823F000BFA1160000A1160000D515000063
:4015C000D5150000A1160000A11600003B1600003B160000BB6893F83430032B09D17A88BB69009313467A68B968F86800F05EF809E0BB687A68DA65BB687A88A3F86020AF
:40160000BB68BA691A64FB68002B06D0B868FFF74FFFB968F868FFF7A1FEB86800F062FABB68002283F83620BB68002283F83520BB68002283F8342033E0BB6893F8343038
:40164000032B09D17A88BB69009313467A68B968F86800F02BF809E0BB687A68DA65BB687A88A3F86020BB68BA691A64B86802F019F9FB68002B06D0B868FFF719FFB968D2
:40168000F868FFF76BFEBB68042283F83620BB68002283F83520BB68002283F8342000E000BF00BF1037BD4680BD00BF80B487B000AFF860B9607A607B80BB681B6B3B61DF
:4016C000BB68DB8FFB8217E03B69DA68FB689A420CD13B69FA681A613B697A685A613B697A881A833B693A6ADA6108E03B6920333B61FB8A013BFB82FB8A002BE4D100BF82
:401700001C37BD4680BC704780B483B000AF0023FB7113E0FA7913465B0013449B000B4A13443B603B6800221A813B6800221A603B6800225A60FB790133FB71FB79072B90
:40174000E8D900BF0C37BD4680BC704710A3FF1F80B582B000AF78607B6893F83730184600F00EFB7B6893F83720074B1B789A4203D1786800F04AF802E0786800F006F8A9
:4017800000BF0837BD4680BD7CA3FF1F80B485B000AF78607B6893F837301A4613465B0013449B00184A1344FB60FB681B89002B0FD1FB6801221A817B680022DA607B687A
:4017C00000221A61FB687A681A60FB687A685A6015E0FB681B8901339AB2FB681A81FB681A687B68DA607B6800221A61FB681B68BB60BB687A681A61FB687A681A6000BF93
:401800001437BD4680BC704710A3FF1F80B485B000AF78607B6893F837301A4613465B0013449B00184A1344FB60FB681B89002B0FD1FB6801221A817B680022DA607B6862
:4018400000221A61FB687A681A60FB687A685A6014E0FB681B8901339AB2FB681A817B680022DA60FB685B68BB607B68BA681A61BB687A68DA60FB687A685A6000BF14374C
:40188000BD4680BC704700BF10A3FF1F80B487B000AF78607B681B89002B1CDB012B36DD022B18D17B681B687B617B685B683B617B693A691A617B690022DA603B69002226
:4018C0001A613B697A69DA607B683A691A607B687A695A601CE07B681B687B617B685B683B617B69DB68FB60FB6800221A617B690022DA607B693A691A613B697A69DA6027
:401900007B68FA681A607B687A695A6000E000BF00BF1C37BD4680BC704700BF80B586B000AF78607B6893F837301A4613465B0013449B00244A13447B617B681B693B6191
:401940007B68DB68FB603B69002B1FD1FB68002B0FD17B6900221A817B6900221A607B6900225A607B6893F83730184600F02EFA1FE07B691B89013B9AB27B691A81FB689C
:4019800000221A617B69FA681A6012E07B691B89013B9AB27B691A813B69FA68DA60FB68002B03D17B693A695A6002E0FB683A691A617B6800221A617B680022DA6000BF85
:4019C0001837BD4680BD00BF10A3FF1F80B584B000AF78600023FB602A4B1B78012B4CD103F066FEF8607B681B68BB60BB68002B03D1F86803F060FE40E0BB68224A934282
:401A000003D1F86803F058FE38E0BB689B6D002B04D0BB689B6D5A1EBB689A65BB689B6D002B03D0F86803F047FE27E07B681B89012B03D8F86803F03FFE1FE0134B1B784C
:401A4000002B03D0F86803F037FE17E07868FFF71DFF7B681B68BB60BB685B6D002B04D10B4B1A68BB689A6503E0BB685A6DBB689A65F86803F020FE00E000BF1037BD4648
:401A800080BD00BF08A7FF1F3CA5FF1FFCA2FF1F08A6FF1F80B584B000AF786039603B68002B13D007F10E0302223968786801F001FEFB89002B04D17B68032283F83620A1
:401AC00008E07B68022283F8362003E07B68022283F836207868FFF721FF00BF1037BD4680BD00BF80B582B000AF7860786801F0D9FE7B6893F8363003F00403002B02D10E
:401B00007868FFF725FE00BF0837BD4680BD00BF80B483B000AF7860064B00221A60064B00221A807B6800221A8000BF0C37BD4680BC704730A6FF1F2CA6FF1F80B483B0E5
:401B400000AF7860064B00221A60064B00221A807B6800221A8000BF0C37BD4680BC704704A6FF1F36A6FF1F80B487B000AF78602D4B1B68002B04D17B6845F21E721A805A
:401B80004EE02A4B1B88002B04D17B6845F21D721A8045E0244B1B687B61234B1B683B613B6910333B61214B1B88013BBB810023FB8114E07B693A691A607B6900225A60BE
:401BC0007B6900221A817B690022DA607B6910337B613B6910333B61FB890133FB81FA89BB899A42E6D37B6900221A607B6900225A607B6900221A817B690022DA600A4B78
:401C00001B680B4A1360094B1A88094B9A80084B0022DA80064B00221A817B6800221A801C37BD4680BC7047147E00000C7E000030A5FF1F80B485B000AF78607B685B896A
:401C4000FB817B685B89002B26D07B681B68BB60144B1A68BB681A607B685B68114A1360104BDA887B685B89D31A9AB20D4BDA800C4B9A887B685B8913449AB2094B9A80CD
:401C80007B6800225A817B6800229A817B6800221A607B6800225A60FB8918461437BD4680BC704730A5FF1F80B483B000AF78600B467B807B687A881A817B6800225A8136
:401CC0007B6800229A817B6800221A607B6800225A6000BF0C37BD4680BC704780B483B000AF7860064B00221A60064B00221A807B6800221A8000BF0C37BD4680BC70470F
:401D00000CA7FF1F38A6FF1F80B483B000AF00237B6007E0074A7B68002142F823107B6801337B607B68002BF4D000BF0C37BD4680BC7047F8A2FF1F80B582B000AF00236C
:401D4000FB700E4B7B6005E0FB782033FB707B6804337B607B681B68002BF5D07B681B68184603F0B0FC0346DAB2FB781344FB70FB7818460837BD4680BD00BFF8A2FF1F2F
:401D800080B487B000AF0346FB71FB795B09FB75FB7903F01F033B610123FB603B69C3F11F03FA6802FA03F3FB60FB7DFA7D064951F82210FA680A43034941F8232000BF50
:401DC0001C37BD4680BC7047F8A2FF1F80B487B000AF0346FB71FB795B09FB75FB7903F01F033B610123FB603B69C3F11F03FA6802FA03F3FB60FB7DFA7D074951F8221044
:401E0000FA68D2430A40044941F8232000BF1C37BD4680BC704700BFF8A2FF1F80B483B000AF7860064B00221A60064B00221A807B6800221A8000BF0C37BD4680BC70471A
:401E4000FCA5FF1F48A4FF1F80B586B000AFF860B9607A603B6000237B611B4B1B78002B04D03B6842F6E1621A802AE0FB68002B04D13B6845F6C3521A8022E003F018FCE7
:401E80007861FB68114A1A60FB687A681A62FB6800225A62FB68BA685A60FB6808331846FFF780FAF86800F023F9094B1B8801339AB2074B1A80786903F0FEFB3B68002203
:401EC0001A801837BD4680BD6AA4FF1F53454D4100A6FF1F80B58EB000AFF860B9603B601346FB8000237B63634B1B78002B05D03B6C46F2AE121A800023B8E0FB68002BDD
:401F000005D13B6C45F6C3521A800023AFE0FB88002B08D0B3F5004F05D03B6C45F625621A800023A3E000BF3B68002B02D03B6800221A6003F0BCFB7863FB681B6A002B57
:401F400016D0FB681B6A5A1EFB681A623B68002B03D0FB685A6A3B681A60FB681B6A3B63786B03F0A9FB3B6C00221A803B6B7EE0B7F90630002B0BDAFB681B6A3B63786B91
:401F800003F09AFB3B6C46F2B0121A803B6B6EE03A4B1B78002B08D0786B03F08DFB3B6C46F663521A80002361E007F11000BB680622F968FFF71EF9786B03F07DFBFEF757
:401FC000AFFF03F075FB78632D4B1B6893F83530032B3CD801A252F823F000BFED1F000005200000352000001F2000003B68002B04D0234B1B681A6C3B681A603B6C002245
:402000001A802DE03B68002B04D01D4B1B681A6C3B681A603B6C46F2A9121A8020E03B68002B02D03B6800221A603B6C47F2D9221A8015E03B68002B04D0114B1B681A6C45
:402040003B681A603B6C45F6C2521A8008E03B6C46F62E621A80786B03F02EFB002306E0FB681B6A3B63786B03F026FB3B6B18463837BD4680BD00BF6AA4FF1FFCA2FF1FDF
:4020800044A4FF1F80B586B000AFF8600B467A607B81FB68002B05D17B6845F6C3521A80002321E07B89B3F5007F11D0B3F5007F02DC002B0CD005E0B3F5004F08D0B3F5B8
:4020C000024F05D07B6845F625621A8000230BE000BFFEF77FFB786179897B687A69F86800F042F838613B6918461837BD4680BD80B483B000AF78607B680E4ADA617B68A3
:4021000000225A610C4B1B68002B03D17B6800229A6107E0084B1A687B689A61064B1B687A685A61044A7B68136000BF0C37BD4680BC70477C7D000074A3FF1F80B483B0AD
:4021400000AF7860064B00221A60064B00221A807B6800221A8000BF0C37BD4680BC704774A3FF1F00A6FF1F80B58EB002AFF8607A603B600B467B8100237B6203F098FA8B
:402180007862FB6808333B623B6A1B89002B21D1FB681B6AB3F1FF3F08D1786A03F08CFA3B6846F6C5521A80002348E000BFFB681B6A5A1CFB681A62FB681B6A7B61FB68A8
:4021C0007A685A62786A03F077FA3B6800221A807B6934E07B8903F40073002B03D03B6A1B89FB8501E00123FB853B6A1B68BB6212E0BB6A9B68FB61BB6A5B68BB617B6848
:40220000009300230022F969F868FFF7C3F9BB69BB62FB8D013BFB85FB8D002BE9D1FB681B6A7B61786A03F047FAB7F90A30002B01DBFEF775FE3B6800221A807B6918468C
:402240003037BD4680BD00BF80B586B000AF78600023FB6003F02CFAF8603B4B00221A803A4B00221A603A4B00221A60394B00221A60394B00221A81F86803F01DFA03F0D5
:4022800017FAF860354B1B687B61F86803F014FA30E003F00DFAF8607B6900229A677B690022C3F8A8207B690022C3F890207B690022A3F88C207B690022A3F88E207B6992
:4022C0000022C3F89C207B690022C3F8A020FEF781FA02467B69C3F898207B696433BB60BB6800229A817B69D3F8B8307B61F86803F0E2F97B69002BCBD103F0D9F9F86056
:40230000174B1B683B61F86803F0D6F90EE003F0CFF9F8603B692033BB60BB6800229A813B699B693B61F86803F0C6F93B69002BEDD101F0FDFA01F017FF7B6800221A8016
:4023400000BF1837BD4680BD4AA4FF1F04A3FF1F00A7FF1F58A4FF1F30A5FF1F54A4FF1FFCA5FF1F80B586B000AF786000233B6107F10E031946324800F0CAFDFB89002B9E
:4023800003D0FA897B681A8056E007F10E031A460021022001F0E8FBFB89002B03D0FA897B681A8048E003F083F93861254B00221A60386903F080F900237B61224B1A68DB
:4023C000224B1B689A4206D91F4B1A681F4B1B68B2FBF3F37B617B69002B06D11A4B1B681B4AA2FB0323DB087B6107F10E031A460021786901F0B8FB07F10E031946104866
:4024000000F0C8FBFB89002B03D0FA897B681A8012E003F04DF938610E4B00221A60094B1B680D4A13600D4B01221A70386903F043F97B6800221A801837BD4680BD00BF4B
:4024400070A4FF1F08A3FF1F347E00001C7E0000CDCCCCCC04A3FF1F10A6FF1F71A3FF1F80B590B000AF78600023BB6108E0844B1B685B0007F10A020021184601F074FB66
:40248000804B1B78012BF2D107F10A031846FFF7DBFE0023FB617C4B1A68794B1B689A4206D9794B1A68764B1B68B2FBF3F3FB61FB69002B06D1744B1B68744AA2FB032331
:4024C000DB08FB61FEF786F9786103F0F1F8B8616F4B1B686F4A13606D4B00221A60B86903F0EAF86C4B1A686A4B1B689A424FD9694B1B68694A934205D842F210737B6203
:4025000001233B6224E0644B1B68654A934205D84FF47A737B620A233B6219E05E4B1B68604A934204D864237B6264233B620FE0594B1B685C4A934205D80A237B624FF4A9
:402540007A733B6204E001237B6242F210733B62514B1A683B6AB2FBF3F33B614D4B1B687A6A02FB03F23B69B2FBF3F39BB2C3F51C5310339AB24D4B1A804D4B1A884B4B79
:402580001B889A4208D2494B1A88494B1A8003E0464B42F210721A8004F0B2F90023BB6303F086F8B861434B1B68BB62B86903F083F81FE003F07CF8B861BB6AD3F89C2048
:4025C000BB6AC3F8A020BB6A0022C3F89C20B86903F072F8BB6AD3F8A030BA6B1344BB6303F066F8B861BB6AD3F8B830BB62B86903F062F8BB6A002BDCD1BB6B002B31D089
:40260000BB6B264A934205D842F210733B6301237B6321E0BB6B224A934205D84FF47A733B630A237B6317E0BB6B1E4A934204D864233B6364237B630EE0BB6B1A4A9342D0
:4026400005D80A233B634FF47A737B6304E001233B6342F210737B63BA6B7B6BB2FBF3F3FB6203E000233B630123FB6203F020F8B861104B1B68BB62B86903F01DF850E0D1
:402680001C7E000071A3FF1F347E0000CDCCCCCC08A3FF1F24A6FF1F10A6FF1F7F1A0600FF083D00FF596202FF83D71768A4FF1F4AA4FF1F54A4FF1FBB6AD3F8A0303A6B26
:4026C00002FB03F2FB6AB2FBF3F3FB87FB8F42F21072934202D942F21073FB87BB6AFA8FA3F88C20BB6AB3F88E30FA8F9A4203D9BB6AFA8FA3F88E20BB6A03F1B001BB6A9B
:4027000003F1AC0207F10A03B86A00F089FB02F0CFFFB861BB6AD3F8B830BB62B86902F0CBFFBB6A002BC7D1104B1B78012B07D10E4B00221A7007F10A031846FFF784FDF8
:40274000FEF748F802467B69D31AFB60084B1A68FB689A4202D2064AFB68136007F10A031A460021F86901F0FFF9ABE634A6FF1F04A3FF1F90B58DB00AAF7860254B0022DF
:402780001A60254B00221A60244B00221A60244B00221A70234B00221A70234B1B68002B04D17B6846F62B621A802FE01F4B1A681F4B1B689A4204D27B6846F62C621A803B
:4027C00024E01C4B1B78062B04D97B6846F62A621A801BE0174B1B78134A126816490968124800687C6808940324079400240694002405940024049403900291019200936A
:4028000000230E4A0E490F4800F01EF80C37BD4690BD00BF08A3FF1F24A6FF1F10A6FF1F71A3FF1F34A6FF1F207E0000287E0000307E0000187E0000247E000061240000B9
:40284000807D00003CA6FF1F80B58CB002AFF860B9607A603B600023BB61794B1B78002B04D03B6D47F24A121A80E6E0FB68002B04D13B6D47F2AD121A80DEE07B68002BB8
:4028800004D13B6D47F24F121A80D6E07B6B002B04D13B6D46F62F621A80CEE0694B1B68FA6B9A4204D23B6D46F630621A80C4E0BA6BFB6B9A4204D33B6D46F631621A80BD
:4028C000BBE097F83030072B04D93B6D46F273221A80B2E097F83030072B08D1FB685A4A934204D03B6D46F273221A80A5E0F86800F0B4FB3B6D00221A80B7F84C3003F0DF
:402900000103002B17D0B7F84C3003F00203002B11D07B6BFB6100237B6208E0FB6900221A60FB690433FB617B6A01337B627A6AFB6B9A42F2D3BB6B9B007A6B13447B6177
:40294000B7F84C300193FB6B00937B697A6B3968786804F019F8F861FB687A689A62FB683A68DA62FB68BA681A62FB6897F8302083F83720FB68FA691A60FB687A699A60E0
:40298000FB687A6C5A657B6C002B04D12F4B1A68FB689A6502E0FB687A6C9A65FB68BA6C5A60FB687A6B5A62FB68FA6B9A63FB68B7F84C209A87002387F823300CE097F885
:4029C0002330FA681E339B00134400225A6097F82330013387F8233097F82330002BEED0FB686433B7F8402011461846FFF75CF9F86803F093FF02F05BFEB861FB6893F810
:402A000037301846FFF7BCF9F868FEF7FFFEF86800F0A0FA0E4B1B8801339AB20C4B1A800C4B1B78012B03D0B86902F045FE04E0B86902F041FEFEF773FA2837BD4680BD07
:402A40006AA4FF1F307E00003CA5FF1F08A6FF1F6CA4FF1F0DA3FF1F80B584B000AF786039600023FB60474B1B78002B04D03B6847F24E121A8082E07B68434A934204D138
:402A80003B6847F24C121A8079E07B68002B08D102F00EFEF8603D4B1B687B60F86802F00BFE02F005FEF8607B6893F83630072B3CD801A252F823F0D92A0000E12A0000F6
:402AC000E92A0000E92A00003D2B0000E12A0000E92A0000E92A00007868FEF71FFF2EE0786800F0DFFE2AE0786800F0DBFE7B6893F83430072B17D801A252F823F000BF04
:402B0000292B0000212B0000292B0000212B0000212B0000212B0000212B0000292B00007868FEF7C5FC00E000BF08E0F86802F0C3FD3B6846F62D621A8020E000BF7B6844
:402B400064331846FFF776F8786803F0F9FE786800F026FA0E4B1B88013B9AB20C4B1A80786800F07BFA7B68FF2283F83620F86802F0A2FD3B6800221A80FEF7D1F910375D
:402B8000BD4680BD6AA4FF1F3CA5FF1F44A4FF1F6CA4FF1F80B584B000AF786039600023FB60134B1B78002B04D03B6847F255121A8019E002F07CFDF8607B68002B04D004
:402BC0000C4B1B687A689A4207D1F86802F074FD3B6847F257121A8006E0F86802F06CFD3968786800F006FB1037BD4680BD00BF6AA4FF1F44A4FF1F90B587B000AFF860B5
:402C00007A603B600B467B8100237B616F4B1B78002B05D03B6846F2AE121A800023D0E07B89002B08D0B3F5004F05D03B6845F625621A800023C4E000BF7B68002B02D046
:402C40007B6800221A6002F033FD7861604B1B685B6C002B35D05E4B1B685A6C013A5A645B4B1B685B6C3B617B68002B04D0584B1B681A6C7B681A60554B1C68FDF7AAFD94
:402C80000246534B1B681B6CD31AC4F8A430504B1B68D3F8A8204E4B1B68D3F8A4309A4207D24B4B1B684A4A1268D2F8A420C3F8A820786902F000FD3B6800221A803B697B
:402CC0007FE0B7F90A30002B08DA786902F0F4FC3B6846F2B0121A80002372E03D4B1B78002B08D0786902F0E7FC3B6846F663521A80002365E0FB68072200210020FEF7E3
:402D000079FA786902F0D8FCFEF70AF902F0D0FC78612F4B1B6893F83530012B2CD0032B37D0002B40D17B68002B21D0284B1B681A6C7B681A60264B1C68FDF74BFD024613
:402D4000234B1B681B6CD31AC4F8A430204B1B68D3F8A8201E4B1B68D3F8A4309A4207D21B4B1B681A4A1268D2F8A420C3F8A8203B6800221A801CE07B68002B04D0144B29
:402D80001B681A6C7B681A603B6846F2A9121A800FE07B68002B02D07B6800221A603B6847F2D9221A8004E03B6846F62E621A8000BF074B1B685B6C3B61786902F07CFC8F
:402DC0003B6918461C37BD4690BD00BF6AA4FF1F44A4FF1FFCA2FF1F80B586B000AFF8600B467A607B817B89002B08D0B3F5004F05D07B6845F625621A8000230BE000BF09
:402E0000FDF7E8FC786179897B687A69F86800F097FA38613B6918461837BD4680BD00BF80B588B000AFF860B9607A603B6000237B61354B1B78002B04D03B6847F25912F5
:402E40001A805DE0BB68002B04D13B6846F2D5221A8055E07B68002B04D13B6846F2D5221A804DE002F024FC7861FB68002B02D1264B1B68FB60FB681B68002B0DD17869D0
:402E800002F01AFCBB6800221A607B6800221A603B6847F252121A8032E0FB689B8F03F00103002B0DD1786902F006FCBB6800221A607B6800221A603B6847F254121A8064
:402EC0001EE0786902F0F8FB0023FB61FB685B6ABB6105E0BB690433BB61FB690133FB61BB691B68002BF5D0BB68FA691A60FB689A6BFB69D21A7B681A603B6800221A80F0
:402F00002037BD4680BD00BF6AA4FF1F44A4FF1F80B582B000AF786039600C4B1B78002B04D03B6847F25D121A800CE07B68084A934204D13B6847F25B121A8003E0396882
:402F4000786800F091FA0837BD4680BD6AA4FF1F3CA5FF1F80B483B000AF78607B680022C3F8B4200D4B1B68002B04D17B680022C3F8B82009E0094B1A687B68C3F8B82022
:402F8000064B1B687A68C3F8B420044A7B68136000BF0C37BD4680BC704700BF54A4FF1F80B485B000AF78607B68D3F8B430FB607B68D3F8B830BB60FB68002B0ED1184AFE
:402FC000BB681360BB68002B03D0BB680022C3F8B4207B680022C3F8B8201BE0BB68002B08D1FB680022C3F8B8207B680022C3F8B4200FE0FB68BA68C3F8B820BB68FA6854
:40300000C3F8B4207B680022C3F8B8207B680022C3F8B42000BF1437BD4680BC704700BF54A4FF1F80B483B000AF7860084B00221A60084B00221A80074B00221A607B6843
:4030400000221A8000BF0C37BD4680BC704700BF54A4FF1F6CA4FF1F64A4FF1F80B584B000AF78607B6800221A607B6800229A607B6800225A607B680022DA607B68002202
:403080001A617B6800225A617B6800229A617B680022DA617B68554A1A627B6800225A627B6800229A627B680022DA627B6800221A637B680022DA877B6800221A647B6846
:4030C0000022DA657B680022A3F860207B68643300211846FEF7E8FD7B6800225A677B6800229A677B680022C3F880207B680022A3F888207B680022C3F884200023FB7313
:4031000009E0FB7B7A681E339B00134400225A60FB7B0133FB73FB7B002BF2D07B6800225A647B680022C3F8A4207B680022C3F8A8207B6800229A637B68002283F88A20B9
:403140007B680022C3F8B0207B680022C3F8AC207B6800229A877B684FF000429A647B680022DA647B6800221A657B6800225A657B6800229A657B680022A3F88C207B68ED
:403180000022A3F88E207B680022C3F890207B680022C3F89420FDF71DFBB8607B68BA68C3F898207B680022C3F89C207B68002283F834207B68002283F835207B680022FA
:4031C00083F836207B68082283F837207B680022C3F8B4207B680022C3F8B8207B68044AC3F8BC2000BF1037BD4680BD947D00009C7D000080B584B000AF7860396000230F
:40320000FB6002F055FAF8603B6800221A807B6893F83630072B72D801A252F823F000BF413200004132000041320000413200005132000081320000AB320000D532000046
:40324000F86802F039FA3B6847F253121A805EE07B6893F88A30013BDAB27B6883F88A207B6893F88A30002B06D17B68002283F836207868FEF736FCF86802F01DFA46E022
:403280007B6893F88A30013BDAB27B6883F88A207B6893F88A30002B03D17B68012283F83620F86802F008FA31E07B6893F88A30013BDAB27B6883F88A207B6893F88A3093
:4032C000002B03D17B68022283F83620F86802F0F3F91CE07B6893F88A30013BDAB27B6883F88A207B6893F88A30002B03D17B68032283F83620F86802F0DEF907E0F86855
:4033000002F0DAF93B6846F62D621A8001E0FDF707FE1037BD4680BD80B582B000AF074B1B68184603F01EFBBB1D19460020FFF793FB00BF0837BD4680BD00BF44A4FF1F2C
:4033400080B588B002AFF8607A603B600B467B8100233B6102F0ACF93861FB68002B02D1404B1B68FB60FB687A681A643B6800221A80FB6893F83630072B63D801A252F88C
:4033800023F000BFA5330000A5330000DB330000DB330000A5330000A5330000DB330000DB330000FB685B6CB3F1FF3F08D1386902F082F93B6846F6C5521A8000234DE0D0
:4033C00000BFFB685B6C5A1CFB685A64FB685B6C7B61386902F070F93FE0FB6893F83430072B14D17B68009300230022F9680020FEF7D0F8FB685B6C7B61386902F05CF9DC
:40340000B7F90A30002B27DBFDF78AFD24E0FB685B6CB3F1FF3F08D1386902F04DF93B6846F6C5521A80002318E000BFFB685B6C5A1CFB685A64FB685B6C7B61386902F074
:403440003BF909E0386902F037F93B6846F62D621A8000237B6100E000BF7B6918461837BD4680BD44A4FF1F80B584B000AF786039600023FB6002F01BF9F8607B68002B7C
:4034800002D13D4B1B687B603B4B1B687A689A420BD13A4B1B78002B07D0F86802F00CF93B6846F663521A8063E03B6800221A807B6893F83630072B51D801A252F823F040
:4034C000E1340000FF340000173500002F350000473500004735000047350000473500007B68042283F836207B68012283F88A207868FEF713FAF86802F0DEF837E07B68DB
:40350000052283F836207B68012283F88A20F86802F0D2F82BE07B68062283F836207B68012283F88A20F86802F0C6F81FE07B68072283F836207B68012283F88A20F868C3
:4035400002F0BAF813E07B6893F88A300133DAB27B6883F88A20F86802F0AEF807E0F86802F0AAF83B6846F62D621A8001E0FDF7D7FC1037BD4680BD44A4FF1FFCA2FF1FF8
:4035800080B584B000AF786007F10E0307F1080200210020FFF730FBFB89002BF4D1034B1B78012BF0D100F0E3F9EDE70DA3FF1F90B58DB00AAF7860214B00221A60214B77
:4035C00000221A6000F050F81F4B1B68002B04D17B6847F212221A802FE01C4B1A681C4B1B689A4204D27B6847F213221A8024E0184B1B78062B04D97B6847F211221A80B0
:403600001BE0144B1B78104A1268134909680F4800687C6808940B240794002406940024059400240494039002910192009300230A4A0B490B48FFF707F90C37BD4690BDC9
:4036400014A6FF1F00A7FF1F3C7E0000447E0000307E0000387E0000407E000081350000A07D000080A3FF1F80B483B000AF0023FB8010E0FB88DB000C4A13443B603B680E
:4036800000221A603B6800229A803B680022DA80FB880133FB80064B1B88FA889A42E9D300BF0C37BD4680BC704700BF14A9FF1F4C7E000080B48BB000AFF860B9603B60AA
:4036C0001346FB80FB88042B1FD1734B1B68BA68D31A013B3B623B6A13F5803F0DD9FB680022DA64FB6800221A65FB680022DA613B6847F27E221A80CAE0FB68BA68DA64CF
:403700003B6A5A1CFB681A6542E0BB68002B31D0FB88082B24D1FB689A6CBB681344FB615D4B1B68FA69D31A013B3B623A6ABB689A4203D2FB68FA69DA6405E0564B1A6859
:40374000BB681A44FB68DA64FB68DA6C524B1B68D21AFB681A65FB68DA6CFB689A6417E04D4B1A68BB681A44FB68DA64FB68BA681A650DE0FB680022DA64FB6800221A659B
:40378000FB680022DA613B6847F27E221A807FE0FB68DB6C414A1288B3FBF2F102FB01F29B1A7B837B8BDB003D4A13447B617B699B88002B0CD1FB6800225A61FB68002262
:4037C0009A617B69FA681A607B6901229A804FE07B691B687B6242E07B6ADA6C2E4B1B68D21A7B6A1A65FB681A6D7B6A1B6D9A4213D97B6A5B69002B03D07B6A5B697B6295
:403800002DE0FB6800225A61FB687A6A9A617B6AFA685A6100237B6221E07B6A9B69002B0CD1FB6800229A61FB687A6A5A617B6AFA689A617B69FA681A600EE07B6A9B69AA
:403840003B61FB683A699A61FB687A6A5A613B69FA685A617B6AFA689A6100237B627B6A002BB9D17B699B8801339AB27B699A807B69DA887B699B889A4203D27B699A8883
:403880007B69DA80FB687A69DA613B6800221A802C37BD4680BC704714A6FF1F4C7E000014A9FF1F80B487B000AF78607B68DB697B617B69002B35D07B6800221A657B69A3
:4038C0001A687B689A420CD17B685B693B617B693A691A603B69002B12D03B6900229A610EE07B689B693B617B685B69FB603B69FA685A61FB68002B02D0FB683A699A615F
:403900007B6800225A617B6800229A617B680022DA617B680022DA647B699B88013B9AB27B699A8000BF1C37BD4680BC704700BF80B483B000AF0023FB800AE0FB88DB00F4
:40394000094A13443B603B680022DA80FB880133FB80064B1B88FA889A42EFD300BF0C37BD4680BC704700BF14A9FF1F4C7E000080B588B000AF00237B6101F099FE7861C5
:40398000FCF728FF3861744B1B680133724A1360714B1B68714A1288B3FBF2F102FB01F29B1AFB81FB89DB006D4A1344BB60BB681B68BB610023FB77B4E0BB69002B00F0B7
:4039C000AF80BB695B697B60BB6993F83630072B00F2A28001A252F823F000BF193B0000FD390000193B00002D3A0000193B00008B3A0000193B0000BB3A0000BB69DA6CAA
:403A0000554B1B68D21ABB691A65BB69DA6C524B1B689A4207D1BB69002283F83620B869FEF760F879E00123FB7776E0BB69DA6C494B1B68D21ABB691A65BB69DA6C464BC1
:403A40001B689A421ED1BB690022DA65BB690022A3F86020FCF7BEFE0246BB691A64B869FDF726FDB869FEF73DF8BB69002283F83620BB69032283F83520BB69002283F805
:403A800034204AE00123FB7747E0BB69DA6C324B1B68D21ABB691A65BB69DA6C2E4B1B689A4207D1BB69042283F83620B869FFF7F9FE32E00123FB772FE0BB69DA6C264BFD
:403AC0001B68D21ABB691A65BB69DA6C224B1B689A421ED1BB690022DA65BB690022A3F86020FCF777FE0246BB691A64B869FDF7DFFCB869FFF7D6FEBB69042283F8362061
:403B0000BB69032283F83520BB69002283F8342003E00123FB7700E000BF7B68BB6101E00123FB77FB7F002B3FF447AFFCF752FE02463B69D31A3B600A4B1A683B689A42EE
:403B400002D2084A3B681360786901F0B5FD00BF2037BD4680BD00BF14A6FF1F4C7E000014A9FF1F00A7FF1F80B586B000AFF8600B467A607B8100237B61314B1B78002B5C
:403B800004D07B6847F275221A8055E02D4B1B78002B04D07B6846F663521A804CE07B89082B1DD801A252F823F000BFD13B0000E13B0000D13B0000E13B0000EB3B0000AA
:403BC000E13B0000E13B0000E13B0000D13B0000FB68002B0BD17B6847F27E221A802BE07B6845F625621A8026E000BF00E000BF01F05EFD7861144B1B68012283F83620FC
:403C0000114B18687A897B68F968FFF753FD7B681B88002B03D0786901F04EFD0CE00A4B1B681846FDF77AFE786901F045FDFDF777F97B6800221A801837BD4680BD00BF87
:403C40006AA4FF1FFCA2FF1F44A4FF1F80B588B000AF7B600346FB810B46BB8113467B810023FB61744B1B78002B04D0FB6A47F275221A80DDE0714B1B78002B04D0FB6AA9
:403C800046F663521A80D4E03B8D03F00E037B837B8B082B25D801A252F823F0C13C0000E33C0000C13C0000E33C0000ED3C0000E33C0000E33C0000E33C0000C13C00000A
:403CC0007B68002B14D17B89002B11D1BB89002B0ED1FB89002B0BD1FB6A47F27E221A80A7E0FB6A45F625621A80A2E000BF00E000BF3B8D23F01E03002B14BF01230023A6
:403D0000DBB27B767B7E012B04D1FB6A45F625621A808EE03B8D03F01003002B01D0012300E000233B763B7E012B20D07B68B3F57A7F04D3FB6A47F27B221A8079E07B89D8
:403D40003B2B04D9FB6A47F27A221A8071E0BB893B2B04D9FB6A47F279221A8069E0FB89632B17D9FB6A47F278221A8061E0BB8942F20F72934204D9FB6A47F279221A80A5
:403D800057E0FB89B3F57A7F04D3FB6A47F278221A804EE02A4B1B687B61FB894FF4616202FB03F1BA8913461B019B1A9B00CA187B8913447A6902FB03F24FF4FA717B69D5
:403DC000B1FBF3F17B680B44796901FB03F31D49A1FB03139B0913443B613B69002B24D001F066FCF861184B1B68012283F83620154B18687A8BFB6A3969FFF75BFCFB6A97
:403E00001B88002B03D0F86901F056FC11E00E4B1B681846FDF782FDF86901F04DFCFDF77FF8FB6A00221A8003E0FB6A47F27E221A802037BD4680BD6AA4FF1FFCA2FF1F3E
:403E4000347E0000D34D621044A4FF1F80B582B000AF02F071FEBB1D1A4600211248FEF7BBFF124B1B781A4613465B0013449B000F4A13441846FDF7A9FD0E4B1B68013B69
:403E80000C4A13600B4B1B68002B09D10A4B1B68084A1360BB1D1A4600210848FEF79CFF00BF0837BD4680BD80A3FF1F7CA3FF1F10A3FF1F10A7FF1F04A7FF1F70A4FF1F28
:403EC00090B58FB00AAF78603B4B00221A603B4B1B68002B08D03A4B1A68384B1B68B2FBF3F3384A136007E0354B1B68364AA2FB0323DB08334A1360324B1B68334A1360FA
:403F0000334B00221A60334B00221A600023FB8110E0FB89DB00304A1344BB60BB6800229A80BB680022DA80BB6800221A60FB890133FB81294B1B88FA899A42E9D3284BDD
:403F40001B68002B04D17B6847F247321A802FE0244B1A68244B1B689A4204D27B6847F248321A8024E0214B1B78062B04D97B6847F246321A801BE01C4B1B78184A1268AB
:403F80001B490968174800687C6808940B24079400240694002405940024049403900291019200930023134A13491448FEF74CFC1437BD4690BD00BFFCA6FF1F587E000033
:403FC000347E000004A7FF1FCDCCCCCC10A7FF1F40A4FF1F58A4FF1FDCB1FF1F6C7E00005C7E0000647E0000307E0000547E0000607E000045420000BC7D000070A4FF1F83
:4040000080B487B000AF78600B467B807B68022283F82A207B88012B07D17B685A6A4F4B1B681A447B689A6112E07B681B6A002B07D17B685A6A494B1B681A447B689A6118
:4040400006E07B681A6A454B1B681A447B689A617B689B69424A1288B3FBF2F102FB01F29B1A7B827B8ADB003E4A1344FB60FB681B68002B0CD17B6800221A617B680022D7
:404080005A61FB687A681A60FB6801229A8056E07B689A69314B1B68D21A7B68DA61FB681B687B6142E07B699A692C4B1B68D21A7B69DA617B68DA697B69DB699A4213D9DB
:4040C0007B691B69002B03D07B691B697B612DE07B6800221A617B687A695A617B697A681A6100237B6121E07B695B69002B0CD17B6800225A617B687A691A617B697A6850
:404100005A61FB687A681A600EE07B695B69BB607B68BA685A617B687A691A61BB687A681A617B697A685A6100237B617B69002BB9D1FB689B8801339AB2FB689A80FB68D4
:40414000DA88FB689B889A4203D2FB689A88FB68DA8000BF1C37BD4680BC704740A4FF1F6C7E0000DCB1FF1F80B483B000AF0023FB800AE0FB88DB00094A13443B603B68E1
:404180000022DA80FB880133FB80064B1B88FA889A42EFD300BF0C37BD4680BC704700BFDCB1FF1F6C7E000080B487B000AF78607B689B69214A1288B3FBF2F102FB01F292
:4041C0009B1AFB82FB8ADB001D4A13443B613B691A687B689A420CD17B681B69FB603B69FA681A60FB68002B12D0FB6800225A610EE07B685B69FB607B681B69BB60FB684A
:40420000BA681A61BB68002B02D0BB68FA685A617B68012283F82A207B6800221A617B6800225A613B699B88013B9AB23B699A8000BF1C37BD4680BC704700BF6C7E0000B8
:40424000DCB1FF1F80B58CB000AF786007F10E0307F1080200210020FEF7CEFC07F10E031846FCF7B3FEFCF7B5FA7862324B1B680133314A1360304B1B68304A1288B3FB27
:40428000F2F102FB01F29B1A7B847B8CDB002C4A1344FB61FB691B68BB62002387F82F3031E0BB6A002B2BD0BB6A1B697B61BB6A9A69214B1B689A421ED1B86AFFF774FF19
:4042C000BB6A1B8D022B04D10121B86AFFF798FE03E0BB6A032283F82A20BB6A9B683B613B69002B05D0BB6ADA683B691146B86A98477B69BB6206E0012387F82F3002E097
:40430000012387F82F3097F82F30002BC9D0FCF761FA02467B6AD31ABB6107F10E031846FCF78EFE074B1A68BB699A428ED2054ABB6913608AE700BF40A4FF1F6C7E000029
:40434000DCB1FF1F58A4FF1F80B400AF00BFBD4680BC704780B582B000AF786001F066FD01F006FD01F010FD01F06CFD01F00EFC01F016FD01F0B6FC01F04CFD01F0F8FC91
:4043800000BF0837BD4680BD80B582B000AF01F07FFC0346FB71FB79184600F0E1F800BF0837BD4680BD00BF80B500AF01F032FD00BF80BD80B500AF00F086F900BF80BDA1
:4043C00080B582B000AF0346FB71FB79184601F06FFC00F00BF800BF0837BD4680BD00BF80B500AF01F0C4FC00BF80BD80B500AF01F0B2FC00BF80BD80B58CB00AAFBB1DC2
:40440000002215491548FDF71FFDFB88002B01D000231DE0BB1D089303230793002306930023059300230493802303930C2302930B4B01930423009300230A4A0A490B48CE
:40444000FEF702FAFB88002B01D0002300E0012318460837BD4680BD787E0000809EFF1FC09BFF1FB5440000887E0000C09DFF1F80B584B002AFBB1D0093002300220021B8
:404480000348FDF727FD00BF0837BD4680BD00BF809EFF1F80B582B000AFBB1D1A4600210348FDF7EFFD00BF0837BD4680BD00BF809EFF1F80B582B000AF786000F03CF87B
:4044C00000BF0837BD4680BD80B584B000AF7860124B00221A70124B00221A70114B00221A60114B00221A70104B00221A70104B00221A600F4B00221A60FFF77DFF0346CD
:40450000FB73FB7B002B01D1002303E07868FFF721FF012318461037BD4680BDA89EFF1FBCA0FF1FC0A0FF1FBDA0FF1FC4A2FF1F68B8FF1F64B8FF1F80B582B000AFFFF7B6
:4045400097FF00F08FF978607B68002BF7D0034A7B68136000F0D6F9F1E700BFC0A0FF1F80B582B000AF0346FB71524B1B680133504A1360504B1B780A2B00F2908001A2D5
:4045800052F823F0B1450000C3450000D9450000EF45000005460000134600004D4600005B46000063460000854600008D460000FB79752B77D1404B01221A7000F096F91C
:4045C00071E0FB79432B03D13B4B02221A706DE0394B00221A7069E0FB79502B03D1364B03221A7062E0344B00221A705EE0FB79722B03D1304B04221A7057E02E4B00223A
:404600001A7053E0FB792D4A13602B4B05221A704CE0FB791B021A46284B1B681343274A1360264B1B68002B04D0244B1B68B3F5007F03D9204B00221A7037E01F4B1B68E8
:404640001F4A13601C4B06221A702FE0FB791D4A1360194B07221A7028E0174B08221A7024E0FB79184600F025F9144B1B68013B124A1360114B1B68002B16D10E4B09226D
:404680001A7012E00C4B0A221A700FE0FB792F2B01D100F009F9084B00221A7006E0064B00221A7002E000BF00E000BF00BF0837BD4680BD68B8FF1FA89EFF1FAC9EFF1F86
:4046C000B49EFF1FB09EFF1F80B582B000AF5D4B1B78002B03D15C4B1B68002B04D05B4B1B680133594A1360564B1B780A2B00F29A8001A252F823F0254700005347000077
:40470000614700006F4700007D47000093470000AB470000C1470000CF4700000548000013480000484B1B68002B0CD07520FFF747FE474B01221A70424B01221A70454BCF
:4047400000221A6079E0424B00221A70FFF748FE73E04320FFF734FE3A4B02221A706CE05020FFF72DFE374B03221A7065E07220FFF726FE334B04221A705EE0324B1B6853
:40478000FB71FB791846FFF71BFE2E4B05221A7053E02D4B1B681B0AFB71FB791846FFF70FFE284B06221A7047E02B4B1B68FB71FB791846FFF704FE224B07221A703CE037
:4047C0000020FFF7FDFD1F4B08221A7035E0214B1B68224AD35CFB71FB791846FFF7F0FD1C4B1B6801331B4A13601A4B1A68164B1B689A4220D3134B09221A70124B0022A9
:404800001A6019E00020FFF7DBFD0E4B0A221A7013E02F20FFF7D4FD0A4B00221A70104B00221A7009E0074B00221A70084B00221A70FFF7D5FD00E000BF00BF0837BD46A9
:4048400080BD00BFBCA0FF1FC0A0FF1F64B8FF1FBDA0FF1FC8A2FF1FB09EFF1FC4A0FF1FC4A2FF1F80B582B000AF0B4B1B78012B01D100230CE0084B01221A70074B1A68B5
:404880004FF400730649074800F07CF878607B6818460837BD4680BDC4A2FF1FB49EFF1FC4A0FF1FB89EFF1F80B500AFFFF7F2FD00BF80BD80B483B000AF0346FB71094BDA
:4048C0001B68B3F5007F07D2064B1B685A1C05490A600549FA79CA5400BF0C37BD4680BC704700BFB8A0FF1FB89EFF1F80B400AF034B00221A6000BFBD4680BC704700BF72
:40490000B8A0FF1F80B500AF044B1B78002B03D1FFF7DAFEFFF76AFD00BF80BDBDA0FF1F80B400AF0E4B00221A600E4B00221A600D4B00221A600D4B00221A600C4B00226C
:404940001A600C4B00221A600B4B00221A600B4B0B4A1A6001231846BD4680BC704700BF6CB8FF1F70B8FF1F80B8FF1F84B8FF1F7CB8FF1F78B8FF1F74B8FF1FCCA2FF1FCE
:404980007856341280B588B000AFF860B9607A603B607B68012B01D8002362E0FB68BB61BB687B61BB6901331B789BB21B029AB2BB691B789BB213447B82BB690233BB61A8
:4049C0002A4B1B680133294A1360294B1B680133274A13607B8A013B072B3BD801A252F823F000BF054A0000154A0000354A0000554A0000554A0000554A0000254A0000D8
:404A0000454A00003B687A687969B86900F068F8F86125E03B687A687969B86900F042F9F8611DE03B687A687969B86900F09AF9F86115E03B687A687969B86900F01EFABF
:404A4000F8610DE03B687A687969B86900F07EFAF86105E0F921786900F018F8F86100BFFB6918462037BD4680BD00BF6CB8FF1F70B8FF1F80B483B000AF0023FB71FB79F6
:404A800018460C37BD4680BC704700BF80B584B000AF78600B46FB70104B1B6801330F4A13603B1D4FF40041184600F033FBFA783B1D1146184600F01BFBFFF7DBFF034620
:404AC0001A463B1D1146184600F012FB0423FB60FB6818461037BD4680BD00BF7CB8FF1F80B588B000AFF860B9607A603B607B68042B07D0BB68FE211846FFF7C7FFF861D1
:404B0000FB69C7E007F10C03184600F0C3FA03467B837B8B40F20222934207DCB3F5007F11DCA3F20113012B05D80CE0A3F58053013B012B07D9BB68FC211846FFF7A6FF5F
:404B4000F861FB69A6E000BF07F1080348F20101184600F0DFFA07F108030121184600F0C7FAFFF787FF03461A4607F108031146184600F0BDFA7B8B40F2012293425CD0B9
:404B800040F20122934207DC40F20112934210D0B3F5817F1DD076E041F20102934228D041F20202934262D040F20222934250D069E007F108034FF40071184600F0AAFA85
:404BC00007F108030021184600F0A4FA0423FB615CE007F108034FF40071184600F09AFA07F108030021184600F094FA0423FB614CE007F108030121184600F08BFA07F1AE
:404C000008030221184600F085FA07F108030721184600F07FFA0823FB6107F108030321184600F077FA07F108030821184600F071FAFB690433FB6128E0184B184A1A60F7
:404C4000BB68042215491846FBF778FE0423FB611CE0FFF70FFF03467B61BB6807F1140104221846FBF76AFE0423FB610EE0DC233B61BB6807F1100104221846FBF75EFE07
:404C80000423FB6102E00023FB6100BFFB690433FB61FB6918462037BD4680BDCCA2FF1F7856341280B588B000AFF860B9607A603B607B68082B07D0BB68FE211846FFF7DC
:404CC000E5FEF861FB6945E007F10C03184600F0E1F90346BB6107F10C03184600F0F2F97861BB691A1D3B689A4207D9BB68FD211846FFF7CBFEF861FB692BE0174B1B687D
:404D00000133164A1360164B1A68BB691344144A136007F1080348F20201184600F0FAF907F108030121184600F0E2F9FFF7A2FE03461A4607F108031146184600F0D8F9B6
:404D4000BB687969BA691846FBF7F8FDBB690433FB61FB6918462037BD4680BD80B8FF1F84B8FF1F90B58DB000AFF860B9607A603B607B68062B06D8FE21B868FFF786FE44
:404D800038623B6A71E0BB68FB6104233B62BB6807221A70BB68013380221A70BB68023301221A70BB68DC1CFFF764FE03462370BB680433BB600723FB6200237B62002354
:404DC000BB6241E0FB681B78BB61FB6804331B781B02FA680332127813447B617B691B02FA680232127813447B617B691B02FA680132127813447B61FB680533FB60FB6AC3
:404E00000533FB623A6ABB6913443B623A6A3B689A4208D9FB69BB60FD21B868FFF736FE38623B6A21E07B6A01337B62BA6ABB691344BB627B69BA691946B868FBF77EFD51
:404E4000BA68BB691344BB60FA6A7B689A42B9D9084B1A687B6A1344064A1360064B1A68BB6A1344044A13603B6A18463437BD4690BD00BF80B8FF1F84B8FF1F80B588B047
:404E800000AFF860B9607A603B600023FB617B68072B07D8BB68FE211846FFF7F7FDB861BB694BE007F10C03184600F0F3F803467B6107F10C03184600F004F938617B69C4
:404EC00003F108027B689A4207D0BB68FE211846FFF7DCFDB861BB6930E000F0E9FBF8613B69F9687A691846FBF728FDF86900F0E3FB144B1B680133124A1360124B1A68E5
:404F00007B691344104A136007F1080348F20301184600F0FFF807F108030121184600F0E7F8FFF7A7FD03461A4607F108031146184600F0DDF80423BB61BB6918462037B5
:404F4000BD4680BD78B8FF1F74B8FF1F80B58CB000AFF860B9607A603B6000233B627B68062B07D8BB68FE211846FFF78FFDF861FB6977E00723FB620023BB6200237B62A3
:404F800046E0FB681B78BB61FB6804331B781B02FA680332127813447B617B691B02FA680232127813447B617B691B02FA680132127813447B61FB680533FB60FA6ABB69F6
:404FC0001A447B689A4207D9BB68FE211846FFF75DFDF861FB6945E0BB6A0133BB627A6ABB6913447B6200F063FB38627B69BA69F9681846FBF7A2FC386A00F05DFBFA68A6
:40500000BB691344FB60BA69FB6A13440533FB62FA6A7B689A42B4D9144B1A68BB6A1344124A1360124B1A687B6A1344104A136007F1080348F20801184600F06BF807F173
:4050400008030121184600F053F8FFF713FD03461A4607F108031146184600F049F80423FB61FB6918463037BD4680BD78B8FF1F74B8FF1F80B483B000AF78607B681B68FA
:40508000591C7A6811601B7818460C37BD4680BC704700BF80B584B000AF78607868FFF7E9FF0346FB817868FFF7E4FF0346BB81BB891B029AB2FB8913439BB21846103715
:4050C000BD4680BD80B584B000AF78607868FFF7E1FF0346FB607868FFF7DCFF0346BB60BB681A04FB68134318461037BD4680BD80B483B000AF78600B46FB707B681B6822
:40510000591C7A681160FA781A7000BF0C37BD4680BC704780B582B000AF78600B467B807B88DBB219467868FFF7E2FF7B881B0A9BB2DBB219467868FFF7DAFF00BF0837C5
:40514000BD4680BD80B582B000AF786039603A680021786802F0B3FC00BF0837BD4680BD80B584B000AFF860B9607A607A68B968F86802F099FC00BF1037BD4680BD00BF94
:4051800080B483B000AF0346FB71FEE780B487B000AF7860396000233B6100237B6127E07B699B007A6813441B68BB60BB68FB73BB6823F0FF03BB6014E03B695B003A6820
:4051C00013441B781A46BB68134419463B695B003A6813445B780B703B6901333B61FB7B013BFB73FB7B002BE7D17B6901337B617B69242BD4D900BF1C37BD4680BC70477D
:4052000080B582B000AF334B25221A80324B1C221A70324B4FF443721A80314B1C221A70304B02221A704FF0402308221A702E4B03221A702D4B2E4A1278D2B21A702D4BBA
:4052400014221A802C4B41F251221A800023FB7019237B6013E0FB785B00DAB2274B1B78DBB203F00103DBB21343DBB203F00303FB70782001F0A8FA7B68013B7B607B6850
:40528000002B02D0FB78032BE5D17B68002B02D10320FFF775FF1A4B4FF480721A80184B07221A70174B00221A70174B48221A70134B00221A70154B02221A70144A144BA9
:4052C0001B78DBB243F00303DBB2137000BF0837BD4680BD804000408240004084400040864000400043004000420040A14600400801004922420040204200402542004090
:4053000004400040064000400840004001400040A243004080B582B000AF1F4B1B78FB711E4B1B78BB711E4B1B787B711D4AFB7903F00703DBB213701B4AFB791B09DBB234
:405340001370164ABB7943F00303DBB21370144A7B7943F00303DBB21370144B44221A70134B40221A70134B40221A70124B40221A70124B20221A700A2000F0F3FB084A83
:405380007B791370054ABB7913700D4B44221A7000BF0837BD4680BDCF010049F8460040F94600406E5800406F5800404D5100400159004003590040205B0040235B00403A
:4053C0007658004080B582B000AF72B6494B61221A70FFF715FF474B01221A70464A464B1B78DBB243F00403DBB213700023FB7113E0FA7913465B0013445B003F4A1344B1
:405400003B603B681A683B689B889BB219461046FFF798FEFB790133FB71FB79052BE8D937494FF09040FFF7B1FE04213548FFF789FE042234493548FFF792FE344A344BE9
:405440001B78DBB243F00203DBB21370314A314B1B78DBB243F00203DBB213702E4A2E4B1B78DBB243F04003DBB213702B4A2B4B1B78DBB243F01003DBB2137008222849D2
:405480002848FFF76DFE0A2227492848FFF768FE082227492748FFF763FE082226492748FFF75EFE082226492648FFF759FE0A2225492648FFF754FE0A2225492548FFF758
:4054C0004FFE0A2224492548FFF74AFE244A244B1B78DBB243F00803DBB21370FFF71AFF0E220D491F48FFF73BFE00BF0837BD4680BD00BF00480040E8460040947E0000A0
:405500009400004800760040E8080048087600400350014013500140A0430040C24300409808004802510040A0080048F0510040AC08004812510040B40800482251004001
:40554000BC08004832510040C408004840510040D008004850510040DC0800486051004022430040B043004080B500AF02F070FA03461B680C2B00D1FEE7FEE780B586B038
:4055800000AF224B7B61224B3B61204B7B6135E03B691B68FB603B695B68BB603B699B683B6000237B600CE0FB681A68BB681A60BB680433BB60FB680433FB607B68043358
:4055C0007B607A683B689A42EED13B69DB683B6000237B6008E0BB6800221A60BB680433BB607B6804337B607A683B689A42F2D13B6910333B617B69013B7B617B69002B6D
:40560000C6D102F02BFAFAF779FDFEE701000000E87E000080B582B000AF194B194A1A60194A194B1B6843F40073136000237B600FE07B68032B04D8144A7B6852F8233093
:4056400000E0134B13497A6841F822307B6801337B607B682F2BECD90F4B1B78DAB20F4B1A700F4B0B4A1A60FFF7ACFE00F052F80C4B00221A6000BF0837BD4680BD00BFDF
:405680000CED00E00004FA0514ED00E000000000695500000080FF1FBC760040C480FF1F08ED00E0C080FF1F72B6704762B67047EFF3108072B6704780F31088704730BF1A
:4056C000704720BF7047B0FA80F0704790FAA0F0B0FA80F0704790FAA0F0704780B483B000AF0346FB71044AFB79137000BF0C37BD4680BC704700BF7465004080B400AF0D
:40570000034B1B78DBB21846BD4680BC704700BF7465004080B483B000AF134B7F221A70124B80221A707F23FB710CE0FB79DB0003F1804303F5F043FA79013AD2B21A70C0
:40574000FB79013BFB71FB79002BEFD1FB79DB0003F1804303F5F04300221A7000BF0C37BD4680BC704700BFCD80FF1FCC80FF1F80B485B000AF03460A46FB711346BB71A3
:405780000123FB60FB79172B2FD8BB79002B0ED0FB791A01184B1344FA791101164A0A441278D2B242F02002D2B21A700DE0FB791A01114B1344FA7911010F4A0A4412789F
:4057C000D2B222F02002D2B21A70FB791A010A4B1344FA791101084A0A441278D2B242F00102D2B21A700023FB60FB6818461437BD4680BC704700BF1070004080B485B0CA
:4058000000AF0346FB710123FB60FB79172B1DD8FB791A01104B1344FA7911010E4A0A441279D2B242F00402D2B21A71FB791A01094B1344FA791101074A0A441278D2B2AC
:4058400042F00102D2B21A700023FB60FB6818461437BD4680BC70471070004080B485B000AF03460A46FB711346BB710123FB60FB79172B1BD8FB791A01104B13441B7807
:40588000DBB223F00E03FB72FB791A010B4B1344BA795200D2B252B202F00E0251B297F90B200A4352B2D2B21A700023FB60FB6818461437BD4680BC704700BF1070004063
:4058C00080B485B000AF0346FB710B46BB8013467B800123FB60BB8841F6FF72934202D14FF40053BB807B8841F6FF72934202D14FF400537B80FB79172B17D8FB79DB0040
:4059000003F1804303F5EC430433BB60BB68BA881A80FB79DB0003F1804303F5EC430633BB60BB687A881A800023FB60FB6818461437BD4680BC704780B485B000AF034617
:405940000A46FB711346BB710123FB60FB79172B07D8FB791A01064B1344BA795A720023FB60FB6818461437BD4680BC704700BF1070004090B484B000AF04460846114687
:405980001A462346FB710346BB710B467B7113463B710123FB60FB79172B34D8FB79DB0003F1804303F5EC43BA7902F07F02D1B27A79D201D2B20A43D2B21A70FB79DB0070
:4059C00003F1804303F5EC433A7E1201D1B23A7902F00F02D2B20A43D2B25A70FB79DB0003F1804303F5EC433A7F02F00F02D2B29A70FB79DB0003F1804303F5EC430022E0
:405A0000DA700023FB60FB6818461037BD4690BC704700BF80B582B000AFFF23FB7100F0DBFE0346BB71104B1B78182B12D90F4B1B78FB710C4B1B78013BDAB20A4B1A70E9
:405A4000FB79DB0003F1804303F5F0431B78DAB2064B1A70BB79184600F0C2FEFB7918460837BD4680BD00BFCC80FF1FCD80FF1F90B484B000AF0446084611461A462346F5
:405A8000FB710346BB800B46BB711346FB700123FB6097F90730002B23DBBB8823F47F6323F00F039BB2002B1BD1FB79DB0003F1804303F5F043BB60BB68BA881A80FB79C2
:405AC000DB0003F1804303F5F043BA799A70FB79DB0003F1804303F5F043FA78DA700023FB60FB6818461037BD4690BC704700BF80B485B000AF0346FB710B46BB801346C2
:405B00007B800123FB6097F90730002B17DBFB79DB0003F1804303F5F0430433BB60BB68BA881A80FB79DB0003F1804303F5F0430633BB60BB687A881A800023FB60FB6860
:405B400018461437BD4680BC704700BF80B483B000AF0346FB7101BE00BF0C37BD4680BC704700BF80B582B000AF0346FB80FB88054A127802FB03F3184600F025FE00BF2D
:405B80000837BD4680BD00BFDC80FF1F80B500AF064B1B78002B04D100F00AF8034B01221A7000F025F800BF80BD00BFD0A2FF1F80B400AF094B72221A70094B20221A70AB
:405BC000084B06221A70084B47221A70074B03221A7000BFBD4680BC704700BF876500408A65004027650040376500408064004080B582B000AF00F0EFFD0346FB71114ABC
:405C0000104B1B78DBB243F02003DBB213700E4A0D4B1B78DBB243F01003DBB213700B4A0A4B1B78DBB243F01003DBB2137000F015F9FB79184600F0D3FD00BF0837BD46AC
:405C400080BD00BF976500409A6500409064004080B483B000AF044B1B78FB71FB7918460C37BD4680BC70474965004080B483B000AF064B1B78DBB203F07F03FB71FB7940
:405C800018460C37BD4680BC704700BF6A65004098B500AFFFF7EAFF03461B021CB2FFF7D7FF03461BB223431BB29BB2184698BD80B483B000AF0346FB7100BF074B1B78EC
:405CC000DBB203F00403002BF8D1054AFB79137000BF0C37BD4680BC704700BF606400404064004080B500AF00F042F8044800F00FF8072000F01EF800F02EF800BF80BDB4
:405D0000055D000080B500AFFEF754FB00BF80BD80B485B000AF7860054B1B68FB60FB6844337A681A6000BF1437BD4680BC704708ED00E080B483B000AF0346FB71054A9A
:405D4000FB795B01DBB2137000BF0C37BD4680BC704700BF01E400E080B400AF034B02221A6000BFBD4680BC704700BF00E100E080B400AF034B02221A6000BFBD4680BCF6
:405D8000704700BF80E100E080B400AF034B02221A6000BFBD4680BC704700BF80E200E080B500AF00F042F8044800F00FF8072000F01EF800F02EF800BF80BDC15D0000F9
:405DC00080B500AFFEF7E0FA00BF80BD80B485B000AF7860054B1B68FB60FB6840337A681A6000BF1437BD4680BC704708ED00E080B483B000AF0346FB71054AFB795B01E5
:405E0000DBB2137000BF0C37BD4680BC704700BF00E400E080B400AF034B01221A6000BFBD4680BC704700BF00E100E080B400AF034B01221A6000BFBD4680BC704700BF92
:405E400080E100E080B400AF034B01221A6000BFBD4680BC704700BF80E200E080B400AF094A094B1B78DBB243F00203DBB21370064A064B1B78DBB243F00203DBB2137062
:405E800000BFBD4680BC7047A2430040B243004080B400AF044B1B78DBB203F00103DBB21846BD4680BC70473151004080B485B000AF0346FB710A4B1B78DBB223F001038E
:405EC000FB730749FB7903F00103DAB2FB7B1343DBB20B7000BF1437BD4680BC704700BF0051004080B485B000AF0346FB710B4B1B78DBB223F00203FB730849FB795B00E0
:405F0000DBB203F00203DAB2FB7B1343DBB20B7000BF1437BD4680BC704700BF0051004080B485B000AF0346FB710B4B1B78DBB223F00403FB730849FB799B00DBB203F081
:405F40000403DAB2FB7B1343DBB20B7000BF1437BD4680BC704700BF0051004080B485B000AF0346FB710B4B1B78DBB223F00803FB730849FB79DB00DBB203F00803DAB2E4
:405F8000FB7B1343DBB20B7000BF1437BD4680BC704700BF0051004080B400AF054B1B78DBB203F002035B08DBB21846BD4680BC704700BF3151004080B400AF054B1B78E7
:405FC000DBB203F004039B08DBB21846BD4680BC704700BF3151004080B400AF054B1B78DBB203F00803DB08DBB21846BD4680BC704700BF3151004080B485B000AF03461E
:40600000FB710B4B1B78DBB223F01003FB730849FB791B01DBB203F01003DAB2FB7B1343DBB20B7000BF1437BD4680BC704700BF0051004080B582B000AF786000F03CF8B4
:40604000786800F009F8072000F018F800F028F800BF0837BD4680BD80B485B000AF7860054B1B68FB60FB685C337A681A6000BF1437BD4680BC704708ED00E080B483B032
:4060800000AF0346FB71054AFB795B01DBB2137000BF0C37BD4680BC704700BF07E400E080B400AF034B80221A6000BFBD4680BC704700BF00E100E080B400AF034B802276
:4060C0001A6000BFBD4680BC704700BF80E100E080B582B000AF786000F03CF8786800F009F8072000F018F800F028F800BF0837BD4680BD80B485B000AF7860054B1B6856
:40610000FB60FB6858337A681A6000BF1437BD4680BC704708ED00E080B483B000AF0346FB71054AFB795B01DBB2137000BF0C37BD4680BC704700BF06E400E080B400AF87
:40614000034B40221A6000BFBD4680BC704700BF00E100E080B400AF034B40221A6000BFBD4680BC704700BF80E100E080B582B000AF786000F03CF8786800F009F80720F4
:4061800000F018F800F028F800BF0837BD4680BD80B485B000AF7860054B1B68FB60FB6854337A681A6000BF1437BD4680BC704708ED00E080B483B000AF0346FB71054A3E
:4061C000FB795B01DBB2137000BF0C37BD4680BC704700BF05E400E080B400AF034B20221A6000BFBD4680BC704700BF00E100E080B400AF034B20221A6000BFBD4680BC32
:40620000704700BF80E100E080B485B000AF0346FB710B4B1B78DBB223F00203FB730849FB795B00DBB203F00203DAB2FB7B1343DBB20B7000BF1437BD4680BC704700BF1A
:406240005051004080B485B000AF0346FB710B4B1B78DBB223F02003FB730849FB795B01DBB203F02003DAB2FB7B1343DBB20B7000BF1437BD4680BC704700BF00510040E2
:4062800080B500AF41F6FF734FF480420121022000F010FA03461A460A4B1A7041F6FF7341F6FF720121042000F036FA03461A46054B1A70054800F061FA022000F070FA38
:4062C00000BF80BDD8A2FF1FD9A2FF1FA164000080B582B000AF414B1B781846FFF78EFA3F4B1B781846FFF789FA3E4B1B78FF2B05D1FFF78FFB03461A463A4B1A70394B8F
:406300001878384B1A7806230421FFF7B1FB354B1B78354A92B245F6A0311846FFF7E8FB2E4B1A782F4B1B7819461046FFF704FB2E4B1B78FF2B05D1FFF76CFB03461A46DB
:406340002A4B1A70294B1878284B1A7807230421FFF78EFB254B1B78234A91B2244A92B21846FFF7C5FB1E4B1A78204B1B7819461046FFF7E1FA194B1B7801211846FFF7E2
:40638000F7F9174B1B7801211846FFF7F1F900F023FA0346FB71174A164B1B78DBB243F02003DBB21370FB79184600F019FA124A114B1B78DBB243F00103DBB213700E4A42
:4063C0000D4B1B78DBB243F00203DBB213700B4B04221A6000BF0837BD4680BDD8A2FF1FD9A2FF1FE480FF1FDCA2FF1FE580FF1F88B8FF1F946400407364004080E200E0E8
:4064000080B500AF084B1B68002B04D1FFF738FF054B01221A6000F049F8FFF759FF034B1B7800BF80BD00BFD4A2FF1F6965004080B500AF00F0EEF800BF80BD80B485B0AC
:4064400000AF0346FB71074B1B78FB73FB7B002B02D1FB79002BF6D0FB7B18461437BD4680BC70476965004080B483B000AF0346FB80FB88C3F10103074A32F913309AB249
:40648000064B1B881BB29BB2D31A9BB21BB218460C37BD4680BC704788B8FF1F94B8FF1F80B400AF00BFBD4680BC704780B500AF064B1B78002B04D100F00AF8034B0122A5
:4064C0001A7000F01BF800BF80BD00BFE0A2FF1F80B500AF074A074B1B78DBB243F00603DBB213700C2000F06BF8034B00221A8000BF80BD015900408CB8FF1F80B582B0D9
:4065000000AF00F069F90346FB71254A244B1B78DBB243F00103DBB21370224A214B1B78DBB243F00103DBB213701F4B1B78BB71BB7943F00203BB71BB7943F00103BB71C9
:40654000194ABB791370194B18221A70184A184B1B78DBB243F04003DBB21370144A144B1B78DBB223F00303DBB21370114BC8221A70114B02221A70104A104B1B78DBB2B9
:4065800043F00803DBB213700A20FFF7EBFAFB79184600F025F900BF0837BD4680BD00BFAB430040BB4300400359004006590040055900400059004014460040275B004071
:4065C00080B584B000AF0346FB71FB790A2B07D00C2B02D0082B06D008E0C223FB730BE08223FB7308E04223FB7305E0C223FB730020FFF7ABFA00BF054AFB7B1370FB79DA
:40660000184600F017F800BF1037BD4680BD00BF0259004080B400AF054A054B1B78DBB243F00103DBB2137000BFBD4680BC70470059004080B584B000AF0346FB71FB79E5
:406640000A2B08D00C2B02D0082B08D00BE04FF48053FB600DE04FF48063FB6009E04FF48073FB6005E00023FB600020FFF76EFA00BF0C4B00221A80FB6842F2107202FBEC
:4066800003F303F6C413084A82FB0312D212DB17D31A064A1360064B00221A8000BF1037BD4680BD8EB8FF1FAD8BDB6890B8FF1F94B8FF1F90B585B002AF0446084611468E
:4066C0001A462346FB710346BB710B46BB8013467B80104B01221A700E4B1878BA79F97900230193002300930123FFF743F9094B1B787A88B9881846FFF7E2F8054B1B787C
:4067000002211846FFF7AAF8024B1B7818460C37BD4690BDE680FF1F90B585B002AF0446084611461A462346FB710346BB710B46BB8013467B80104B00221A700E4B187857
:40674000BA79F97900230193002300930023FFF711F9094B1B787A88B9881846FFF7B0F8054B1B7802211846FFF778F8024B1B7818460C37BD4690BDE780FF1F80B485B035
:4067800000AF7860054B1B68FB60FB6848337A681A6000BF1437BD4680BC704708ED00E080B483B000AF0346FB71054AFB795B01DBB2137000BF0C37BD4680BC704700BF64
:4067C00002E400E0000000000230800803D000BF01380046FCD17047EFF3108072B6704780F31088704700BF1B481C490170002080F309881A48016881F3088819481A49C2
:40680000016062B6FEE71748174901607047154815490160704772B6EFF3098028B1203880E8F00F11490968086000B5104880475DF804EB0F4810490A7802700B480F498B
:406840000A680260106890E8F00F203080F309884EF0040E62B6704722ED00E0FF00000098B8FF1F04ED00E00000001044A4FF1FB96A00007CA3FF1F70A3FF1F50A4FF1FFC
:4068800080B500AF044B1B68002B02D0024B1B689847BD4680BDC0460CA6FF1F80B483B000AF144B1B687B604FF000033B600BE07A684FF0000313607B6803F104037B6075
:4068C0003B6803F101033B600B4B1A683B689342EED3094B1B684FEA83031A46054B1B681344A3F10402054B1A6007F10C07BD4680BC7047007E0000047E000098B8FF1F5E
:4069000080B500AF044B1B68002B02D0024B1B689847BD4680BDC04628A6FF1F80B582B000AF7860054B1B68002B03D0034B1B687868984707F10807BD4680BD78A3FF1FF4
:4069400080B582B000AF7860054B1B68002B03D0034B1B687868984707F10807BD4680BD5CA4FF1F80B582B000AF7860054B1B68002B03D0034B1B687868984707F108070D
:40698000BD4680BD00A3FF1F80B487B000AFF860B9607A603B603B6A4FEA83031A467B6813447B617B69A3F104037B617A694FF0807313607B69A3F104037B61FB681A46FB
:4069C0007B691A607B69A3F104037B61394B1A467B691A607B69A3F104037B617A694FF0123313607B69A3F104037B617A694FF0033313607B69A3F104037B617A694FF0C4
:406A0000023313607B69A3F104037B613B681A467B691A607B69A3F104037B61BB681A467B691A607B69A3F104037B617A694FF0113313607B69A3F104037B617A694FF005
:406A4000103313607B69A3F104037B617A694FF0093313607B69A3F104037B617A694FF0083313607B69A3F104037B617A694FF0073313607B69A3F104037B617A694FF062
:406A8000063313607B69A3F104037B617A694FF0053313607B69A3F104037B617A694FF0043313607B69184607F11C07BD4680BC7047C0461933000090B583B000AF1B4BA9
:406AC0001B68002B02D0194B1B689847F9F782FE03467B60164B1A68164B1B689A421CD0134B1968124B1B68D3F8AC207B68C2EB0303C1F8A8300E4B1C680D4B1B68D3E93C
:406B00002C010B4B1B68D3F8A8301A464FF00003121843EB0103C4E92C23064B1A687B68C2F8AC3007F10C07BD4690BD18A6FF1F44A4FF1F50A4FF1F80B500AF044B1B6861
:406B4000002B02D0024B1B689847BD4680BDC04660A4FF1F80B582B000AF4FF000037B60FEF7A6FD03467B60084B1B7803F10103DBB2064A13707868FEF79EFDFDF766F911
:406B8000FAF75EF907F10807BD4680BD6AA4FF1F80B485B000AF78600F4A7B6803F1FF3313600E4B1B68FB60FB6823F07F43FB600A4AFB6813600A4A094B1B6843F00503FB
:406BC0001360074A064B1B6843F00203136007F11407BD4680BC704714E000E020ED00E010E000E02DE9F0418AB004460D4600F07BF8374B064693F900800F46B8F1FF3F21
:406C00000DD022462B462046294600F0BBFE30B9002200232046294600F0AAFE20B1304639460AB0BDE8F0812A4B0890CDE90245CDE904450193B8F1000F19D1264F4FF0FC
:406C400060462046294600220023CDE9066700F067FE002834D002230093684600F038FAA8B1089BC3B9DDE906010AB0BDE8F0811A4F00262046294600220023CDE9066747
:406C800000F04EFE68B1022398450093E5D100F0DFFE22230360E4E700F0DAFE089B0360E1E70123B8F1020F00930BD100F0D0FE212303600A4800F00DFACDE90601D0E7EF
:406CC00001230093684600F003FA0028F2D1EDE7E880FF1FB87E0000FFFFEFC70000F0FFBC7E0000000000002DE9F04FB1F5801F85B006460F460B465ADA024621F0004458
:406D0000224300F0F7800029C0F279810022D64B00F09EFB0B460F46D44906468B426FF0350249DCC3F3130505F5152404F6647404F4801E8EF07F5181F440111B15A3F20D
:406D4000FF3341EA05079C1830460022C84B394604EB1E5400F0C8F9AB1CC3F31303022B82468B464FF000022FDC002300F0D8FD002800F0C880002C00F04A81204600F090
:406D800001FBA5A3D3E9002306460F4600F060FBA3A3D3E9002304460D463046394600F057FB02460B462046294600F09FF909E0AE4900228B42B5DD32463B463046394686
:406DC00000F094F905B0BDE8F08F4FF0804300F08DF902460B465046594600F063FC064620460F4600F0CEFA3246CDE900013B4630463946CDE9026700F02AFB02460B4677
:406E00008046894600F024FB87A3D3E9002306460F4600F01DFB86A3D3E9002300F066F932463B4600F014FB83A3D3E9002300F05DF932463B4600F00BFB81A3D3E9002370
:406E400000F054F942464B4600F002FB7EA3D3E90023804689463046394600F0F9FA7CA3D3E9002300F042F932463B4600F0F0FA79A3D3E9002300F039F932463B4600F060
:406E8000E7FA0B4602464946404600F02FF9A5F5C223C5F5D725A3F27A4351351D43002D8046894656DD0022724B5046594600F0CFFA52465B4600F0CBFA06460F46002C41
:406EC00068D132463B464046494600F00FF9DDE9022300F0BDFA02460B463046394600F003F902460B465046594600F0FDF805B0BDE8F08F0022002300205F4900F0D2FBF1
:406F000005B0BDE8F08F56A3D3E900235046594600F09EFA02460B460020564900F0E4F8524606460F465B465046594600F090FA02460B463046394600F08AFA06460F4693
:406F4000002C40F09B8002460B465046594600F0CBF837E7002C00F0A5802FA3D3E90023DDE9000100F074FA42464B4604460D465046594600F0B8F8DDE9022300F068FA1C
:406F800027A3D3E9002306460F46DDE9000100F05FFA21E020A3D3E90023DDE9000100F057FA32463B4604460D464046494600F09DF8DDE9022300F04BFA19A3D3E90023E1
:406FC00080468946DDE9000100F042FA02460B464046494600F08AF802460B463046394600F082F852465B4600F07EF802460B462046294600F078F805B0BDE8F08F024663
:407000000B4600F071F80022002300F04BFBD9E600200021D6E600BF0000E0FE422EE63F763C7935EF39EA3D44523EDF12F1C23FDE03CB966446C73F599322942449D23FC5
:40704000935555555555E53F9FC678D0099AC33FAF788E1DC571CC3F04FA97999999D93F555555555555D53F00005043FFFFEF7F0000F03F0000E03F000050C3204600F00B
:4070800081F90FA3D3E900238046894600F0E0F90DA3D3E9002304460D464046494600F0D7F999E702460B465046594600F01CF8DDE9022300F0CCF913E700BFAFF3008099
:4070C0000000E0FE422EE63F763C7935EF39EA3D0020704700200149704700BF0000F87F81F0004102E000BF83F0004330B54FEA41044FEA430594EA050F08BF90EA020F6F
:407100001FBF54EA000C55EA020C7FEA645C7FEA655C00F0E2804FEA5454D4EB5555B8BF6D420CDD2C4480EA020281EA030382EA000083EA010180EA020281EA0303362D70
:4071400088BF30BD11F0004F4FEA01314FF4801C4CEA113102D0404261EB410113F0004F4FEA03334CEA133302D0524263EB430394EA050F00F0A780A4F10104D5F1200E79
:407180000DDB02FA0EFC22FA05F2801841F1000103FA0EF2801843FA05F359410EE0A5F120050EF1200E012A03FA0EFC28BF4CF0020C43FA05F3C01851EBE37101F0004593
:4071C00007D54FF0000EDCF1000C7EEB00006EEB0101B1F5801F1BD3B1F5001F0CD349085FEA30004FEA3C0C04F101044FEA445212F5800F80F09A80BCF1004F08BF5FEAB2
:40720000500C50F1000041EB045141EA050130BD5FEA4C0C404141EB010111F4801FA4F10104E9D191F0000F04BF01460020B1FA81F308BF2033A3F10B03B3F120020CDA89
