:400000000080002011000000AD520000AD52000080B500AF024A034B1B68136005F050F9BC760040FA46004010B5054C237833B9044B13B10448AFF300800123237010BDCB
:400040003881FF1F000000000C600000084B10B51BB108490848AFF300800848036803B910BD074B002BFBD0BDE81040184700BF000000003C81FF1F0C600000C880FF1F4A
:400080000000000080B500AF04F028FB4FF4165004F0F8F804F066F800BF80BD80B500AF002247F27521642003F03CFC034B01221A7005F051FB00BF80BD00BF9691FF1FAA
:4000C00080B500AF002247F27521642003F02AFC024B01221A7000BF80BD00BF9691FF1F80B500AF002247F27521642003F01AFC064B1B78002B0CBF01230023DBB21A4624
:40010000024B1A7005F0ECFB00BF80BD9591FF1F80B58CB00AAF194805F040FC184805F08BFC184805F0ECFB00F03CF900F03EFABB1D184600F06CFCBB1D089303230793EA
:40014000002306930023059300230493802303930C2302930C4B01930223009300230B4A0B490C4802F04EFABB1D184600F08EFE002318460837BD4680BD00BF9D00000046
:40018000C1000000E10000001482FF1F99010000106000005481FF1F80B586B002AF786000F020F900F024F907F10E03184601F0B7FF00F017F800F0EFF8FFF763FF012085
:4001C00000F036F9012000F07BF907F10E03019300230093642300220021002003F014FCF0E700BF80B58CB00AAFBB1D089303230793002306930023059300230493402394
:40020000039306230293134B0193022300930023114A1249124802F0F5F9BB1D08930323079300230693002305930023049340230393062302930B4B0193022300930023CD
:40024000094A0A490A4802F0DDF900BF0837BD4680BD00BF9486FF1F7502000018600000D485FF1F5488FF1F41030000246000009487FF1F80B584B000AF786005F07CFACD
:400280000346002B1BD12B4B1B78002B17D12A4B1B78002B13D1294B1B78002B0FD107F10E031A460021642003F03CFB012005F011FC012005F06EFA002005F087FA05F035
:4002C000DFFA0346002B04D005F022FC0346002B08D1002005F0FEFB012005F077FA002005F058FA05F0DCFA0346002B0ED1114B1B78002B0AD1114B1B78002B06D10E4B24
:4003000000221A70002005F07FFA06E00A4B1B78002B02D0012005F077FA05F0D1FA0346002BABD1034B00221A70002005F08AFAA4E700BF9591FF1FCC80FF1F9691FF1FB1
:4003400080B582B000AF7860114B1B78002B0CD0012005F077FA012005F0EAFB002005F0B9FB0C4B01221A7005E0002005F06AFA002005F0DDFB05F0A3FA0346002BE3D145
:40038000034B00221A70002005F05CFADCE700BF9591FF1FCC80FF1F80B400AF00BFBD4680BC704780B483B000AF0B4B1B687B607B6823F000537B607B683B603B68383396
:4003C000064A1A603B683C33054A1A6000BF0C37BD4680BC704700BF08ED00E0BF5B0000FD5E000080B400AF00BFBD4680BC704780B582B000AF00F011F87860064B1B6804
:400400007A68B2FBF3F33B60386805F095FD00BF0837BD4680BD00BF5063000080B400AF024B1846BD4680BC704700BF0087930380B582B000AF0346FB71FB79042B37D8F8
:4004400001A252F823F000BF5D0400007904000079040000790400009504000004F0EEFF0346DAB2154B1A70144B1B7823F00303184604F0D3FF1CE004F0E0FF0346DAB2D9
:400480000E4B1A700D4B1B7823F00103184604F0C5FF0EE004F0D2FF0346DAB2074B1A70064B1B7823F00203184604F0B7FF00E000BF00BF0837BD4680BD00BFB298FF1FD5
:4004C00080B582B000AF0346FB71FB79042B3AD801A252F823F000BFED0400000B0500000B0500000B0500002905000004F0A6FF0346DAB2164B1A70154B1B7883F00303A9
:40050000DBB2184604F08AFF1EE004F097FF0346DAB20F4B1A700E4B1B7883F00103DBB2184604F07BFF0FE004F088FF0346DAB2074B1A70064B1B7883F00203DBB21846F4
:4005400004F06CFF00E000BF00BF0837BD4680BDB298FF1F80B582B000AFFFF75FFF7860094A094B1B6843F080731360074A074B1B6843F001031360786800F035F800BF46
:400580000837BD4680BD00BFFCED00E0001000E080B483B000AF044B1B687B607B6818460C37BD4680BC7047041000E080B500AF00F02EF800F026F800BF80BD80B582B0A8
:4005C00000AF00237B6004F013FF78601021054800F02AF8786804F00FFF00BF0837BD4680BD00BFB898FF1F80B483B000AF7860034A7B68136000BF0C37BD4680BC70470A
:40060000B498FF1F80B500AFFFF7D8FF00BF80BD80B500AF034B00221A60FFF79BFF00BF80BD00BFB498FF1F80B582B000AF786039603A680021786800F004F800BF08370C
:40064000BD4680BD80B48BB000AFF8600B467A60FB7200233B6200237B6109E03B6A1B023B62FB7A3A6A13433B627B6901337B617B69032BF2D97B687B62FB6803F003032C
:400680003B61FB68BB613B69002B13D03B697B610AE0BB695A1CBA61FA7A1A707B6A013B7B627B6901337B617B6A002B02D07B69032BEED9BB69FB6107E0FB691A1DFA6146
:4006C0003A6A1A607B6A043B7B627B6A032BF4D8FB69BB6107E0BB695A1CBA61FA7A1A707B6A013B7B627B6A002BF4D100BF2C37BD4680BC704700BF80B48FB000AFF860BE
:40070000B9607A607B687B63FB68BB62BB687B627A6ABB6AD31AFB61FB69032B4FD9BB6A03F00303BB617B6A03F003037B61BA697B699A4201D1012300E00023FB74FB7CC3
:40074000012B3CD1BB69002B16D0BB693B620DE0BB6A5A1CBA627A6A511C796212781A707B6B013B7B633B6A01333B627B6B002B02D03B6A032BEBD9BB6A3B637B6AFB6271
:400780000AE03B6B1A1D3A63FA6A111DF96212681A607B6B043B7B637B6B032BF1D83B6BBB62FB6A7B620AE0BB6A5A1CBA627A6A511C796212781A707B6B013B7B637B6B48
:4007C000002BF1D100BF3C37BD4680BC704700BF80B485B000AF484BFB60484BBB60484BFB60484BFB60484BBB60484BFB60484B7B60484BFB60484BFB60484BFB60484B2E
:40080000FB60484B7B60484B7B60484BFB60484B7B60484BFB60484B7B60484BFB60484B7B60484B7B60484B7B60484B7B60484BFB60484BFB60484BFB60484B7B60484B58
:40084000FB60484BFB60484B7B60484B7B60484B7B60484B7B60484B7B60484B7B60484B7B60484BFB60484BFB60484BFB60484BFB60484B7B60484B7B60484B7B60484B98
:40088000FB60484BFB60484BFB60484B7B60484B7B60484B7B60484BBB60484B7B60484BFB60484BFB60484BFB60484BFB60484BFB60484BFB60484BFB60484B7B60484B18
:4008C000FB60484BFB60484B7B60484B7B60484BFB60484BFB60484B7B60484BFB60484BFB60484B7B60484B7B60484B7B6000BF1437BD4680BC7047F86000006062000049
:40090000F9600000FA600000FC6000000061000004610000016100002C6100002D6100002E61000030610000326100003661000038610000586100005A6100005C61000051
:400940005E610000606100006261000064610000906100009161000092610000946100009661000097610000986100009A6100009C6100009E610000A0610000A2610000C1
:40098000A4610000D4610000D5610000D6610000D7610000D8610000DA610000DC61000004620000056200000662000007620000086200000A6200000C6200001062000053
:4009C00011620000126200001362000014620000156200001662000017620000186200001A6200001B6200001C6200001E6200002062000021620000246200005862000007
:400A0000596200005A6200005C6200005E62000080B584B000AF786005F014F9614B00221A70614B00221A70604B00221A70604B00221A605F4B00221A605F4B00221A70E5
:400A40005E4B00221A705E4B00221A705D4B00221A705D4B1B685D4AA2FB0323DB085C4A13605C4B1B68002B15D05B4B1B68FB60FB68002B0FD0574B1B68BB6008E0BB6871
:400A8000013BBB60FB6800221A60FB680433FB60BB68002BF3D1514B00221A60504B00221A60504B00221A604F4B00221A604F4B00221A604E4B00221A604E4B00221A605D
:400AC0004D4B00221A7000F0FDFF00F0FBFC786800F0FCFE7B681B88002B4AD1786800F00BFF7B681B88002B45D1786800F01AFF7B681B88002B40D1786800F0CDFF7B687E
:400B00001B88002B3BD1786801F066F87B681B88002B36D1786801F0EFF97B681B88002B31D1786802F05CF97B681B88002B2CD1786800F009FA7B681B88002B27D1786857
:400B400002F014FC7B681B88002B22D1786801F0EFFC7B681B88002B1DD1786803F08EF87B681B88002B18D1FFF732FE03F0CAFA14E000BF12E000BF10E000BF0EE000BFE4
:400B80000CE000BF0AE000BF08E000BF06E000BF04E000BF02E000BF00E000BF1037BD4680BD00BF3A9AFF1FDD98FF1FCC98FF1F149AFF1F209AFF1F4C99FF1F4099FF1FC7
:400BC0001C9AFF1FD89CFF1F50630000CDCCCCCCD89BFF1F206300001C6300004899FF1F2C9AFF1FD098FF1FDC9BFF1FF89BFF1FE89BFF1F309AFF1FDC98FF1F80B582B0E7
:400C000000AF00237B602C4B1B78012B50D104F0EFFB7860294B1B78002B03D1786804F0EBFB46E0254B1B78013BDAB2234B1A70224B1B78002B03D0786804F0DDFB38E08F
:400C40001F4B1B78002B03D0786804F0D5FB30E000F050FF03461A461A4B1A70194B1B781946194A0B465B000B449B0013441B68164A1360154B1A68154B1B689A4203D17D
:400C8000786804F0B9FB14E0104B1B68D3F890200132C3F890200F4B1B6801330D4A13600D4B4FF080521A60786804F0A5FB00E000BF0837BD4680BDDD98FF1F3A9AFF1FEC
:400CC000CC98FF1F4099FF1FE098FF1F209AFF1F149AFF1F349AFF1F04ED00E080B582B000AF00237B60204B1B78002B36D11F4B1B78002B34D104F07BFB786000F0FAFEE9
:400D000003461A461A4B1A70194B1B781946194A0B465B000B449B0013441B68164A1360154B1A68154B1B689A4203D1786804F063FB16E0104B1B68D3F890200132C3F83B
:400D400090200F4B1B6801330D4A13600D4B4FF080521A60786804F04FFB02E000BF00E000BF0837BD4680BD3A9AFF1FCC98FF1F4099FF1FE098FF1F209AFF1F149AFF1F83
:400D8000349AFF1F04ED00E080B584B000AF78600023FB60164B1B78002B04D07B6846F662521A8020E0134B1B78012B04D07B6845F689621A8017E00F4B1B78F92B04D92F
:400DC0007B6845F209221A800EE004F011FBF860094B1B780133DAB2074B1A70F86804F00BFB7B6800221A801037BD4680BD00BF3A9AFF1FDD98FF1FCC98FF1F80B584B09C
:400E000000AF78600023FB601D4B1B78002B04D07B6846F665521A802EE01A4B1B78012B04D07B6845F689621A8025E0164B1B78002B04D17B6846F664521A801CE004F042
:400E4000D7FAF860104B1B78013BDAB20E4B1A700D4B1B78002B07D0F86804F0CDFA7B6846F663521A8007E0F86804F0C5FAFFF735FF7B6800221A801037BD4680BD00BF31
:400E80003A9AFF1FDD98FF1FCC98FF1F80B582B000AF7860174B1B78002B23D100F02AFE03461A46144B1A70134B1A78134B1A70114B1B781946124A0B465B000B449B0067
:400EC00013441B680F4A13600E4B1B680E4A1360084B01221A7004F05BFE7B6843F699221A8003E07B6845F68A621A8000BF0837BD4680BDDD98FF1F4099FF1F4C99FF1F95
:400F0000E098FF1F209AFF1F149AFF1F80B584B000AF78600023FB6004F06AFAF860084B1B680133064A1360064B1B680133054A1360F86804F060FA04F076FEECE700BF1A
:400F4000F09BFF1FD898FF1F80B58CB00AAF7860104B00221A60104B1B68104A126810490968786808900B20079000200690002005900020049003910292019307230093F3
:400F80000023084A0849094801F03CFB00BF0837BD4680BDF09BFF1FF0620000F4620000F86200000D0F0000646200000C9BFF1F80B586B000AFF860B9603B601346FB7177
:400FC0001B4B1B68FA7983F83420194B1B68002283F83520164B1B683968184600F038FCBB68002B11D0BB6808337B61FB68BA68DA600F4B1B680122F968184600F01AF8FD
:40100000F968786900F0BEF807E0094B1B680022DA87074B1B6800221A63054B1B681946B86800F03BF800BF1837BD4680BD00BF149AFF1F80B487B000AFF860B9601346E1
:40104000FB80FB68FA88DA87FB68BA681A630023FB821AE0BB6800225A60BB6800221A60BB6800221A61BB6800225A61BB6800221A83BB680022DA61BB68FA689A60BB6891
:401080002033BB60FB8A0133FB82FA8AFB889A42E0D300BF1C37BD4680BC704780B487B000AF786039607B68002B12D07B685A683B68C3F8BC207B6808337B617B691B6833
:4010C0003B613B699B68FB60FB681A6A7B68DA6116E03B6893F83430022B02D0072B05D009E03B68094AC3F8BC2009E03B68084AC3F8BC2004E03B68064AC3F8BC2000BFA7
:4011000000BF1C37BD4680BC704700BF78620000806200008C62000080B487B000AF786039603B680D4AC3F8BC207B6808337B617B691B683B613B69002B07D03B699B68D8
:40114000FB60FB681A6A7B68DA6102E07B68034ADA6100BF1C37BD4680BC70478C62000080B483B000AF78607B6800221A607B6800225A607B6800221A8100BF0C37BD46FB
:4011800080BC704780B489B000AF786039603B689B68BB61BB6993F83730FB757B681B89002B0FD17B6801221A813B6800225A603B6800221A607B683A681A607B683A68F2
:4011C0005A604DE07B681B8901339AB27B681A817B681B68FB610BE0FB699B683B613B6993F83730FA7D9A4206D3FB695B68FB61FB69002BF0D100E000BFFB69002B0FD130
:401200003B6800225A607B685B68FB603B68FA681A60FB683A685A607B683A685A601FE0FB691B68002B0CD1FB693A681A603B6800221A603B68FA695A607B683A681A6045
:401240000EE0FB691B68FB603B68FA681A603B68FA695A60FB683A685A60FB693A681A6000BF2437BD4680BC704700BF80B586B000AF78607B681B6B3B617B68DB8FFB8230
:401280000FE03B69DB68FB60FB680833BB603969B86800F013F83B6920333B61FB8A013BFB82FB8A002BECD17B680022DA877B6800221A6300BF1837BD4680BD80B485B0AA
:4012C00000AF786039607B681B89012B06D17B6800221A607B6800225A6027E03B681B68002B09D13B685B68FB60FB6800221A607B68FA681A6019E03B685B68002B09D1F1
:401300003B681B68BB60BB6800225A607B68BA685A600BE03B681B68BB603B685B68FB60BB68FA685A60FB68BA681A607B681B89013B9AB27B681A813B6800225A603B68D4
:4013400000221A6000BF1437BD4680BC704700BF80B586B002AFF860B9607A607B80BB6893F83630072B79D801A252F823F000BF5D1400005D140000911300009113000030
:401380005D1400005D140000F7130000F7130000BB6893F83430032B09D17A88BB69009313467A68B968F86800F05EF809E0BB687A68DA65BB687A88A3F86020BB68BA69AF
:4013C0001A64FB68002B06D0B868FFF74FFFB968F868FFF7A1FEB86800F062FABB68002283F83620BB68002283F83520BB68002283F8342033E0BB6893F83430032B09D1B9
:401400007A88BB69009313467A68B968F86800F02BF809E0BB687A68DA65BB687A88A3F86020BB68BA691A64B86802F019F9FB68002B06D0B868FFF719FFB968F868FFF7C6
:401440006BFEBB68042283F83620BB68002283F83520BB68002283F8342000E000BF00BF1037BD4680BD00BF80B487B000AFF860B9607A607B80BB681B6B3B61BB68DB8FEA
:40148000FB8217E03B69DA68FB689A420CD13B69FA681A613B697A685A613B697A881A833B693A6ADA6108E03B6920333B61FB8A013BFB82FB8A002BE4D100BF1C37BD46FB
:4014C00080BC704780B483B000AF0023FB7113E0FA7913465B0013449B000B4A13443B603B6800221A813B6800221A603B6800225A60FB790133FB71FB79072BE8D900BFA9
:401500000C37BD4680BC7047E098FF1F80B582B000AF78607B6893F83730184600F00EFB7B6893F83720074B1B789A4203D1786800F04AF802E0786800F006F800BF0837A8
:40154000BD4680BD4C99FF1F80B485B000AF78607B6893F837301A4613465B0013449B00184A1344FB60FB681B89002B0FD1FB6801221A817B680022DA607B6800221A6157
:40158000FB687A681A60FB687A685A6015E0FB681B8901339AB2FB681A81FB681A687B68DA607B6800221A61FB681B68BB60BB687A681A61FB687A681A6000BF1437BD4624
:4015C00080BC7047E098FF1F80B485B000AF78607B6893F837301A4613465B0013449B00184A1344FB60FB681B89002B0FD1FB6801221A817B680022DA607B6800221A6191
:40160000FB687A681A60FB687A685A6014E0FB681B8901339AB2FB681A817B680022DA60FB685B68BB607B68BA681A61BB687A68DA60FB687A685A6000BF1437BD4680BCEC
:40164000704700BFE098FF1F80B487B000AF78607B681B89002B1CDB012B36DD022B18D17B681B687B617B685B683B617B693A691A617B690022DA603B6900221A613B69C3
:401680007A69DA607B683A691A607B687A695A601CE07B681B687B617B685B683B617B69DB68FB60FB6800221A617B690022DA607B693A691A613B697A69DA607B68FA6843
:4016C0001A607B687A695A6000E000BF00BF1C37BD4680BC704700BF80B586B000AF78607B6893F837301A4613465B0013449B00244A13447B617B681B693B617B68DB68F3
:40170000FB603B69002B1FD1FB68002B0FD17B6900221A817B6900221A607B6900225A607B6893F83730184600F02EFA1FE07B691B89013B9AB27B691A81FB6800221A6167
:401740007B69FA681A6012E07B691B89013B9AB27B691A813B69FA68DA60FB68002B03D17B693A695A6002E0FB683A691A617B6800221A617B680022DA6000BF1837BD4612
:4017800080BD00BFE098FF1F80B584B000AF78600023FB602A4B1B78012B4CD103F028FEF8607B681B68BB60BB68002B03D1F86803F022FE40E0BB68224A934203D1F86899
:4017C00003F01AFE38E0BB689B6D002B04D0BB689B6D5A1EBB689A65BB689B6D002B03D0F86803F009FE27E07B681B89012B03D8F86803F001FE1FE0134B1B78002B03D07F
:40180000F86803F0F9FD17E07868FFF71DFF7B681B68BB60BB685B6D002B04D10B4B1A68BB689A6503E0BB685A6DBB689A65F86803F0E2FD00E000BF1037BD4680BD00BF0A
:40184000D89CFF1F0C9BFF1FCC98FF1FD89BFF1F80B584B000AF786039603B68002B13D007F10E0302223968786801F001FEFB89002B04D17B68032283F8362008E07B68FE
:40188000022283F8362003E07B68022283F836207868FFF721FF00BF1037BD4680BD00BF80B582B000AF7860786801F0D9FE7B6893F8363003F00403002B02D17868FFF745
:4018C00025FE00BF0837BD4680BD00BF80B483B000AF7860064B00221A60064B00221A807B6800221A8000BF0C37BD4680BC7047009CFF1FFC9BFF1F80B483B000AF7860EC
:40190000064B00221A60064B00221A807B6800221A8000BF0C37BD4680BC7047D49BFF1F069CFF1F80B487B000AF78602D4B1B68002B04D17B6845F21E721A804EE02A4BF5
:401940001B88002B04D17B6845F21D721A8045E0244B1B687B61234B1B683B613B6910333B61214B1B88013BBB810023FB8114E07B693A691A607B6900225A607B6900229D
:401980001A817B690022DA607B6910337B613B6910333B61FB890133FB81FA89BB899A42E6D37B6900221A607B6900225A607B6900221A817B690022DA600A4B1B680B4AE8
:4019C0001360094B1A88094B9A80084B0022DA80064B00221A817B6800221A801C37BD4680BC70473063000028630000009BFF1F80B485B000AF78607B685B89FB817B685E
:401A00005B89002B26D07B681B68BB60144B1A68BB681A607B685B68114A1360104BDA887B685B89D31A9AB20D4BDA800C4B9A887B685B8913449AB2094B9A807B68002269
:401A40005A817B6800229A817B6800221A607B6800225A60FB8918461437BD4680BC7047009BFF1F80B483B000AF78600B467B807B687A881A817B6800225A817B680022B2
:401A80009A817B6800221A607B6800225A6000BF0C37BD4680BC704780B483B000AF7860064B00221A60064B00221A807B6800221A8000BF0C37BD4680BC7047DC9CFF1FC0
:401AC000089CFF1F80B483B000AF00237B6007E0074A7B68002142F823107B6801337B607B68002BF4D000BF0C37BD4680BC7047C898FF1F80B582B000AF0023FB700E4B30
:401B00007B6005E0FB782033FB707B6804337B607B681B68002BF5D07B681B68184603F072FC0346DAB2FB781344FB70FB7818460837BD4680BD00BFC898FF1F80B487B042
:401B400000AF0346FB71FB795B09FB75FB7903F01F033B610123FB603B69C3F11F03FA6802FA03F3FB60FB7DFA7D064951F82210FA680A43034941F8232000BF1C37BD46A7
:401B800080BC7047C898FF1F80B487B000AF0346FB71FB795B09FB75FB7903F01F033B610123FB603B69C3F11F03FA6802FA03F3FB60FB7DFA7D074951F82210FA68D2439F
:401BC0000A40044941F8232000BF1C37BD4680BC704700BFC898FF1F80B483B000AF7860064B00221A60064B00221A807B6800221A8000BF0C37BD4680BC7047CC9BFF1F89
:401C0000189AFF1F80B586B000AFF860B9607A603B6000237B611B4B1B78002B04D03B6842F6E1621A802AE0FB68002B04D13B6845F6C3521A8022E003F0DAFB7861FB6825
:401C4000114A1A60FB687A681A62FB6800225A62FB68BA685A60FB6808331846FFF780FAF86800F023F9094B1B8801339AB2074B1A80786903F0C0FB3B6800221A801837D6
:401C8000BD4680BD3A9AFF1F53454D41D09BFF1F80B58EB000AFF860B9603B601346FB8000237B63634B1B78002B05D03B6C46F2AE121A800023B8E0FB68002B05D13B6C00
:401CC00045F6C3521A800023AFE0FB88002B08D0B3F5004F05D03B6C45F625621A800023A3E000BF3B68002B02D03B6800221A6003F07EFB7863FB681B6A002B16D0FB680C
:401D00001B6A5A1EFB681A623B68002B03D0FB685A6A3B681A60FB681B6A3B63786B03F06BFB3B6C00221A803B6B7EE0B7F90630002B0BDAFB681B6A3B63786B03F05CFB10
:401D40003B6C46F2B0121A803B6B6EE03A4B1B78002B08D0786B03F04FFB3B6C46F663521A80002361E007F11000BB680622F968FFF71EF9786B03F03FFBFEF7AFFF03F0FC
:401D800037FB78632D4B1B6893F83530032B3CD801A252F823F000BFA91D0000C11D0000F11D0000DB1D00003B68002B04D0234B1B681A6C3B681A603B6C00221A802DE0DA
:401DC0003B68002B04D01D4B1B681A6C3B681A603B6C46F2A9121A8020E03B68002B02D03B6800221A603B6C47F2D9221A8015E03B68002B04D0114B1B681A6C3B681A6012
:401E00003B6C45F6C2521A8008E03B6C46F62E621A80786B03F0F0FA002306E0FB681B6A3B63786B03F0E8FA3B6B18463837BD4680BD00BF3A9AFF1FCC98FF1F149AFF1F64
:401E400080B586B000AFF8600B467A607B81FB68002B05D17B6845F6C3521A80002321E07B89B3F5007F11D0B3F5007F02DC002B0CD005E0B3F5004F08D0B3F5024F05D0DA
:401E80007B6845F625621A8000230BE000BFFEF77FFB786179897B687A69F86800F042F838613B6918461837BD4680BD80B483B000AF78607B680E4ADA617B6800225A612E
:401EC0000C4B1B68002B03D17B6800229A6107E0084B1A687B689A61064B1B687A685A61044A7B68136000BF0C37BD4680BC7047986200004499FF1F80B483B000AF78607F
:401F0000064B00221A60064B00221A807B6800221A8000BF0C37BD4680BC70474499FF1FD09BFF1F80B58EB002AFF8607A603B600B467B8100237B6203F05AFA7862FB68CA
:401F400008333B623B6A1B89002B21D1FB681B6AB3F1FF3F08D1786A03F04EFA3B6846F6C5521A80002348E000BFFB681B6A5A1CFB681A62FB681B6A7B61FB687A685A62C7
:401F8000786A03F039FA3B6800221A807B6934E07B8903F40073002B03D03B6A1B89FB8501E00123FB853B6A1B68BB6212E0BB6A9B68FB61BB6A5B68BB617B6800930023B0
:401FC0000022F969F868FFF7C3F9BB69BB62FB8D013BFB85FB8D002BE9D1FB681B6A7B61786A03F009FAB7F90A30002B01DBFEF775FE3B6800221A807B6918463037BD4659
:4020000080BD00BF80B586B000AF78600023FB6003F0EEF9F8603B4B00221A803A4B00221A603A4B00221A60394B00221A60394B00221A81F86803F0DFF903F0D9F9F860D5
:40204000354B1B687B61F86803F0D6F930E003F0CFF9F8607B6900229A677B690022C3F8A8207B690022C3F890207B690022A3F88C207B690022A3F88E207B690022C3F8DE
:402080009C207B690022C3F8A020FEF781FA02467B69C3F898207B696433BB60BB6800229A817B69D3F8B8307B61F86803F0A4F97B69002BCBD103F09BF9F860174B1B680C
:4020C0003B61F86803F098F90EE003F091F9F8603B692033BB60BB6800229A813B699B693B61F86803F088F93B69002BEDD101F0FDFA01F017FF7B6800221A8000BF1837EA
:40210000BD4680BD1A9AFF1FD498FF1FD09CFF1F289AFF1F009BFF1F249AFF1FCC9BFF1F80B586B000AF786000233B6107F10E031946324800F0CAFDFB89002B03D0FA8930
:402140007B681A8056E007F10E031A460021022001F0E8FBFB89002B03D0FA897B681A8048E003F045F93861254B00221A60386903F042F900237B61224B1A68224B1B68FF
:402180009A4206D91F4B1A681F4B1B68B2FBF3F37B617B69002B06D11A4B1B681B4AA2FB0323DB087B6107F10E031A460021786901F0B8FB07F10E031946104800F0C8FBE5
:4021C000FB89002B03D0FA897B681A8012E003F00FF938610E4B00221A60094B1B680D4A13600D4B01221A70386903F005F97B6800221A801837BD4680BD00BF409AFF1FC5
:40220000D898FF1F5063000038630000CDCCCCCCD498FF1FE09BFF1F4199FF1F80B590B000AF78600023BB6108E0844B1B685B0007F10A020021184601F074FB804B1B7865
:40224000012BF2D107F10A031846FFF7DBFE0023FB617C4B1A68794B1B689A4206D9794B1A68764B1B68B2FBF3F3FB61FB69002B06D1744B1B68744AA2FB0323DB08FB6192
:40228000FEF786F9786103F0B3F8B8616F4B1B686F4A13606D4B00221A60B86903F0ACF86C4B1A686A4B1B689A424FD9694B1B68694A934205D842F210737B6201233B623F
:4022C00024E0644B1B68654A934205D84FF47A737B620A233B6219E05E4B1B68604A934204D864237B6264233B620FE0594B1B685C4A934205D80A237B624FF47A733B6223
:4023000004E001237B6242F210733B62514B1A683B6AB2FBF3F33B614D4B1B687A6A02FB03F23B69B2FBF3F39BB2C3F51C5310339AB24D4B1A804D4B1A884B4B1B889A42C6
:4023400008D2494B1A88494B1A8003E0464B42F210721A8003F0A8FC0023BB6303F048F8B861434B1B68BB62B86903F045F81FE003F03EF8B861BB6AD3F89C20BB6AC3F8EB
:40238000A020BB6A0022C3F89C20B86903F034F8BB6AD3F8A030BA6B1344BB6303F028F8B861BB6AD3F8B830BB62B86903F024F8BB6A002BDCD1BB6B002B31D0BB6B264ACF
:4023C000934205D842F210733B6301237B6321E0BB6B224A934205D84FF47A733B630A237B6317E0BB6B1E4A934204D864233B6364237B630EE0BB6B1A4A934205D80A239F
:402400003B634FF47A737B6304E001233B6342F210737B63BA6B7B6BB2FBF3F3FB6203E000233B630123FB6202F0E2FFB861104B1B68BB62B86902F0DFFF50E038630000F2
:402440004199FF1F50630000CDCCCCCCD898FF1FF49BFF1FE09BFF1F7F1A0600FF083D00FF596202FF83D717389AFF1F1A9AFF1F249AFF1FBB6AD3F8A0303A6B02FB03F2A8
:40248000FB6AB2FBF3F3FB87FB8F42F21072934202D942F21073FB87BB6AFA8FA3F88C20BB6AB3F88E30FA8F9A4203D9BB6AFA8FA3F88E20BB6A03F1B001BB6A03F1AC022D
:4024C00007F10A03B86A00F089FB02F091FFB861BB6AD3F8B830BB62B86902F08DFFBB6A002BC7D1104B1B78012B07D10E4B00221A7007F10A031846FFF784FDFEF748F824
:4025000002467B69D31AFB60084B1A68FB689A4202D2064AFB68136007F10A031A460021F86901F0FFF9ABE6049CFF1FD498FF1F90B58DB00AAF7860254B00221A60254BE1
:4025400000221A60244B00221A60244B00221A70234B00221A70234B1B68002B04D17B6846F62B621A802FE01F4B1A681F4B1B689A4204D27B6846F62C621A8024E01C4BFC
:402580001B78062B04D97B6846F62A621A801BE0174B1B78134A126816490968124800687C68089403240794002406940024059400240494039002910192009300230E4A9C
:4025C0000E490F4800F01EF80C37BD4690BD00BFD898FF1FF49BFF1FE09BFF1F4199FF1F049CFF1F3C630000446300004C63000034630000406300001D2200009C620000DF
:402600000C9CFF1F80B58CB002AFF860B9607A603B600023BB61794B1B78002B04D03B6D47F24A121A80E6E0FB68002B04D13B6D47F2AD121A80DEE07B68002B04D13B6DB4
:4026400047F24F121A80D6E07B6B002B04D13B6D46F62F621A80CEE0694B1B68FA6B9A4204D23B6D46F630621A80C4E0BA6BFB6B9A4204D33B6D46F631621A80BBE097F852
:402680003030072B04D93B6D46F273221A80B2E097F83030072B08D1FB685A4A934204D03B6D46F273221A80A5E0F86800F0B4FB3B6D00221A80B7F84C3003F00103002B1C
:4026C00017D0B7F84C3003F00203002B11D07B6BFB6100237B6208E0FB6900221A60FB690433FB617B6A01337B627A6AFB6B9A42F2D3BB6B9B007A6B13447B61B7F84C30BE
:402700000193FB6B00937B697A6B3968786803F00FFBF861FB687A689A62FB683A68DA62FB68BA681A62FB6897F8302083F83720FB68FA691A60FB687A699A60FB687A6C0C
:402740005A657B6C002B04D12F4B1A68FB689A6502E0FB687A6C9A65FB68BA6C5A60FB687A6B5A62FB68FA6B9A63FB68B7F84C209A87002387F823300CE097F82330FA685B
:402780001E339B00134400225A6097F82330013387F8233097F82330002BEED0FB686433B7F8402011461846FFF75CF9F86803F089FA02F01DFEB861FB6893F8373018468F
:4027C000FFF7BCF9F868FEF7FFFEF86800F0A0FA0E4B1B8801339AB20C4B1A800C4B1B78012B03D0B86902F007FE04E0B86902F003FEFEF773FA2837BD4680BD3A9AFF1F99
:402800004C6300000C9BFF1FD89BFF1F3C9AFF1FDD98FF1F80B584B000AF786039600023FB60474B1B78002B04D03B6847F24E121A8082E07B68434A934204D13B6847F2B3
:402840004C121A8079E07B68002B08D102F0D0FDF8603D4B1B687B60F86802F0CDFD02F0C7FDF8607B6893F83630072B3CD801A252F823F0952800009D280000A528000090
:40288000A5280000F92800009D280000A5280000A52800007868FEF71FFF2EE0786800F0DFFE2AE0786800F0DBFE7B6893F83430072B17D801A252F823F000BFE5280000AB
:4028C000DD280000E5280000DD280000DD280000DD280000DD280000E52800007868FEF7C5FC00E000BF08E0F86802F085FD3B6846F62D621A8020E000BF7B686433184615
:40290000FFF776F8786803F0EFF9786800F026FA0E4B1B88013B9AB20C4B1A80786800F07BFA7B68FF2283F83620F86802F064FD3B6800221A80FEF7D1F91037BD4680BDA1
:402940003A9AFF1F0C9BFF1F149AFF1F3C9AFF1F80B584B000AF786039600023FB60134B1B78002B04D03B6847F255121A8019E002F03EFDF8607B68002B04D00C4B1B68D2
:402980007A689A4207D1F86802F036FD3B6847F257121A8006E0F86802F02EFD3968786800F006FB1037BD4680BD00BF3A9AFF1F149AFF1F90B587B000AFF8607A603B604C
:4029C0000B467B8100237B616F4B1B78002B05D03B6846F2AE121A800023D0E07B89002B08D0B3F5004F05D03B6845F625621A800023C4E000BF7B68002B02D07B680022F9
:402A00001A6002F0F5FC7861604B1B685B6C002B35D05E4B1B685A6C013A5A645B4B1B685B6C3B617B68002B04D0584B1B681A6C7B681A60554B1C68FDF7AAFD0246534B34
:402A40001B681B6CD31AC4F8A430504B1B68D3F8A8204E4B1B68D3F8A4309A4207D24B4B1B684A4A1268D2F8A420C3F8A820786902F0C2FC3B6800221A803B697FE0B7F9D3
:402A80000A30002B08DA786902F0B6FC3B6846F2B0121A80002372E03D4B1B78002B08D0786902F0A9FC3B6846F663521A80002365E0FB68072200210020FEF779FA78695C
:402AC00002F09AFCFEF70AF902F092FC78612F4B1B6893F83530012B2CD0032B37D0002B40D17B68002B21D0284B1B681A6C7B681A60264B1C68FDF74BFD0246234B1B6835
:402B00001B6CD31AC4F8A430204B1B68D3F8A8201E4B1B68D3F8A4309A4207D21B4B1B681A4A1268D2F8A420C3F8A8203B6800221A801CE07B68002B04D0144B1B681A6C53
:402B40007B681A603B6846F2A9121A800FE07B68002B02D07B6800221A603B6847F2D9221A8004E03B6846F62E621A8000BF074B1B685B6C3B61786902F03EFC3B69184616
:402B80001C37BD4690BD00BF3A9AFF1F149AFF1FCC98FF1F80B586B000AFF8600B467A607B817B89002B08D0B3F5004F05D07B6845F625621A8000230BE000BFFDF7E8FC23
:402BC000786179897B687A69F86800F097FA38613B6918461837BD4680BD00BF80B588B000AFF860B9607A603B6000237B61354B1B78002B04D03B6847F259121A805DE039
:402C0000BB68002B04D13B6846F2D5221A8055E07B68002B04D13B6846F2D5221A804DE002F0E6FB7861FB68002B02D1264B1B68FB60FB681B68002B0DD1786902F0DCFB5F
:402C4000BB6800221A607B6800221A603B6847F252121A8032E0FB689B8F03F00103002B0DD1786902F0C8FBBB6800221A607B6800221A603B6847F254121A801EE078690E
:402C800002F0BAFB0023FB61FB685B6ABB6105E0BB690433BB61FB690133FB61BB691B68002BF5D0BB68FA691A60FB689A6BFB69D21A7B681A603B6800221A802037BD46F5
:402CC00080BD00BF3A9AFF1F149AFF1F80B582B000AF786039600C4B1B78002B04D03B6847F25D121A800CE07B68084A934204D13B6847F25B121A8003E03968786800F0C3
:402D000091FA0837BD4680BD3A9AFF1F0C9BFF1F80B483B000AF78607B680022C3F8B4200D4B1B68002B04D17B680022C3F8B82009E0094B1A687B68C3F8B820064B1B68D4
:402D40007A68C3F8B420044A7B68136000BF0C37BD4680BC704700BF249AFF1F80B485B000AF78607B68D3F8B430FB607B68D3F8B830BB60FB68002B0ED1184ABB681360B8
:402D8000BB68002B03D0BB680022C3F8B4207B680022C3F8B8201BE0BB68002B08D1FB680022C3F8B8207B680022C3F8B4200FE0FB68BA68C3F8B820BB68FA68C3F8B4209D
:402DC0007B680022C3F8B8207B680022C3F8B42000BF1437BD4680BC704700BF249AFF1F80B483B000AF7860084B00221A60084B00221A80074B00221A607B6800221A8093
:402E000000BF0C37BD4680BC704700BF249AFF1F3C9AFF1F349AFF1F80B584B000AF78607B6800221A607B6800229A607B6800225A607B680022DA607B6800221A617B6850
:402E400000225A617B6800229A617B680022DA617B68554A1A627B6800225A627B6800229A627B680022DA627B6800221A637B680022DA877B6800221A647B680022DA6585
:402E80007B680022A3F860207B68643300211846FEF7E8FD7B6800225A677B6800229A677B680022C3F880207B680022A3F888207B680022C3F884200023FB7309E0FB7B57
:402EC0007A681E339B00134400225A60FB7B0133FB73FB7B002BF2D07B6800225A647B680022C3F8A4207B680022C3F8A8207B6800229A637B68002283F88A207B68002256
:402F0000C3F8B0207B680022C3F8AC207B6800229A877B684FF000429A647B680022DA647B6800221A657B6800225A657B6800229A657B680022A3F88C207B680022A3F877
:402F40008E207B680022C3F890207B680022C3F89420FDF71DFBB8607B68BA68C3F898207B680022C3F89C207B68002283F834207B68002283F835207B68002283F8362028
:402F80007B68082283F837207B680022C3F8B4207B680022C3F8B8207B68044AC3F8BC2000BF1037BD4680BDB0620000B862000080B584B000AF786039600023FB6002F0D3
:402FC00017FAF8603B6800221A807B6893F83630072B72D801A252F823F000BFFD2F0000FD2F0000FD2F0000FD2F00000D3000003D3000006730000091300000F86802F0F6
:40300000FBF93B6847F253121A805EE07B6893F88A30013BDAB27B6883F88A207B6893F88A30002B06D17B68002283F836207868FEF736FCF86802F0DFF946E07B6893F8C6
:403040008A30013BDAB27B6883F88A207B6893F88A30002B03D17B68012283F83620F86802F0CAF931E07B6893F88A30013BDAB27B6883F88A207B6893F88A30002B03D183
:403080007B68022283F83620F86802F0B5F91CE07B6893F88A30013BDAB27B6883F88A207B6893F88A30002B03D17B68032283F83620F86802F0A0F907E0F86802F09CF98B
:4030C0003B6846F62D621A8001E0FDF707FE1037BD4680BD80B582B000AF074B1B68184602F014FEBB1D19460020FFF793FB00BF0837BD4680BD00BF149AFF1F80B588B009
:4031000002AFF8607A603B600B467B8100233B6102F06EF93861FB68002B02D1404B1B68FB60FB687A681A643B6800221A80FB6893F83630072B63D801A252F823F000BFA7
:403140006131000061310000973100009731000061310000613100009731000097310000FB685B6CB3F1FF3F08D1386902F044F93B6846F6C5521A8000234DE000BFFB6830
:403180005B6C5A1CFB685A64FB685B6C7B61386902F032F93FE0FB6893F83430072B14D17B68009300230022F9680020FEF7D0F8FB685B6C7B61386902F01EF9B7F90A30D2
:4031C000002B27DBFDF78AFD24E0FB685B6CB3F1FF3F08D1386902F00FF93B6846F6C5521A80002318E000BFFB685B6C5A1CFB685A64FB685B6C7B61386902F0FDF809E001
:40320000386902F0F9F83B6846F62D621A8000237B6100E000BF7B6918461837BD4680BD149AFF1F80B584B000AF786039600023FB6002F0DDF8F8607B68002B02D13D4B38
:403240001B687B603B4B1B687A689A420BD13A4B1B78002B07D0F86802F0CEF83B6846F663521A8063E03B6800221A807B6893F83630072B51D801A252F823F09D3200004D
:40328000BB320000D3320000EB320000033300000333000003330000033300007B68042283F836207B68012283F88A207868FEF713FAF86802F0A0F837E07B68052283F8BA
:4032C00036207B68012283F88A20F86802F094F82BE07B68062283F836207B68012283F88A20F86802F088F81FE07B68072283F836207B68012283F88A20F86802F07CF8BE
:4033000013E07B6893F88A300133DAB27B6883F88A20F86802F070F807E0F86802F06CF83B6846F62D621A8001E0FDF7D7FC1037BD4680BD149AFF1FCC98FF1F80B584B065
:4033400000AF786007F10E0307F1080200210020FFF730FBFB89002BF4D1034B1B78012BF0D100F0E3F9EDE7DD98FF1F90B58DB00AAF7860214B00221A60214B00221A60C1
:4033800000F050F81F4B1B68002B04D17B6847F212221A802FE01C4B1A681C4B1B689A4204D27B6847F213221A8024E0184B1B78062B04D97B6847F211221A801BE0144B34
:4033C0001B78104A1268134909680F4800687C6808940B240794002406940024059400240494039002910192009300230A4A0B490B48FFF707F90C37BD4690BDE49BFF1FC9
:40340000D09CFF1F58630000606300004C630000546300005C6300003D330000BC6200005099FF1F80B483B000AF0023FB8010E0FB88DB000C4A13443B603B6800221A6041
:403440003B6800229A803B680022DA80FB880133FB80064B1B88FA889A42E9D300BF0C37BD4680BC704700BFE49EFF1F6863000080B48BB000AFF860B9603B601346FB80EE
:40348000FB88042B1FD1734B1B68BA68D31A013B3B623B6A13F5803F0DD9FB680022DA64FB6800221A65FB680022DA613B6847F27E221A80CAE0FB68BA68DA643B6A5A1CCA
:4034C000FB681A6542E0BB68002B31D0FB88082B24D1FB689A6CBB681344FB615D4B1B68FA69D31A013B3B623A6ABB689A4203D2FB68FA69DA6405E0564B1A68BB681A4436
:40350000FB68DA64FB68DA6C524B1B68D21AFB681A65FB68DA6CFB689A6417E04D4B1A68BB681A44FB68DA64FB68BA681A650DE0FB680022DA64FB6800221A65FB680022D9
:40354000DA613B6847F27E221A807FE0FB68DB6C414A1288B3FBF2F102FB01F29B1A7B837B8BDB003D4A13447B617B699B88002B0CD1FB6800225A61FB6800229A617B694A
:40358000FA681A607B6901229A804FE07B691B687B6242E07B6ADA6C2E4B1B68D21A7B6A1A65FB681A6D7B6A1B6D9A4213D97B6A5B69002B03D07B6A5B697B622DE0FB6846
:4035C00000225A61FB687A6A9A617B6AFA685A6100237B6221E07B6A9B69002B0CD1FB6800229A61FB687A6A5A617B6AFA689A617B69FA681A600EE07B6A9B693B61FB685E
:403600003A699A61FB687A6A5A613B69FA685A617B6AFA689A6100237B627B6A002BB9D17B699B8801339AB27B699A807B69DA887B699B889A4203D27B699A887B69DA8086
:40364000FB687A69DA613B6800221A802C37BD4680BC7047E49BFF1F68630000E49EFF1F80B487B000AF78607B68DB697B617B69002B35D07B6800221A657B691A687B6833
:403680009A420CD17B685B693B617B693A691A603B69002B12D03B6900229A610EE07B689B693B617B685B69FB603B69FA685A61FB68002B02D0FB683A699A617B68002201
:4036C0005A617B6800229A617B680022DA617B680022DA647B699B88013B9AB27B699A8000BF1C37BD4680BC704700BF80B483B000AF0023FB800AE0FB88DB00094A134492
:403700003B603B680022DA80FB880133FB80064B1B88FA889A42EFD300BF0C37BD4680BC704700BFE49EFF1F6863000080B588B000AF00237B6101F05BFE7861FCF728FF0F
:403740003861744B1B680133724A1360714B1B68714A1288B3FBF2F102FB01F29B1AFB81FB89DB006D4A1344BB60BB681B68BB610023FB77B4E0BB69002B00F0AF80BB69C0
:403780005B697B60BB6993F83630072B00F2A28001A252F823F000BFD5380000B9370000D5380000E9370000D538000047380000D538000077380000BB69DA6C554B1B6851
:4037C000D21ABB691A65BB69DA6C524B1B689A4207D1BB69002283F83620B869FEF760F879E00123FB7776E0BB69DA6C494B1B68D21ABB691A65BB69DA6C464B1B689A42C8
:403800001ED1BB690022DA65BB690022A3F86020FCF7BEFE0246BB691A64B869FDF726FDB869FEF73DF8BB69002283F83620BB69032283F83520BB69002283F834204AE028
:403840000123FB7747E0BB69DA6C324B1B68D21ABB691A65BB69DA6C2E4B1B689A4207D1BB69042283F83620B869FFF7F9FE32E00123FB772FE0BB69DA6C264B1B68D21A4E
:40388000BB691A65BB69DA6C224B1B689A421ED1BB690022DA65BB690022A3F86020FCF777FE0246BB691A64B869FDF7DFFCB869FFF7D6FEBB69042283F83620BB690322C9
:4038C00083F83520BB69002283F8342003E00123FB7700E000BF7B68BB6101E00123FB77FB7F002B3FF447AFFCF752FE02463B69D31A3B600A4B1A683B689A4202D2084A54
:403900003B681360786901F077FD00BF2037BD4680BD00BFE49BFF1F68630000E49EFF1FD09CFF1F80B586B000AFF8600B467A607B8100237B61314B1B78002B04D07B68FB
:4039400047F275221A8055E02D4B1B78002B04D07B6846F663521A804CE07B89082B1DD801A252F823F000BF8D3900009D3900008D3900009D390000A73900009D3900002B
:403980009D3900009D3900008D390000FB68002B0BD17B6847F27E221A802BE07B6845F625621A8026E000BF00E000BF01F020FD7861144B1B68012283F83620114B18688E
:4039C0007A897B68F968FFF753FD7B681B88002B03D0786901F010FD0CE00A4B1B681846FDF77AFE786901F007FDFDF777F97B6800221A801837BD4680BD00BF3A9AFF1F30
:403A0000CC98FF1F149AFF1F80B588B000AF7B600346FB810B46BB8113467B810023FB61744B1B78002B04D0FB6A47F275221A80DDE0714B1B78002B04D0FB6A46F663529A
:403A40001A80D4E03B8D03F00E037B837B8B082B25D801A252F823F07D3A00009F3A00007D3A00009F3A0000A93A00009F3A00009F3A00009F3A00007D3A00007B68002BA5
:403A800014D17B89002B11D1BB89002B0ED1FB89002B0BD1FB6A47F27E221A80A7E0FB6A45F625621A80A2E000BF00E000BF3B8D23F01E03002B14BF01230023DBB27B7678
:403AC0007B7E012B04D1FB6A45F625621A808EE03B8D03F01003002B01D0012300E000233B763B7E012B20D07B68B3F57A7F04D3FB6A47F27B221A8079E07B893B2B04D956
:403B0000FB6A47F27A221A8071E0BB893B2B04D9FB6A47F279221A8069E0FB89632B17D9FB6A47F278221A8061E0BB8942F20F72934204D9FB6A47F279221A8057E0FB896F
:403B4000B3F57A7F04D3FB6A47F278221A804EE02A4B1B687B61FB894FF4616202FB03F1BA8913461B019B1A9B00CA187B8913447A6902FB03F24FF4FA717B69B1FBF3F142
:403B80007B680B44796901FB03F31D49A1FB03139B0913443B613B69002B24D001F028FCF861184B1B68012283F83620154B18687A8BFB6A3969FFF75BFCFB6A1B88002BD9
:403BC00003D0F86901F018FC11E00E4B1B681846FDF782FDF86901F00FFCFDF77FF8FB6A00221A8003E0FB6A47F27E221A802037BD4680BD3A9AFF1FCC98FF1F506300008C
:403C0000D34D6210149AFF1F80B582B000AF02F067F9BB1D1A4600211248FEF7BBFF124B1B781A4613465B0013449B000F4A13441846FDF7A9FD0E4B1B68013B0C4A1360DD
:403C40000B4B1B68002B09D10A4B1B68084A1360BB1D1A4600210848FEF79CFF00BF0837BD4680BD5099FF1F4C99FF1FE098FF1FE09CFF1FD49CFF1F409AFF1F90B58FB00E
:403C80000AAF78603B4B00221A603B4B1B68002B08D03A4B1A68384B1B68B2FBF3F3384A136007E0354B1B68364AA2FB0323DB08334A1360324B1B68334A1360334B002220
:403CC0001A60334B00221A600023FB8110E0FB89DB00304A1344BB60BB6800229A80BB680022DA80BB6800221A60FB890133FB81294B1B88FA899A42E9D3284B1B68002B12
:403D000004D17B6847F247321A802FE0244B1A68244B1B689A4204D27B6847F248321A8024E0214B1B78062B04D97B6847F246321A801BE01C4B1B78184A12681B490968C6
:403D4000174800687C6808940B24079400240694002405940024049403900291019200930023134A13491448FEF74CFC1437BD4690BD00BFCC9CFF1F7463000050630000D0
:403D8000D49CFF1FCDCCCCCCE09CFF1F109AFF1F289AFF1FACA7FF1F8863000078630000806300004C630000706300007C63000001400000D8620000409AFF1F80B487B0A9
:403DC00000AF78600B467B807B68022283F82A207B88012B07D17B685A6A4F4B1B681A447B689A6112E07B681B6A002B07D17B685A6A494B1B681A447B689A6106E07B68FD
:403E00001A6A454B1B681A447B689A617B689B69424A1288B3FBF2F102FB01F29B1A7B827B8ADB003E4A1344FB60FB681B68002B0CD17B6800221A617B6800225A61FB68C4
:403E40007A681A60FB6801229A8056E07B689A69314B1B68D21A7B68DA61FB681B687B6142E07B699A692C4B1B68D21A7B69DA617B68DA697B69DB699A4213D97B691B69D3
:403E8000002B03D07B691B697B612DE07B6800221A617B687A695A617B697A681A6100237B6121E07B695B69002B0CD17B6800225A617B687A691A617B697A685A61FB68DC
:403EC0007A681A600EE07B695B69BB607B68BA685A617B687A691A61BB687A681A617B697A685A6100237B617B69002BB9D1FB689B8801339AB2FB689A80FB68DA88FB6870
:403F00009B889A4203D2FB689A88FB68DA8000BF1C37BD4680BC7047109AFF1F88630000ACA7FF1F80B483B000AF0023FB800AE0FB88DB00094A13443B603B680022DA80DF
:403F4000FB880133FB80064B1B88FA889A42EFD300BF0C37BD4680BC704700BFACA7FF1F8863000080B487B000AF78607B689B69214A1288B3FBF2F102FB01F29B1AFB8257
:403F8000FB8ADB001D4A13443B613B691A687B689A420CD17B681B69FB603B69FA681A60FB68002B12D0FB6800225A610EE07B685B69FB607B681B69BB60FB68BA681A6121
:403FC000BB68002B02D0BB68FA685A617B68012283F82A207B6800221A617B6800225A613B699B88013B9AB23B699A8000BF1C37BD4680BC704700BF88630000ACA7FF1F26
:4040000080B58CB000AF786007F10E0307F1080200210020FEF7CEFC07F10E031846FCF7B3FEFCF7B5FA7862324B1B680133314A1360304B1B68304A1288B3FBF2F102FB34
:4040400001F29B1A7B847B8CDB002C4A1344FB61FB691B68BB62002387F82F3031E0BB6A002B2BD0BB6A1B697B61BB6A9A69214B1B689A421ED1B86AFFF774FFBB6A1B8D6E
:40408000022B04D10121B86AFFF798FE03E0BB6A032283F82A20BB6A9B683B613B69002B05D0BB6ADA683B691146B86A98477B69BB6206E0012387F82F3002E0012387F803
:4040C0002F3097F82F30002BC9D0FCF761FA02467B6AD31ABB6107F10E031846FCF78EFE074B1A68BB699A428ED2054ABB6913608AE700BF109AFF1F88630000ACA7FF1FD7
:40410000289AFF1F80B400AF00BFBD4680BC704780B582B000AF786001F0ECFA01F08CFA01F096FA01F0F2FA01F094F901F09CFA01F03CFA01F0D2FA01F07EFA00BF08371D
:40414000BD4680BD80B582B000AF01F005FA0346FB71FB79184600F0E1F800BF0837BD4680BD00BF80B500AF01F0B8FA00BF80BD80B500AF00F086F900BF80BD80B582B073
:4041800000AF0346FB71FB79184601F0F5F900F00BF800BF0837BD4680BD00BF80B500AF01F04AFA00BF80BD80B500AF01F038FA00BF80BD80B58CB00AAFBB1D0022154960
:4041C0001548FDF71FFDFB88002B01D000231DE0BB1D089303230793002306930023059300230493802303930C2302930B4B01930423009300230A4A0A490B48FEF702FAA0
:40420000FB88002B01D0002300E0012318460837BD4680BD946300006094FF1FA091FF1F71420000A4630000A093FF1F80B584B002AFBB1D00930023002200210348FDF76E
:4042400027FD00BF0837BD4680BD00BF6094FF1F80B582B000AFBB1D1A4600210348FDF7EFFD00BF0837BD4680BD00BF6094FF1F80B582B000AF786000F03CF800BF083752
:40428000BD4680BD80B584B000AF7860124B00221A70124B00221A70114B00221A60114B00221A70104B00221A70104B00221A600F4B00221A60FFF77DFF0346FB73FB7B29
:4042C000002B01D1002303E07868FFF721FF012318461037BD4680BD8894FF1F9C96FF1FA096FF1F9D96FF1FA498FF1F38AEFF1F34AEFF1F80B582B000AFFFF797FF00F09D
:404300008FF978607B68002BF7D0034A7B68136000F0D6F9F1E700BFA096FF1F80B582B000AF0346FB71524B1B680133504A1360504B1B780A2B00F2908001A252F823F06A
:404340006D4300007F43000095430000AB430000C1430000CF43000009440000174400001F4400004144000049440000FB79752B77D1404B01221A7000F096F971E0FB79FA
:40438000432B03D13B4B02221A706DE0394B00221A7069E0FB79502B03D1364B03221A7062E0344B00221A705EE0FB79722B03D1304B04221A7057E02E4B00221A7053E084
:4043C000FB792D4A13602B4B05221A704CE0FB791B021A46284B1B681343274A1360264B1B68002B04D0244B1B68B3F5007F03D9204B00221A7037E01F4B1B681F4A13600C
:404400001C4B06221A702FE0FB791D4A1360194B07221A7028E0174B08221A7024E0FB79184600F025F9144B1B68013B124A1360114B1B68002B16D10E4B09221A7012E00F
:404440000C4B0A221A700FE0FB792F2B01D100F009F9084B00221A7006E0064B00221A7002E000BF00E000BF00BF0837BD4680BD38AEFF1F8894FF1F8C94FF1F9494FF1F8C
:404480009094FF1F80B582B000AF5D4B1B78002B03D15C4B1B68002B04D05B4B1B680133594A1360564B1B780A2B00F29A8001A252F823F0E14400000F4500001D4500007E
:4044C0002B450000394500004F450000674500007D4500008B450000C1450000CF450000484B1B68002B0CD07520FFF747FE474B01221A70424B01221A70454B00221A6050
:4045000079E0424B00221A70FFF748FE73E04320FFF734FE3A4B02221A706CE05020FFF72DFE374B03221A7065E07220FFF726FE334B04221A705EE0324B1B68FB71FB7951
:404540001846FFF71BFE2E4B05221A7053E02D4B1B681B0AFB71FB791846FFF70FFE284B06221A7047E02B4B1B68FB71FB791846FFF704FE224B07221A703CE00020FFF743
:40458000FDFD1F4B08221A7035E0214B1B68224AD35CFB71FB791846FFF7F0FD1C4B1B6801331B4A13601A4B1A68164B1B689A4220D3134B09221A70124B00221A6019E08E
:4045C0000020FFF7DBFD0E4B0A221A7013E02F20FFF7D4FD0A4B00221A70104B00221A7009E0074B00221A70084B00221A70FFF7D5FD00E000BF00BF0837BD4680BD00BF63
:404600009C96FF1FA096FF1F34AEFF1F9D96FF1FA898FF1F9094FF1FA496FF1FA498FF1F80B582B000AF0B4B1B78012B01D100230CE0084B01221A70074B1A684FF400739D
:404640000649074800F07CF878607B6818460837BD4680BDA498FF1F9494FF1FA496FF1F9894FF1F80B500AFFFF7F2FD00BF80BD80B483B000AF0346FB71094B1B68B3F54F
:40468000007F07D2064B1B685A1C05490A600549FA79CA5400BF0C37BD4680BC704700BF9896FF1F9894FF1F80B400AF034B00221A6000BFBD4680BC704700BF9896FF1FE7
:4046C00080B500AF044B1B78002B03D1FFF7DAFEFFF76AFD00BF80BD9D96FF1F80B400AF0E4B00221A600E4B00221A600D4B00221A600D4B00221A600C4B00221A600C4B7E
:4047000000221A600B4B00221A600B4B0B4A1A6001231846BD4680BC704700BF3CAEFF1F40AEFF1F50AEFF1F54AEFF1F4CAEFF1F48AEFF1F44AEFF1FAC98FF1F785634128D
:4047400080B588B000AFF860B9607A603B607B68012B01D8002362E0FB68BB61BB687B61BB6901331B789BB21B029AB2BB691B789BB213447B82BB690233BB612A4B1B6806
:404780000133294A1360294B1B680133274A13607B8A013B072B3BD801A252F823F000BFC1470000D1470000F1470000114800001148000011480000E147000001480000B7
:4047C0003B687A687969B86900F068F8F86125E03B687A687969B86900F042F9F8611DE03B687A687969B86900F09AF9F86115E03B687A687969B86900F01EFAF8610DE04B
:404800003B687A687969B86900F07EFAF86105E0F921786900F018F8F86100BFFB6918462037BD4680BD00BF3CAEFF1F40AEFF1F80B483B000AF0023FB71FB7918460C3751
:40484000BD4680BC704700BF80B584B000AF78600B46FB70104B1B6801330F4A13603B1D4FF40041184600F033FBFA783B1D1146184600F01BFBFFF7DBFF03461A463B1D4B
:404880001146184600F012FB0423FB60FB6818461037BD4680BD00BF4CAEFF1F80B588B000AFF860B9607A603B607B68042B07D0BB68FE211846FFF7C7FFF861FB69C7E0FA
:4048C00007F10C03184600F0C3FA03467B837B8B40F20222934207DCB3F5007F11DCA3F20113012B05D80CE0A3F58053013B012B07D9BB68FC211846FFF7A6FFF861FB69F0
:40490000A6E000BF07F1080348F20101184600F0DFFA07F108030121184600F0C7FAFFF787FF03461A4607F108031146184600F0BDFA7B8B40F2012293425CD040F2012263
:40494000934207DC40F20112934210D0B3F5817F1DD076E041F20102934228D041F20202934262D040F20222934250D069E007F108034FF40071184600F0AAFA07F1080319
:404980000021184600F0A4FA0423FB615CE007F108034FF40071184600F09AFA07F108030021184600F094FA0423FB614CE007F108030121184600F08BFA07F108030221C5
:4049C000184600F085FA07F108030721184600F07FFA0823FB6107F108030321184600F077FA07F108030821184600F071FAFB690433FB6128E0184B184A1A60BB6804221F
:404A000015491846FBF778FE0423FB611CE0FFF70FFF03467B61BB6807F1140104221846FBF76AFE0423FB610EE0DC233B61BB6807F1100104221846FBF75EFE0423FB610F
:404A400002E00023FB6100BFFB690433FB61FB6918462037BD4680BDAC98FF1F7856341280B588B000AFF860B9607A603B607B68082B07D0BB68FE211846FFF7E5FEF8618F
:404A8000FB6945E007F10C03184600F0E1F90346BB6107F10C03184600F0F2F97861BB691A1D3B689A4207D9BB68FD211846FFF7CBFEF861FB692BE0174B1B680133164A67
:404AC0001360164B1A68BB691344144A136007F1080348F20201184600F0FAF907F108030121184600F0E2F9FFF7A2FE03461A4607F108031146184600F0D8F9BB68796988
:404B0000BA691846FBF7F8FDBB690433FB61FB6918462037BD4680BD50AEFF1F54AEFF1F90B58DB000AFF860B9607A603B607B68062B06D8FE21B868FFF786FE38623B6AC0
:404B400071E0BB68FB6104233B62BB6807221A70BB68013380221A70BB68023301221A70BB68DC1CFFF764FE03462370BB680433BB600723FB6200237B620023BB6241E097
:404B8000FB681B78BB61FB6804331B781B02FA680332127813447B617B691B02FA680232127813447B617B691B02FA680132127813447B61FB680533FB60FB6A0533FB62AE
:404BC0003A6ABB6913443B623A6A3B689A4208D9FB69BB60FD21B868FFF736FE38623B6A21E07B6A01337B62BA6ABB691344BB627B69BA691946B868FBF77EFDBA68BB69E3
:404C00001344BB60FA6A7B689A42B9D9084B1A687B6A1344064A1360064B1A68BB6A1344044A13603B6A18463437BD4690BD00BF50AEFF1F54AEFF1F80B588B000AFF8603C
:404C4000B9607A603B600023FB617B68072B07D8BB68FE211846FFF7F7FDB861BB694BE007F10C03184600F0F3F803467B6107F10C03184600F004F938617B6903F108020F
:404C80007B689A4207D0BB68FE211846FFF7DCFDB861BB6930E000F0ABFBF8613B69F9687A691846FBF728FDF86900F0A5FB144B1B680133124A1360124B1A687B69134466
:404CC000104A136007F1080348F20301184600F0FFF807F108030121184600F0E7F8FFF7A7FD03461A4607F108031146184600F0DDF80423BB61BB6918462037BD4680BDF3
:404D000048AEFF1F44AEFF1F80B58CB000AFF860B9607A603B6000233B627B68062B07D8BB68FE211846FFF78FFDF861FB6977E00723FB620023BB6200237B6246E0FB6810
:404D40001B78BB61FB6804331B781B02FA680332127813447B617B691B02FA680232127813447B617B691B02FA680132127813447B61FB680533FB60FA6ABB691A447B6880
:404D80009A4207D9BB68FE211846FFF75DFDF861FB6945E0BB6A0133BB627A6ABB6913447B6200F025FB38627B69BA69F9681846FBF7A2FC386A00F01FFBFA68BB6913442A
:404DC000FB60BA69FB6A13440533FB62FA6A7B689A42B4D9144B1A68BB6A1344124A1360124B1A687B6A1344104A136007F1080348F20801184600F06BF807F10803012104
:404E0000184600F053F8FFF713FD03461A4607F108031146184600F049F80423FB61FB6918463037BD4680BD48AEFF1F44AEFF1F80B483B000AF78607B681B68591C7A6886
:404E400011601B7818460C37BD4680BC704700BF80B584B000AF78607868FFF7E9FF0346FB817868FFF7E4FF0346BB81BB891B029AB2FB8913439BB218461037BD4680BD6E
:404E800080B584B000AF78607868FFF7E1FF0346FB607868FFF7DCFF0346BB60BB681A04FB68134318461037BD4680BD80B483B000AF78600B46FB707B681B68591C7A684D
:404EC0001160FA781A7000BF0C37BD4680BC704780B582B000AF78600B467B807B88DBB219467868FFF7E2FF7B881B0A9BB2DBB219467868FFF7DAFF00BF0837BD4680BD1F
:404F000080B582B000AF786039603A680021786801F073F800BF0837BD4680BD80B584B000AFF860B9607A607A68B968F86801F059F800BF1037BD4680BD00BF80B483B039
:404F400000AF0346FB71FEE780B487B000AF7860396000233B6100237B6127E07B699B007A6813441B68BB60BB68FB73BB6823F0FF03BB6014E03B695B003A6813441B78DF
:404F80001A46BB68134419463B695B003A6813445B780B703B6901333B61FB7B013BFB73FB7B002BE7D17B6901337B617B69152BD4D900BF1C37BD4680BC704780B582B051
:404FC00000AF304B4FF443721A802F4B1C221A702E4B02221A704FF0402308221A702C4B03221A702B4B2C4A1278D2B21A702B4B14221A802A4B41F251221A800023FB7003
:4050000019237B6013E0FB785B00DAB2254B1B78DBB203F00103DBB21343DBB203F00303FB70782000F0A4FD7B68013B7B607B68002B02D0FB78032BE5D17B68002B02D176
:405040000320FFF77BFF184B4FF480721A80164B07221A70154B00221A70154B48221A70114B00221A70134B02221A70124A124B1B78DBB243F00103DBB2137000BF0837C5
:40508000BD4680BD80400040824000400043004000420040A14600400801004922420040204200402542004004400040064000400840004001400040A243004080B483B0A4
:4050C00000AF0B4B1B78FB710A4AFB7903F00703DBB21370084AFB791B09DBB21370074B44221A7000BF0C37BD4680BC704700BFCF0100496E5800406F58004076580040B0
:4051000080B586B000AF72B6514B61221A70FFF755FF4F4B01221A704E4A4E4B1B78DBB243F00403DBB213700023FB7513E0FA7D13465B0013445B00474A13443B613B69CD
:405140001A683B699B889BB219461046FFF7D8FEFB7D0133FB75FB7D072BE8D90023FB751CE0FA7D13469B0013445B003B4A1344FB60FB681B68BB60FB685B687B60FB6849
:405180001A7A5B7A1B0213437B807B881A467968B868FFF7C3FEFB7D0133FB75FB7D002BDFD02F494FF09040FFF7CEFE2D4A2D4B1B78DBB243F00203DBB213702A4A2A4B06
:4051C0001B78DBB243F00203DBB21370274A274B1B78DBB243F04003DBB21370244A244B1B78DBB243F01003DBB21370082221492148FFF793FE0A2220492148FFF78EFE67
:405200000A2220492048FFF789FE0A221F492048FFF784FE0A221F491F48FFF77FFE0A221E491F48FFF77AFE1E4A1E4B1B78DBB243F00803DBB21370FFF740FF0E220B49B2
:405240001948FFF76BFE00BF1837BD4680BD00BF00480040E8460040B0630000E0630000580000480350014013500140A0430040C243004048030048025100405003004814
:40528000F05100405C0300481051004068030048205100407403004830510040800300486051004022430040B043004080B500AF00F06CFE03461B680C2B00D1FEE7FEE7D1
:4052C00080B586B000AF224B7B61224B3B61204B7B6135E03B691B68FB603B695B68BB603B699B683B6000237B600CE0FB681A68BB681A60BB680433BB60FB680433FB60CA
:405300007B6804337B607A683B689A42EED13B69DB683B6000237B6008E0BB6800221A60BB680433BB607B6804337B607A683B689A42F2D13B6910333B617B69013B7B6124
:405340007B69002BC6D100F027FEFAF7E1FEFEE7010000001064000080B582B000AF184B184A1A60184A184B1B6843F40073136000237B600FE07B68032B04D8134A7B6874
:4053800052F8233000E0124B12497A6841F822307B6801337B607B682F2BECD90E4B1B78DAB20E4B1A700E4B0A4A1A60FFF7A8FE0C4B00221A6000BF0837BD4680BD00BF49
:4053C0000CED00E00004FA0514ED00E000000000AD5200000080FF1FBC760040C480FF1F08ED00E0C080FF1F72B6704762B67047EFF3108072B6704780F31088704730BF9C
:40540000704720BF7047B0FA80F0704790FAA0F0B0FA80F0704790FAA0F0704780B483B000AF0346FB71044AFB79137000BF0C37BD4680BC704700BF7B65004080B400AFC8
:40544000034B1B78DBB21846BD4680BC704700BF7B65004080B500AF064B1B78002B04D100F00AF8034B01221A7000F025F800BF80BD00BFB098FF1F80B400AF094B7222DD
:405480001A70094B20221A70084B06221A70084B47221A70074B03221A7000BFBD4680BC704700BF89650040886500402B6500403B6500408A65004080B582B000AF00F042
:4054C0005FFB0346FB71114A104B1B78DBB243F02003DBB213700E4A0D4B1B78DBB243F01003DBB213700B4A0A4B1B78DBB243F01003DBB2137000F015F9FB79184600F05B
:4055000043FB00BF0837BD4680BD00BF99650040986500409A65004080B483B000AF044B1B78FB71FB7918460C37BD4680BC70474965004080B483B000AF064B1B78DBB292
:4055400003F07F03FB71FB7918460C37BD4680BC704700BF6865004098B500AFFFF7EAFF03461B021CB2FFF7D7FF03461BB223431BB29BB2184698BD80B483B000AF0346F0
:40558000FB7100BF074B1B78DBB203F00403002BF8D1054AFB79137000BF0C37BD4680BC704700BF6A6500404A65004080B500AF00F042F8044800F00FF8072000F01EF8E7
:4055C00000F02EF800BF80BDCD55000080B500AFFEF7CEFD00BF80BD80B485B000AF7860054B1B68FB60FB6844337A681A6000BF1437BD4680BC704708ED00E080B483B047
:4056000000AF0346FB71054AFB795B01DBB2137000BF0C37BD4680BC704700BF01E400E080B400AF034B02221A6000BFBD4680BC704700BF00E100E080B400AF034B022202
:405640001A6000BFBD4680BC704700BF80E100E080B400AF034B02221A6000BFBD4680BC704700BF80E200E080B500AF00F042F8044800F00FF8072000F01EF800F02EF8E2
:4056800000BF80BD8956000080B500AFFEF75AFD00BF80BD80B485B000AF7860054B1B68FB60FB6840337A681A6000BF1437BD4680BC704708ED00E080B483B000AF03465F
:4056C000FB71054AFB795B01DBB2137000BF0C37BD4680BC704700BF00E400E080B400AF034B01221A6000BFBD4680BC704700BF00E100E080B400AF034B01221A6000BF04
:40570000BD4680BC704700BF80E100E080B400AF034B01221A6000BFBD4680BC704700BF80E200E080B400AF094A094B1B78DBB243F00103DBB21370064A064B1B78DBB23D
:4057400043F00103DBB2137000BFBD4680BC7047A2430040B243004080B400AF054B1B78DBB203F08003DB09DBB21846BD4680BC704700BF8245004080B400AF044B1B78BA
:40578000DBB203F00103DBB21846BD4680BC70473151004080B485B000AF0346FB710A4B1B78DBB223F00103FB730749FB7903F00103DAB2FB7B1343DBB20B7000BF1437D6
:4057C000BD4680BC704700BF0051004080B485B000AF0346FB710B4B1B78DBB223F00203FB730849FB795B00DBB203F00203DAB2FB7B1343DBB20B7000BF1437BD4680BC4C
:40580000704700BF0051004080B485B000AF0346FB710B4B1B78DBB223F00403FB730849FB799B00DBB203F00403DAB2FB7B1343DBB20B7000BF1437BD4680BC704700BF90
:405840000051004080B485B000AF0346FB710B4B1B78DBB223F00803FB730849FB79DB00DBB203F00803DAB2FB7B1343DBB20B7000BF1437BD4680BC704700BF00510040ED
:4058800080B400AF054B1B78DBB203F002035B08DBB21846BD4680BC704700BF3151004080B400AF054B1B78DBB203F004039B08DBB21846BD4680BC704700BF3151004086
:4058C00080B400AF054B1B78DBB203F00803DB08DBB21846BD4680BC704700BF3151004080B400AF054B1B78DBB203F00803DB08DBB21846BD4680BC704700BF8345004036
:4059000080B582B000AF786000F03CF8786800F009F8072000F018F800F028F800BF0837BD4680BD80B485B000AF7860054B1B68FB60FB685C337A681A6000BF1437BD4696
:4059400080BC704708ED00E080B483B000AF0346FB71054AFB795B01DBB2137000BF0C37BD4680BC704700BF07E400E080B400AF034B80221A6000BFBD4680BC704700BF22
:4059800000E100E080B400AF034B80221A6000BFBD4680BC704700BF80E100E080B582B000AF786000F03CF8786800F009F8072000F018F800F028F800BF0837BD4680BDCC
:4059C00080B485B000AF7860054B1B68FB60FB6858337A681A6000BF1437BD4680BC704708ED00E080B483B000AF0346FB71054AFB795B01DBB2137000BF0C37BD4680BC2F
:405A0000704700BF06E400E080B400AF034B40221A6000BFBD4680BC704700BF00E100E080B400AF034B40221A6000BFBD4680BC704700BF80E100E080B582B000AF786034
:405A400000F03CF8786800F009F8072000F018F800F028F800BF0837BD4680BD80B485B000AF7860054B1B68FB60FB6854337A681A6000BF1437BD4680BC704708ED00E083
:405A800080B483B000AF0346FB71054AFB795B01DBB2137000BF0C37BD4680BC704700BF05E400E080B400AF034B20221A6000BFBD4680BC704700BF00E100E080B400AF67
:405AC000034B20221A6000BFBD4680BC704700BF80E100E080B485B000AF0346FB710B4B1B78DBB223F04003FB730849FB799B01DBB203F04003DAB2FB7B1343DBB20B705C
:405B000000BF1437BD4680BC704700BF1051004080B400AF054B1B78DBB203F040039B09DBB21846BD4680BC704700BF1151004080B485B000AF0346FB710B4B1B78DBB253
:405B400023F02003FB730849FB795B01DBB203F02003DAB2FB7B1343DBB20B7000BF1437BD4680BC704700BF00510040000000000230800803D000BF01380046FCD17047BE
:405B8000EFF3108072B6704780F31088704700BF1B481C490170002080F309881A48016881F3088819481A49016062B6FEE71748174901607047154815490160704772B6F3
:405BC000EFF3098028B1203880E8F00F11490968086000B5104880475DF804EB0F4810490A7802700B480F490A680260106890E8F00F203080F309884EF0040E62B67047D2
:405C000022ED00E0FF00000058AEFF1F04ED00E000000010149AFF1F615E00004C99FF1F4099FF1F209AFF1F80B500AF044B1B68002B02D0024B1B689847BD4680BDC0466C
:405C4000DC9BFF1F80B483B000AF144B1B687B604FF000033B600BE07A684FF0000313607B6803F104037B603B6803F101033B600B4B1A683B689342EED3094B1B684FEA4D
:405C800083031A46054B1B681344A3F10402054B1A6007F10C07BD4680BC70471C6300002063000058AEFF1F80B500AF044B1B68002B02D0024B1B689847BD4680BDC046A1
:405CC000F89BFF1F80B582B000AF7860054B1B68002B03D0034B1B687868984707F10807BD4680BD4899FF1F80B582B000AF7860054B1B68002B03D0034B1B68786898470F
:405D000007F10807BD4680BD2C9AFF1F80B582B000AF7860054B1B68002B03D0034B1B687868984707F10807BD4680BDD098FF1F80B487B000AFF860B9607A603B603B6A77
:405D40004FEA83031A467B6813447B617B69A3F104037B617A694FF0807313607B69A3F104037B61FB681A467B691A607B69A3F104037B61394B1A467B691A607B69A3F17A
:405D800004037B617A694FF0123313607B69A3F104037B617A694FF0033313607B69A3F104037B617A694FF0023313607B69A3F104037B613B681A467B691A607B69A3F1A7
:405DC00004037B61BB681A467B691A607B69A3F104037B617A694FF0113313607B69A3F104037B617A694FF0103313607B69A3F104037B617A694FF0093313607B69A3F1D4
:405E000004037B617A694FF0083313607B69A3F104037B617A694FF0073313607B69A3F104037B617A694FF0063313607B69A3F104037B617A694FF0053313607B69A3F1BC
:405E400004037B617A694FF0043313607B69184607F11C07BD4680BC7047C046D530000090B583B000AF1B4B1B68002B02D0194B1B689847FAF78CFB03467B60164B1A68C3
:405E8000164B1B689A421CD0134B1968124B1B68D3F8AC207B68C2EB0303C1F8A8300E4B1C680D4B1B68D3E92C010B4B1B68D3F8A8301A464FF00003121843EB0103C4E9F1
:405EC0002C23064B1A687B68C2F8AC3007F10C07BD4690BDE89BFF1F149AFF1F209AFF1F80B500AF044B1B68002B02D0024B1B689847BD4680BDC046309AFF1F80B582B070
:405F000000AF4FF000037B60FFF772FA03467B60084B1B7803F10103DBB2064A13707868FFF76AFAFDF770FEFAF768FE07F10807BD4680BD3A9AFF1F80B485B000AF7860B5
:405F40000F4A7B6803F1FF3313600E4B1B68FB60FB6823F07F43FB600A4AFB6813600A4A094B1B6843F005031360074A064B1B6843F00203136007F11407BD4680BC7047A6
:405F800014E000E020ED00E010E000E0014B1868704700BF3081FF1F0E4B70B51E460E4C0025E41AA410A54204D056F8253098470135F8E700F01AFA084B094C1E46E41ACC
:405FC000A4100025A54204D056F8253098470135F8E770BDF8630000F8630000F86300000064000010B5431E0A44914204D011F8014B03F8014FF8E710BD03460244934209
:4060000002D003F8011BFAE77047000000000000537461727400000049484D5F5461736B00000000456D6572675F5461736B0000202020202020202020202020202020201F
:40604000000000004D69637269756D2075432F4F532D49494900000075432F4F532D4949492056782E797979000000005469636B526174653A2020207878787800000000F0
:406080004350552055736167653A787820252020000000004350552053706565643A7878784D487A00000000235469636B733A2078787878787878780000000023437478FD
:4060C00053773A207878787878787878000000003D3D3D204D69637269756D203D3D3D200000000020202075432F4F532D4949492020202000000000010101007856341290
:40610000010100000000000000000000000000000000000000000000000000000000000000000000000000000000000001010100280004000000000000000000000000002E
:4061400000000000000000000000000000000000000000000000000001002000010010000C00100000000000000000000000000000000000000000000000000000000000D1
:4061800000000000000000000000000000000000010101002C00000120000C0020000800040004000000000000000000000000000000000000000000000000000000000053
:4061C000000000000000000000000000000000000000000001010101300001000000000000000000000000000000000000000000000000000000000000000000000000006A
:40620000000000000101010128000C0060000000040101010101010101000101C00008000101000000000000000000000000000000000000000000000000000000000000EE
:406240000000000000000000000000000000000000000000000000000101340008005D760004000075432F4F532D4949492049646C65205461736B005461736B2051000023
:406280005461736B2053656D00000000200000003F53454D000000002000000075432F4F532D4949492053746174205461736B003F5461736B0000002000000075432F4F7A
:4062C000532D494949205469636B205461736B003F544D520000000075432F4F532D4949492054696D6572205461736B0000000034ACFF1F0C0000008000000000020000C2
:406300000000000000000000000000000000000000000000000000000000000034A8FF1F800000000002000064000000400600006C9FFF1F050000000A000000E49CFF1F61
:406340000C000000800000000002000040000000E80300000100000034AAFF1F0C00000080000000000200001100000088000000010000000A000000ACA5FF1F0C000000BA
:40638000800000000002000011000000880000005011000050726F62652052532D3233320000000050726F626520525332333200405100402000C0510040100000000140F9
:4063C000001000140140800400190140000300400140000A004C0140000200500140200080180140C802004880004300F8B500BFF8BC08BC9E4670474D0000005953000066
:40640000F8B500BFF8BC08BC9E4670472900000020640000C880FF1F70000000282D0000000000000100000000000000000000000000000000000000000000000000000004
:406440000000000000000000EA63000000000000000000000000000000000000000000000000000000000000000000000000000000000000000000000000000000000000CF
:406480000000000000000000D080FF1F000000000000000000000000000000000000000000000000000000000000000000000000000000000000000000000000000000006E
:4064C000000000000000000000000000000000000000000000000000000000000000000000000000000000000000000000000000000000000000000000000000000000009C
:40650000000000000000000000000000000000000000000000000000000000000000000000000000000000000000000000000000000000000000000000000000000000005B
:40654000000000000000000000000000000000000000000000000000000000000000000000000000000000000000000000000000000000000000000000000000000000001B
:4065800000000000000000000000000000000000000000000000000000000000000000000000000000000000000000000000000000000000000000000000000000000000DB
:020000040003F7
:0200000480007A
:400000000345004004520040036500400103014001090140010B0140010D014001150140101801403C1901406E1A01404D1B014003400140074101400242014002430140EE
:400040000248014005490140044C0140034D014004500140015101400A0217021B020040092034047C20883889728A0FE602974097408740E20D06020E021201180826018B
:40008000280430083202340436013E555418560458045B045F010120020103A00610070209220A100B010D010E0810801222131015201708180419A51A101B801D401E0411
:4000C0001F0620482206230A284029A02A012B203080310638683B014004410A480449805101521059015D0265406748695470947120731089028A049740C0AFC25FC46FC7
:40010000CA0FCC0BCE0FD007D20CD681D8B0001301020204032904E00513082009130AC00C130D100E0C10401220140A16141A151C031D011E141F0A20802220260828E04D
:400140002B0430103110330C34E03520360F37033A803E013F044053410146EC470B481C49FF4AFF4BFF4EF04F44500C54015604580459045A045B045F0166C06A406B02E5
:40018000800C827184DC86228708880989808AD08B138C108EAC9620970C992C9A039B43A171A30EA414A810AA40AD71AF06B130B30FB41FB5C0B6E0B922BA80BB08BF011F
:4001C000C001C704C9FFCA07CBFFCC40CD20CEF0CF05D008D608D804D904DA04DB04DD90DF01E040E1A8E240E32001A4038004010580072809940A800E080F2011101309B4
:400200001508160819A01A401B201C011E081F80210A22602504276829202D802F8030403240372839543B013E083F204220438047404980519452805510562857105910BB
:400240005A445B015C80610167016F06811182808304870289108B01915492049520970198809C40A50AA624A720AB02B480C0FFC26FC46ECA94CC68CE6FD01AD208D61F19
:40028000D811E80430103710CC305B04664084109C109F10D6C0E6409E409F149E409F149E409F14831486409E409F14E2B008026201C208D802AA01B402EA08100111017C
:4002C0001C011D01000F0000FF40000003060000F3020C0001060079000063699C0E4371040000008204000008200000006080000C7900069F7F20001007EC600F0E0010D6
:400300000080A80200000100240506000300E0C028FFFFFF62A0F0410C00000000000213040404040000000100000000000040020010301000101012000000000000000072
:40034000000000000000000000FFFF00C00000002000002000000000000000000400106F6B00200000000000800000FF7F000000000000000F00000F000000000000000055
:400380000400000400000000000000000000000000000000000000000000000000000000000000000000000000000000000000000000000000000000000000000000000035
:4003C00000000000000000000000000000000000000000000000000000000000000000000000000000000000000000000000000000000000000000000000000000000000FD
:4004000000000000000000000000000000000000000000000000000000000000000000000000000000000000000000000000000000000000000000000000000000000000BC
:40044000000000000000000000000000000000000000000000000000000000000000000000000000000000000000000000000000000000000000000000000000000000007C
:40048000000000000000000000000000000000000000000000000000000000000000000000000000000000000000000000000000000000000000000000000000000000003C
:0200000490006A
:0400000000004004B8
:0200000490105A
:04000000BC90ACAF55
:0200000490303A
:02000000612974
:0200000490402A
:4000000000000000000000000000000000000000000000000000000000000000000000000000000000000000000000000000000000000000000000000000000000000000C0
:400040000000000000000000000000000000000000000000000000000000000000000000000000000000000000000000000000000000000000000000000000000000000080
:400080000000000000000000000000000000000000000000000000000000000000000000000000000000000000000000000000000000000000000000000000000000000040
:4000C0000000000000000000000000000000000000000000000000000000000000000000000000000000000000000000000000000000000000000000000000000000000000
:0200000490501A
:0C00000000012E12006900012E3A6192EE
:00000001FF