:400000000080002011000000915E0000915E000080B500AF024A034B1B68136005F042FFBC760040FA46004010B5054C237833B9044B13B10448AFF300800123237010BDF3
:400040005881FF1F00000000788E0000084B10B51BB108490848AFF300800848036803B910BD074B002BFBD0BDE81040184700BF000000005C81FF1F788E0000C880FF1FD6
:400080000000000080B500AF05F0E8F84FF4165004F0B8FE04F026FE00BF80BD80B500AF002247F27521642004F0FCF9002000F0BDFC012000F0DAFC012000F00FFD06F01B
:4000C000C7FD00BF80BD00BF80B500AF002247F27521642004F0E6F9002000F0A7FC012000F0C4FC012000F0F9FC06F03FFF00BF80BD00BF80B500AF002247F27521C8201F
:4001000004F0D0F9002000F091FC012000F0AEFC012000F0C7FC06F05FFE00BF80BD00BF80B58CB00AAF194806F0D2FE184806F02DFF184806F07EFE00F0ECFC00F01CFE41
:40014000BB1D184601F016FABB1D089303230793002306930023059300230493802303930C2302930C4B01930223009300230B4A0B490C4803F006F8BB1D184601F038FCD8
:40018000002318460837BD4680BD00BF9D000000C9000000F50000003482FF1FA90100007C8E00007481FF1F80B586B002AF786000F0D0FC00F0D4FC07F10E03184602F0C1
:4001C0006FFD00F017F800F04FFAFFF75BFF012000F0E6FC012000F02BFD07F10E03019300230093642300220021002004F0CCF9F0E700BF80B58CB00AAFBB1D0893032390
:400200000793002306930023059300230493802303930C230293374B0193022300930023354A3649364802F0ADFFBB1D0893032307930023069300230593002304938023E4
:4002400003930C2302932F4B01930223009300232D4A2E492E4802F095FFBB1D089303230793002306930023059300230493802303930C230293274B01930223009300230F
:40028000254A2649264802F07DFFBB1D089303230793002306930023059300230493802303930C2302931F4B01930223009300231D4A1E491A4802F065FFBB1D089303232B
:4002C0000793002306930023059300230493802303930C230293164B0193022300930023144A1549154802F04DFF00BF0837BD4680BD00BFB487FF1F41030000848E000063
:40030000F486FF1F748AFF1FB9030000908E0000B489FF1F348DFF1FD50300009C8E0000748CFF1FF48FFF1F09040000AC8E0000B492FF1F75060000BC8E0000F491FF1F21
:4003400080B582B000AF786006F092FC0346002B0ED1164B1B78002B0AD1154B1B78002B06D1144B1B78002B02D1012000F05EFB06F002FD0346002B02D1002000F056FBD2
:4003800006F00AFD0346002BDED1084B1B78002BDAD1074B1B78002BD6D1064B1B78002BD2D1002000F062FBCEE700BFB594FF1FCC80FF1FB694FF1F80B582B000AF7860F0
:4003C00006F0FAFC0346002BFAD0002000F06AFBF6E700BF80B582B000AF7860084B1B78002B09D0012006F007FD002006F01CFE044B01221A70F1E7002006F0FDFCEDE7E8
:40040000B694FF1FCC80FF1F90B589B000AF78602823FB772823BB770023BB8300237B834FF000037B614FF000033B6106F0D8FE06F0EEFE002006F0F1FE002006F004FF61
:400440000346BB83012006F0FFFE03467B83BB8B184607F097FE03460C461A46234674A1D1E9000108F01EF803460C46184621464FF00002784B07F037FD03460C461846A0
:40048000214608F095F903467B617B8B184607F079FE03460C461A46234665A1D1E9000108F000F803460C46184621464FF00002694B07F019FD03460C461846214608F089
:4004C00077F903463B616549786908F0CFFA03467B616249386908F0C9FA03463B61786907F062FE54A3D3E9002307F0DBFF03460C461846214607F075FA51A3D3E90023CE
:4005000007F0D0FF03460C46184621464EA3D3E9002307F0EBFC03460C461A4623464FF000004D4907F0BEFF03460C461846214647A3D3E9002307F0D7FC03460C4618460E
:40054000214608F035F90246454B1A60386907F02BFE39A3D3E9002307F0A4FF03460C461846214607F03EFA35A3D3E9002307F099FF03460C461846214633A3D3E900239C
:4005800007F0B4FC03460C461A4623464FF00000314907F087FF03460C46184621462CA3D3E9002307F0A0FC03460C461846214608F0FEF802462B4B1A6007F10E031A466A
:4005C0000021642003F06EFF06F0ECFF0346002B0BD007F10E031A460021642003F062FF0A23FB770A23BB7703E02823FB772823BB77FB7F184608F0E5F90246184B1B686D
:400600001946104608F0D0FB0346002B02D1BB7F002B06D0012000F061FA012000F026FA02E0002000F05AFA04E700BFAFF300800000000000FEAF4000000000006AF84082
:400640000000000000B3B04083DBB5DCE1796B3F66666666661271400000F03F0050C347B894FF1FBC94FF1F80B400AF00BFBD4680BC704780B58EB004AF786005F022FD18
:400680000021002005F030FDAE4805F065FD0021012005F029FDAB4805F05EFDAA4805F05BFD002387F82730002387F82630002387F82330002387F82530002387F82230DA
:4006C000002387F8243097F8272097F826309A4211D00021002005F007FD9A4805F03CFD0021012005F000FD964805F035FD97F8273087F8263097F82730022B76D0032BC7
:4007000000F0DE80012B40F03D8107F108038F49184600F059FC07F11A03184601F0A8F90346FB61FB698A4AA2FB03239B09DBB23033DBB2FB74FA69854BA3FB02139B0914
:400740004FF47A7101FB03F3D31A824AA2FB03235B09DBB23033DBB27B75FA697D4BA3FB02135B09642101FB03F3D31A7A4AA2FB0323DB08DBB23033DBB2BB75F969764B2C
:40078000A3FB0123DA0813469B0013445B00CA1AD3B23033DBB2FB750021002005F0A4FC07F10803184605F0D7FC07F108036B49184600F009FC6A4B1B68FB6107F1080386
:4007C0000C330293012301930023009300230A220421F86900F052FC0021012005F084FC07F10803184605F0B7FCDAE007F108035C49184600F0E8FB5B4B1B88FB61FB6948
:40080000554AA2FB0323DB08DBB23033DBB2BB74F969514BA3FB0123DA0813469B0013445B00CA1AD3B23033DBB2FB740021002005F05AFC07F10803184605F08DFC07F154
:4008400008034A49184600F0BFFB00F09FF9F861FB69474AA2FB03239B0CFB61FB693D4AA2FB03235B09DBB23033DBB2BB74FA69384BA3FB02135B09642101FB03F3D31A17
:40088000354AA2FB0323DB08DBB23033DBB2FB74F969314BA3FB0123DA0813469B0013445B00CA1AD3B23033DBB23B750021012005F01AFC07F10803184605F04DFC70E0BA
:4008C00007F108032B49184600F07EFB2A4B1B68FB6107F1080308330293012301930023009300230A220821F86900F0C7FB0021002005F0F9FB07F10803184605F02CFCF2
:4009000007F108031D49184600F05EFB1C4B1B68FB6107F1080308330293012301930023009300230A220821F86900F0A7FB0021012005F0D9FB07F10803184605F00CFC4C
:400940002FE000BFCC8E0000108F0000248F0000D34D62101F85EB51CDCCCCCC388F00001C9200004C8F0000689DFF1F608F000083DE1B43748F0000149FFF1F888F00004E
:40098000649DFF1F0021002005F0AEFB254805F0E3FB0021012005F0A7FB234805F0DCFB00BF022000F08EF9034687F82330032000F088F9034687F8223097F82330012BBA
:4009C0000BD197F82530002B07D197F827300133DBB203F0030387F8273097F82230012B0BD197F82430002B07D197F82730013BDBB203F0030387F8273007F11A030193C8
:400A000000230093642300220021002003F0BCFD97F8233087F8253097F8223087F8243051E600BF9C8F0000B08F000080B582B000AF0346FB71FB79002B09D0012006F046
:400A4000F3FA012006F022F9002006F03BF908E0002006F0E9FA002006F018F9012006F031F900BF0837BD4680BD00BF80B582B000AF0346FB71FB79002B06D0012006F070
:400A80003FF9074B01221A7005E0002006F038F9034B00221A7000BF0837BD4680BD00BFCC80FF1F80B582B000AF0346FB71FB79002B06D0012006F041F9074B01221A70E2
:400AC00005E0002006F03AF9034B00221A7000BF0837BD4680BD00BFB594FF1F80B582B000AF0346FB71FB79002B06D0012006F083F9074B01221A7005E0002006F07CF928
:400B0000034B00221A7000BF0837BD4680BD00BFB694FF1F80B483B000AF0B4B1B687B607B6823F000537B607B683B603B683833064A1A603B683C33054A1A6000BF0C3735
:400B4000BD4680BC704700BF08ED00E0177600005579000080B400AF00BFBD4680BC704780B582B000AF00F011F87860064B1B687A68B2FBF3F33B60386806F009FF00BFD0
:400B80000837BD4680BD00BF1C92000080B400AF024B1846BD4680BC704700BF0087930380B582B000AF0346FB71FB79042B37D801A252F823F000BFCD0B0000E90B0000E1
:400BC000E90B0000E90B0000050C000005F02AFA0346DAB2154B1A70144B1B7823F00303184605F00FFA1CE005F01CFA0346DAB20E4B1A700D4B1B7823F00103184605F0A9
:400C000001FA0EE005F00EFA0346DAB2074B1A70064B1B7823F00203184605F0F3F900E000BF00BF0837BD4680BD00BFE19BFF1F80B582B000AF0346FB71FB79042B3AD82C
:400C400001A252F823F000BF5D0C00007B0C00007B0C00007B0C0000990C000005F0E2F90346DAB2164B1A70154B1B7883F00303DBB2184605F0C6F91EE005F0D3F903466F
:400C8000DAB20F4B1A700E4B1B7883F00103DBB2184605F0B7F90FE005F0C4F90346DAB2074B1A70064B1B7883F00203DBB2184605F0A8F900E000BF00BF0837BD4680BDC5
:400CC000E19BFF1F80B584B000AF0346FB710023FB73FB79022B02D0032B0ED01BE005F07DFF0346BB73BB7B03F00103002B01D1012300E00023FB730DE005F07FFF034632
:400D0000BB73BB7B03F00103002B01D1012300E00023FB7300BFFB7B18461037BD4680BD80B582B000AFFFF731FF7860094A094B1B6843F080731360074A074B1B6843F07C
:400D400001031360786800F035F800BF0837BD4680BD00BFFCED00E0001000E080B483B000AF044B1B687B607B6818460C37BD4680BC7047041000E080B500AF00F02EF81E
:400D800000F026F800BF80BD80B582B000AF00237B6005F021F978601021054800F040F8786805F01DF900BF0837BD4680BD00BFE89BFF1F80B483B000AF7860034A7B68E1
:400DC000136000BF0C37BD4680BC7047E49BFF1F80B500AFFFF7D8FF00BF80BD80B500AF034B00221A60FFF79BFF00BF80BD00BFE49BFF1F80B485B000AF0346FB71FB7947
:400E00001F2B04D9FB797E2B01D8012300E00023FB73FB7B18461437BD4680BC704700BF80B582B000AF786039603A680021786800F004F800BF0837BD4680BD80B48BB069
:400E400000AFF8600B467A60FB7200233B6200237B6109E03B6A1B023B62FB7A3A6A13433B627B6901337B617B69032BF2D97B687B62FB6803F003033B61FB68BB613B6914
:400E8000002B13D03B697B610AE0BB695A1CBA61FA7A1A707B6A013B7B627B6901337B617B6A002B02D07B69032BEED9BB69FB6107E0FB691A1DFA613A6A1A607B6A043BBB
:400EC0007B627B6A032BF4D8FB69BB6107E0BB695A1CBA61FA7A1A707B6A013B7B627B6A002BF4D100BF2C37BD4680BC704700BF80B48FB000AFF860B9607A607B687B6344
:400F0000FB68BB62BB687B627A6ABB6AD31AFB61FB69032B4FD9BB6A03F00303BB617B6A03F003037B61BA697B699A4201D1012300E00023FB74FB7C012B3CD1BB69002BE7
:400F400016D0BB693B620DE0BB6A5A1CBA627A6A511C796212781A707B6B013B7B633B6A01333B627B6B002B02D03B6A032BEBD9BB6A3B637B6AFB620AE03B6B1A1D3A638D
:400F8000FA6A111DF96212681A607B6B043B7B637B6B032BF1D83B6BBB62FB6A7B620AE0BB6A5A1CBA627A6A511C796212781A707B6B013B7B637B6B002BF1D100BF3C3785
:400FC000BD4680BC704700BF80B584B000AF786039604FF0FF323968786800F007F8F860FB6818461037BD4680BD00BF80B489B000AFF860B9607A60FB68002B01D100238A
:4010000036E0BB68002B01D1002331E0FB68FB61BB68BB6100237B610CE0BB691A78FB691A70FB690133FB61BB690133BB617B6901337B61FB69002B0AD0BB69002B07D0CE
:40104000BB691B78002B03D07A697B689A42E4D3FB69002B02D0BB69002B01D1002307E07A697B689A4202D2FB6900221A70FB6818462437BD4680BC704700BF80B588B012
:4010800004AF7860084611461A460346FB700B46BB7013467B70BA78F9783B6A03933B7F02933B7E01937B7800930023786800F007F8F860FB6818461037BD4680BD00BFDB
:4010C00080B58AB000AF7860084611461A460346FB700B46BB7013467B70FB6B002B01D1002322E10023BB74FB78002B01D10123BB74BB78012B02D9BB78242B01D9012329
:40110000BB7497F83030002B3CD097F830301846FFF770FE03463B743B7C012B02D00123BB742FE097F83030302B2BD097F83030303BFB7397F83430012B04D097F83030AB
:40114000413B3B7503E097F83030613B3B75BB780A2B03D8FA7BBB789A420AD3BB780A2B09D9FB7B092B04D93A7DBB780A3B9A4201D2012300E00023BB73BB7B012B01D149
:401180000123BB74FB6B7B62BB7C002B4CD17B68FB617B68BB610123FB7507E0FB7D0133FB75BB78BA69B2FBF3F3BB61BA78BB699A42F3D97B78012B01D1012300E000232A
:4011C0007B73FA78F97D7B7B0B449A422ADB00237B74FA78FB7D934228BF13463B7397F83030002B09D0FB78BB75FA783B7BD31ADAB27B7BD31A7B7505E03A7B7B7B134443
:40120000BB7500237B757B7D002B08D097F83030302B01D1012300E00023FB7404E00023FB7401E00123BB74BB7C002B01D0FB78BB75BB7D7A6A13447B6297F83830002BCC
:4012400002D07B6A00221A707B6A013B7B6200233B6260E0BB7C002B55D1FB69002B02D13B6A002B2BD1BA78FB69B3FBF2F102FB01F29B1AFB72FB7A092B07D87B6A5A1E39
:401280007A62FA7A3032D2B21A7012E097F83430012B07D07B6A5A1E7A62FA7A3732D2B21A7006E07B6A5A1E7A62FA7A5732D2B21A70BB78FA69B2FBF3F3FB6128E07B78B8
:4012C000012B15D1FB7C002B02D17B7C002B07D0FB7C002B0CD0BB7D5A1E3B6A9A4207D17B6A5A1E7A622D221A7001237B740FE097F83030002B0BD07B6A5A1E7A6297F816
:4013000030201A7004E07B6A5A1E7A623F221A703B6A01333B62BA7D3B6A9A429AD8BB7C002B01D0002300E0FB6B18462837BD4680BD00BF80B485B000AF484BFB60484B3A
:40134000BB60484BFB60484BFB60484BBB60484BFB60484B7B60484BFB60484BFB60484BFB60484BFB60484B7B60484B7B60484BFB60484B7B60484BFB60484B7B60484B8D
:40138000FB60484B7B60484B7B60484B7B60484B7B60484BFB60484BFB60484BFB60484B7B60484BFB60484BFB60484B7B60484B7B60484B7B60484B7B60484B7B60484B4D
:4013C0007B60484B7B60484BFB60484BFB60484BFB60484BFB60484B7B60484B7B60484B7B60484BFB60484BFB60484BFB60484B7B60484B7B60484B7B60484BBB60484B4D
:401400007B60484BFB60484BFB60484BFB60484BFB60484BFB60484BFB60484BFB60484B7B60484BFB60484BFB60484B7B60484B7B60484BFB60484BFB60484B7B60484B4C
:40144000FB60484BFB60484B7B60484B7B60484B7B6000BF1437BD4680BC7047C48F00002C910000C58F0000C68F0000C88F0000CC8F0000D08F0000CD8F0000F88F00002C
:40148000F98F0000FA8F0000FC8F0000FE8F000002900000049000002490000026900000289000002A9000002C9000002E900000309000005C9000005D9000005E90000000
:4014C0006090000062900000639000006490000066900000689000006A9000006C9000006E90000070900000A0900000A1900000A2900000A3900000A4900000A690000011
:40150000A8900000D0900000D1900000D2900000D3900000D4900000D6900000D8900000DC900000DD900000DE900000DF900000E0900000E1900000E2900000E39000003F
:40154000E4900000E6900000E7900000E8900000EA900000EC900000ED900000F0900000249100002591000026910000289100002A91000080B584B000AF786006F08EF89D
:40158000614B00221A70614B00221A70604B00221A70604B00221A605F4B00221A605F4B00221A705E4B00221A705E4B00221A705D4B00221A705D4B1B685D4AA2FB0323AE
:4015C000DB085C4A13605C4B1B68002B15D05B4B1B68FB60FB68002B0FD0574B1B68BB6008E0BB68013BBB60FB6800221A60FB680433FB60BB68002BF3D1514B00221A60E4
:40160000504B00221A60504B00221A604F4B00221A604F4B00221A604E4B00221A604E4B00221A604D4B00221A7001F00BF800F009FD786800F00AFF7B681B88002B4AD193
:40164000786800F019FF7B681B88002B45D1786800F028FF7B681B88002B40D1786800F0DBFF7B681B88002B3BD1786801F074F87B681B88002B36D1786801F0FDF97B68FC
:401680001B88002B31D1786802F06AF97B681B88002B2CD1786800F017FA7B681B88002B27D1786802F022FC7B681B88002B22D1786801F0FDFC7B681B88002B1DD1786810
:4016C00003F09CF87B681B88002B18D1FFF732FE03F0D8FA14E000BF12E000BF10E000BF0EE000BF0CE000BF0AE000BF08E000BF06E000BF04E000BF02E000BF00E000BF9B
:401700001037BD4680BD00BF6A9DFF1F0D9CFF1FFC9BFF1F449DFF1F509DFF1F7C9CFF1F709CFF1F4C9DFF1F08A0FF1F1C920000CDCCCCCC089FFF1FEC910000E8910000F1
:40174000789CFF1F5C9DFF1F009CFF1F0C9FFF1F289FFF1F189FFF1F609DFF1F0C9CFF1F80B582B000AF00237B602C4B1B78012B50D104F031FC7860294B1B78002B03D198
:40178000786804F02DFC46E0254B1B78013BDAB2234B1A70224B1B78002B03D0786804F01FFC38E01F4B1B78002B03D0786804F017FC30E000F05EFF03461A461A4B1A7067
:4017C000194B1B781946194A0B465B000B449B0013441B68164A1360154B1A68154B1B689A4203D1786804F0FBFB14E0104B1B68D3F890200132C3F890200F4B1B680133B2
:401800000D4A13600D4B4FF080521A60786804F0E7FB00E000BF0837BD4680BD0D9CFF1F6A9DFF1FFC9BFF1F709CFF1F109CFF1F509DFF1F449DFF1F649DFF1F04ED00E098
:4018400080B582B000AF00237B60204B1B78002B36D11F4B1B78002B34D104F0BDFB786000F008FF03461A461A4B1A70194B1B781946194A0B465B000B449B0013441B68BB
:40188000164A1360154B1A68154B1B689A4203D1786804F0A5FB16E0104B1B68D3F890200132C3F890200F4B1B6801330D4A13600D4B4FF080521A60786804F091FB02E07F
:4018C00000BF00E000BF0837BD4680BD6A9DFF1FFC9BFF1F709CFF1F109CFF1F509DFF1F449DFF1F649DFF1F04ED00E080B584B000AF78600023FB60164B1B78002B04D0E2
:401900007B6846F662521A8020E0134B1B78012B04D07B6845F689621A8017E00F4B1B78F92B04D97B6845F209221A800EE004F053FBF860094B1B780133DAB2074B1A70D7
:40194000F86804F04DFB7B6800221A801037BD4680BD00BF6A9DFF1F0D9CFF1FFC9BFF1F80B584B000AF78600023FB601D4B1B78002B04D07B6846F665521A802EE01A4BFA
:401980001B78012B04D07B6845F689621A8025E0164B1B78002B04D17B6846F664521A801CE004F019FBF860104B1B78013BDAB20E4B1A700D4B1B78002B07D0F86804F053
:4019C0000FFB7B6846F663521A8007E0F86804F007FBFFF735FF7B6800221A801037BD4680BD00BF6A9DFF1F0D9CFF1FFC9BFF1F80B582B000AF7860174B1B78002B23D180
:401A000000F038FE03461A46144B1A70134B1A78134B1A70114B1B781946124A0B465B000B449B0013441B680F4A13600E4B1B680E4A1360084B01221A7005F0D5FD7B68DF
:401A400043F699221A8003E07B6845F68A621A8000BF0837BD4680BD0D9CFF1F709CFF1F7C9CFF1F109CFF1F509DFF1F449DFF1F80B483B000AF78607B6800221A8047F252
:401A80005D6318460C37BD4680BC704780B584B000AF78600023FB6004F09EFAF860084B1B680133064A1360064B1B680133054A1360F86804F094FA05F0E2FDECE700BF9E
:401AC000209FFF1F089CFF1F80B58CB00AAF7860104B00221A60104B1B68104A126810490968786808900B2007900020069000200590002004900391029201930723009300
:401B00000023084A0849094801F03CFB00BF0837BD4680BD209FFF1FBC910000C0910000C49100008D1A0000309100003C9EFF1F80B586B000AFF860B9603B601346FB710D
:401B40001B4B1B68FA7983F83420194B1B68002283F83520164B1B683968184600F038FCBB68002B11D0BB6808337B61FB68BA68DA600F4B1B680122F968184600F01AF871
:401B8000F968786900F0BEF807E0094B1B680022DA87074B1B6800221A63054B1B681946B86800F03BF800BF1837BD4680BD00BF449DFF1F80B487B000AFF860B960134623
:401BC000FB80FB68FA88DA87FB68BA681A630023FB821AE0BB6800225A60BB6800221A60BB6800221A61BB6800225A61BB6800221A83BB680022DA61BB68FA689A60BB6806
:401C00002033BB60FB8A0133FB82FA8AFB889A42E0D300BF1C37BD4680BC704780B487B000AF786039607B68002B12D07B685A683B68C3F8BC207B6808337B617B691B68A7
:401C40003B613B699B68FB60FB681A6A7B68DA6116E03B6893F83430022B02D0072B05D009E03B68094AC3F8BC2009E03B68084AC3F8BC2004E03B68064AC3F8BC2000BF1B
:401C800000BF1C37BD4680BC704700BF449100004C9100005891000080B487B000AF786039603B680D4AC3F8BC207B6808337B617B691B683B613B69002B07D03B699B685C
:401CC000FB60FB681A6A7B68DA6102E07B68034ADA6100BF1C37BD4680BC70475891000080B483B000AF78607B6800221A607B6800225A607B6800221A8100BF0C37BD4675
:401D000080BC704780B489B000AF786039603B689B68BB61BB6993F83730FB757B681B89002B0FD17B6801221A813B6800225A603B6800221A607B683A681A607B683A6866
:401D40005A604DE07B681B8901339AB27B681A817B681B68FB610BE0FB699B683B613B6993F83730FA7D9A4206D3FB695B68FB61FB69002BF0D100E000BFFB69002B0FD1A4
:401D80003B6800225A607B685B68FB603B68FA681A60FB683A685A607B683A685A601FE0FB691B68002B0CD1FB693A681A603B6800221A603B68FA695A607B683A681A60BA
:401DC0000EE0FB691B68FB603B68FA681A603B68FA695A60FB683A685A60FB693A681A6000BF2437BD4680BC704700BF80B586B000AF78607B681B6B3B617B68DB8FFB82A5
:401E00000FE03B69DB68FB60FB680833BB603969B86800F013F83B6920333B61FB8A013BFB82FB8A002BECD17B680022DA877B6800221A6300BF1837BD4680BD80B485B01E
:401E400000AF786039607B681B89012B06D17B6800221A607B6800225A6027E03B681B68002B09D13B685B68FB60FB6800221A607B68FA681A6019E03B685B68002B09D165
:401E80003B681B68BB60BB6800225A607B68BA685A600BE03B681B68BB603B685B68FB60BB68FA685A60FB68BA681A607B681B89013B9AB27B681A813B6800225A603B6849
:401EC00000221A6000BF1437BD4680BC704700BF80B586B002AFF860B9607A607B80BB6893F83630072B79D801A252F823F000BFDD1F0000DD1F0000111F0000111F000077
:401F0000DD1F0000DD1F0000771F0000771F0000BB6893F83430032B09D17A88BB69009313467A68B968F86800F05EF809E0BB687A68DA65BB687A88A3F86020BB68BA69F5
:401F40001A64FB68002B06D0B868FFF74FFFB968F868FFF7A1FEB86800F062FABB68002283F83620BB68002283F83520BB68002283F8342033E0BB6893F83430032B09D12D
:401F80007A88BB69009313467A68B968F86800F02BF809E0BB687A68DA65BB687A88A3F86020BB68BA691A64B86802F019F9FB68002B06D0B868FFF719FFB968F868FFF73B
:401FC0006BFEBB68042283F83620BB68002283F83520BB68002283F8342000E000BF00BF1037BD4680BD00BF80B487B000AFF860B9607A607B80BB681B6B3B61BB68DB8F5F
:40200000FB8217E03B69DA68FB689A420CD13B69FA681A613B697A685A613B697A881A833B693A6ADA6108E03B6920333B61FB8A013BFB82FB8A002BE4D100BF1C37BD466F
:4020400080BC704780B483B000AF0023FB7113E0FA7913465B0013449B000B4A13443B603B6800221A813B6800221A603B6800225A60FB790133FB71FB79072BE8D900BF1D
:402080000C37BD4680BC7047109CFF1F80B582B000AF78607B6893F83730184600F00EFB7B6893F83720074B1B789A4203D1786800F04AF802E0786800F006F800BF0837E9
:4020C000BD4680BD7C9CFF1F80B485B000AF78607B6893F837301A4613465B0013449B00184A1344FB60FB681B89002B0FD1FB6801221A817B680022DA607B6800221A6199
:40210000FB687A681A60FB687A685A6015E0FB681B8901339AB2FB681A81FB681A687B68DA607B6800221A61FB681B68BB60BB687A681A61FB687A681A6000BF1437BD4698
:4021400080BC7047109CFF1F80B485B000AF78607B6893F837301A4613465B0013449B00184A1344FB60FB681B89002B0FD1FB6801221A817B680022DA607B6800221A61D1
:40218000FB687A681A60FB687A685A6014E0FB681B8901339AB2FB681A817B680022DA60FB685B68BB607B68BA681A61BB687A68DA60FB687A685A6000BF1437BD4680BC61
:4021C000704700BF109CFF1F80B487B000AF78607B681B89002B1CDB012B36DD022B18D17B681B687B617B685B683B617B693A691A617B690022DA603B6900221A613B6904
:402200007A69DA607B683A691A607B687A695A601CE07B681B687B617B685B683B617B69DB68FB60FB6800221A617B690022DA607B693A691A613B697A69DA607B68FA68B7
:402240001A607B687A695A6000E000BF00BF1C37BD4680BC704700BF80B586B000AF78607B6893F837301A4613465B0013449B00244A13447B617B681B693B617B68DB6867
:40228000FB603B69002B1FD1FB68002B0FD17B6900221A817B6900221A607B6900225A607B6893F83730184600F02EFA1FE07B691B89013B9AB27B691A81FB6800221A61DC
:4022C0007B69FA681A6012E07B691B89013B9AB27B691A813B69FA68DA60FB68002B03D17B693A695A6002E0FB683A691A617B6800221A617B680022DA6000BF1837BD4687
:4023000080BD00BF109CFF1F80B584B000AF78600023FB602A4B1B78012B4CD103F05CFEF8607B681B68BB60BB68002B03D1F86803F056FE40E0BB68224A934203D1F86871
:4023400003F04EFE38E0BB689B6D002B04D0BB689B6D5A1EBB689A65BB689B6D002B03D0F86803F03DFE27E07B681B89012B03D8F86803F035FE1FE0134B1B78002B03D057
:40238000F86803F02DFE17E07868FFF71DFF7B681B68BB60BB685B6D002B04D10B4B1A68BB689A6503E0BB685A6DBB689A65F86803F016FE00E000BF1037BD4680BD00BF15
:4023C00008A0FF1F3C9EFF1FFC9BFF1F089FFF1F80B584B000AF786039603B68002B13D007F10E0302223968786801F001FEFB89002B04D17B68032283F8362008E07B68A5
:40240000022283F8362003E07B68022283F836207868FFF721FF00BF1037BD4680BD00BF80B582B000AF7860786801F0D9FE7B6893F8363003F00403002B02D17868FFF7B9
:4024400025FE00BF0837BD4680BD00BF80B483B000AF7860064B00221A60064B00221A807B6800221A8000BF0C37BD4680BC7047309FFF1F2C9FFF1F80B483B000AF7860F9
:40248000064B00221A60064B00221A807B6800221A8000BF0C37BD4680BC7047049FFF1F369FFF1F80B487B000AF78602D4B1B68002B04D17B6845F21E721A804EE02A4B03
:4024C0001B88002B04D17B6845F21D721A8045E0244B1B687B61234B1B683B613B6910333B61214B1B88013BBB810023FB8114E07B693A691A607B6900225A607B69002212
:402500001A817B690022DA607B6910337B613B6910333B61FB890133FB81FA89BB899A42E6D37B6900221A607B6900225A607B6900221A817B690022DA600A4B1B680B4A5C
:402540001360094B1A88094B9A80084B0022DA80064B00221A817B6800221A801C37BD4680BC7047FC910000F4910000309EFF1F80B485B000AF78607B685B89FB817B68AB
:402580005B89002B26D07B681B68BB60144B1A68BB681A607B685B68114A1360104BDA887B685B89D31A9AB20D4BDA800C4B9A887B685B8913449AB2094B9A807B680022DE
:4025C0005A817B6800229A817B6800221A607B6800225A60FB8918461437BD4680BC7047309EFF1F80B483B000AF78600B467B807B687A881A817B6800225A817B680022F4
:402600009A817B6800221A607B6800225A6000BF0C37BD4680BC704780B483B000AF7860064B00221A60064B00221A807B6800221A8000BF0C37BD4680BC70470CA0FF1F00
:40264000389FFF1F80B483B000AF00237B6007E0074A7B68002142F823107B6801337B607B68002BF4D000BF0C37BD4680BC7047F89BFF1F80B582B000AF0023FB700E4B3E
:402680007B6005E0FB782033FB707B6804337B607B681B68002BF5D07B681B68184603F0A6FC0346DAB2FB781344FB70FB7818460837BD4680BD00BFF89BFF1F80B487B050
:4026C00000AF0346FB71FB795B09FB75FB7903F01F033B610123FB603B69C3F11F03FA6802FA03F3FB60FB7DFA7D064951F82210FA680A43034941F8232000BF1C37BD461C
:4027000080BC7047F89BFF1F80B487B000AF0346FB71FB795B09FB75FB7903F01F033B610123FB603B69C3F11F03FA6802FA03F3FB60FB7DFA7D074951F82210FA68D243E0
:402740000A40044941F8232000BF1C37BD4680BC704700BFF89BFF1F80B483B000AF7860064B00221A60064B00221A807B6800221A8000BF0C37BD4680BC7047FC9EFF1F97
:40278000489DFF1F80B586B000AFF860B9607A603B6000237B611B4B1B78002B04D03B6842F6E1621A802AE0FB68002B04D13B6845F6C3521A8022E003F00EFC7861FB6832
:4027C000114A1A60FB687A681A62FB6800225A62FB68BA685A60FB6808331846FFF780FAF86800F023F9094B1B8801339AB2074B1A80786903F0F4FB3B6800221A80183717
:40280000BD4680BD6A9DFF1F53454D41009FFF1F80B58EB000AFF860B9603B601346FB8000237B63634B1B78002B05D03B6C46F2AE121A800023B8E0FB68002B05D13B6C0D
:4028400045F6C3521A800023AFE0FB88002B08D0B3F5004F05D03B6C45F625621A800023A3E000BF3B68002B02D03B6800221A6003F0B2FB7863FB681B6A002B16D0FB684C
:402880001B6A5A1EFB681A623B68002B03D0FB685A6A3B681A60FB681B6A3B63786B03F09FFB3B6C00221A803B6B7EE0B7F90630002B0BDAFB681B6A3B63786B03F090FB1D
:4028C0003B6C46F2B0121A803B6B6EE03A4B1B78002B08D0786B03F083FB3B6C46F663521A80002361E007F11000BB680622F968FFF71EF9786B03F073FBFEF7A1FF03F017
:402900006BFB78632D4B1B6893F83530032B3CD801A252F823F000BF2929000041290000712900005B2900003B68002B04D0234B1B681A6C3B681A603B6C00221A802DE0EA
:402940003B68002B04D01D4B1B681A6C3B681A603B6C46F2A9121A8020E03B68002B02D03B6800221A603B6C47F2D9221A8015E03B68002B04D0114B1B681A6C3B681A6086
:402980003B6C45F6C2521A8008E03B6C46F62E621A80786B03F024FB002306E0FB681B6A3B63786B03F01CFB3B6B18463837BD4680BD00BF6A9DFF1FFC9BFF1F449DFF1FD6
:4029C00080B586B000AFF8600B467A607B81FB68002B05D17B6845F6C3521A80002321E07B89B3F5007F11D0B3F5007F02DC002B0CD005E0B3F5004F08D0B3F5024F05D04F
:402A00007B6845F625621A8000230BE000BFFEF7A5F9786179897B687A69F86800F042F838613B6918461837BD4680BD80B483B000AF78607B680E4ADA617B6800225A617E
:402A40000C4B1B68002B03D17B6800229A6107E0084B1A687B689A61064B1B687A685A61044A7B68136000BF0C37BD4680BC704764910000749CFF1F80B483B000AF7860C5
:402A8000064B00221A60064B00221A807B6800221A8000BF0C37BD4680BC7047749CFF1F009FFF1F80B58EB002AFF8607A603B600B467B8100237B6203F08EFA7862FB68A4
:402AC00008333B623B6A1B89002B21D1FB681B6AB3F1FF3F08D1786A03F082FA3B6846F6C5521A80002348E000BFFB681B6A5A1CFB681A62FB681B6A7B61FB687A685A6208
:402B0000786A03F06DFA3B6800221A807B6934E07B8903F40073002B03D03B6A1B89FB8501E00123FB853B6A1B68BB6212E0BB6A9B68FB61BB6A5B68BB617B6800930023F0
:402B40000022F969F868FFF7C3F9BB69BB62FB8D013BFB85FB8D002BE9D1FB681B6A7B61786A03F03DFAB7F90A30002B01DBFEF767FE3B6800221A807B6918463037BD46A7
:402B800080BD00BF80B586B000AF78600023FB6003F022FAF8603B4B00221A803A4B00221A603A4B00221A60394B00221A60394B00221A81F86803F013FA03F00DFAF860AB
:402BC000354B1B687B61F86803F00AFA30E003F003FAF8607B6900229A677B690022C3F8A8207B690022C3F890207B690022A3F88C207B690022A3F88E207B690022C3F8E9
:402C00009C207B690022C3F8A020FEF7A7F802467B69C3F898207B696433BB60BB6800229A817B69D3F8B8307B61F86803F0D8F97B69002BCBD103F0CFF9F860174B1B68F4
:402C40003B61F86803F0CCF90EE003F0C5F9F8603B692033BB60BB6800229A813B699B693B61F86803F0BCF93B69002BEDD101F0FDFA01F017FF7B6800221A8000BF1837C2
:402C8000BD4680BD4A9DFF1F049CFF1F00A0FF1F589DFF1F309EFF1F549DFF1FFC9EFF1F80B586B000AF786000233B6107F10E031946324800F0CAFDFB89002B03D0FA893E
:402CC0007B681A8056E007F10E031A460021022001F0E8FBFB89002B03D0FA897B681A8048E003F079F93861254B00221A60386903F076F900237B61224B1A68224B1B680C
:402D00009A4206D91F4B1A681F4B1B68B2FBF3F37B617B69002B06D11A4B1B681B4AA2FB0323DB087B6107F10E031A460021786901F0B8FB07F10E031946104800F0C8FB59
:402D4000FB89002B03D0FA897B681A8012E003F043F938610E4B00221A60094B1B680D4A13600D4B01221A70386903F039F97B6800221A801837BD4680BD00BF709DFF1F9E
:402D8000089CFF1F1C92000004920000CDCCCCCC049CFF1F109FFF1F719CFF1F80B590B000AF78600023BB6108E0844B1B685B0007F10A020021184601F074FB804B1B7815
:402DC000012BF2D107F10A031846FFF7DBFE0023FB617C4B1A68794B1B689A4206D9794B1A68764B1B68B2FBF3F3FB61FB69002B06D1744B1B68744AA2FB0323DB08FB6107
:402E0000FDF7ACFF786103F0E7F8B8616F4B1B686F4A13606D4B00221A60B86903F0E0F86C4B1A686A4B1B689A424FD9694B1B68694A934205D842F210737B6201233B6220
:402E400024E0644B1B68654A934205D84FF47A737B620A233B6219E05E4B1B68604A934204D864237B6264233B620FE0594B1B685C4A934205D80A237B624FF47A733B6297
:402E800004E001237B6242F210733B62514B1A683B6AB2FBF3F33B614D4B1B687A6A02FB03F23B69B2FBF3F39BB2C3F51C5310339AB24D4B1A804D4B1A884B4B1B889A423B
:402EC00008D2494B1A88494B1A8003E0464B42F210721A8004F014FC0023BB6303F07CF8B861434B1B68BB62B86903F079F81FE003F072F8B861BB6AD3F89C20BB6AC3F857
:402F0000A020BB6A0022C3F89C20B86903F068F8BB6AD3F8A030BA6B1344BB6303F05CF8B861BB6AD3F8B830BB62B86903F058F8BB6A002BDCD1BB6B002B31D0BB6B264AA7
:402F4000934205D842F210733B6301237B6321E0BB6B224A934205D84FF47A733B630A237B6317E0BB6B1E4A934204D864233B6364237B630EE0BB6B1A4A934205D80A2313
:402F80003B634FF47A737B6304E001233B6342F210737B63BA6B7B6BB2FBF3F3FB6203E000233B630123FB6203F016F8B861104B1B68BB62B86903F013F850E00492000010
:402FC000719CFF1F1C920000CDCCCCCC089CFF1F249FFF1F109FFF1F7F1A0600FF083D00FF596202FF83D717689DFF1F4A9DFF1F549DFF1FBB6AD3F8A0303A6B02FB03F2BA
:40300000FB6AB2FBF3F3FB87FB8F42F21072934202D942F21073FB87BB6AFA8FA3F88C20BB6AB3F88E30FA8F9A4203D9BB6AFA8FA3F88E20BB6A03F1B001BB6A03F1AC02A1
:4030400007F10A03B86A00F089FB02F0C5FFB861BB6AD3F8B830BB62B86902F0C1FFBB6A002BC7D1104B1B78012B07D10E4B00221A7007F10A031846FFF784FDFDF76EFE05
:4030800002467B69D31AFB60084B1A68FB689A4202D2064AFB68136007F10A031A460021F86901F0FFF9ABE6349FFF1F049CFF1F90B58DB00AAF7860254B00221A60254BEF
:4030C00000221A60244B00221A60244B00221A70234B00221A70234B1B68002B04D17B6846F62B621A802FE01F4B1A681F4B1B689A4204D27B6846F62C621A8024E01C4B71
:403100001B78062B04D97B6846F62A621A801BE0174B1B78134A126816490968124800687C68089403240794002406940024059400240494039002910192009300230E4A10
:403140000E490F4800F01EF80C37BD4690BD00BF089CFF1F249FFF1F109FFF1F719CFF1F349FFF1F089200001092000018920000009200000C9200009D2D000068910000E4
:403180003C9FFF1F80B58CB002AFF860B9607A603B600023BB61794B1B78002B04D03B6D47F24A121A80E6E0FB68002B04D13B6D47F2AD121A80DEE07B68002B04D13B6DF6
:4031C00047F24F121A80D6E07B6B002B04D13B6D46F62F621A80CEE0694B1B68FA6B9A4204D23B6D46F630621A80C4E0BA6BFB6B9A4204D33B6D46F631621A80BBE097F8C7
:403200003030072B04D93B6D46F273221A80B2E097F83030072B08D1FB685A4A934204D03B6D46F273221A80A5E0F86800F0B4FB3B6D00221A80B7F84C3003F00103002B90
:4032400017D0B7F84C3003F00203002B11D07B6BFB6100237B6208E0FB6900221A60FB690433FB617B6A01337B627A6AFB6B9A42F2D3BB6B9B007A6B13447B61B7F84C3032
:403280000193FB6B00937B697A6B3968786804F07BFAF861FB687A689A62FB683A68DA62FB68BA681A62FB6897F8302083F83720FB68FA691A60FB687A699A60FB687A6C15
:4032C0005A657B6C002B04D12F4B1A68FB689A6502E0FB687A6C9A65FB68BA6C5A60FB687A6B5A62FB68FA6B9A63FB68B7F84C209A87002387F823300CE097F82330FA68D0
:403300001E339B00134400225A6097F82330013387F8233097F82330002BEED0FB686433B7F8402011461846FFF75CF9F86804F0F5F902F051FEB861FB6893F83730184663
:40334000FFF7BCF9F868FEF7FFFEF86800F0A0FA0E4B1B8801339AB20C4B1A800C4B1B78012B03D0B86902F03BFE04E0B86902F037FEFEF765FA2837BD4680BD6A9DFF1F80
:40338000189200003C9EFF1F089FFF1F6C9DFF1F0D9CFF1F80B584B000AF786039600023FB60474B1B78002B04D03B6847F24E121A8082E07B68434A934204D13B6847F25F
:4033C0004C121A8079E07B68002B08D102F004FEF8603D4B1B687B60F86802F001FE02F0FBFDF8607B6893F83630072B3CD801A252F823F0153400001D34000025340000C3
:4034000025340000793400001D34000025340000253400007868FEF71FFF2EE0786800F0DFFE2AE0786800F0DBFE7B6893F83430072B17D801A252F823F000BF65340000D7
:403440005D340000653400005D3400005D3400005D3400005D340000653400007868FEF7C5FC00E000BF08E0F86802F0B9FD3B6846F62D621A8020E000BF7B686433184681
:40348000FFF776F8786804F05BF9786800F026FA0E4B1B88013B9AB20C4B1A80786800F07BFA7B68FF2283F83620F86802F098FD3B6800221A80FEF7C3F91037BD4680BD83
:4034C0006A9DFF1F3C9EFF1F449DFF1F6C9DFF1F80B584B000AF786039600023FB60134B1B78002B04D03B6847F255121A8019E002F072FDF8607B68002B04D00C4B1B6847
:403500007A689A4207D1F86802F06AFD3B6847F257121A8006E0F86802F062FD3968786800F006FB1037BD4680BD00BF6A9DFF1F449DFF1F90B587B000AFF8607A603B60F2
:403540000B467B8100237B616F4B1B78002B05D03B6846F2AE121A800023D0E07B89002B08D0B3F5004F05D03B6845F625621A800023C4E000BF7B68002B02D07B6800226D
:403580001A6002F029FD7861604B1B685B6C002B35D05E4B1B685A6C013A5A645B4B1B685B6C3B617B68002B04D0584B1B681A6C7B681A60554B1C68FDF7D0FB0246534B50
:4035C0001B681B6CD31AC4F8A430504B1B68D3F8A8204E4B1B68D3F8A4309A4207D24B4B1B684A4A1268D2F8A420C3F8A820786902F0F6FC3B6800221A803B697FE0B7F914
:403600000A30002B08DA786902F0EAFC3B6846F2B0121A80002372E03D4B1B78002B08D0786902F0DDFC3B6846F663521A80002365E0FB68072200210020FEF779FA786968
:4036400002F0CEFCFEF7FCF802F0C6FC78612F4B1B6893F83530012B2CD0032B37D0002B40D17B68002B21D0284B1B681A6C7B681A60264B1C68FDF771FB0246234B1B682C
:403680001B6CD31AC4F8A430204B1B68D3F8A8201E4B1B68D3F8A4309A4207D21B4B1B681A4A1268D2F8A420C3F8A8203B6800221A801CE07B68002B04D0144B1B681A6CC8
:4036C0007B681A603B6846F2A9121A800FE07B68002B02D07B6800221A603B6847F2D9221A8004E03B6846F62E621A8000BF074B1B685B6C3B61786902F072FC3B69184657
:403700001C37BD4690BD00BF6A9DFF1F449DFF1FFC9BFF1F80B586B000AFF8600B467A607B817B89002B08D0B3F5004F05D07B6845F625621A8000230BE000BFFDF70EFBD9
:40374000786179897B687A69F86800F097FA38613B6918461837BD4680BD00BF80B588B000AFF860B9607A603B6000237B61354B1B78002B04D03B6847F259121A805DE0AD
:40378000BB68002B04D13B6846F2D5221A8055E07B68002B04D13B6846F2D5221A804DE002F01AFC7861FB68002B02D1264B1B68FB60FB681B68002B0DD1786902F010FC6A
:4037C000BB6800221A607B6800221A603B6847F252121A8032E0FB689B8F03F00103002B0DD1786902F0FCFBBB6800221A607B6800221A603B6847F254121A801EE078694F
:4038000002F0EEFB0023FB61FB685B6ABB6105E0BB690433BB61FB690133FB61BB691B68002BF5D0BB68FA691A60FB689A6BFB69D21A7B681A603B6800221A802037BD4635
:4038400080BD00BF6A9DFF1F449DFF1F80B582B000AF786039600C4B1B78002B04D03B6847F25D121A800CE07B68084A934204D13B6847F25B121A8003E03968786800F0D1
:4038800091FA0837BD4680BD6A9DFF1F3C9EFF1F80B483B000AF78607B680022C3F8B4200D4B1B68002B04D17B680022C3F8B82009E0094B1A687B68C3F8B820064B1B68E3
:4038C0007A68C3F8B420044A7B68136000BF0C37BD4680BC704700BF549DFF1F80B485B000AF78607B68D3F8B430FB607B68D3F8B830BB60FB68002B0ED1184ABB681360FA
:40390000BB68002B03D0BB680022C3F8B4207B680022C3F8B8201BE0BB68002B08D1FB680022C3F8B8207B680022C3F8B4200FE0FB68BA68C3F8B820BB68FA68C3F8B42011
:403940007B680022C3F8B8207B680022C3F8B42000BF1437BD4680BC704700BF549DFF1F80B483B000AF7860084B00221A60084B00221A80074B00221A607B6800221A80D4
:4039800000BF0C37BD4680BC704700BF549DFF1F6C9DFF1F649DFF1F80B584B000AF78607B6800221A607B6800229A607B6800225A607B680022DA607B6800221A617B682C
:4039C00000225A617B6800229A617B680022DA617B68554A1A627B6800225A627B6800229A627B680022DA627B6800221A637B680022DA877B6800221A647B680022DA65FA
:403A00007B680022A3F860207B68643300211846FEF7E8FD7B6800225A677B6800229A677B680022C3F880207B680022A3F888207B680022C3F884200023FB7309E0FB7BCB
:403A40007A681E339B00134400225A60FB7B0133FB73FB7B002BF2D07B6800225A647B680022C3F8A4207B680022C3F8A8207B6800229A637B68002283F88A207B680022CA
:403A8000C3F8B0207B680022C3F8AC207B6800229A877B684FF000429A647B680022DA647B6800221A657B6800225A657B6800229A657B680022A3F88C207B680022A3F8EC
:403AC0008E207B680022C3F890207B680022C3F89420FDF743F9B8607B68BA68C3F898207B680022C3F89C207B68002283F834207B68002283F835207B68002283F8362079
:403B00007B68082283F837207B680022C3F8B4207B680022C3F8B8207B68044AC3F8BC2000BF1037BD4680BD7C9100008491000080B584B000AF786039600023FB6002F051
:403B40004BFAF8603B6800221A807B6893F83630072B72D801A252F823F000BF7D3B00007D3B00007D3B00007D3B00008D3B0000BD3B0000E73B0000113C0000F86802F0D9
:403B80002FFA3B6847F253121A805EE07B6893F88A30013BDAB27B6883F88A207B6893F88A30002B06D17B68002283F836207868FEF736FCF86802F013FA46E07B6893F8D1
:403BC0008A30013BDAB27B6883F88A207B6893F88A30002B03D17B68012283F83620F86802F0FEF931E07B6893F88A30013BDAB27B6883F88A207B6893F88A30002B03D1C4
:403C00007B68022283F83620F86802F0E9F91CE07B6893F88A30013BDAB27B6883F88A207B6893F88A30002B03D17B68032283F83620F86802F0D4F907E0F86802F0D0F963
:403C40003B6846F62D621A8001E0FDF7F9FD1037BD4680BD80B582B000AF074B1B68184603F080FDBB1D19460020FFF793FB00BF0837BD4680BD00BF449DFF1F80B588B0ED
:403C800002AFF8607A603B600B467B8100233B6102F0A2F93861FB68002B02D1404B1B68FB60FB687A681A643B6800221A80FB6893F83630072B63D801A252F823F000BFE8
:403CC000E13C0000E13C0000173D0000173D0000E13C0000E13C0000173D0000173D0000FB685B6CB3F1FF3F08D1386902F078F93B6846F6C5521A8000234DE000BFFB6815
:403D00005B6C5A1CFB685A64FB685B6C7B61386902F066F93FE0FB6893F83430072B14D17B68009300230022F9680020FEF7D0F8FB685B6C7B61386902F052F9B7F90A30DE
:403D4000002B27DBFDF77CFD24E0FB685B6CB3F1FF3F08D1386902F043F93B6846F6C5521A80002318E000BFFB685B6C5A1CFB685A64FB685B6C7B61386902F031F909E01A
:403D8000386902F02DF93B6846F62D621A8000237B6100E000BF7B6918461837BD4680BD449DFF1F80B584B000AF786039600023FB6002F011F9F8607B68002B02D13D4B10
:403DC0001B687B603B4B1B687A689A420BD13A4B1B78002B07D0F86802F002F93B6846F663521A8063E03B6800221A807B6893F83630072B51D801A252F823F01D3E000001
:403E00003B3E0000533E00006B3E0000833E0000833E0000833E0000833E00007B68042283F836207B68012283F88A207868FEF713FAF86802F0D4F837E07B68052283F82A
:403E400036207B68012283F88A20F86802F0C8F82BE07B68062283F836207B68012283F88A20F86802F0BCF81FE07B68072283F836207B68012283F88A20F86802F0B0F896
:403E800013E07B6893F88A300133DAB27B6883F88A20F86802F0A4F807E0F86802F0A0F83B6846F62D621A8001E0FDF7C9FC1037BD4680BD449DFF1FFC9BFF1F80B584B01A
:403EC00000AF786007F10E0307F1080200210020FFF730FBFB89002BF4D1034B1B78012BF0D100F0E3F9EDE70D9CFF1F90B58DB00AAF7860214B00221A60214B00221A6002
:403F000000F050F81F4B1B68002B04D17B6847F212221A802FE01C4B1A681C4B1B689A4204D27B6847F213221A8024E0184B1B78062B04D97B6847F211221A801BE0144BA8
:403F40001B78104A1268134909680F4800687C6808940B240794002406940024059400240494039002910192009300230A4A0B490B48FFF707F90C37BD4690BD149FFF1F09
:403F800000A0FF1F249200002C920000189200002092000028920000BD3E000088910000809CFF1F80B483B000AF0023FB8010E0FB88DB000C4A13443B603B6800221A60E2
:403FC0003B6800229A803B680022DA80FB880133FB80064B1B88FA889A42E9D300BF0C37BD4680BC704700BF14A2FF1F3492000080B48BB000AFF860B9603B601346FB8034
:40400000FB88042B1FD1734B1B68BA68D31A013B3B623B6A13F5803F0DD9FB680022DA64FB6800221A65FB680022DA613B6847F27E221A80CAE0FB68BA68DA643B6A5A1C3E
:40404000FB681A6542E0BB68002B31D0FB88082B24D1FB689A6CBB681344FB615D4B1B68FA69D31A013B3B623A6ABB689A4203D2FB68FA69DA6405E0564B1A68BB681A44AA
:40408000FB68DA64FB68DA6C524B1B68D21AFB681A65FB68DA6CFB689A6417E04D4B1A68BB681A44FB68DA64FB68BA681A650DE0FB680022DA64FB6800221A65FB6800224E
:4040C000DA613B6847F27E221A807FE0FB68DB6C414A1288B3FBF2F102FB01F29B1A7B837B8BDB003D4A13447B617B699B88002B0CD1FB6800225A61FB6800229A617B69BF
:40410000FA681A607B6901229A804FE07B691B687B6242E07B6ADA6C2E4B1B68D21A7B6A1A65FB681A6D7B6A1B6D9A4213D97B6A5B69002B03D07B6A5B697B622DE0FB68BA
:4041400000225A61FB687A6A9A617B6AFA685A6100237B6221E07B6A9B69002B0CD1FB6800229A61FB687A6A5A617B6AFA689A617B69FA681A600EE07B6A9B693B61FB68D2
:404180003A699A61FB687A6A5A613B69FA685A617B6AFA689A6100237B627B6A002BB9D17B699B8801339AB27B699A807B69DA887B699B889A4203D27B699A887B69DA80FB
:4041C000FB687A69DA613B6800221A802C37BD4680BC7047149FFF1F3492000014A2FF1F80B487B000AF78607B68DB697B617B69002B35D07B6800221A657B691A687B6845
:404200009A420CD17B685B693B617B693A691A603B69002B12D03B6900229A610EE07B689B693B617B685B69FB603B69FA685A61FB68002B02D0FB683A699A617B68002275
:404240005A617B6800229A617B680022DA617B680022DA647B699B88013B9AB27B699A8000BF1C37BD4680BC704700BF80B483B000AF0023FB800AE0FB88DB00094A134406
:404280003B603B680022DA80FB880133FB80064B1B88FA889A42EFD300BF0C37BD4680BC704700BF14A2FF1F3492000080B588B000AF00237B6101F08FFE7861FCF74EFDFD
:4042C0003861744B1B680133724A1360714B1B68714A1288B3FBF2F102FB01F29B1AFB81FB89DB006D4A1344BB60BB681B68BB610023FB77B4E0BB69002B00F0AF80BB6935
:404300005B697B60BB6993F83630072B00F2A28001A252F823F000BF5544000039430000554400006943000055440000C743000055440000F7430000BB69DA6C554B1B6867
:40434000D21ABB691A65BB69DA6C524B1B689A4207D1BB69002283F83620B869FEF760F879E00123FB7776E0BB69DA6C494B1B68D21ABB691A65BB69DA6C464B1B689A423C
:404380001ED1BB690022DA65BB690022A3F86020FCF7E4FC0246BB691A64B869FDF726FDB869FEF73DF8BB69002283F83620BB69032283F83520BB69002283F834204AE079
:4043C0000123FB7747E0BB69DA6C324B1B68D21ABB691A65BB69DA6C2E4B1B689A4207D1BB69042283F83620B869FFF7F9FE32E00123FB772FE0BB69DA6C264B1B68D21AC3
:40440000BB691A65BB69DA6C224B1B689A421ED1BB690022DA65BB690022A3F86020FCF79DFC0246BB691A64B869FDF7DFFCB869FFF7D6FEBB69042283F83620BB69032219
:4044400083F83520BB69002283F8342003E00123FB7700E000BF7B68BB6101E00123FB77FB7F002B3FF447AFFCF778FC02463B69D31A3B600A4B1A683B689A4202D2084AA4
:404480003B681360786901F0ABFD00BF2037BD4680BD00BF149FFF1F3492000014A2FF1F00A0FF1F80B586B000AFF8600B467A607B8100237B61314B1B78002B04D07B68A5
:4044C00047F275221A8055E02D4B1B78002B04D07B6846F663521A804CE07B89082B1DD801A252F823F000BF0D4500001D4500000D4500001D450000274500001D45000058
:404500001D4500001D4500000D450000FB68002B0BD17B6847F27E221A802BE07B6845F625621A8026E000BF00E000BF01F054FD7861144B1B68012283F83620114B18682A
:404540007A897B68F968FFF753FD7B681B88002B03D0786901F044FD0CE00A4B1B681846FDF77AFE786901F03BFDFDF769F97B6800221A801837BD4680BD00BF6A9DFF1F17
:40458000FC9BFF1F449DFF1F80B588B000AF7B600346FB810B46BB8113467B810023FB61744B1B78002B04D0FB6A47F275221A80DDE0714B1B78002B04D0FB6A46F66352A9
:4045C0001A80D4E03B8D03F00E037B837B8B082B25D801A252F823F0FD4500001F460000FD4500001F460000294600001F4600001F4600001F460000FD4500007B68002B31
:4046000014D17B89002B11D1BB89002B0ED1FB89002B0BD1FB6A47F27E221A80A7E0FB6A45F625621A80A2E000BF00E000BF3B8D23F01E03002B14BF01230023DBB27B76EC
:404640007B7E012B04D1FB6A45F625621A808EE03B8D03F01003002B01D0012300E000233B763B7E012B20D07B68B3F57A7F04D3FB6A47F27B221A8079E07B893B2B04D9CA
:40468000FB6A47F27A221A8071E0BB893B2B04D9FB6A47F279221A8069E0FB89632B17D9FB6A47F278221A8061E0BB8942F20F72934204D9FB6A47F279221A8057E0FB89E4
:4046C000B3F57A7F04D3FB6A47F278221A804EE02A4B1B687B61FB894FF4616202FB03F1BA8913461B019B1A9B00CA187B8913447A6902FB03F24FF4FA717B69B1FBF3F1B7
:404700007B680B44796901FB03F31D49A1FB03139B0913443B613B69002B24D001F05CFCF861184B1B68012283F83620154B18687A8BFB6A3969FFF75BFCFB6A1B88002B19
:4047400003D0F86901F04CFC11E00E4B1B681846FDF782FDF86901F043FCFDF771F8FB6A00221A8003E0FB6A47F27E221A802037BD4680BD6A9DFF1FFC9BFF1F1C92000045
:40478000D34D6210449DFF1F80B582B000AF03F0D3F8BB1D1A4600211248FEF7BBFF124B1B781A4613465B0013449B000F4A13441846FDF7A9FD0E4B1B68013B0C4A1360B3
:4047C0000B4B1B68002B09D10A4B1B68084A1360BB1D1A4600210848FEF79CFF00BF0837BD4680BD809CFF1F7C9CFF1F109CFF1F10A0FF1F04A0FF1F709DFF1F90B58FB04E
:404800000AAF78603B4B00221A603B4B1B68002B08D03A4B1A68384B1B68B2FBF3F3384A136007E0354B1B68364AA2FB0323DB08334A1360324B1B68334A1360334B002294
:404840001A60334B00221A600023FB8110E0FB89DB00304A1344BB60BB6800229A80BB680022DA80BB6800221A60FB890133FB81294B1B88FA899A42E9D3284B1B68002B86
:4048800004D17B6847F247321A802FE0244B1A68244B1B689A4204D27B6847F248321A8024E0214B1B78062B04D97B6847F246321A801BE01C4B1B78184A12681B4909683B
:4048C000174800687C6808940B24079400240694002405940024049403900291019200930023134A13491448FEF74CFC1437BD4690BD00BFFC9FFF1F409200001C9200001C
:4049000004A0FF1FCDCCCCCC10A0FF1F409DFF1F589DFF1FDCAAFF1F54920000449200004C920000189200003C92000048920000814B0000A4910000709DFF1F80B487B081
:4049400000AF78600B467B807B68022283F82A207B88012B07D17B685A6A4F4B1B681A447B689A6112E07B681B6A002B07D17B685A6A494B1B681A447B689A6106E07B6871
:404980001A6A454B1B681A447B689A617B689B69424A1288B3FBF2F102FB01F29B1A7B827B8ADB003E4A1344FB60FB681B68002B0CD17B6800221A617B6800225A61FB6839
:4049C0007A681A60FB6801229A8056E07B689A69314B1B68D21A7B68DA61FB681B687B6142E07B699A692C4B1B68D21A7B69DA617B68DA697B69DB699A4213D97B691B6948
:404A0000002B03D07B691B697B612DE07B6800221A617B687A695A617B697A681A6100237B6121E07B695B69002B0CD17B6800225A617B687A691A617B697A685A61FB6850
:404A40007A681A600EE07B695B69BB607B68BA685A617B687A691A61BB687A681A617B697A685A6100237B617B69002BB9D1FB689B8801339AB2FB689A80FB68DA88FB68E4
:404A80009B889A4203D2FB689A88FB68DA8000BF1C37BD4680BC7047409DFF1F54920000DCAAFF1F80B483B000AF0023FB800AE0FB88DB00094A13443B603B680022DA80F3
:404AC000FB880133FB80064B1B88FA889A42EFD300BF0C37BD4680BC704700BFDCAAFF1F5492000080B487B000AF78607B689B69214A1288B3FBF2F102FB01F29B1AFB829E
:404B0000FB8ADB001D4A13443B613B691A687B689A420CD17B681B69FB603B69FA681A60FB68002B12D0FB6800225A610EE07B685B69FB607B681B69BB60FB68BA681A6195
:404B4000BB68002B02D0BB68FA685A617B68012283F82A207B6800221A617B6800225A613B699B88013B9AB23B699A8000BF1C37BD4680BC704700BF54920000DCAAFF1F6C
:404B800080B58CB000AF786007F10E0307F1080200210020FEF7CEFC07F10E031846FCF7A5FEFCF7DBF87862324B1B680133314A1360304B1B68304A1288B3FBF2F102FB93
:404BC00001F29B1A7B847B8CDB002C4A1344FB61FB691B68BB62002387F82F3031E0BB6A002B2BD0BB6A1B697B61BB6A9A69214B1B689A421ED1B86AFFF774FFBB6A1B8DE3
:404C0000022B04D10121B86AFFF798FE03E0BB6A032283F82A20BB6A9B683B613B69002B05D0BB6ADA683B691146B86A98477B69BB6206E0012387F82F3002E0012387F877
:404C40002F3097F82F30002BC9D0FCF787F802467B6AD31ABB6107F10E031846FCF780FE074B1A68BB699A428ED2054ABB6913608AE700BF409DFF1F54920000DCAAFF1FD4
:404C8000589DFF1F80B400AF00BFBD4680BC704780B582B000AF786001F088FF01F028FF01F032FF01F08EFF01F030FE01F038FF01F0D8FE01F06EFF01F01AFF00BF0837B7
:404CC000BD4680BD80B582B000AF01F0A1FE0346FB71FB79184600F0E1F800BF0837BD4680BD00BF80B500AF01F054FF00BF80BD80B500AF00F086F900BF80BD80B582B0A7
:404D000000AF0346FB71FB79184601F091FE00F00BF800BF0837BD4680BD00BF80B500AF01F0E6FE00BF80BD80B500AF01F0D4FE00BF80BD80B58CB00AAFBB1D00221549F3
:404D40001548FDF71FFDFB88002B01D000231DE0BB1D089303230793002306930023059300230493802303930C2302930B4B01930423009300230A4A0A490B48FEF702FA14
:404D8000FB88002B01D0002300E0012318460837BD4680BD609200008097FF1FC094FF1FF14D000070920000C096FF1F80B584B002AFBB1D00930023002200210348FDF7F9
:404DC00027FD00BF0837BD4680BD00BF8097FF1F80B582B000AFBB1D1A4600210348FDF7EFFD00BF0837BD4680BD00BF8097FF1F80B582B000AF786000F03CF800BF083781
:404E0000BD4680BD80B584B000AF7860124B00221A70124B00221A70114B00221A60114B00221A70104B00221A70104B00221A600F4B00221A60FFF77DFF0346FB73FB7B9D
:404E4000002B01D1002303E07868FFF721FF012318461037BD4680BDA897FF1FBC99FF1FC099FF1FBD99FF1FC49BFF1F68B1FF1F64B1FF1F80B582B000AFFFF797FF00F0FC
:404E80008FF978607B68002BF7D0034A7B68136000F0D6F9F1E700BFC099FF1F80B582B000AF0346FB71524B1B680133504A1360504B1B780A2B00F2908001A252F823F0BC
:404EC000ED4E0000FF4E0000154F00002B4F0000414F00004F4F0000894F0000974F00009F4F0000C14F0000C94F0000FB79752B77D1404B01221A7000F096F971E0FB7972
:404F0000432B03D13B4B02221A706DE0394B00221A7069E0FB79502B03D1364B03221A7062E0344B00221A705EE0FB79722B03D1304B04221A7057E02E4B00221A7053E0F8
:404F4000FB792D4A13602B4B05221A704CE0FB791B021A46284B1B681343274A1360264B1B68002B04D0244B1B68B3F5007F03D9204B00221A7037E01F4B1B681F4A136080
:404F80001C4B06221A702FE0FB791D4A1360194B07221A7028E0174B08221A7024E0FB79184600F025F9144B1B68013B124A1360114B1B68002B16D10E4B09221A7012E084
:404FC0000C4B0A221A700FE0FB792F2B01D100F009F9084B00221A7006E0064B00221A7002E000BF00E000BF00BF0837BD4680BD68B1FF1FA897FF1FAC97FF1FB497FF1F65
:40500000B097FF1F80B582B000AF5D4B1B78002B03D15C4B1B68002B04D05B4B1B680133594A1360564B1B780A2B00F29A8001A252F823F0615000008F5000009D5000002D
:40504000AB500000B9500000CF500000E7500000FD5000000B510000415100004F510000484B1B68002B0CD07520FFF747FE474B01221A70424B01221A70454B00221A6069
:4050800079E0424B00221A70FFF748FE73E04320FFF734FE3A4B02221A706CE05020FFF72DFE374B03221A7065E07220FFF726FE334B04221A705EE0324B1B68FB71FB79C6
:4050C0001846FFF71BFE2E4B05221A7053E02D4B1B681B0AFB71FB791846FFF70FFE284B06221A7047E02B4B1B68FB71FB791846FFF704FE224B07221A703CE00020FFF7B8
:40510000FDFD1F4B08221A7035E0214B1B68224AD35CFB71FB791846FFF7F0FD1C4B1B6801331B4A13601A4B1A68164B1B689A4220D3134B09221A70124B00221A6019E002
:405140000020FFF7DBFD0E4B0A221A7013E02F20FFF7D4FD0A4B00221A70104B00221A7009E0074B00221A70084B00221A70FFF7D5FD00E000BF00BF0837BD4680BD00BFD7
:40518000BC99FF1FC099FF1F64B1FF1FBD99FF1FC89BFF1FB097FF1FC499FF1FC49BFF1F80B582B000AF0B4B1B78012B01D100230CE0084B01221A70074B1A684FF40073EA
:4051C0000649074800F07CF878607B6818460837BD4680BDC49BFF1FB497FF1FC499FF1FB897FF1F80B500AFFFF7F2FD00BF80BD80B483B000AF0346FB71094B1B68B3F538
:40520000007F07D2064B1B685A1C05490A600549FA79CA5400BF0C37BD4680BC704700BFB899FF1FB897FF1F80B400AF034B00221A6000BFBD4680BC704700BFB899FF1FF2
:4052400080B500AF044B1B78002B03D1FFF7DAFEFFF76AFD00BF80BDBD99FF1F80B400AF0E4B00221A600E4B00221A600D4B00221A600D4B00221A600C4B00221A600C4BCF
:4052800000221A600B4B00221A600B4B0B4A1A6001231846BD4680BC704700BF6CB1FF1F70B1FF1F80B1FF1F84B1FF1F7CB1FF1F78B1FF1F74B1FF1FCC9BFF1F785634127A
:4052C00080B588B000AFF860B9607A603B607B68012B01D8002362E0FB68BB61BB687B61BB6901331B789BB21B029AB2BB691B789BB213447B82BB690233BB612A4B1B687B
:405300000133294A1360294B1B680133274A13607B8A013B072B3BD801A252F823F000BF4153000051530000715300009153000091530000915300006153000081530000CF
:405340003B687A687969B86900F068F8F86125E03B687A687969B86900F042F9F8611DE03B687A687969B86900F09AF9F86115E03B687A687969B86900F01EFAF8610DE0BF
:405380003B687A687969B86900F07EFAF86105E0F921786900F018F8F86100BFFB6918462037BD4680BD00BF6CB1FF1F70B1FF1F80B483B000AF0023FB71FB7918460C3760
:4053C000BD4680BC704700BF80B584B000AF78600B46FB70104B1B6801330F4A13603B1D4FF40041184600F033FBFA783B1D1146184600F01BFBFFF7DBFF03461A463B1DC0
:405400001146184600F012FB0423FB60FB6818461037BD4680BD00BF7CB1FF1F80B588B000AFF860B9607A603B607B68042B07D0BB68FE211846FFF7C7FFF861FB69C7E03B
:4054400007F10C03184600F0C3FA03467B837B8B40F20222934207DCB3F5007F11DCA3F20113012B05D80CE0A3F58053013B012B07D9BB68FC211846FFF7A6FFF861FB6964
:40548000A6E000BF07F1080348F20101184600F0DFFA07F108030121184600F0C7FAFFF787FF03461A4607F108031146184600F0BDFA7B8B40F2012293425CD040F20122D8
:4054C000934207DC40F20112934210D0B3F5817F1DD076E041F20102934228D041F20202934262D040F20222934250D069E007F108034FF40071184600F0AAFA07F108038E
:405500000021184600F0A4FA0423FB615CE007F108034FF40071184600F09AFA07F108030021184600F094FA0423FB614CE007F108030121184600F08BFA07F10803022139
:40554000184600F085FA07F108030721184600F07FFA0823FB6107F108030321184600F077FA07F108030821184600F071FAFB690433FB6128E0184B184A1A60BB68042293
:4055800015491846FBF7B4FC0423FB611CE0FFF70FFF03467B61BB6807F1140104221846FBF7A6FC0423FB610EE0DC233B61BB6807F1100104221846FBF79AFC0423FB61D6
:4055C00002E00023FB6100BFFB690433FB61FB6918462037BD4680BDCC9BFF1F7856341280B588B000AFF860B9607A603B607B68082B07D0BB68FE211846FFF7E5FEF861E1
:40560000FB6945E007F10C03184600F0E1F90346BB6107F10C03184600F0F2F97861BB691A1D3B689A4207D9BB68FD211846FFF7CBFEF861FB692BE0174B1B680133164ADB
:405640001360164B1A68BB691344144A136007F1080348F20201184600F0FAF907F108030121184600F0E2F9FFF7A2FE03461A4607F108031146184600F0D8F9BB687969FC
:40568000BA691846FBF734FCBB690433FB61FB6918462037BD4680BD80B1FF1F84B1FF1F90B58DB000AFF860B9607A603B607B68062B06D8FE21B868FFF786FE38623B6A94
:4056C00071E0BB68FB6104233B62BB6807221A70BB68013380221A70BB68023301221A70BB68DC1CFFF764FE03462370BB680433BB600723FB6200237B620023BB6241E00C
:40570000FB681B78BB61FB6804331B781B02FA680332127813447B617B691B02FA680232127813447B617B691B02FA680132127813447B61FB680533FB60FB6A0533FB6222
:405740003A6ABB6913443B623A6A3B689A4208D9FB69BB60FD21B868FFF736FE38623B6A21E07B6A01337B62BA6ABB691344BB627B69BA691946B868FBF7BAFBBA68BB691D
:405780001344BB60FA6A7B689A42B9D9084B1A687B6A1344064A1360064B1A68BB6A1344044A13603B6A18463437BD4690BD00BF80B1FF1F84B1FF1F80B588B000AFF8604B
:4057C000B9607A603B600023FB617B68072B07D8BB68FE211846FFF7F7FDB861BB694BE007F10C03184600F0F3F803467B6107F10C03184600F004F938617B6903F1080284
:405800007B689A4207D0BB68FE211846FFF7DCFDB861BB6930E000F0DFFBF8613B69F9687A691846FBF764FBF86900F0D9FB144B1B680133124A1360124B1A687B69134438
:40584000104A136007F1080348F20301184600F0FFF807F108030121184600F0E7F8FFF7A7FD03461A4607F108031146184600F0DDF80423BB61BB6918462037BD4680BD67
:4058800078B1FF1F74B1FF1F80B58CB000AFF860B9607A603B6000233B627B68062B07D8BB68FE211846FFF78FFDF861FB6977E00723FB620023BB6200237B6246E0FB681F
:4058C0001B78BB61FB6804331B781B02FA680332127813447B617B691B02FA680232127813447B617B691B02FA680132127813447B61FB680533FB60FA6ABB691A447B68F5
:405900009A4207D9BB68FE211846FFF75DFDF861FB6945E0BB6A0133BB627A6ABB6913447B6200F059FB38627B69BA69F9681846FBF7DEFA386A00F053FBFA68BB691344FC
:40594000FB60BA69FB6A13440533FB62FA6A7B689A42B4D9144B1A68BB6A1344124A1360124B1A687B6A1344104A136007F1080348F20801184600F06BF807F10803012178
:40598000184600F053F8FFF713FD03461A4607F108031146184600F049F80423FB61FB6918463037BD4680BD78B1FF1F74B1FF1F80B483B000AF78607B681B68591C7A6895
:4059C00011601B7818460C37BD4680BC704700BF80B584B000AF78607868FFF7E9FF0346FB817868FFF7E4FF0346BB81BB891B029AB2FB8913439BB218461037BD4680BDE3
:405A000080B584B000AF78607868FFF7E1FF0346FB607868FFF7DCFF0346BB60BB681A04FB68134318461037BD4680BD80B483B000AF78600B46FB707B681B68591C7A68C1
:405A40001160FA781A7000BF0C37BD4680BC704780B582B000AF78600B467B807B88DBB219467868FFF7E2FF7B881B0A9BB2DBB219467868FFF7DAFF00BF0837BD4680BD93
:405A800080B582B000AF786039603A680021786803F0E9F900BF0837BD4680BD80B584B000AFF860B9607A607A68B968F86803F0CFF900BF1037BD4680BD00BF80B483B0BC
:405AC00000AF0346FB71FEE780B487B000AF7860396000233B6100237B6127E07B699B007A6813441B68BB60BB68FB73BB6823F0FF03BB6014E03B695B003A6813441B7854
:405B00001A46BB68134419463B695B003A6813445B780B703B6901333B61FB7B013BFB73FB7B002BE7D17B6901337B617B69222BD4D900BF1C37BD4680BC704780B582B0B8
:405B400000AF334B25221A80324B1C221A70324B4FF443721A80314B1C221A70304B02221A704FF0402308221A702E4B03221A702D4B2E4A1278D2B21A702D4B14221A8008
:405B80002C4B41F251221A800023FB7019237B6013E0FB785B00DAB2274B1B78DBB203F00103DBB21343DBB203F00303FB70782001F00AFD7B68013B7B607B68002B02D075
:405BC000FB78032BE5D17B68002B02D10320FFF775FF1A4B4FF480721A80184B07221A70174B00221A70174B48221A70134B00221A70154B02221A70144A144B1B78DBB23D
:405C000043F00303DBB2137000BF0837BD4680BD804000408240004084400040864000400043004000420040A14600400801004922420040204200402542004004400040E2
:405C4000064000400840004001400040A243004080B582B000AF1F4B1B78FB711E4B1B78BB711E4B1B787B711D4AFB7903F00703DBB213701B4AFB791B09DBB21370164A8C
:405C8000BB7943F00303DBB21370144A7B7943F00303DBB21370144BC0221A70134B40221A70134B40221A70124BC0221A70124B20221A700A2000F015FE084A7B79137085
:405CC000054ABB7913700D4B44221A7000BF0837BD4680BDCF010049F8460040F94600406E5800406F5800403D510040095900400B590040285B00402B5B0040765800404A
:405D000080B582B000AF72B6464B61221A70FFF715FF444B01221A70434A434B1B78DBB243F00403DBB213700023FB7113E0FA7913465B0013445B003C4A13443B603B6846
:405D40001A683B689B889BB219461046FFF798FEFB790133FB71FB79062BE8D934494FF09040FFF7B1FE04213248FFF789FE042231493248FFF792FE314A314B1B78DBB2CF
:405D800043F00203DBB213702E4A2E4B1B78DBB243F00203DBB213702B4A2B4B1B78DBB243F04003DBB21370284A284B1B78DBB243F01003DBB21370082225492548FFF75B
:405DC0006DFE0A2224492548FFF768FE0A2224492448FFF763FE0A2223492448FFF75EFE0A2223492348FFF759FE082222492348FFF754FE0A2222492248FFF74FFE224ADC
:405E0000214B1B78DBB243F00803DBB21370FFF71FFF0E220C491D48FFF740FE00BF0837BD4680BD00480040E84600407C9200008C000048007600404C0800480876004030
:405E40000350014013500140A0430040C2430040000800480251004008080048F0510040140800481051004020080048205100402C08004830510040380800484251004008
:405E8000400800486051004022430040B043004080B500AF02F0B0FF03461B680C2B00D1FEE7FEE780B586B000AF224B7B61224B3B61204B7B6135E03B691B68FB603B6978
:405EC0005B68BB603B699B683B6000237B600CE0FB681A68BB681A60BB680433BB60FB680433FB607B6804337B607A683B689A42EED13B69DB683B6000237B6008E0BB680C
:405F000000221A60BB680433BB607B6804337B607A683B689A42F2D13B6910333B617B69013B7B617B69002BC6D102F06BFFFAF7F7F8FEE701000000D892000080B582B01F
:405F400000AF194B194A1A60194A194B1B6843F40073136000237B600FE07B68032B04D8144A7B6852F8233000E0134B13497A6841F822307B6801337B607B682F2BECD917
:405F80000F4B1B78DAB20F4B1A700F4B0B4A1A60FFF7B6FE00F05CFA0C4B00221A6000BF0837BD4680BD00BF0CED00E00004FA0514ED00E000000000915E00000080FF1F31
:405FC000BC760040C480FF1F08ED00E0C080FF1F72B6704762B67047EFF3108072B6704780F31088704730BF704720BF7047B0FA80F0704790FAA0F0B0FA80F0704790FA57
:40600000A0F0704780B483B000AF0346FB71044AFB79137000BF0C37BD4680BC704700BF7164004080B400AF034B1B78DBB21846BD4680BC704700BF7164004080B500AFE0
:40604000282000F02DFC032000F0D0F9052000F027FC032000F0CAF90F2000F021FC032000F0C4F9012000F01BFC022000F0BEF9052000F015FC062000F0A6F80E2000F0E0
:40608000A3F82C2000F0A0F8082000F09DF8012000F09AF80C2000F097F8032000F094F8052000F0FDFB00BF80BD00BF80B500AF0C2000F089F8024B01221A7000BF80BD98
:4060C000D09BFF1F80B500AF064B1B78002B04D1FFF7B4FF034B01221A70FFF7E7FF00BF80BD00BFD19BFF1F80B582B000AF03460A46FB711346BB71FB79032B26D801A2A7
:4061000052F823F01561000023610000316100003F610000BB79803BDBB2184600F054F815E0BB79403BDBB2184600F04DF80EE0BB796C3BDBB2184600F046F807E0BB79FF
:406140002C3BDBB2184600F03FF800E000BF00BF0837BD4680BD00BF80B584B000AF78600123FB737B681B78BB730BE0BB7B184600F010F8FB7B7A6813441B78BB73FB7B87
:406180000133FB73BB7B002BF0D100BF1037BD4680BD00BF80B584B000AF0346FB7100F02DF8FB791B09FB73FB7B184600F0E2F8FB7903F00F03FB73FB7B184600F0DAF813
:4061C00000BF1037BD4680BD80B584B000AF0346FB7100F013F8FB791B09FB73FB7B184600F004F9FB7903F00F03FB73FB7B184600F0FCF800BF1037BD4680BD80B582B07E
:4062000000AF4FF4CA737B60554A554B1B78DBB223F07F03DBB21370524B1B78DBB223F00F03FB704F4AFB7843F00F03DBB213704D4B1B78DBB223F00F03FB704A4AFB7853
:4062400013704A4B1B78DBB223F00F03FB70474AFB781370424A424B1B78DBB223F02003DBB213703E4A3E4B1B78DBB243F04003DBB21370002000F035FB394A384B1B78C0
:40628000DBB243F01003DBB21370012000F02AFB374B1B78FB70324A314B1B78DBB223F01003DBB21370002000F01CFBFB7803F00803FB702A4A2A4B1B78DBB243F01003A5
:4062C000DBB21370012000F00DFB254A244B1B78DBB223F01003DBB21370FB78002B02D10A2000F0FFFA7B68013B7B60FB78002B02D07B68002BBDD1194A194B1B78DBB2D0
:4063000023F04003DBB21370154A154B1B78DBB223F07F03DBB21370124A124B1B78DBB223F00F03DBB213700F4B1B78DBB223F00F03FB700C4AFB7843F00F03DBB213703D
:406340000A4B1B78DBB223F00F03FB70074AFB7843F00F03DBB2137000BF0837BD4680BD205100402251004023510040245100402151004080B582B000AF0346FB711A4A13
:40638000194B1B78DBB243F02003DBB21370164A154B1B78DBB223F04003DBB21370002000F0A0FA104A104B1B78DBB223F00F03DBB213700C490C4B1B78DAB2FB79134364
:4063C000DBB243F01003DBB20B70012000F08AFA054A054B1B78DBB223F01003DBB2137000BF0837BD4680BD2051004080B582B000AF0346FB71154A144B1B78DBB223F08D
:406400006003DBB21370114A104B1B78DBB223F00F03DBB213700D490C4B1B78DAB2FB791343DBB243F01003DBB20B70012000F059FA064A054B1B78DBB223F01003DBB296
:40644000137000BF0837BD4680BD00BF2051004080B483B000AF134B7F221A70124B80221A707F23FB710CE0FB79DB0003F1804303F5F043FA79013AD2B21A70FB79013B2C
:40648000FB71FB79002BEFD1FB79DB0003F1804303F5F04300221A7000BF0C37BD4680BC704700BFD180FF1FD080FF1F80B485B000AF03460A46FB711346BB710123FB607F
:4064C000FB79172B2FD8BB79002B0ED0FB791A01184B1344FA791101164A0A441278D2B242F02002D2B21A700DE0FB791A01114B1344FA7911010F4A0A441278D2B222F03B
:406500002002D2B21A70FB791A010A4B1344FA791101084A0A441278D2B242F00102D2B21A700023FB60FB6818461437BD4680BC704700BF1070004080B485B000AF03461A
:40654000FB710123FB60FB79172B1DD8FB791A01104B1344FA7911010E4A0A441279D2B242F00402D2B21A71FB791A01094B1344FA791101074A0A441278D2B242F0010222
:40658000D2B21A700023FB60FB6818461437BD4680BC70471070004080B485B000AF03460A46FB711346BB710123FB60FB79172B1BD8FB791A01104B13441B78DBB223F04F
:4065C0000E03FB72FB791A010B4B1344BA795200D2B252B202F00E0251B297F90B200A4352B2D2B21A700023FB60FB6818461437BD4680BC704700BF1070004080B485B04D
:4066000000AF0346FB710B46BB8013467B800123FB60BB8841F6FF72934202D14FF40053BB807B8841F6FF72934202D14FF400537B80FB79172B17D8FB79DB0003F18043A4
:4066400003F5EC430433BB60BB68BA881A80FB79DB0003F1804303F5EC430633BB60BB687A881A800023FB60FB6818461437BD4680BC704780B485B000AF03460A46FB71C5
:406680001346BB710123FB60FB79172B07D8FB791A01064B1344BA795A720023FB60FB6818461437BD4680BC704700BF1070004090B484B000AF0446084611461A4623462D
:4066C000FB710346BB710B467B7113463B710123FB60FB79172B34D8FB79DB0003F1804303F5EC43BA7902F07F02D1B27A79D201D2B20A43D2B21A70FB79DB0003F1804335
:4067000003F5EC433A7E1201D1B23A7902F00F02D2B20A43D2B25A70FB79DB0003F1804303F5EC433A7F02F00F02D2B29A70FB79DB0003F1804303F5EC430022DA700023DC
:40674000FB60FB6818461037BD4690BC704700BF80B582B000AFFF23FB7100F03DFF0346BB71104B1B78182B12D90F4B1B78FB710C4B1B78013BDAB20A4B1A70FB79DB0057
:4067800003F1804303F5F0431B78DAB2064B1A70BB79184600F024FFFB7918460837BD4680BD00BFD080FF1FD180FF1F90B484B000AF0446084611461A462346FB710346D7
:4067C000BB800B46BB711346FB700123FB6097F90730002B23DBBB8823F47F6323F00F039BB2002B1BD1FB79DB0003F1804303F5F043BB60BB68BA881A80FB79DB0003F15B
:40680000804303F5F043BA799A70FB79DB0003F1804303F5F043FA78DA700023FB60FB6818461037BD4690BC704700BF80B485B000AF0346FB710B46BB8013467B80012324
:40684000FB6097F90730002B17DBFB79DB0003F1804303F5F0430433BB60BB68BA881A80FB79DB0003F1804303F5F0430633BB60BB687A881A800023FB60FB681846143789
:40688000BD4680BC704700BF80B483B000AF0346FB7101BE00BF0C37BD4680BC704700BF80B582B000AF786008E00C4B1B68184600F08AFE7B68A3F500437B607B68B3F538
:4068C000004FF2D8064B1B687A6802FB03F3184600F07AFE00BF0837BD4680BDE480FF1FDC80FF1F80B582B000AF0346FB80FB88054A127802FB03F3184600F065FE00BF3D
:406900000837BD4680BD00BFE080FF1F80B500AF064B1B78002B04D100F00AF8034B01221A7000F025F800BF80BD00BFD29BFF1F80B400AF094B72221A70094B20221A701E
:40694000084B06221A70084B47221A70074B03221A7000BFBD4680BC704700BF876400408665004028640040386400408865004080B582B000AF00F02FFE0346FB71114AE9
:40698000104B1B78DBB243F02003DBB213700E4A0D4B1B78DBB243F01003DBB213700B4A0A4B1B78DBB243F01003DBB2137000F035F9FB79184600F013FE00BF0837BD46BE
:4069C00080BD00BF97640040966500409865004080B483B000AF044B1B78FB71FB7918460C37BD4680BC70474765004080B483B000AF064B1B78DBB203F07F03FB71FB79B1
:406A000018460C37BD4680BC704700BF6665004098B500AFFFF7EAFF03461B021CB2FFF7D7FF03461BB223431BB29BB2184698BD80B483B000AF0346FB7100BF074B1B7862
:406A4000DBB203F00403002BF8D1054AFB79137000BF0C37BD4680BC704700BF686500404865004080B500AF00F042F8044800F00FF8072000F01EF800F02EF800BF80BD14
:406A8000856A000080B500AFFEF732F900BF80BD80B485B000AF7860054B1B68FB60FB6844337A681A6000BF1437BD4680BC704708ED00E080B483B000AF0346FB71054AA4
:406AC000FB795B01DBB2137000BF0C37BD4680BC704700BF01E400E080B400AF034B02221A6000BFBD4680BC704700BF00E100E080B400AF034B02221A6000BFBD4680BC69
:406B0000704700BF80E100E080B400AF034B02221A6000BFBD4680BC704700BF80E200E080B500AF00F042F8044800F00FF8072000F01EF800F02EF800BF80BD416B0000DD
:406B400080B500AFFEF7BEF800BF80BD80B485B000AF7860054B1B68FB60FB6840337A681A6000BF1437BD4680BC704708ED00E080B483B000AF0346FB71054AFB795B017B
:406B8000DBB2137000BF0C37BD4680BC704700BF00E400E080B400AF034B01221A6000BFBD4680BC704700BF00E100E080B400AF034B01221A6000BFBD4680BC704700BF05
:406BC00080E100E080B400AF034B01221A6000BFBD4680BC704700BF80E200E080B400AF054B1B78DBB203F020035B09DBB21846BD4680BC704700BFF151004080B400AFFE
:406C0000054B1B78DBB203F004039B08DBB21846BD4680BC704700BF6151004080B400AF094A094B1B78DBB243F00203DBB21370064A064B1B78DBB243F00203DBB21370BA
:406C400000BFBD4680BC7047A2430040B243004080B400AF054B1B78DBB203F08003DB09DBB21846BD4680BC704700BF8245004080B400AF044B1B78DBB203F00103DBB2DB
:406C80001846BD4680BC70473151004080B485B000AF0346FB710A4B1B78DBB223F00103FB730749FB7903F00103DAB2FB7B1343DBB20B7000BF1437BD4680BC704700BF1D
:406CC0000051004080B485B000AF0346FB710B4B1B78DBB223F00203FB730849FB795B00DBB203F00203DAB2FB7B1343DBB20B7000BF1437BD4680BC704700BF00510040E5
:406D000080B485B000AF0346FB710B4B1B78DBB223F00403FB730849FB799B00DBB203F00403DAB2FB7B1343DBB20B7000BF1437BD4680BC704700BF0051004080B485B088
:406D400000AF0346FB710B4B1B78DBB223F00803FB730849FB79DB00DBB203F00803DAB2FB7B1343DBB20B7000BF1437BD4680BC704700BF0051004080B400AF054B1B780C
:406D8000DBB203F002035B08DBB21846BD4680BC704700BF3151004080B400AF054B1B78DBB203F004039B08DBB21846BD4680BC704700BF3151004080B400AF054B1B7871
:406DC000DBB203F00803DB08DBB21846BD4680BC704700BF3151004080B400AF054B1B78DBB203F00803DB08DBB21846BD4680BC704700BF8345004080B485B000AF034686
:406E0000FB710B4B1B78DBB223F01003FB730849FB791B01DBB203F01003DAB2FB7B1343DBB20B7000BF1437BD4680BC704700BF0051004080B582B000AF786000F03CF8A6
:406E4000786800F009F8072000F018F800F028F800BF0837BD4680BD80B485B000AF7860054B1B68FB60FB685C337A681A6000BF1437BD4680BC704708ED00E080B483B024
:406E800000AF0346FB71054AFB795B01DBB2137000BF0C37BD4680BC704700BF07E400E080B400AF034B80221A6000BFBD4680BC704700BF00E100E080B400AF034B802268
:406EC0001A6000BFBD4680BC704700BF80E100E080B582B000AF786000F03CF8786800F009F8072000F018F800F028F800BF0837BD4680BD80B485B000AF7860054B1B6848
:406F0000FB60FB6858337A681A6000BF1437BD4680BC704708ED00E080B483B000AF0346FB71054AFB795B01DBB2137000BF0C37BD4680BC704700BF06E400E080B400AF79
:406F4000034B40221A6000BFBD4680BC704700BF00E100E080B400AF034B40221A6000BFBD4680BC704700BF80E100E080B400AF054B1B78DBB203F004039B08DBB2184615
:406F8000BD4680BC704700BF8145004080B582B000AF786000F03CF8786800F009F8072000F018F800F028F800BF0837BD4680BD80B485B000AF7860054B1B68FB60FB683D
:406FC00054337A681A6000BF1437BD4680BC704708ED00E080B483B000AF0346FB71054AFB795B01DBB2137000BF0C37BD4680BC704700BF05E400E080B400AF034B2022EC
:407000001A6000BFBD4680BC704700BF00E100E080B400AF034B20221A6000BFBD4680BC704700BF80E100E080B485B000AF0346FB710A4B1B78DBB223F00103FB730749E8
:40704000FB7903F00103DAB2FB7B1343DBB20B7000BF1437BD4680BC704700BF4051004080B500AF41F6FF734FF480420121022000F010FA03461A460A4B1A7041F6FF73B4
:4070800041F6FF720121042000F036FA03461A46054B1A70054800F061FA022000F070FA00BF80BDD89BFF1FD99BFF1F8172000080B582B000AF414B1B781846FFF73CFA5A
:4070C0003F4B1B781846FFF737FA3E4B1B78FF2B05D1FFF73DFB03461A463A4B1A70394B1878384B1A7806230421FFF75FFB354B1B78354A92B245F6A2311846FFF796FB5C
:407100002E4B1A782F4B1B7819461046FFF7B2FA2E4B1B78FF2B05D1FFF71AFB03461A462A4B1A70294B1878284B1A7807230421FFF73CFB254B1B78234A91B2244A92B237
:407140001846FFF773FB1E4B1A78204B1B7819461046FFF78FFA194B1B7801211846FFF7A5F9174B1B7801211846FFF79FF900F033FA0346FB71174A164B1B78DBB243F02B
:407180002003DBB21370FB79184600F029FA124A114B1B78DBB243F00103DBB213700E4A0D4B1B78DBB243F00203DBB213700B4B04221A6000BF0837BD4680BDD89BFF1FBB
:4071C000D99BFF1FE880FF1FDC9BFF1FE980FF1F88B1FF1F936400407765004080E200E080B500AF084B1B68002B04D1FFF738FF054B01221A6000F049F8FFF759FF034BCE
:407200001B7800BF80BD00BFD49BFF1F6464004080B500AF00F0EEF800BF80BD80B485B000AF0346FB71074B1B78FB73FB7B002B02D1FB79002BF6D0FB7B18461437BD469A
